{
  "_format": "hh-sol-artifact-1",
  "contractName": "WrappedJingle",
  "sourceName": "contracts/WrappedJingle.sol",
  "abi": [
    {
      "inputs": [],
      "stateMutability": "nonpayable",
      "type": "constructor"
    },
    {
      "anonymous": false,
      "inputs": [
        {
          "indexed": true,
          "internalType": "address",
          "name": "owner",
          "type": "address"
        },
        {
          "indexed": true,
          "internalType": "address",
          "name": "approved",
          "type": "address"
        },
        {
          "indexed": true,
          "internalType": "uint256",
          "name": "tokenId",
          "type": "uint256"
        }
      ],
      "name": "Approval",
      "type": "event"
    },
    {
      "anonymous": false,
      "inputs": [
        {
          "indexed": true,
          "internalType": "address",
          "name": "owner",
          "type": "address"
        },
        {
          "indexed": true,
          "internalType": "address",
          "name": "operator",
          "type": "address"
        },
        {
          "indexed": false,
          "internalType": "bool",
          "name": "approved",
          "type": "bool"
        }
      ],
      "name": "ApprovalForAll",
      "type": "event"
    },
    {
      "anonymous": false,
      "inputs": [
        {
          "indexed": true,
          "internalType": "address",
          "name": "from",
          "type": "address"
        },
        {
          "indexed": true,
          "internalType": "address",
          "name": "to",
          "type": "address"
        },
        {
          "indexed": true,
          "internalType": "uint256",
          "name": "tokenId",
          "type": "uint256"
        }
      ],
      "name": "Transfer",
      "type": "event"
    },
    {
      "anonymous": false,
      "inputs": [
        {
          "indexed": true,
          "internalType": "uint256",
          "name": "",
          "type": "uint256"
        },
        {
          "indexed": false,
          "internalType": "uint256",
          "name": "",
          "type": "uint256"
        },
        {
          "indexed": false,
          "internalType": "address",
          "name": "",
          "type": "address"
        }
      ],
      "name": "Unwrapped",
      "type": "event"
    },
    {
      "anonymous": false,
      "inputs": [
        {
          "indexed": true,
          "internalType": "uint256",
          "name": "",
          "type": "uint256"
        },
        {
          "indexed": false,
          "internalType": "uint256",
          "name": "",
          "type": "uint256"
        },
        {
          "indexed": false,
          "internalType": "address",
          "name": "",
          "type": "address"
        }
      ],
      "name": "Wrapped",
      "type": "event"
    },
    {
      "inputs": [],
      "name": "NUM_V0_JINGLES",
      "outputs": [
        {
          "internalType": "uint256",
          "name": "",
          "type": "uint256"
        }
      ],
      "stateMutability": "view",
      "type": "function"
    },
    {
      "inputs": [
        {
          "internalType": "address",
          "name": "to",
          "type": "address"
        },
        {
          "internalType": "uint256",
          "name": "tokenId",
          "type": "uint256"
        }
      ],
      "name": "approve",
      "outputs": [],
      "stateMutability": "nonpayable",
      "type": "function"
    },
    {
      "inputs": [
        {
          "internalType": "address",
          "name": "owner",
          "type": "address"
        }
      ],
      "name": "balanceOf",
      "outputs": [
        {
          "internalType": "uint256",
          "name": "",
          "type": "uint256"
        }
      ],
      "stateMutability": "view",
      "type": "function"
    },
    {
      "inputs": [],
      "name": "baseTokenURI",
      "outputs": [
        {
          "internalType": "string",
          "name": "",
          "type": "string"
        }
      ],
      "stateMutability": "pure",
      "type": "function"
    },
    {
      "inputs": [],
      "name": "contractURI",
      "outputs": [
        {
          "internalType": "string",
          "name": "",
          "type": "string"
        }
      ],
      "stateMutability": "pure",
      "type": "function"
    },
    {
      "inputs": [
        {
          "internalType": "uint256",
          "name": "tokenId",
          "type": "uint256"
        }
      ],
      "name": "getApproved",
      "outputs": [
        {
          "internalType": "address",
          "name": "",
          "type": "address"
        }
      ],
      "stateMutability": "view",
      "type": "function"
    },
    {
      "inputs": [
        {
          "internalType": "address",
          "name": "owner",
          "type": "address"
        },
        {
          "internalType": "address",
          "name": "operator",
          "type": "address"
        }
      ],
      "name": "isApprovedForAll",
      "outputs": [
        {
          "internalType": "bool",
          "name": "",
          "type": "bool"
        }
      ],
      "stateMutability": "view",
      "type": "function"
    },
    {
      "inputs": [],
      "name": "name",
      "outputs": [
        {
          "internalType": "string",
          "name": "",
          "type": "string"
        }
      ],
      "stateMutability": "view",
      "type": "function"
    },
    {
      "inputs": [
        {
          "internalType": "uint256",
          "name": "tokenId",
          "type": "uint256"
        }
      ],
      "name": "ownerOf",
      "outputs": [
        {
          "internalType": "address",
          "name": "",
          "type": "address"
        }
      ],
      "stateMutability": "view",
      "type": "function"
    },
    {
      "inputs": [
        {
          "internalType": "address",
          "name": "from",
          "type": "address"
        },
        {
          "internalType": "address",
          "name": "to",
          "type": "address"
        },
        {
          "internalType": "uint256",
          "name": "tokenId",
          "type": "uint256"
        }
      ],
      "name": "safeTransferFrom",
      "outputs": [],
      "stateMutability": "nonpayable",
      "type": "function"
    },
    {
      "inputs": [
        {
          "internalType": "address",
          "name": "from",
          "type": "address"
        },
        {
          "internalType": "address",
          "name": "to",
          "type": "address"
        },
        {
          "internalType": "uint256",
          "name": "tokenId",
          "type": "uint256"
        },
        {
          "internalType": "bytes",
          "name": "_data",
          "type": "bytes"
        }
      ],
      "name": "safeTransferFrom",
      "outputs": [],
      "stateMutability": "nonpayable",
      "type": "function"
    },
    {
      "inputs": [
        {
          "internalType": "address",
          "name": "operator",
          "type": "address"
        },
        {
          "internalType": "bool",
          "name": "approved",
          "type": "bool"
        }
      ],
      "name": "setApprovalForAll",
      "outputs": [],
      "stateMutability": "nonpayable",
      "type": "function"
    },
    {
      "inputs": [
        {
          "internalType": "bytes4",
          "name": "interfaceId",
          "type": "bytes4"
        }
      ],
      "name": "supportsInterface",
      "outputs": [
        {
          "internalType": "bool",
          "name": "",
          "type": "bool"
        }
      ],
      "stateMutability": "view",
      "type": "function"
    },
    {
      "inputs": [],
      "name": "symbol",
      "outputs": [
        {
          "internalType": "string",
          "name": "",
          "type": "string"
        }
      ],
      "stateMutability": "view",
      "type": "function"
    },
    {
      "inputs": [
        {
          "internalType": "uint256",
          "name": "",
          "type": "uint256"
        },
        {
          "internalType": "address",
          "name": "",
          "type": "address"
        }
      ],
      "name": "tokenMap",
      "outputs": [
        {
          "internalType": "uint256",
          "name": "tokenId",
          "type": "uint256"
        },
        {
          "internalType": "bool",
          "name": "isWrapped",
          "type": "bool"
        }
      ],
      "stateMutability": "view",
      "type": "function"
    },
    {
      "inputs": [
        {
          "internalType": "uint256",
          "name": "_tokenId",
          "type": "uint256"
        }
      ],
      "name": "tokenURI",
      "outputs": [
        {
          "internalType": "string",
          "name": "",
          "type": "string"
        }
      ],
      "stateMutability": "pure",
      "type": "function"
    },
    {
      "inputs": [],
      "name": "totalSupply",
      "outputs": [
        {
          "internalType": "uint256",
          "name": "",
          "type": "uint256"
        }
      ],
      "stateMutability": "view",
      "type": "function"
    },
    {
      "inputs": [
        {
          "internalType": "address",
          "name": "from",
          "type": "address"
        },
        {
          "internalType": "address",
          "name": "to",
          "type": "address"
        },
        {
          "internalType": "uint256",
          "name": "tokenId",
          "type": "uint256"
        }
      ],
      "name": "transferFrom",
      "outputs": [],
      "stateMutability": "nonpayable",
      "type": "function"
    },
    {
      "inputs": [
        {
          "internalType": "uint256",
          "name": "_wrappedTokenId",
          "type": "uint256"
        },
        {
          "internalType": "enum WrappedJingle.Version",
          "name": "_version",
          "type": "uint8"
        }
      ],
      "name": "unwrap",
      "outputs": [],
      "stateMutability": "nonpayable",
      "type": "function"
    },
    {
      "inputs": [
        {
          "internalType": "uint256",
          "name": "_tokenId",
          "type": "uint256"
        },
        {
          "internalType": "enum WrappedJingle.Version",
          "name": "_version",
          "type": "uint8"
        }
      ],
      "name": "wrap",
      "outputs": [],
      "stateMutability": "nonpayable",
      "type": "function"
    }
  ],
  "bytecode": "0x60806040523480156200001157600080fd5b506040518060400160405280600d81526020017f577261707065644a696e676c65000000000000000000000000000000000000008152506040518060400160405280600381526020017f574a4c0000000000000000000000000000000000000000000000000000000000815250816000908051906020019062000096929190620000b8565b508060019080519060200190620000af929190620000b8565b505050620001cd565b828054620000c69062000168565b90600052602060002090601f016020900481019282620000ea576000855562000136565b82601f106200010557805160ff191683800117855562000136565b8280016001018555821562000136579182015b828111156200013557825182559160200191906001019062000118565b5b50905062000145919062000149565b5090565b5b80821115620001645760008160009055506001016200014a565b5090565b600060028204905060018216806200018157607f821691505b602082108114156200019857620001976200019e565b5b50919050565b7f4e487b7100000000000000000000000000000000000000000000000000000000600052602260045260246000fd5b61352d80620001dd6000396000f3fe608060405234801561001057600080fd5b506004361061012c5760003560e01c806370a08231116100ad578063b88d4fde11610071578063b88d4fde14610342578063c87b56dd1461035e578063d547cfb71461038e578063e8a3d485146103ac578063e985e9c5146103ca5761012c565b806370a082311461029e57806395d89b41146102ce578063a09ecfbc146102ec578063a22cb46514610308578063b44da9e8146103245761012c565b806318160ddd116100f457806318160ddd146101fc57806321292e3d1461021a57806323b872dd1461023657806342842e0e146102525780636352211e1461026e5761012c565b806301ffc9a71461013157806306fdde0314610161578063081812fc1461017f578063095ea7b3146101af57806313ac7898146101cb575b600080fd5b61014b600480360381019061014691906123fb565b6103fa565b604051610158919061291f565b60405180910390f35b6101696104dc565b604051610176919061293a565b60405180910390f35b6101996004803603810190610194919061244d565b61056e565b6040516101a69190612858565b60405180910390f35b6101c960048036038101906101c491906123bf565b6105f3565b005b6101e560048036038101906101e09190612476565b61070b565b6040516101f3929190612be0565b60405180910390f35b610204610749565b6040516102119190612b9c565b60405180910390f35b610234600480360381019061022f91906124b2565b61075a565b005b610250600480360381019061024b91906122b9565b610a02565b005b61026c600480360381019061026791906122b9565b610a62565b005b6102886004803603810190610283919061244d565b610a82565b6040516102959190612858565b60405180910390f35b6102b860048036038101906102b3919061222b565b610b34565b6040516102c59190612b9c565b60405180910390f35b6102d6610bec565b6040516102e3919061293a565b60405180910390f35b610306600480360381019061030191906124b2565b610c7e565b005b610322600480360381019061031d9190612383565b610f20565b005b61032c6110a1565b6040516103399190612b9c565b60405180910390f35b61035c60048036038101906103579190612308565b6110a6565b005b6103786004803603810190610373919061244d565b611108565b604051610385919061293a565b60405180910390f35b610396611142565b6040516103a3919061293a565b60405180910390f35b6103b4611162565b6040516103c1919061293a565b60405180910390f35b6103e460048036038101906103df919061227d565b611182565b6040516103f1919061291f565b60405180910390f35b60007f80ac58cd000000000000000000000000000000000000000000000000000000007bffffffffffffffffffffffffffffffffffffffffffffffffffffffff1916827bffffffffffffffffffffffffffffffffffffffffffffffffffffffff191614806104c557507f5b5e139f000000000000000000000000000000000000000000000000000000007bffffffffffffffffffffffffffffffffffffffffffffffffffffffff1916827bffffffffffffffffffffffffffffffffffffffffffffffffffffffff1916145b806104d557506104d482611216565b5b9050919050565b6060600080546104eb90612e13565b80601f016020809104026020016040519081016040528092919081815260200182805461051790612e13565b80156105645780601f1061053957610100808354040283529160200191610564565b820191906000526020600020905b81548152906001019060200180831161054757829003601f168201915b5050505050905090565b600061057982611280565b6105b8576040517f08c379a00000000000000000000000000000000000000000000000000000000081526004016105af90612adc565b60405180910390fd5b6004600083815260200190815260200160002060009054906101000a900473ffffffffffffffffffffffffffffffffffffffff169050919050565b60006105fe82610a82565b90508073ffffffffffffffffffffffffffffffffffffffff168373ffffffffffffffffffffffffffffffffffffffff16141561066f576040517f08c379a000000000000000000000000000000000000000000000000000000000815260040161066690612b1c565b60405180910390fd5b8073ffffffffffffffffffffffffffffffffffffffff1661068e6112ec565b73ffffffffffffffffffffffffffffffffffffffff1614806106bd57506106bc816106b76112ec565b611182565b5b6106fc576040517f08c379a00000000000000000000000000000000000000000000000000000000081526004016106f390612a3c565b60405180910390fd5b61070683836112f4565b505050565b6008602052816000526040600020602052806000526040600020600091509150508060000154908060010160009054906101000a900460ff16905082565b600061075560076113ad565b905090565b6000610765826113bb565b9050600061077284610a82565b90503373ffffffffffffffffffffffffffffffffffffffff168173ffffffffffffffffffffffffffffffffffffffff16146107e2576040517f08c379a00000000000000000000000000000000000000000000000000000000081526004016107d990612b5c565b60405180910390fd5b6107eb8461146e565b6107f560076114c1565b60006008600086815260200190815260200160002060008473ffffffffffffffffffffffffffffffffffffffff1673ffffffffffffffffffffffffffffffffffffffff168152602001908152602001600020604051806040016040529081600082015481526020016001820160009054906101000a900460ff161515151581525050905080602001516108bd576040517f08c379a00000000000000000000000000000000000000000000000000000000081526004016108b490612b7c565b60405180910390fd5b6000816020019015159081151581525050806008600087815260200190815260200160002060008573ffffffffffffffffffffffffffffffffffffffff1673ffffffffffffffffffffffffffffffffffffffff1681526020019081526020016000206000820151816000015560208201518160010160006101000a81548160ff0219169083151502179055509050508273ffffffffffffffffffffffffffffffffffffffff1663a9059cbb3383600001516040518363ffffffff1660e01b815260040161098b9291906128f6565b600060405180830381600087803b1580156109a557600080fd5b505af11580156109b9573d6000803e3d6000fd5b50505050847f175e3dad2e6c10f120d3216de54ebe7abeee5b7f33c8941af43e73a0315e4a808260000151856040516109f3929190612bb7565b60405180910390a25050505050565b610a13610a0d6112ec565b8261151d565b610a52576040517f08c379a0000000000000000000000000000000000000000000000000000000008152600401610a4990612b3c565b60405180910390fd5b610a5d8383836115fb565b505050565b610a7d838383604051806020016040528060008152506110a6565b505050565b6000806002600084815260200190815260200160002060009054906101000a900473ffffffffffffffffffffffffffffffffffffffff169050600073ffffffffffffffffffffffffffffffffffffffff168173ffffffffffffffffffffffffffffffffffffffff161415610b2b576040517f08c379a0000000000000000000000000000000000000000000000000000000008152600401610b2290612a7c565b60405180910390fd5b80915050919050565b60008073ffffffffffffffffffffffffffffffffffffffff168273ffffffffffffffffffffffffffffffffffffffff161415610ba5576040517f08c379a0000000000000000000000000000000000000000000000000000000008152600401610b9c90612a5c565b60405180910390fd5b600360008373ffffffffffffffffffffffffffffffffffffffff1673ffffffffffffffffffffffffffffffffffffffff168152602001908152602001600020549050919050565b606060018054610bfb90612e13565b80601f0160208091040260200160405190810160405280929190818152602001828054610c2790612e13565b8015610c745780601f10610c4957610100808354040283529160200191610c74565b820191906000526020600020905b815481529060010190602001808311610c5757829003601f168201915b5050505050905090565b6000610c89826113bb565b905060008173ffffffffffffffffffffffffffffffffffffffff16636352211e856040518263ffffffff1660e01b8152600401610cc69190612b9c565b60206040518083038186803b158015610cde57600080fd5b505afa158015610cf2573d6000803e3d6000fd5b505050506040513d601f19601f82011682018060405250810190610d169190612254565b9050610d228484611857565b610d61576040517f08c379a0000000000000000000000000000000000000000000000000000000008152600401610d58906129bc565b60405180910390fd5b3373ffffffffffffffffffffffffffffffffffffffff168173ffffffffffffffffffffffffffffffffffffffff1614610dcf576040517f08c379a0000000000000000000000000000000000000000000000000000000008152600401610dc690612b5c565b60405180910390fd5b8173ffffffffffffffffffffffffffffffffffffffff166323b872dd3330876040518463ffffffff1660e01b8152600401610e0c93929190612873565b600060405180830381600087803b158015610e2657600080fd5b505af1158015610e3a573d6000803e3d6000fd5b505050506000610e486118ef565b90506040518060400160405280868152602001600115158152506008600083815260200190815260200160002060008573ffffffffffffffffffffffffffffffffffffffff1673ffffffffffffffffffffffffffffffffffffffff1681526020019081526020016000206000820151816000015560208201518160010160006101000a81548160ff021916908315150217905550905050807ff90572efd1ab4fb9c6b9dabfd24d103ce15482a9ec0c50e0e32618708783b15b8685604051610f11929190612bb7565b60405180910390a25050505050565b610f286112ec565b73ffffffffffffffffffffffffffffffffffffffff168273ffffffffffffffffffffffffffffffffffffffff161415610f96576040517f08c379a0000000000000000000000000000000000000000000000000000000008152600401610f8d906129fc565b60405180910390fd5b8060056000610fa36112ec565b73ffffffffffffffffffffffffffffffffffffffff1673ffffffffffffffffffffffffffffffffffffffff16815260200190815260200160002060008473ffffffffffffffffffffffffffffffffffffffff1673ffffffffffffffffffffffffffffffffffffffff16815260200190815260200160002060006101000a81548160ff0219169083151502179055508173ffffffffffffffffffffffffffffffffffffffff166110506112ec565b73ffffffffffffffffffffffffffffffffffffffff167f17307eab39ab6107e8899845ad3d59bd9653f200f220920489ca2b5937696c3183604051611095919061291f565b60405180910390a35050565b603681565b6110b76110b16112ec565b8361151d565b6110f6576040517f08c379a00000000000000000000000000000000000000000000000000000000081526004016110ed90612b3c565b60405180910390fd5b6111028484848461192c565b50505050565b6060611112611142565b61111b83611988565b60405160200161112c929190612834565b6040516020818303038152906040529050919050565b60606040518060600160405280602981526020016134cf60299139905090565b60606040518060600160405280602181526020016134ae60219139905090565b6000600560008473ffffffffffffffffffffffffffffffffffffffff1673ffffffffffffffffffffffffffffffffffffffff16815260200190815260200160002060008373ffffffffffffffffffffffffffffffffffffffff1673ffffffffffffffffffffffffffffffffffffffff16815260200190815260200160002060009054906101000a900460ff16905092915050565b60007f01ffc9a7000000000000000000000000000000000000000000000000000000007bffffffffffffffffffffffffffffffffffffffffffffffffffffffff1916827bffffffffffffffffffffffffffffffffffffffffffffffffffffffff1916149050919050565b60008073ffffffffffffffffffffffffffffffffffffffff166002600084815260200190815260200160002060009054906101000a900473ffffffffffffffffffffffffffffffffffffffff1673ffffffffffffffffffffffffffffffffffffffff1614159050919050565b600033905090565b816004600083815260200190815260200160002060006101000a81548173ffffffffffffffffffffffffffffffffffffffff021916908373ffffffffffffffffffffffffffffffffffffffff160217905550808273ffffffffffffffffffffffffffffffffffffffff1661136783610a82565b73ffffffffffffffffffffffffffffffffffffffff167f8c5be1e5ebec7d5bd14f71427d1e84f3dd0314c0f7b2291e5b200ac8c7c3b92560405160405180910390a45050565b600081600001549050919050565b60008060018111156113f6577f4e487b7100000000000000000000000000000000000000000000000000000000600052602160045260246000fd5b82600181111561142f577f4e487b7100000000000000000000000000000000000000000000000000000000600052602160045260246000fd5b141561145157735af7af54e8bc34b293e356ef11fffe51d6f9ae789050611469565b735b6660ca047cc351bfedca4fc864d0a88f55148590505b919050565b61147781611b35565b600060066000838152602001908152602001600020805461149790612e13565b9050146114be576006600082815260200190815260200160002060006114bd919061204d565b5b50565b6000816000015490506000811161150d576040517f08c379a00000000000000000000000000000000000000000000000000000000081526004016115049061295c565b60405180910390fd5b6001810382600001819055505050565b600061152882611280565b611567576040517f08c379a000000000000000000000000000000000000000000000000000000000815260040161155e90612a1c565b60405180910390fd5b600061157283610a82565b90508073ffffffffffffffffffffffffffffffffffffffff168473ffffffffffffffffffffffffffffffffffffffff1614806115e157508373ffffffffffffffffffffffffffffffffffffffff166115c98461056e565b73ffffffffffffffffffffffffffffffffffffffff16145b806115f257506115f18185611182565b5b91505092915050565b8273ffffffffffffffffffffffffffffffffffffffff1661161b82610a82565b73ffffffffffffffffffffffffffffffffffffffff1614611671576040517f08c379a000000000000000000000000000000000000000000000000000000000815260040161166890612afc565b60405180910390fd5b600073ffffffffffffffffffffffffffffffffffffffff168273ffffffffffffffffffffffffffffffffffffffff1614156116e1576040517f08c379a00000000000000000000000000000000000000000000000000000000081526004016116d8906129dc565b60405180910390fd5b6116ec838383611c46565b6116f76000826112f4565b6001600360008573ffffffffffffffffffffffffffffffffffffffff1673ffffffffffffffffffffffffffffffffffffffff16815260200190815260200160002060008282546117479190612d29565b925050819055506001600360008473ffffffffffffffffffffffffffffffffffffffff1673ffffffffffffffffffffffffffffffffffffffff168152602001908152602001600020600082825461179e9190612ca2565b92505081905550816002600083815260200190815260200160002060006101000a81548173ffffffffffffffffffffffffffffffffffffffff021916908373ffffffffffffffffffffffffffffffffffffffff160217905550808273ffffffffffffffffffffffffffffffffffffffff168473ffffffffffffffffffffffffffffffffffffffff167fddf252ad1be2c89b69c2b068fc378daa952ba7f163c4a11628f55a4df523b3ef60405160405180910390a4505050565b6000806001811115611892577f4e487b7100000000000000000000000000000000000000000000000000000000600052602160045260246000fd5b8260018111156118cb577f4e487b7100000000000000000000000000000000000000000000000000000000600052602160045260246000fd5b14156118e45760368311156118e357600090506118e9565b5b600190505b92915050565b60006118fb6007611c4b565b600061190760076113ad565b90506119133382611c61565b6119258161192083611108565b611e2f565b8091505090565b6119378484846115fb565b61194384848484611ea3565b611982576040517f08c379a00000000000000000000000000000000000000000000000000000000081526004016119799061297c565b60405180910390fd5b50505050565b606060008214156119d0576040518060400160405280600181526020017f30000000000000000000000000000000000000000000000000000000000000008152509050611b30565b600082905060005b60008214611a025780806119eb90612e76565b915050600a826119fb9190612cf8565b91506119d8565b60008167ffffffffffffffff811115611a44577f4e487b7100000000000000000000000000000000000000000000000000000000600052604160045260246000fd5b6040519080825280601f01601f191660200182016040528015611a765781602001600182028036833780820191505090505b5090505b60008514611b2957600182611a8f9190612d29565b9150600a85611a9e9190612ebf565b6030611aaa9190612ca2565b60f81b818381518110611ae6577f4e487b7100000000000000000000000000000000000000000000000000000000600052603260045260246000fd5b60200101907effffffffffffffffffffffffffffffffffffffffffffffffffffffffffffff1916908160001a905350600a85611b229190612cf8565b9450611a7a565b8093505050505b919050565b6000611b4082610a82565b9050611b4e81600084611c46565b611b596000836112f4565b6001600360008373ffffffffffffffffffffffffffffffffffffffff1673ffffffffffffffffffffffffffffffffffffffff1681526020019081526020016000206000828254611ba99190612d29565b925050819055506002600083815260200190815260200160002060006101000a81549073ffffffffffffffffffffffffffffffffffffffff021916905581600073ffffffffffffffffffffffffffffffffffffffff168273ffffffffffffffffffffffffffffffffffffffff167fddf252ad1be2c89b69c2b068fc378daa952ba7f163c4a11628f55a4df523b3ef60405160405180910390a45050565b505050565b6001816000016000828254019250508190555050565b600073ffffffffffffffffffffffffffffffffffffffff168273ffffffffffffffffffffffffffffffffffffffff161415611cd1576040517f08c379a0000000000000000000000000000000000000000000000000000000008152600401611cc890612abc565b60405180910390fd5b611cda81611280565b15611d1a576040517f08c379a0000000000000000000000000000000000000000000000000000000008152600401611d119061299c565b60405180910390fd5b611d2660008383611c46565b6001600360008473ffffffffffffffffffffffffffffffffffffffff1673ffffffffffffffffffffffffffffffffffffffff1681526020019081526020016000206000828254611d769190612ca2565b92505081905550816002600083815260200190815260200160002060006101000a81548173ffffffffffffffffffffffffffffffffffffffff021916908373ffffffffffffffffffffffffffffffffffffffff160217905550808273ffffffffffffffffffffffffffffffffffffffff16600073ffffffffffffffffffffffffffffffffffffffff167fddf252ad1be2c89b69c2b068fc378daa952ba7f163c4a11628f55a4df523b3ef60405160405180910390a45050565b611e3882611280565b611e77576040517f08c379a0000000000000000000000000000000000000000000000000000000008152600401611e6e90612a9c565b60405180910390fd5b80600660008481526020019081526020016000209080519060200190611e9e92919061208d565b505050565b6000611ec48473ffffffffffffffffffffffffffffffffffffffff1661203a565b1561202d578373ffffffffffffffffffffffffffffffffffffffff1663150b7a02611eed6112ec565b8786866040518563ffffffff1660e01b8152600401611f0f94939291906128aa565b602060405180830381600087803b158015611f2957600080fd5b505af1925050508015611f5a57506040513d601f19601f82011682018060405250810190611f579190612424565b60015b611fdd573d8060008114611f8a576040519150601f19603f3d011682016040523d82523d6000602084013e611f8f565b606091505b50600081511415611fd5576040517f08c379a0000000000000000000000000000000000000000000000000000000008152600401611fcc9061297c565b60405180910390fd5b805181602001fd5b63150b7a0260e01b7bffffffffffffffffffffffffffffffffffffffffffffffffffffffff1916817bffffffffffffffffffffffffffffffffffffffffffffffffffffffff191614915050612032565b600190505b949350505050565b600080823b905060008111915050919050565b50805461205990612e13565b6000825580601f1061206b575061208a565b601f0160209004906000526020600020908101906120899190612113565b5b50565b82805461209990612e13565b90600052602060002090601f0160209004810192826120bb5760008555612102565b82601f106120d457805160ff1916838001178555612102565b82800160010185558215612102579182015b828111156121015782518255916020019190600101906120e6565b5b50905061210f9190612113565b5090565b5b8082111561212c576000816000905550600101612114565b5090565b600061214361213e84612c2e565b612c09565b90508281526020810184848401111561215b57600080fd5b612166848285612dd1565b509392505050565b60008135905061217d81613441565b92915050565b60008151905061219281613441565b92915050565b6000813590506121a781613458565b92915050565b6000813590506121bc8161346f565b92915050565b6000815190506121d18161346f565b92915050565b600082601f8301126121e857600080fd5b81356121f8848260208601612130565b91505092915050565b60008135905061221081613486565b92915050565b60008135905061222581613496565b92915050565b60006020828403121561223d57600080fd5b600061224b8482850161216e565b91505092915050565b60006020828403121561226657600080fd5b600061227484828501612183565b91505092915050565b6000806040838503121561229057600080fd5b600061229e8582860161216e565b92505060206122af8582860161216e565b9150509250929050565b6000806000606084860312156122ce57600080fd5b60006122dc8682870161216e565b93505060206122ed8682870161216e565b92505060406122fe86828701612216565b9150509250925092565b6000806000806080858703121561231e57600080fd5b600061232c8782880161216e565b945050602061233d8782880161216e565b935050604061234e87828801612216565b925050606085013567ffffffffffffffff81111561236b57600080fd5b612377878288016121d7565b91505092959194509250565b6000806040838503121561239657600080fd5b60006123a48582860161216e565b92505060206123b585828601612198565b9150509250929050565b600080604083850312156123d257600080fd5b60006123e08582860161216e565b92505060206123f185828601612216565b9150509250929050565b60006020828403121561240d57600080fd5b600061241b848285016121ad565b91505092915050565b60006020828403121561243657600080fd5b6000612444848285016121c2565b91505092915050565b60006020828403121561245f57600080fd5b600061246d84828501612216565b91505092915050565b6000806040838503121561248957600080fd5b600061249785828601612216565b92505060206124a88582860161216e565b9150509250929050565b600080604083850312156124c557600080fd5b60006124d385828601612216565b92505060206124e485828601612201565b9150509250929050565b6124f781612d5d565b82525050565b61250681612d6f565b82525050565b600061251782612c5f565b6125218185612c75565b9350612531818560208601612de0565b61253a81612fac565b840191505092915050565b600061255082612c6a565b61255a8185612c86565b935061256a818560208601612de0565b61257381612fac565b840191505092915050565b600061258982612c6a565b6125938185612c97565b93506125a3818560208601612de0565b80840191505092915050565b60006125bc601b83612c86565b91506125c782612fbd565b602082019050919050565b60006125df603283612c86565b91506125ea82612fe6565b604082019050919050565b6000612602601c83612c86565b915061260d82613035565b602082019050919050565b6000612625601383612c86565b91506126308261305e565b602082019050919050565b6000612648602483612c86565b915061265382613087565b604082019050919050565b600061266b601983612c86565b9150612676826130d6565b602082019050919050565b600061268e602c83612c86565b9150612699826130ff565b604082019050919050565b60006126b1603883612c86565b91506126bc8261314e565b604082019050919050565b60006126d4602a83612c86565b91506126df8261319d565b604082019050919050565b60006126f7602983612c86565b9150612702826131ec565b604082019050919050565b600061271a602e83612c86565b91506127258261323b565b604082019050919050565b600061273d602083612c86565b91506127488261328a565b602082019050919050565b6000612760602c83612c86565b915061276b826132b3565b604082019050919050565b6000612783602983612c86565b915061278e82613302565b604082019050919050565b60006127a6602183612c86565b91506127b182613351565b604082019050919050565b60006127c9603183612c86565b91506127d4826133a0565b604082019050919050565b60006127ec600f83612c86565b91506127f7826133ef565b602082019050919050565b600061280f601183612c86565b915061281a82613418565b602082019050919050565b61282e81612dc7565b82525050565b6000612840828561257e565b915061284c828461257e565b91508190509392505050565b600060208201905061286d60008301846124ee565b92915050565b600060608201905061288860008301866124ee565b61289560208301856124ee565b6128a26040830184612825565b949350505050565b60006080820190506128bf60008301876124ee565b6128cc60208301866124ee565b6128d96040830185612825565b81810360608301526128eb818461250c565b905095945050505050565b600060408201905061290b60008301856124ee565b6129186020830184612825565b9392505050565b600060208201905061293460008301846124fd565b92915050565b600060208201905081810360008301526129548184612545565b905092915050565b60006020820190508181036000830152612975816125af565b9050919050565b60006020820190508181036000830152612995816125d2565b9050919050565b600060208201905081810360008301526129b5816125f5565b9050919050565b600060208201905081810360008301526129d581612618565b9050919050565b600060208201905081810360008301526129f58161263b565b9050919050565b60006020820190508181036000830152612a158161265e565b9050919050565b60006020820190508181036000830152612a3581612681565b9050919050565b60006020820190508181036000830152612a55816126a4565b9050919050565b60006020820190508181036000830152612a75816126c7565b9050919050565b60006020820190508181036000830152612a95816126ea565b9050919050565b60006020820190508181036000830152612ab58161270d565b9050919050565b60006020820190508181036000830152612ad581612730565b9050919050565b60006020820190508181036000830152612af581612753565b9050919050565b60006020820190508181036000830152612b1581612776565b9050919050565b60006020820190508181036000830152612b3581612799565b9050919050565b60006020820190508181036000830152612b55816127bc565b9050919050565b60006020820190508181036000830152612b75816127df565b9050919050565b60006020820190508181036000830152612b9581612802565b9050919050565b6000602082019050612bb16000830184612825565b92915050565b6000604082019050612bcc6000830185612825565b612bd960208301846124ee565b9392505050565b6000604082019050612bf56000830185612825565b612c0260208301846124fd565b9392505050565b6000612c13612c24565b9050612c1f8282612e45565b919050565b6000604051905090565b600067ffffffffffffffff821115612c4957612c48612f7d565b5b612c5282612fac565b9050602081019050919050565b600081519050919050565b600081519050919050565b600082825260208201905092915050565b600082825260208201905092915050565b600081905092915050565b6000612cad82612dc7565b9150612cb883612dc7565b9250827fffffffffffffffffffffffffffffffffffffffffffffffffffffffffffffffff03821115612ced57612cec612ef0565b5b828201905092915050565b6000612d0382612dc7565b9150612d0e83612dc7565b925082612d1e57612d1d612f1f565b5b828204905092915050565b6000612d3482612dc7565b9150612d3f83612dc7565b925082821015612d5257612d51612ef0565b5b828203905092915050565b6000612d6882612da7565b9050919050565b60008115159050919050565b60007fffffffff0000000000000000000000000000000000000000000000000000000082169050919050565b600073ffffffffffffffffffffffffffffffffffffffff82169050919050565b6000819050919050565b82818337600083830152505050565b60005b83811015612dfe578082015181840152602081019050612de3565b83811115612e0d576000848401525b50505050565b60006002820490506001821680612e2b57607f821691505b60208210811415612e3f57612e3e612f4e565b5b50919050565b612e4e82612fac565b810181811067ffffffffffffffff82111715612e6d57612e6c612f7d565b5b80604052505050565b6000612e8182612dc7565b91507fffffffffffffffffffffffffffffffffffffffffffffffffffffffffffffffff821415612eb457612eb3612ef0565b5b600182019050919050565b6000612eca82612dc7565b9150612ed583612dc7565b925082612ee557612ee4612f1f565b5b828206905092915050565b7f4e487b7100000000000000000000000000000000000000000000000000000000600052601160045260246000fd5b7f4e487b7100000000000000000000000000000000000000000000000000000000600052601260045260246000fd5b7f4e487b7100000000000000000000000000000000000000000000000000000000600052602260045260246000fd5b7f4e487b7100000000000000000000000000000000000000000000000000000000600052604160045260246000fd5b6000601f19601f8301169050919050565b7f436f756e7465723a2064656372656d656e74206f766572666c6f770000000000600082015250565b7f4552433732313a207472616e7366657220746f206e6f6e20455243373231526560008201527f63656976657220696d706c656d656e7465720000000000000000000000000000602082015250565b7f4552433732313a20746f6b656e20616c7265616479206d696e74656400000000600082015250565b7f4f6e6c79206f6c64205630206a696e676c657300000000000000000000000000600082015250565b7f4552433732313a207472616e7366657220746f20746865207a65726f2061646460008201527f7265737300000000000000000000000000000000000000000000000000000000602082015250565b7f4552433732313a20617070726f766520746f2063616c6c657200000000000000600082015250565b7f4552433732313a206f70657261746f7220717565727920666f72206e6f6e657860008201527f697374656e7420746f6b656e0000000000000000000000000000000000000000602082015250565b7f4552433732313a20617070726f76652063616c6c6572206973206e6f74206f7760008201527f6e6572206e6f7220617070726f76656420666f7220616c6c0000000000000000602082015250565b7f4552433732313a2062616c616e636520717565727920666f7220746865207a6560008201527f726f206164647265737300000000000000000000000000000000000000000000602082015250565b7f4552433732313a206f776e657220717565727920666f72206e6f6e657869737460008201527f656e7420746f6b656e0000000000000000000000000000000000000000000000602082015250565b7f45524337323155524953746f726167653a2055524920736574206f66206e6f6e60008201527f6578697374656e7420746f6b656e000000000000000000000000000000000000602082015250565b7f4552433732313a206d696e7420746f20746865207a65726f2061646472657373600082015250565b7f4552433732313a20617070726f76656420717565727920666f72206e6f6e657860008201527f697374656e7420746f6b656e0000000000000000000000000000000000000000602082015250565b7f4552433732313a207472616e73666572206f6620746f6b656e2074686174206960008201527f73206e6f74206f776e0000000000000000000000000000000000000000000000602082015250565b7f4552433732313a20617070726f76616c20746f2063757272656e74206f776e6560008201527f7200000000000000000000000000000000000000000000000000000000000000602082015250565b7f4552433732313a207472616e736665722063616c6c6572206973206e6f74206f60008201527f776e6572206e6f7220617070726f766564000000000000000000000000000000602082015250565b7f4e6f7420746f6b656e206f776e65720000000000000000000000000000000000600082015250565b7f546f6b656e206e6f742077726170706564000000000000000000000000000000600082015250565b61344a81612d5d565b811461345557600080fd5b50565b61346181612d6f565b811461346c57600080fd5b50565b61347881612d7b565b811461348357600080fd5b50565b6002811061349357600080fd5b50565b61349f81612dc7565b81146134aa57600080fd5b5056fe68747470733a2f2f63727970746f6a696e676c65732e6d652f6d6574616461746168747470733a2f2f63727970746f6a696e676c65732e6d652f777261707065642d6a696e676c65732fa2646970667358221220a1c043555fd3d2422578d5b20fa1eb705676cd2a72894087335aeb006919838a64736f6c63430008040033",
  "linkReferences": {},
  "deployedLinkReferences": {}
}