{
  "_format": "hh-sol-artifact-1",
  "contractName": "WrappedJingle",
  "sourceName": "contracts/WrappedJingle.sol",
  "abi": [
    {
      "inputs": [],
      "stateMutability": "nonpayable",
      "type": "constructor"
    },
    {
      "anonymous": false,
      "inputs": [
        {
          "indexed": true,
          "internalType": "address",
          "name": "owner",
          "type": "address"
        },
        {
          "indexed": true,
          "internalType": "address",
          "name": "approved",
          "type": "address"
        },
        {
          "indexed": true,
          "internalType": "uint256",
          "name": "tokenId",
          "type": "uint256"
        }
      ],
      "name": "Approval",
      "type": "event"
    },
    {
      "anonymous": false,
      "inputs": [
        {
          "indexed": true,
          "internalType": "address",
          "name": "owner",
          "type": "address"
        },
        {
          "indexed": true,
          "internalType": "address",
          "name": "operator",
          "type": "address"
        },
        {
          "indexed": false,
          "internalType": "bool",
          "name": "approved",
          "type": "bool"
        }
      ],
      "name": "ApprovalForAll",
      "type": "event"
    },
    {
      "anonymous": false,
      "inputs": [
        {
          "indexed": true,
          "internalType": "address",
          "name": "from",
          "type": "address"
        },
        {
          "indexed": true,
          "internalType": "address",
          "name": "to",
          "type": "address"
        },
        {
          "indexed": true,
          "internalType": "uint256",
          "name": "tokenId",
          "type": "uint256"
        }
      ],
      "name": "Transfer",
      "type": "event"
    },
    {
      "anonymous": false,
      "inputs": [
        {
          "indexed": true,
          "internalType": "uint256",
          "name": "",
          "type": "uint256"
        },
        {
          "indexed": false,
          "internalType": "uint256",
          "name": "",
          "type": "uint256"
        },
        {
          "indexed": false,
          "internalType": "address",
          "name": "",
          "type": "address"
        }
      ],
      "name": "Unwrapped",
      "type": "event"
    },
    {
      "anonymous": false,
      "inputs": [
        {
          "indexed": true,
          "internalType": "uint256",
          "name": "",
          "type": "uint256"
        },
        {
          "indexed": false,
          "internalType": "uint256",
          "name": "",
          "type": "uint256"
        },
        {
          "indexed": false,
          "internalType": "address",
          "name": "",
          "type": "address"
        }
      ],
      "name": "Wrapped",
      "type": "event"
    },
    {
      "inputs": [],
      "name": "NUM_V0_JINGLES",
      "outputs": [
        {
          "internalType": "uint256",
          "name": "",
          "type": "uint256"
        }
      ],
      "stateMutability": "view",
      "type": "function"
    },
    {
      "inputs": [],
      "name": "NUM_V1_JINGLES",
      "outputs": [
        {
          "internalType": "uint256",
          "name": "",
          "type": "uint256"
        }
      ],
      "stateMutability": "view",
      "type": "function"
    },
    {
      "inputs": [
        {
          "internalType": "address",
          "name": "to",
          "type": "address"
        },
        {
          "internalType": "uint256",
          "name": "tokenId",
          "type": "uint256"
        }
      ],
      "name": "approve",
      "outputs": [],
      "stateMutability": "nonpayable",
      "type": "function"
    },
    {
      "inputs": [
        {
          "internalType": "address",
          "name": "owner",
          "type": "address"
        }
      ],
      "name": "balanceOf",
      "outputs": [
        {
          "internalType": "uint256",
          "name": "",
          "type": "uint256"
        }
      ],
      "stateMutability": "view",
      "type": "function"
    },
    {
      "inputs": [],
      "name": "baseTokenURI",
      "outputs": [
        {
          "internalType": "string",
          "name": "",
          "type": "string"
        }
      ],
      "stateMutability": "pure",
      "type": "function"
    },
    {
      "inputs": [],
      "name": "contractURI",
      "outputs": [
        {
          "internalType": "string",
          "name": "",
          "type": "string"
        }
      ],
      "stateMutability": "pure",
      "type": "function"
    },
    {
      "inputs": [
        {
          "internalType": "uint256",
          "name": "tokenId",
          "type": "uint256"
        }
      ],
      "name": "getApproved",
      "outputs": [
        {
          "internalType": "address",
          "name": "",
          "type": "address"
        }
      ],
      "stateMutability": "view",
      "type": "function"
    },
    {
      "inputs": [
        {
          "internalType": "address",
          "name": "owner",
          "type": "address"
        },
        {
          "internalType": "address",
          "name": "operator",
          "type": "address"
        }
      ],
      "name": "isApprovedForAll",
      "outputs": [
        {
          "internalType": "bool",
          "name": "",
          "type": "bool"
        }
      ],
      "stateMutability": "view",
      "type": "function"
    },
    {
      "inputs": [],
      "name": "name",
      "outputs": [
        {
          "internalType": "string",
          "name": "",
          "type": "string"
        }
      ],
      "stateMutability": "view",
      "type": "function"
    },
    {
      "inputs": [
        {
          "internalType": "uint256",
          "name": "tokenId",
          "type": "uint256"
        }
      ],
      "name": "ownerOf",
      "outputs": [
        {
          "internalType": "address",
          "name": "",
          "type": "address"
        }
      ],
      "stateMutability": "view",
      "type": "function"
    },
    {
      "inputs": [
        {
          "internalType": "address",
          "name": "from",
          "type": "address"
        },
        {
          "internalType": "address",
          "name": "to",
          "type": "address"
        },
        {
          "internalType": "uint256",
          "name": "tokenId",
          "type": "uint256"
        }
      ],
      "name": "safeTransferFrom",
      "outputs": [],
      "stateMutability": "nonpayable",
      "type": "function"
    },
    {
      "inputs": [
        {
          "internalType": "address",
          "name": "from",
          "type": "address"
        },
        {
          "internalType": "address",
          "name": "to",
          "type": "address"
        },
        {
          "internalType": "uint256",
          "name": "tokenId",
          "type": "uint256"
        },
        {
          "internalType": "bytes",
          "name": "_data",
          "type": "bytes"
        }
      ],
      "name": "safeTransferFrom",
      "outputs": [],
      "stateMutability": "nonpayable",
      "type": "function"
    },
    {
      "inputs": [
        {
          "internalType": "address",
          "name": "operator",
          "type": "address"
        },
        {
          "internalType": "bool",
          "name": "approved",
          "type": "bool"
        }
      ],
      "name": "setApprovalForAll",
      "outputs": [],
      "stateMutability": "nonpayable",
      "type": "function"
    },
    {
      "inputs": [
        {
          "internalType": "bytes4",
          "name": "interfaceId",
          "type": "bytes4"
        }
      ],
      "name": "supportsInterface",
      "outputs": [
        {
          "internalType": "bool",
          "name": "",
          "type": "bool"
        }
      ],
      "stateMutability": "view",
      "type": "function"
    },
    {
      "inputs": [],
      "name": "symbol",
      "outputs": [
        {
          "internalType": "string",
          "name": "",
          "type": "string"
        }
      ],
      "stateMutability": "view",
      "type": "function"
    },
    {
      "inputs": [
        {
          "internalType": "uint256",
          "name": "",
          "type": "uint256"
        },
        {
          "internalType": "address",
          "name": "",
          "type": "address"
        }
      ],
      "name": "tokenMap",
      "outputs": [
        {
          "internalType": "uint256",
          "name": "tokenId",
          "type": "uint256"
        },
        {
          "internalType": "bool",
          "name": "isWrapped",
          "type": "bool"
        }
      ],
      "stateMutability": "view",
      "type": "function"
    },
    {
      "inputs": [
        {
          "internalType": "uint256",
          "name": "_tokenId",
          "type": "uint256"
        }
      ],
      "name": "tokenURI",
      "outputs": [
        {
          "internalType": "string",
          "name": "",
          "type": "string"
        }
      ],
      "stateMutability": "pure",
      "type": "function"
    },
    {
      "inputs": [],
      "name": "totalSupply",
      "outputs": [
        {
          "internalType": "uint256",
          "name": "",
          "type": "uint256"
        }
      ],
      "stateMutability": "view",
      "type": "function"
    },
    {
      "inputs": [
        {
          "internalType": "address",
          "name": "from",
          "type": "address"
        },
        {
          "internalType": "address",
          "name": "to",
          "type": "address"
        },
        {
          "internalType": "uint256",
          "name": "tokenId",
          "type": "uint256"
        }
      ],
      "name": "transferFrom",
      "outputs": [],
      "stateMutability": "nonpayable",
      "type": "function"
    },
    {
      "inputs": [
        {
          "internalType": "uint256",
          "name": "_wrappedTokenId",
          "type": "uint256"
        },
        {
          "internalType": "enum WrappedJingle.Version",
          "name": "_version",
          "type": "uint8"
        }
      ],
      "name": "unwrap",
      "outputs": [],
      "stateMutability": "nonpayable",
      "type": "function"
    },
    {
      "inputs": [
        {
          "internalType": "uint256",
          "name": "_tokenId",
          "type": "uint256"
        },
        {
          "internalType": "enum WrappedJingle.Version",
          "name": "_version",
          "type": "uint8"
        }
      ],
      "name": "wrap",
      "outputs": [],
      "stateMutability": "nonpayable",
      "type": "function"
    }
  ],
  "bytecode": "0x60806040523480156200001157600080fd5b506040518060400160405280601181526020017f4e657720577261707065644a696e676c650000000000000000000000000000008152506040518060400160405280600381526020017f574a4c0000000000000000000000000000000000000000000000000000000000815250816000908051906020019062000096929190620000b8565b508060019080519060200190620000af929190620000b8565b505050620001cd565b828054620000c69062000168565b90600052602060002090601f016020900481019282620000ea576000855562000136565b82601f106200010557805160ff191683800117855562000136565b8280016001018555821562000136579182015b828111156200013557825182559160200191906001019062000118565b5b50905062000145919062000149565b5090565b5b80821115620001645760008160009055506001016200014a565b5090565b600060028204905060018216806200018157607f821691505b602082108114156200019857620001976200019e565b5b50919050565b7f4e487b7100000000000000000000000000000000000000000000000000000000600052602260045260246000fd5b61337880620001dd6000396000f3fe608060405234801561001057600080fd5b50600436106101375760003560e01c806370a08231116100b8578063b88d4fde1161007c578063b88d4fde1461034d578063c87b56dd14610369578063d547cfb714610399578063e8a3d485146103b7578063e985e9c5146103d5578063ef73f69d1461040557610137565b806370a08231146102a957806395d89b41146102d9578063a09ecfbc146102f7578063a22cb46514610313578063b44da9e81461032f57610137565b806318160ddd116100ff57806318160ddd1461020757806321292e3d1461022557806323b872dd1461024157806342842e0e1461025d5780636352211e1461027957610137565b806301ffc9a71461013c57806306fdde031461016c578063081812fc1461018a578063095ea7b3146101ba57806313ac7898146101d6575b600080fd5b61015660048036038101906101519190612340565b610423565b604051610163919061281e565b60405180910390f35b610174610505565b6040516101819190612839565b60405180910390f35b6101a4600480360381019061019f9190612392565b610597565b6040516101b19190612757565b60405180910390f35b6101d460048036038101906101cf9190612304565b61061c565b005b6101f060048036038101906101eb91906123bb565b610734565b6040516101fe929190612a9f565b60405180910390f35b61020f610772565b60405161021c9190612a5b565b60405180910390f35b61023f600480360381019061023a91906123f7565b610783565b005b61025b600480360381019061025691906121fe565b610a21565b005b610277600480360381019061027291906121fe565b610a81565b005b610293600480360381019061028e9190612392565b610aa1565b6040516102a09190612757565b60405180910390f35b6102c360048036038101906102be9190612170565b610b53565b6040516102d09190612a5b565b60405180910390f35b6102e1610c0b565b6040516102ee9190612839565b60405180910390f35b610311600480360381019061030c91906123f7565b610c9d565b005b61032d600480360381019061032891906122c8565b610f3f565b005b6103376110c0565b6040516103449190612a5b565b60405180910390f35b6103676004803603810190610362919061224d565b6110c5565b005b610383600480360381019061037e9190612392565b611127565b6040516103909190612839565b60405180910390f35b6103a1611161565b6040516103ae9190612839565b60405180910390f35b6103bf611181565b6040516103cc9190612839565b60405180910390f35b6103ef60048036038101906103ea91906121c2565b6111a1565b6040516103fc919061281e565b60405180910390f35b61040d611235565b60405161041a9190612a5b565b60405180910390f35b60007f80ac58cd000000000000000000000000000000000000000000000000000000007bffffffffffffffffffffffffffffffffffffffffffffffffffffffff1916827bffffffffffffffffffffffffffffffffffffffffffffffffffffffff191614806104ee57507f5b5e139f000000000000000000000000000000000000000000000000000000007bffffffffffffffffffffffffffffffffffffffffffffffffffffffff1916827bffffffffffffffffffffffffffffffffffffffffffffffffffffffff1916145b806104fe57506104fd8261123a565b5b9050919050565b60606000805461051490612cd2565b80601f016020809104026020016040519081016040528092919081815260200182805461054090612cd2565b801561058d5780601f106105625761010080835404028352916020019161058d565b820191906000526020600020905b81548152906001019060200180831161057057829003601f168201915b5050505050905090565b60006105a2826112a4565b6105e1576040517f08c379a00000000000000000000000000000000000000000000000000000000081526004016105d89061299b565b60405180910390fd5b6004600083815260200190815260200160002060009054906101000a900473ffffffffffffffffffffffffffffffffffffffff169050919050565b600061062782610aa1565b90508073ffffffffffffffffffffffffffffffffffffffff168373ffffffffffffffffffffffffffffffffffffffff161415610698576040517f08c379a000000000000000000000000000000000000000000000000000000000815260040161068f906129db565b60405180910390fd5b8073ffffffffffffffffffffffffffffffffffffffff166106b7611310565b73ffffffffffffffffffffffffffffffffffffffff1614806106e657506106e5816106e0611310565b6111a1565b5b610725576040517f08c379a000000000000000000000000000000000000000000000000000000000815260040161071c9061291b565b60405180910390fd5b61072f8383611318565b505050565b6008602052816000526040600020602052806000526040600020600091509150508060000154908060010160009054906101000a900460ff16905082565b600061077e60076113d1565b905090565b600061078e826113df565b9050600061079b84610aa1565b90503373ffffffffffffffffffffffffffffffffffffffff168173ffffffffffffffffffffffffffffffffffffffff161461080b576040517f08c379a000000000000000000000000000000000000000000000000000000000815260040161080290612a1b565b60405180910390fd5b61081484611492565b60006008600086815260200190815260200160002060008473ffffffffffffffffffffffffffffffffffffffff1673ffffffffffffffffffffffffffffffffffffffff168152602001908152602001600020604051806040016040529081600082015481526020016001820160009054906101000a900460ff161515151581525050905080602001516108dc576040517f08c379a00000000000000000000000000000000000000000000000000000000081526004016108d390612a3b565b60405180910390fd5b6000816020019015159081151581525050806008600087815260200190815260200160002060008573ffffffffffffffffffffffffffffffffffffffff1673ffffffffffffffffffffffffffffffffffffffff1681526020019081526020016000206000820151816000015560208201518160010160006101000a81548160ff0219169083151502179055509050508273ffffffffffffffffffffffffffffffffffffffff1663a9059cbb3383600001516040518363ffffffff1660e01b81526004016109aa9291906127f5565b600060405180830381600087803b1580156109c457600080fd5b505af11580156109d8573d6000803e3d6000fd5b50505050847f175e3dad2e6c10f120d3216de54ebe7abeee5b7f33c8941af43e73a0315e4a80826000015185604051610a12929190612a76565b60405180910390a25050505050565b610a32610a2c611310565b826114e5565b610a71576040517f08c379a0000000000000000000000000000000000000000000000000000000008152600401610a68906129fb565b60405180910390fd5b610a7c8383836115c3565b505050565b610a9c838383604051806020016040528060008152506110c5565b505050565b6000806002600084815260200190815260200160002060009054906101000a900473ffffffffffffffffffffffffffffffffffffffff169050600073ffffffffffffffffffffffffffffffffffffffff168173ffffffffffffffffffffffffffffffffffffffff161415610b4a576040517f08c379a0000000000000000000000000000000000000000000000000000000008152600401610b419061295b565b60405180910390fd5b80915050919050565b60008073ffffffffffffffffffffffffffffffffffffffff168273ffffffffffffffffffffffffffffffffffffffff161415610bc4576040517f08c379a0000000000000000000000000000000000000000000000000000000008152600401610bbb9061293b565b60405180910390fd5b600360008373ffffffffffffffffffffffffffffffffffffffff1673ffffffffffffffffffffffffffffffffffffffff168152602001908152602001600020549050919050565b606060018054610c1a90612cd2565b80601f0160208091040260200160405190810160405280929190818152602001828054610c4690612cd2565b8015610c935780601f10610c6857610100808354040283529160200191610c93565b820191906000526020600020905b815481529060010190602001808311610c7657829003601f168201915b5050505050905090565b6000610ca8826113df565b905060008173ffffffffffffffffffffffffffffffffffffffff16636352211e856040518263ffffffff1660e01b8152600401610ce59190612a5b565b60206040518083038186803b158015610cfd57600080fd5b505afa158015610d11573d6000803e3d6000fd5b505050506040513d601f19601f82011682018060405250810190610d359190612199565b9050610d41848461181f565b610d80576040517f08c379a0000000000000000000000000000000000000000000000000000000008152600401610d779061289b565b60405180910390fd5b3373ffffffffffffffffffffffffffffffffffffffff168173ffffffffffffffffffffffffffffffffffffffff1614610dee576040517f08c379a0000000000000000000000000000000000000000000000000000000008152600401610de590612a1b565b60405180910390fd5b8173ffffffffffffffffffffffffffffffffffffffff166323b872dd3330876040518463ffffffff1660e01b8152600401610e2b93929190612772565b600060405180830381600087803b158015610e4557600080fd5b505af1158015610e59573d6000803e3d6000fd5b505050506000610e67611940565b90506040518060400160405280868152602001600115158152506008600083815260200190815260200160002060008573ffffffffffffffffffffffffffffffffffffffff1673ffffffffffffffffffffffffffffffffffffffff1681526020019081526020016000206000820151816000015560208201518160010160006101000a81548160ff021916908315150217905550905050807ff90572efd1ab4fb9c6b9dabfd24d103ce15482a9ec0c50e0e32618708783b15b8685604051610f30929190612a76565b60405180910390a25050505050565b610f47611310565b73ffffffffffffffffffffffffffffffffffffffff168273ffffffffffffffffffffffffffffffffffffffff161415610fb5576040517f08c379a0000000000000000000000000000000000000000000000000000000008152600401610fac906128db565b60405180910390fd5b8060056000610fc2611310565b73ffffffffffffffffffffffffffffffffffffffff1673ffffffffffffffffffffffffffffffffffffffff16815260200190815260200160002060008473ffffffffffffffffffffffffffffffffffffffff1673ffffffffffffffffffffffffffffffffffffffff16815260200190815260200160002060006101000a81548160ff0219169083151502179055508173ffffffffffffffffffffffffffffffffffffffff1661106f611310565b73ffffffffffffffffffffffffffffffffffffffff167f17307eab39ab6107e8899845ad3d59bd9653f200f220920489ca2b5937696c31836040516110b4919061281e565b60405180910390a35050565b601e81565b6110d66110d0611310565b836114e5565b611115576040517f08c379a000000000000000000000000000000000000000000000000000000000815260040161110c906129fb565b60405180910390fd5b6111218484848461196b565b50505050565b6060611131611161565b61113a836119c7565b60405160200161114b929190612733565b6040516020818303038152906040529050919050565b60606040518060600160405280602d8152602001613316602d9139905090565b60606040518060600160405280602181526020016132f560219139905090565b6000600560008473ffffffffffffffffffffffffffffffffffffffff1673ffffffffffffffffffffffffffffffffffffffff16815260200190815260200160002060008373ffffffffffffffffffffffffffffffffffffffff1673ffffffffffffffffffffffffffffffffffffffff16815260200190815260200160002060009054906101000a900460ff16905092915050565b602f81565b60007f01ffc9a7000000000000000000000000000000000000000000000000000000007bffffffffffffffffffffffffffffffffffffffffffffffffffffffff1916827bffffffffffffffffffffffffffffffffffffffffffffffffffffffff1916149050919050565b60008073ffffffffffffffffffffffffffffffffffffffff166002600084815260200190815260200160002060009054906101000a900473ffffffffffffffffffffffffffffffffffffffff1673ffffffffffffffffffffffffffffffffffffffff1614159050919050565b600033905090565b816004600083815260200190815260200160002060006101000a81548173ffffffffffffffffffffffffffffffffffffffff021916908373ffffffffffffffffffffffffffffffffffffffff160217905550808273ffffffffffffffffffffffffffffffffffffffff1661138b83610aa1565b73ffffffffffffffffffffffffffffffffffffffff167f8c5be1e5ebec7d5bd14f71427d1e84f3dd0314c0f7b2291e5b200ac8c7c3b92560405160405180910390a45050565b600081600001549050919050565b600080600181111561141a577f4e487b7100000000000000000000000000000000000000000000000000000000600052602160045260246000fd5b826001811115611453577f4e487b7100000000000000000000000000000000000000000000000000000000600052602160045260246000fd5b141561147557735af7af54e8bc34b293e356ef11fffe51d6f9ae78905061148d565b735b6660ca047cc351bfedca4fc864d0a88f55148590505b919050565b61149b81611b74565b60006006600083815260200190815260200160002080546114bb90612cd2565b9050146114e2576006600082815260200190815260200160002060006114e19190612018565b5b50565b60006114f0826112a4565b61152f576040517f08c379a0000000000000000000000000000000000000000000000000000000008152600401611526906128fb565b60405180910390fd5b600061153a83610aa1565b90508073ffffffffffffffffffffffffffffffffffffffff168473ffffffffffffffffffffffffffffffffffffffff1614806115a957508373ffffffffffffffffffffffffffffffffffffffff1661159184610597565b73ffffffffffffffffffffffffffffffffffffffff16145b806115ba57506115b981856111a1565b5b91505092915050565b8273ffffffffffffffffffffffffffffffffffffffff166115e382610aa1565b73ffffffffffffffffffffffffffffffffffffffff1614611639576040517f08c379a0000000000000000000000000000000000000000000000000000000008152600401611630906129bb565b60405180910390fd5b600073ffffffffffffffffffffffffffffffffffffffff168273ffffffffffffffffffffffffffffffffffffffff1614156116a9576040517f08c379a00000000000000000000000000000000000000000000000000000000081526004016116a0906128bb565b60405180910390fd5b6116b4838383611c85565b6116bf600082611318565b6001600360008573ffffffffffffffffffffffffffffffffffffffff1673ffffffffffffffffffffffffffffffffffffffff168152602001908152602001600020600082825461170f9190612be8565b925050819055506001600360008473ffffffffffffffffffffffffffffffffffffffff1673ffffffffffffffffffffffffffffffffffffffff16815260200190815260200160002060008282546117669190612b61565b92505081905550816002600083815260200190815260200160002060006101000a81548173ffffffffffffffffffffffffffffffffffffffff021916908373ffffffffffffffffffffffffffffffffffffffff160217905550808273ffffffffffffffffffffffffffffffffffffffff168473ffffffffffffffffffffffffffffffffffffffff167fddf252ad1be2c89b69c2b068fc378daa952ba7f163c4a11628f55a4df523b3ef60405160405180910390a4505050565b600080600181111561185a577f4e487b7100000000000000000000000000000000000000000000000000000000600052602160045260246000fd5b826001811115611893577f4e487b7100000000000000000000000000000000000000000000000000000000600052602160045260246000fd5b14156118ab57601e83116118aa576001905061193a565b5b6001808111156118e4577f4e487b7100000000000000000000000000000000000000000000000000000000600052602160045260246000fd5b82600181111561191d577f4e487b7100000000000000000000000000000000000000000000000000000000600052602160045260246000fd5b141561193557601e8311611934576001905061193a565b5b600190505b92915050565b600061194c6007611c8a565b600061195860076113d1565b90506119643382611ca0565b8091505090565b6119768484846115c3565b61198284848484611e6e565b6119c1576040517f08c379a00000000000000000000000000000000000000000000000000000000081526004016119b89061285b565b60405180910390fd5b50505050565b60606000821415611a0f576040518060400160405280600181526020017f30000000000000000000000000000000000000000000000000000000000000008152509050611b6f565b600082905060005b60008214611a41578080611a2a90612d35565b915050600a82611a3a9190612bb7565b9150611a17565b60008167ffffffffffffffff811115611a83577f4e487b7100000000000000000000000000000000000000000000000000000000600052604160045260246000fd5b6040519080825280601f01601f191660200182016040528015611ab55781602001600182028036833780820191505090505b5090505b60008514611b6857600182611ace9190612be8565b9150600a85611add9190612d7e565b6030611ae99190612b61565b60f81b818381518110611b25577f4e487b7100000000000000000000000000000000000000000000000000000000600052603260045260246000fd5b60200101907effffffffffffffffffffffffffffffffffffffffffffffffffffffffffffff1916908160001a905350600a85611b619190612bb7565b9450611ab9565b8093505050505b919050565b6000611b7f82610aa1565b9050611b8d81600084611c85565b611b98600083611318565b6001600360008373ffffffffffffffffffffffffffffffffffffffff1673ffffffffffffffffffffffffffffffffffffffff1681526020019081526020016000206000828254611be89190612be8565b925050819055506002600083815260200190815260200160002060006101000a81549073ffffffffffffffffffffffffffffffffffffffff021916905581600073ffffffffffffffffffffffffffffffffffffffff168273ffffffffffffffffffffffffffffffffffffffff167fddf252ad1be2c89b69c2b068fc378daa952ba7f163c4a11628f55a4df523b3ef60405160405180910390a45050565b505050565b6001816000016000828254019250508190555050565b600073ffffffffffffffffffffffffffffffffffffffff168273ffffffffffffffffffffffffffffffffffffffff161415611d10576040517f08c379a0000000000000000000000000000000000000000000000000000000008152600401611d079061297b565b60405180910390fd5b611d19816112a4565b15611d59576040517f08c379a0000000000000000000000000000000000000000000000000000000008152600401611d509061287b565b60405180910390fd5b611d6560008383611c85565b6001600360008473ffffffffffffffffffffffffffffffffffffffff1673ffffffffffffffffffffffffffffffffffffffff1681526020019081526020016000206000828254611db59190612b61565b92505081905550816002600083815260200190815260200160002060006101000a81548173ffffffffffffffffffffffffffffffffffffffff021916908373ffffffffffffffffffffffffffffffffffffffff160217905550808273ffffffffffffffffffffffffffffffffffffffff16600073ffffffffffffffffffffffffffffffffffffffff167fddf252ad1be2c89b69c2b068fc378daa952ba7f163c4a11628f55a4df523b3ef60405160405180910390a45050565b6000611e8f8473ffffffffffffffffffffffffffffffffffffffff16612005565b15611ff8578373ffffffffffffffffffffffffffffffffffffffff1663150b7a02611eb8611310565b8786866040518563ffffffff1660e01b8152600401611eda94939291906127a9565b602060405180830381600087803b158015611ef457600080fd5b505af1925050508015611f2557506040513d601f19601f82011682018060405250810190611f229190612369565b60015b611fa8573d8060008114611f55576040519150601f19603f3d011682016040523d82523d6000602084013e611f5a565b606091505b50600081511415611fa0576040517f08c379a0000000000000000000000000000000000000000000000000000000008152600401611f979061285b565b60405180910390fd5b805181602001fd5b63150b7a0260e01b7bffffffffffffffffffffffffffffffffffffffffffffffffffffffff1916817bffffffffffffffffffffffffffffffffffffffffffffffffffffffff191614915050611ffd565b600190505b949350505050565b600080823b905060008111915050919050565b50805461202490612cd2565b6000825580601f106120365750612055565b601f0160209004906000526020600020908101906120549190612058565b5b50565b5b80821115612071576000816000905550600101612059565b5090565b600061208861208384612aed565b612ac8565b9050828152602081018484840111156120a057600080fd5b6120ab848285612c90565b509392505050565b6000813590506120c281613288565b92915050565b6000815190506120d781613288565b92915050565b6000813590506120ec8161329f565b92915050565b600081359050612101816132b6565b92915050565b600081519050612116816132b6565b92915050565b600082601f83011261212d57600080fd5b813561213d848260208601612075565b91505092915050565b600081359050612155816132cd565b92915050565b60008135905061216a816132dd565b92915050565b60006020828403121561218257600080fd5b6000612190848285016120b3565b91505092915050565b6000602082840312156121ab57600080fd5b60006121b9848285016120c8565b91505092915050565b600080604083850312156121d557600080fd5b60006121e3858286016120b3565b92505060206121f4858286016120b3565b9150509250929050565b60008060006060848603121561221357600080fd5b6000612221868287016120b3565b9350506020612232868287016120b3565b92505060406122438682870161215b565b9150509250925092565b6000806000806080858703121561226357600080fd5b6000612271878288016120b3565b9450506020612282878288016120b3565b93505060406122938782880161215b565b925050606085013567ffffffffffffffff8111156122b057600080fd5b6122bc8782880161211c565b91505092959194509250565b600080604083850312156122db57600080fd5b60006122e9858286016120b3565b92505060206122fa858286016120dd565b9150509250929050565b6000806040838503121561231757600080fd5b6000612325858286016120b3565b92505060206123368582860161215b565b9150509250929050565b60006020828403121561235257600080fd5b6000612360848285016120f2565b91505092915050565b60006020828403121561237b57600080fd5b600061238984828501612107565b91505092915050565b6000602082840312156123a457600080fd5b60006123b28482850161215b565b91505092915050565b600080604083850312156123ce57600080fd5b60006123dc8582860161215b565b92505060206123ed858286016120b3565b9150509250929050565b6000806040838503121561240a57600080fd5b60006124188582860161215b565b925050602061242985828601612146565b9150509250929050565b61243c81612c1c565b82525050565b61244b81612c2e565b82525050565b600061245c82612b1e565b6124668185612b34565b9350612476818560208601612c9f565b61247f81612e6b565b840191505092915050565b600061249582612b29565b61249f8185612b45565b93506124af818560208601612c9f565b6124b881612e6b565b840191505092915050565b60006124ce82612b29565b6124d88185612b56565b93506124e8818560208601612c9f565b80840191505092915050565b6000612501603283612b45565b915061250c82612e7c565b604082019050919050565b6000612524601c83612b45565b915061252f82612ecb565b602082019050919050565b6000612547601383612b45565b915061255282612ef4565b602082019050919050565b600061256a602483612b45565b915061257582612f1d565b604082019050919050565b600061258d601983612b45565b915061259882612f6c565b602082019050919050565b60006125b0602c83612b45565b91506125bb82612f95565b604082019050919050565b60006125d3603883612b45565b91506125de82612fe4565b604082019050919050565b60006125f6602a83612b45565b915061260182613033565b604082019050919050565b6000612619602983612b45565b915061262482613082565b604082019050919050565b600061263c602083612b45565b9150612647826130d1565b602082019050919050565b600061265f602c83612b45565b915061266a826130fa565b604082019050919050565b6000612682602983612b45565b915061268d82613149565b604082019050919050565b60006126a5602183612b45565b91506126b082613198565b604082019050919050565b60006126c8603183612b45565b91506126d3826131e7565b604082019050919050565b60006126eb600f83612b45565b91506126f682613236565b602082019050919050565b600061270e601183612b45565b91506127198261325f565b602082019050919050565b61272d81612c86565b82525050565b600061273f82856124c3565b915061274b82846124c3565b91508190509392505050565b600060208201905061276c6000830184612433565b92915050565b60006060820190506127876000830186612433565b6127946020830185612433565b6127a16040830184612724565b949350505050565b60006080820190506127be6000830187612433565b6127cb6020830186612433565b6127d86040830185612724565b81810360608301526127ea8184612451565b905095945050505050565b600060408201905061280a6000830185612433565b6128176020830184612724565b9392505050565b60006020820190506128336000830184612442565b92915050565b60006020820190508181036000830152612853818461248a565b905092915050565b60006020820190508181036000830152612874816124f4565b9050919050565b6000602082019050818103600083015261289481612517565b9050919050565b600060208201905081810360008301526128b48161253a565b9050919050565b600060208201905081810360008301526128d48161255d565b9050919050565b600060208201905081810360008301526128f481612580565b9050919050565b60006020820190508181036000830152612914816125a3565b9050919050565b60006020820190508181036000830152612934816125c6565b9050919050565b60006020820190508181036000830152612954816125e9565b9050919050565b600060208201905081810360008301526129748161260c565b9050919050565b600060208201905081810360008301526129948161262f565b9050919050565b600060208201905081810360008301526129b481612652565b9050919050565b600060208201905081810360008301526129d481612675565b9050919050565b600060208201905081810360008301526129f481612698565b9050919050565b60006020820190508181036000830152612a14816126bb565b9050919050565b60006020820190508181036000830152612a34816126de565b9050919050565b60006020820190508181036000830152612a5481612701565b9050919050565b6000602082019050612a706000830184612724565b92915050565b6000604082019050612a8b6000830185612724565b612a986020830184612433565b9392505050565b6000604082019050612ab46000830185612724565b612ac16020830184612442565b9392505050565b6000612ad2612ae3565b9050612ade8282612d04565b919050565b6000604051905090565b600067ffffffffffffffff821115612b0857612b07612e3c565b5b612b1182612e6b565b9050602081019050919050565b600081519050919050565b600081519050919050565b600082825260208201905092915050565b600082825260208201905092915050565b600081905092915050565b6000612b6c82612c86565b9150612b7783612c86565b9250827fffffffffffffffffffffffffffffffffffffffffffffffffffffffffffffffff03821115612bac57612bab612daf565b5b828201905092915050565b6000612bc282612c86565b9150612bcd83612c86565b925082612bdd57612bdc612dde565b5b828204905092915050565b6000612bf382612c86565b9150612bfe83612c86565b925082821015612c1157612c10612daf565b5b828203905092915050565b6000612c2782612c66565b9050919050565b60008115159050919050565b60007fffffffff0000000000000000000000000000000000000000000000000000000082169050919050565b600073ffffffffffffffffffffffffffffffffffffffff82169050919050565b6000819050919050565b82818337600083830152505050565b60005b83811015612cbd578082015181840152602081019050612ca2565b83811115612ccc576000848401525b50505050565b60006002820490506001821680612cea57607f821691505b60208210811415612cfe57612cfd612e0d565b5b50919050565b612d0d82612e6b565b810181811067ffffffffffffffff82111715612d2c57612d2b612e3c565b5b80604052505050565b6000612d4082612c86565b91507fffffffffffffffffffffffffffffffffffffffffffffffffffffffffffffffff821415612d7357612d72612daf565b5b600182019050919050565b6000612d8982612c86565b9150612d9483612c86565b925082612da457612da3612dde565b5b828206905092915050565b7f4e487b7100000000000000000000000000000000000000000000000000000000600052601160045260246000fd5b7f4e487b7100000000000000000000000000000000000000000000000000000000600052601260045260246000fd5b7f4e487b7100000000000000000000000000000000000000000000000000000000600052602260045260246000fd5b7f4e487b7100000000000000000000000000000000000000000000000000000000600052604160045260246000fd5b6000601f19601f8301169050919050565b7f4552433732313a207472616e7366657220746f206e6f6e20455243373231526560008201527f63656976657220696d706c656d656e7465720000000000000000000000000000602082015250565b7f4552433732313a20746f6b656e20616c7265616479206d696e74656400000000600082015250565b7f4f6e6c79206f6c64205630206a696e676c657300000000000000000000000000600082015250565b7f4552433732313a207472616e7366657220746f20746865207a65726f2061646460008201527f7265737300000000000000000000000000000000000000000000000000000000602082015250565b7f4552433732313a20617070726f766520746f2063616c6c657200000000000000600082015250565b7f4552433732313a206f70657261746f7220717565727920666f72206e6f6e657860008201527f697374656e7420746f6b656e0000000000000000000000000000000000000000602082015250565b7f4552433732313a20617070726f76652063616c6c6572206973206e6f74206f7760008201527f6e6572206e6f7220617070726f76656420666f7220616c6c0000000000000000602082015250565b7f4552433732313a2062616c616e636520717565727920666f7220746865207a6560008201527f726f206164647265737300000000000000000000000000000000000000000000602082015250565b7f4552433732313a206f776e657220717565727920666f72206e6f6e657869737460008201527f656e7420746f6b656e0000000000000000000000000000000000000000000000602082015250565b7f4552433732313a206d696e7420746f20746865207a65726f2061646472657373600082015250565b7f4552433732313a20617070726f76656420717565727920666f72206e6f6e657860008201527f697374656e7420746f6b656e0000000000000000000000000000000000000000602082015250565b7f4552433732313a207472616e73666572206f6620746f6b656e2074686174206960008201527f73206e6f74206f776e0000000000000000000000000000000000000000000000602082015250565b7f4552433732313a20617070726f76616c20746f2063757272656e74206f776e6560008201527f7200000000000000000000000000000000000000000000000000000000000000602082015250565b7f4552433732313a207472616e736665722063616c6c6572206973206e6f74206f60008201527f776e6572206e6f7220617070726f766564000000000000000000000000000000602082015250565b7f4e6f7420746f6b656e206f776e65720000000000000000000000000000000000600082015250565b7f546f6b656e206e6f742077726170706564000000000000000000000000000000600082015250565b61329181612c1c565b811461329c57600080fd5b50565b6132a881612c2e565b81146132b357600080fd5b50565b6132bf81612c3a565b81146132ca57600080fd5b50565b600281106132da57600080fd5b50565b6132e681612c86565b81146132f157600080fd5b5056fe68747470733a2f2f63727970746f6a696e676c65732e6d652f6d6574616461746168747470733a2f2f63727970746f6a696e676c65732e6d652f6170692f777261707065642d6a696e676c65732fa26469706673582212206c4e3b32d8eb7c8a71a05c22634d2ccbbe85ed5273294ba3c055c0b87346459464736f6c63430008040033",
  "linkReferences": {},
  "deployedLinkReferences": {}
}