{
  "_format": "hh-sol-artifact-1",
  "contractName": "WrappedJingle",
  "sourceName": "contracts/WrappedJingle.sol",
  "abi": [
    {
      "inputs": [],
      "stateMutability": "nonpayable",
      "type": "constructor"
    },
    {
      "anonymous": false,
      "inputs": [
        {
          "indexed": true,
          "internalType": "address",
          "name": "owner",
          "type": "address"
        },
        {
          "indexed": true,
          "internalType": "address",
          "name": "approved",
          "type": "address"
        },
        {
          "indexed": true,
          "internalType": "uint256",
          "name": "tokenId",
          "type": "uint256"
        }
      ],
      "name": "Approval",
      "type": "event"
    },
    {
      "anonymous": false,
      "inputs": [
        {
          "indexed": true,
          "internalType": "address",
          "name": "owner",
          "type": "address"
        },
        {
          "indexed": true,
          "internalType": "address",
          "name": "operator",
          "type": "address"
        },
        {
          "indexed": false,
          "internalType": "bool",
          "name": "approved",
          "type": "bool"
        }
      ],
      "name": "ApprovalForAll",
      "type": "event"
    },
    {
      "anonymous": false,
      "inputs": [
        {
          "indexed": true,
          "internalType": "address",
          "name": "previousOwner",
          "type": "address"
        },
        {
          "indexed": true,
          "internalType": "address",
          "name": "newOwner",
          "type": "address"
        }
      ],
      "name": "OwnershipTransferred",
      "type": "event"
    },
    {
      "anonymous": false,
      "inputs": [
        {
          "indexed": true,
          "internalType": "address",
          "name": "from",
          "type": "address"
        },
        {
          "indexed": true,
          "internalType": "address",
          "name": "to",
          "type": "address"
        },
        {
          "indexed": true,
          "internalType": "uint256",
          "name": "tokenId",
          "type": "uint256"
        }
      ],
      "name": "Transfer",
      "type": "event"
    },
    {
      "anonymous": false,
      "inputs": [
        {
          "indexed": true,
          "internalType": "address",
          "name": "",
          "type": "address"
        },
        {
          "indexed": true,
          "internalType": "uint256",
          "name": "",
          "type": "uint256"
        },
        {
          "indexed": false,
          "internalType": "uint256",
          "name": "",
          "type": "uint256"
        },
        {
          "indexed": false,
          "internalType": "address",
          "name": "",
          "type": "address"
        }
      ],
      "name": "Unwrapped",
      "type": "event"
    },
    {
      "anonymous": false,
      "inputs": [
        {
          "indexed": true,
          "internalType": "address",
          "name": "",
          "type": "address"
        },
        {
          "indexed": true,
          "internalType": "uint256",
          "name": "",
          "type": "uint256"
        },
        {
          "indexed": false,
          "internalType": "uint256",
          "name": "",
          "type": "uint256"
        },
        {
          "indexed": false,
          "internalType": "address",
          "name": "",
          "type": "address"
        }
      ],
      "name": "Wrapped",
      "type": "event"
    },
    {
      "inputs": [],
      "name": "NUM_V0_JINGLES",
      "outputs": [
        {
          "internalType": "uint256",
          "name": "",
          "type": "uint256"
        }
      ],
      "stateMutability": "view",
      "type": "function"
    },
    {
      "inputs": [],
      "name": "NUM_V1_JINGLES",
      "outputs": [
        {
          "internalType": "uint256",
          "name": "",
          "type": "uint256"
        }
      ],
      "stateMutability": "view",
      "type": "function"
    },
    {
      "inputs": [
        {
          "internalType": "address",
          "name": "to",
          "type": "address"
        },
        {
          "internalType": "uint256",
          "name": "tokenId",
          "type": "uint256"
        }
      ],
      "name": "approve",
      "outputs": [],
      "stateMutability": "nonpayable",
      "type": "function"
    },
    {
      "inputs": [
        {
          "internalType": "address",
          "name": "owner",
          "type": "address"
        }
      ],
      "name": "balanceOf",
      "outputs": [
        {
          "internalType": "uint256",
          "name": "",
          "type": "uint256"
        }
      ],
      "stateMutability": "view",
      "type": "function"
    },
    {
      "inputs": [],
      "name": "baseTokenURI",
      "outputs": [
        {
          "internalType": "string",
          "name": "",
          "type": "string"
        }
      ],
      "stateMutability": "pure",
      "type": "function"
    },
    {
      "inputs": [],
      "name": "contractURI",
      "outputs": [
        {
          "internalType": "string",
          "name": "",
          "type": "string"
        }
      ],
      "stateMutability": "pure",
      "type": "function"
    },
    {
      "inputs": [
        {
          "internalType": "uint256",
          "name": "tokenId",
          "type": "uint256"
        }
      ],
      "name": "getApproved",
      "outputs": [
        {
          "internalType": "address",
          "name": "",
          "type": "address"
        }
      ],
      "stateMutability": "view",
      "type": "function"
    },
    {
      "inputs": [
        {
          "internalType": "address",
          "name": "owner",
          "type": "address"
        },
        {
          "internalType": "address",
          "name": "operator",
          "type": "address"
        }
      ],
      "name": "isApprovedForAll",
      "outputs": [
        {
          "internalType": "bool",
          "name": "",
          "type": "bool"
        }
      ],
      "stateMutability": "view",
      "type": "function"
    },
    {
      "inputs": [],
      "name": "name",
      "outputs": [
        {
          "internalType": "string",
          "name": "",
          "type": "string"
        }
      ],
      "stateMutability": "view",
      "type": "function"
    },
    {
      "inputs": [],
      "name": "owner",
      "outputs": [
        {
          "internalType": "address",
          "name": "",
          "type": "address"
        }
      ],
      "stateMutability": "view",
      "type": "function"
    },
    {
      "inputs": [
        {
          "internalType": "uint256",
          "name": "tokenId",
          "type": "uint256"
        }
      ],
      "name": "ownerOf",
      "outputs": [
        {
          "internalType": "address",
          "name": "",
          "type": "address"
        }
      ],
      "stateMutability": "view",
      "type": "function"
    },
    {
      "inputs": [],
      "name": "renounceOwnership",
      "outputs": [],
      "stateMutability": "nonpayable",
      "type": "function"
    },
    {
      "inputs": [
        {
          "internalType": "address",
          "name": "from",
          "type": "address"
        },
        {
          "internalType": "address",
          "name": "to",
          "type": "address"
        },
        {
          "internalType": "uint256",
          "name": "tokenId",
          "type": "uint256"
        }
      ],
      "name": "safeTransferFrom",
      "outputs": [],
      "stateMutability": "nonpayable",
      "type": "function"
    },
    {
      "inputs": [
        {
          "internalType": "address",
          "name": "from",
          "type": "address"
        },
        {
          "internalType": "address",
          "name": "to",
          "type": "address"
        },
        {
          "internalType": "uint256",
          "name": "tokenId",
          "type": "uint256"
        },
        {
          "internalType": "bytes",
          "name": "_data",
          "type": "bytes"
        }
      ],
      "name": "safeTransferFrom",
      "outputs": [],
      "stateMutability": "nonpayable",
      "type": "function"
    },
    {
      "inputs": [
        {
          "internalType": "address",
          "name": "operator",
          "type": "address"
        },
        {
          "internalType": "bool",
          "name": "approved",
          "type": "bool"
        }
      ],
      "name": "setApprovalForAll",
      "outputs": [],
      "stateMutability": "nonpayable",
      "type": "function"
    },
    {
      "inputs": [
        {
          "internalType": "bytes4",
          "name": "interfaceId",
          "type": "bytes4"
        }
      ],
      "name": "supportsInterface",
      "outputs": [
        {
          "internalType": "bool",
          "name": "",
          "type": "bool"
        }
      ],
      "stateMutability": "view",
      "type": "function"
    },
    {
      "inputs": [],
      "name": "symbol",
      "outputs": [
        {
          "internalType": "string",
          "name": "",
          "type": "string"
        }
      ],
      "stateMutability": "view",
      "type": "function"
    },
    {
      "inputs": [
        {
          "internalType": "uint256",
          "name": "",
          "type": "uint256"
        },
        {
          "internalType": "address",
          "name": "",
          "type": "address"
        }
      ],
      "name": "tokenMap",
      "outputs": [
        {
          "internalType": "uint256",
          "name": "tokenId",
          "type": "uint256"
        },
        {
          "internalType": "bool",
          "name": "isWrapped",
          "type": "bool"
        }
      ],
      "stateMutability": "view",
      "type": "function"
    },
    {
      "inputs": [
        {
          "internalType": "uint256",
          "name": "_tokenId",
          "type": "uint256"
        }
      ],
      "name": "tokenURI",
      "outputs": [
        {
          "internalType": "string",
          "name": "",
          "type": "string"
        }
      ],
      "stateMutability": "pure",
      "type": "function"
    },
    {
      "inputs": [],
      "name": "totalSupply",
      "outputs": [
        {
          "internalType": "uint256",
          "name": "",
          "type": "uint256"
        }
      ],
      "stateMutability": "view",
      "type": "function"
    },
    {
      "inputs": [
        {
          "internalType": "address",
          "name": "from",
          "type": "address"
        },
        {
          "internalType": "address",
          "name": "to",
          "type": "address"
        },
        {
          "internalType": "uint256",
          "name": "tokenId",
          "type": "uint256"
        }
      ],
      "name": "transferFrom",
      "outputs": [],
      "stateMutability": "nonpayable",
      "type": "function"
    },
    {
      "inputs": [
        {
          "internalType": "address",
          "name": "newOwner",
          "type": "address"
        }
      ],
      "name": "transferOwnership",
      "outputs": [],
      "stateMutability": "nonpayable",
      "type": "function"
    },
    {
      "inputs": [
        {
          "internalType": "uint256",
          "name": "_wrappedTokenId",
          "type": "uint256"
        },
        {
          "internalType": "enum WrappedJingle.Version",
          "name": "_version",
          "type": "uint8"
        }
      ],
      "name": "unwrap",
      "outputs": [],
      "stateMutability": "nonpayable",
      "type": "function"
    },
    {
      "inputs": [
        {
          "internalType": "uint256",
          "name": "_tokenId",
          "type": "uint256"
        },
        {
          "internalType": "enum WrappedJingle.Version",
          "name": "_version",
          "type": "uint8"
        }
      ],
      "name": "wrap",
      "outputs": [],
      "stateMutability": "nonpayable",
      "type": "function"
    }
  ],
  "bytecode": "0x60806040523480156200001157600080fd5b506040518060400160405280600f81526020017f57726170706564204a696e676c657300000000000000000000000000000000008152506040518060400160405280600281526020017f574a000000000000000000000000000000000000000000000000000000000000815250816000908051906020019062000096929190620001a6565b508060019080519060200190620000af929190620001a6565b505050620000d2620000c6620000d860201b60201c565b620000e060201b60201c565b620002bb565b600033905090565b6000600760009054906101000a900473ffffffffffffffffffffffffffffffffffffffff16905081600760006101000a81548173ffffffffffffffffffffffffffffffffffffffff021916908373ffffffffffffffffffffffffffffffffffffffff1602179055508173ffffffffffffffffffffffffffffffffffffffff168173ffffffffffffffffffffffffffffffffffffffff167f8be0079c531659141344cd1fd0a4f28419497f9722a3daafe3b4186f6b6457e060405160405180910390a35050565b828054620001b49062000256565b90600052602060002090601f016020900481019282620001d8576000855562000224565b82601f10620001f357805160ff191683800117855562000224565b8280016001018555821562000224579182015b828111156200022357825182559160200191906001019062000206565b5b50905062000233919062000237565b5090565b5b808211156200025257600081600090555060010162000238565b5090565b600060028204905060018216806200026f57607f821691505b602082108114156200028657620002856200028c565b5b50919050565b7f4e487b7100000000000000000000000000000000000000000000000000000000600052602260045260246000fd5b61378380620002cb6000396000f3fe608060405234801561001057600080fd5b50600436106101585760003560e01c80638da5cb5b116100c3578063c87b56dd1161007c578063c87b56dd146103b2578063d547cfb7146103e2578063e8a3d48514610400578063e985e9c51461041e578063ef73f69d1461044e578063f2fde38b1461046c57610158565b80638da5cb5b1461030457806395d89b4114610322578063a09ecfbc14610340578063a22cb4651461035c578063b44da9e814610378578063b88d4fde1461039657610158565b806321292e3d1161011557806321292e3d1461024657806323b872dd1461026257806342842e0e1461027e5780636352211e1461029a57806370a08231146102ca578063715018a6146102fa57610158565b806301ffc9a71461015d57806306fdde031461018d578063081812fc146101ab578063095ea7b3146101db57806313ac7898146101f757806318160ddd14610228575b600080fd5b61017760048036038101906101729190612645565b610488565b6040516101849190612b69565b60405180910390f35b61019561056a565b6040516101a29190612b84565b60405180910390f35b6101c560048036038101906101c09190612697565b6105fc565b6040516101d29190612aa2565b60405180910390f35b6101f560048036038101906101f09190612609565b610681565b005b610211600480360381019061020c91906126c0565b610799565b60405161021f929190612e2a565b60405180910390f35b6102306107d7565b60405161023d9190612de6565b60405180910390f35b610260600480360381019061025b91906126fc565b6107e8565b005b61027c60048036038101906102779190612503565b610a9d565b005b61029860048036038101906102939190612503565b610afd565b005b6102b460048036038101906102af9190612697565b610b1d565b6040516102c19190612aa2565b60405180910390f35b6102e460048036038101906102df9190612475565b610bcf565b6040516102f19190612de6565b60405180910390f35b610302610c87565b005b61030c610d0f565b6040516103199190612aa2565b60405180910390f35b61032a610d39565b6040516103379190612b84565b60405180910390f35b61035a600480360381019061035591906126fc565b610dcb565b005b610376600480360381019061037191906125cd565b611084565b005b610380611205565b60405161038d9190612de6565b60405180910390f35b6103b060048036038101906103ab9190612552565b61120a565b005b6103cc60048036038101906103c79190612697565b61126c565b6040516103d99190612b84565b60405180910390f35b6103ea6112a6565b6040516103f79190612b84565b60405180910390f35b6104086112c6565b6040516104159190612b84565b60405180910390f35b610438600480360381019061043391906124c7565b6112e6565b6040516104459190612b69565b60405180910390f35b61045661137a565b6040516104639190612de6565b60405180910390f35b61048660048036038101906104819190612475565b61137f565b005b60007f80ac58cd000000000000000000000000000000000000000000000000000000007bffffffffffffffffffffffffffffffffffffffffffffffffffffffff1916827bffffffffffffffffffffffffffffffffffffffffffffffffffffffff1916148061055357507f5b5e139f000000000000000000000000000000000000000000000000000000007bffffffffffffffffffffffffffffffffffffffffffffffffffffffff1916827bffffffffffffffffffffffffffffffffffffffffffffffffffffffff1916145b80610563575061056282611477565b5b9050919050565b6060600080546105799061305d565b80601f01602080910402602001604051908101604052809291908181526020018280546105a59061305d565b80156105f25780601f106105c7576101008083540402835291602001916105f2565b820191906000526020600020905b8154815290600101906020018083116105d557829003601f168201915b5050505050905090565b6000610607826114e1565b610646576040517f08c379a000000000000000000000000000000000000000000000000000000000815260040161063d90612d06565b60405180910390fd5b6004600083815260200190815260200160002060009054906101000a900473ffffffffffffffffffffffffffffffffffffffff169050919050565b600061068c82610b1d565b90508073ffffffffffffffffffffffffffffffffffffffff168373ffffffffffffffffffffffffffffffffffffffff1614156106fd576040517f08c379a00000000000000000000000000000000000000000000000000000000081526004016106f490612d66565b60405180910390fd5b8073ffffffffffffffffffffffffffffffffffffffff1661071c61154d565b73ffffffffffffffffffffffffffffffffffffffff16148061074b575061074a8161074561154d565b6112e6565b5b61078a576040517f08c379a000000000000000000000000000000000000000000000000000000000815260040161078190612c86565b60405180910390fd5b6107948383611555565b505050565b6009602052816000526040600020602052806000526040600020600091509150508060000154908060010160009054906101000a900460ff16905082565b60006107e3600861160e565b905090565b60006107f38261161c565b9050600061080084610b1d565b90503373ffffffffffffffffffffffffffffffffffffffff168173ffffffffffffffffffffffffffffffffffffffff1614610870576040517f08c379a000000000000000000000000000000000000000000000000000000000815260040161086790612da6565b60405180910390fd5b610879846116cf565b60006009600086815260200190815260200160002060008473ffffffffffffffffffffffffffffffffffffffff1673ffffffffffffffffffffffffffffffffffffffff168152602001908152602001600020604051806040016040529081600082015481526020016001820160009054906101000a900460ff16151515158152505090508060200151610941576040517f08c379a000000000000000000000000000000000000000000000000000000000815260040161093890612dc6565b60405180910390fd5b6000816020019015159081151581525050806009600087815260200190815260200160002060008573ffffffffffffffffffffffffffffffffffffffff1673ffffffffffffffffffffffffffffffffffffffff1681526020019081526020016000206000820151816000015560208201518160010160006101000a81548160ff0219169083151502179055509050508273ffffffffffffffffffffffffffffffffffffffff1663a9059cbb3383600001516040518363ffffffff1660e01b8152600401610a0f929190612b40565b600060405180830381600087803b158015610a2957600080fd5b505af1158015610a3d573d6000803e3d6000fd5b50505050843373ffffffffffffffffffffffffffffffffffffffff167f4ff5ed1c9e7b108d4387ea610e939d38856e040cdd5b1d6836e1fc82ca2b08b0836000015186604051610a8e929190612e01565b60405180910390a35050505050565b610aae610aa861154d565b82611722565b610aed576040517f08c379a0000000000000000000000000000000000000000000000000000000008152600401610ae490612d86565b60405180910390fd5b610af8838383611800565b505050565b610b188383836040518060200160405280600081525061120a565b505050565b6000806002600084815260200190815260200160002060009054906101000a900473ffffffffffffffffffffffffffffffffffffffff169050600073ffffffffffffffffffffffffffffffffffffffff168173ffffffffffffffffffffffffffffffffffffffff161415610bc6576040517f08c379a0000000000000000000000000000000000000000000000000000000008152600401610bbd90612cc6565b60405180910390fd5b80915050919050565b60008073ffffffffffffffffffffffffffffffffffffffff168273ffffffffffffffffffffffffffffffffffffffff161415610c40576040517f08c379a0000000000000000000000000000000000000000000000000000000008152600401610c3790612ca6565b60405180910390fd5b600360008373ffffffffffffffffffffffffffffffffffffffff1673ffffffffffffffffffffffffffffffffffffffff168152602001908152602001600020549050919050565b610c8f61154d565b73ffffffffffffffffffffffffffffffffffffffff16610cad610d0f565b73ffffffffffffffffffffffffffffffffffffffff1614610d03576040517f08c379a0000000000000000000000000000000000000000000000000000000008152600401610cfa90612d26565b60405180910390fd5b610d0d6000611a5c565b565b6000600760009054906101000a900473ffffffffffffffffffffffffffffffffffffffff16905090565b606060018054610d489061305d565b80601f0160208091040260200160405190810160405280929190818152602001828054610d749061305d565b8015610dc15780601f10610d9657610100808354040283529160200191610dc1565b820191906000526020600020905b815481529060010190602001808311610da457829003601f168201915b5050505050905090565b6000610dd68261161c565b905060008173ffffffffffffffffffffffffffffffffffffffff16636352211e856040518263ffffffff1660e01b8152600401610e139190612de6565b60206040518083038186803b158015610e2b57600080fd5b505afa158015610e3f573d6000803e3d6000fd5b505050506040513d601f19601f82011682018060405250810190610e63919061249e565b9050610e6f8484611b22565b610eae576040517f08c379a0000000000000000000000000000000000000000000000000000000008152600401610ea590612c06565b60405180910390fd5b3373ffffffffffffffffffffffffffffffffffffffff168173ffffffffffffffffffffffffffffffffffffffff1614610f1c576040517f08c379a0000000000000000000000000000000000000000000000000000000008152600401610f1390612da6565b60405180910390fd5b8173ffffffffffffffffffffffffffffffffffffffff166323b872dd3330876040518463ffffffff1660e01b8152600401610f5993929190612abd565b600060405180830381600087803b158015610f7357600080fd5b505af1158015610f87573d6000803e3d6000fd5b505050506000610f95611c45565b90506040518060400160405280868152602001600115158152506009600083815260200190815260200160002060008573ffffffffffffffffffffffffffffffffffffffff1673ffffffffffffffffffffffffffffffffffffffff1681526020019081526020016000206000820151816000015560208201518160010160006101000a81548160ff021916908315150217905550905050803373ffffffffffffffffffffffffffffffffffffffff167fad16c0cdaa4bd80cb85752cce46858b910e203dff83c39bbe1478f1c996175338786604051611075929190612e01565b60405180910390a35050505050565b61108c61154d565b73ffffffffffffffffffffffffffffffffffffffff168273ffffffffffffffffffffffffffffffffffffffff1614156110fa576040517f08c379a00000000000000000000000000000000000000000000000000000000081526004016110f190612c46565b60405180910390fd5b806005600061110761154d565b73ffffffffffffffffffffffffffffffffffffffff1673ffffffffffffffffffffffffffffffffffffffff16815260200190815260200160002060008473ffffffffffffffffffffffffffffffffffffffff1673ffffffffffffffffffffffffffffffffffffffff16815260200190815260200160002060006101000a81548160ff0219169083151502179055508173ffffffffffffffffffffffffffffffffffffffff166111b461154d565b73ffffffffffffffffffffffffffffffffffffffff167f17307eab39ab6107e8899845ad3d59bd9653f200f220920489ca2b5937696c31836040516111f99190612b69565b60405180910390a35050565b601e81565b61121b61121561154d565b83611722565b61125a576040517f08c379a000000000000000000000000000000000000000000000000000000000815260040161125190612d86565b60405180910390fd5b61126684848484611c70565b50505050565b60606112766112a6565b61127f83611ccc565b604051602001611290929190612a7e565b6040516020818303038152906040529050919050565b60606040518060600160405280602e81526020016136f8602e9139905090565b606060405180606001604052806028815260200161372660289139905090565b6000600560008473ffffffffffffffffffffffffffffffffffffffff1673ffffffffffffffffffffffffffffffffffffffff16815260200190815260200160002060008373ffffffffffffffffffffffffffffffffffffffff1673ffffffffffffffffffffffffffffffffffffffff16815260200190815260200160002060009054906101000a900460ff16905092915050565b602f81565b61138761154d565b73ffffffffffffffffffffffffffffffffffffffff166113a5610d0f565b73ffffffffffffffffffffffffffffffffffffffff16146113fb576040517f08c379a00000000000000000000000000000000000000000000000000000000081526004016113f290612d26565b60405180910390fd5b600073ffffffffffffffffffffffffffffffffffffffff168173ffffffffffffffffffffffffffffffffffffffff16141561146b576040517f08c379a000000000000000000000000000000000000000000000000000000000815260040161146290612bc6565b60405180910390fd5b61147481611a5c565b50565b60007f01ffc9a7000000000000000000000000000000000000000000000000000000007bffffffffffffffffffffffffffffffffffffffffffffffffffffffff1916827bffffffffffffffffffffffffffffffffffffffffffffffffffffffff1916149050919050565b60008073ffffffffffffffffffffffffffffffffffffffff166002600084815260200190815260200160002060009054906101000a900473ffffffffffffffffffffffffffffffffffffffff1673ffffffffffffffffffffffffffffffffffffffff1614159050919050565b600033905090565b816004600083815260200190815260200160002060006101000a81548173ffffffffffffffffffffffffffffffffffffffff021916908373ffffffffffffffffffffffffffffffffffffffff160217905550808273ffffffffffffffffffffffffffffffffffffffff166115c883610b1d565b73ffffffffffffffffffffffffffffffffffffffff167f8c5be1e5ebec7d5bd14f71427d1e84f3dd0314c0f7b2291e5b200ac8c7c3b92560405160405180910390a45050565b600081600001549050919050565b6000806001811115611657577f4e487b7100000000000000000000000000000000000000000000000000000000600052602160045260246000fd5b826001811115611690577f4e487b7100000000000000000000000000000000000000000000000000000000600052602160045260246000fd5b14156116b257735af7af54e8bc34b293e356ef11fffe51d6f9ae7890506116ca565b735b6660ca047cc351bfedca4fc864d0a88f55148590505b919050565b6116d881611e79565b60006006600083815260200190815260200160002080546116f89061305d565b90501461171f5760066000828152602001908152602001600020600061171e919061231d565b5b50565b600061172d826114e1565b61176c576040517f08c379a000000000000000000000000000000000000000000000000000000000815260040161176390612c66565b60405180910390fd5b600061177783610b1d565b90508073ffffffffffffffffffffffffffffffffffffffff168473ffffffffffffffffffffffffffffffffffffffff1614806117e657508373ffffffffffffffffffffffffffffffffffffffff166117ce846105fc565b73ffffffffffffffffffffffffffffffffffffffff16145b806117f757506117f681856112e6565b5b91505092915050565b8273ffffffffffffffffffffffffffffffffffffffff1661182082610b1d565b73ffffffffffffffffffffffffffffffffffffffff1614611876576040517f08c379a000000000000000000000000000000000000000000000000000000000815260040161186d90612d46565b60405180910390fd5b600073ffffffffffffffffffffffffffffffffffffffff168273ffffffffffffffffffffffffffffffffffffffff1614156118e6576040517f08c379a00000000000000000000000000000000000000000000000000000000081526004016118dd90612c26565b60405180910390fd5b6118f1838383611f8a565b6118fc600082611555565b6001600360008573ffffffffffffffffffffffffffffffffffffffff1673ffffffffffffffffffffffffffffffffffffffff168152602001908152602001600020600082825461194c9190612f73565b925050819055506001600360008473ffffffffffffffffffffffffffffffffffffffff1673ffffffffffffffffffffffffffffffffffffffff16815260200190815260200160002060008282546119a39190612eec565b92505081905550816002600083815260200190815260200160002060006101000a81548173ffffffffffffffffffffffffffffffffffffffff021916908373ffffffffffffffffffffffffffffffffffffffff160217905550808273ffffffffffffffffffffffffffffffffffffffff168473ffffffffffffffffffffffffffffffffffffffff167fddf252ad1be2c89b69c2b068fc378daa952ba7f163c4a11628f55a4df523b3ef60405160405180910390a4505050565b6000600760009054906101000a900473ffffffffffffffffffffffffffffffffffffffff16905081600760006101000a81548173ffffffffffffffffffffffffffffffffffffffff021916908373ffffffffffffffffffffffffffffffffffffffff1602179055508173ffffffffffffffffffffffffffffffffffffffff168173ffffffffffffffffffffffffffffffffffffffff167f8be0079c531659141344cd1fd0a4f28419497f9722a3daafe3b4186f6b6457e060405160405180910390a35050565b6000806001811115611b5d577f4e487b7100000000000000000000000000000000000000000000000000000000600052602160045260246000fd5b826001811115611b96577f4e487b7100000000000000000000000000000000000000000000000000000000600052602160045260246000fd5b1415611baf57601e831115611bae5760019050611c3f565b5b600180811115611be8577f4e487b7100000000000000000000000000000000000000000000000000000000600052602160045260246000fd5b826001811115611c21577f4e487b7100000000000000000000000000000000000000000000000000000000600052602160045260246000fd5b1415611c3a57602f831115611c395760019050611c3f565b5b600190505b92915050565b6000611c516008611f8f565b6000611c5d600861160e565b9050611c693382611fa5565b8091505090565b611c7b848484611800565b611c8784848484612173565b611cc6576040517f08c379a0000000000000000000000000000000000000000000000000000000008152600401611cbd90612ba6565b60405180910390fd5b50505050565b60606000821415611d14576040518060400160405280600181526020017f30000000000000000000000000000000000000000000000000000000000000008152509050611e74565b600082905060005b60008214611d46578080611d2f906130c0565b915050600a82611d3f9190612f42565b9150611d1c565b60008167ffffffffffffffff811115611d88577f4e487b7100000000000000000000000000000000000000000000000000000000600052604160045260246000fd5b6040519080825280601f01601f191660200182016040528015611dba5781602001600182028036833780820191505090505b5090505b60008514611e6d57600182611dd39190612f73565b9150600a85611de29190613109565b6030611dee9190612eec565b60f81b818381518110611e2a577f4e487b7100000000000000000000000000000000000000000000000000000000600052603260045260246000fd5b60200101907effffffffffffffffffffffffffffffffffffffffffffffffffffffffffffff1916908160001a905350600a85611e669190612f42565b9450611dbe565b8093505050505b919050565b6000611e8482610b1d565b9050611e9281600084611f8a565b611e9d600083611555565b6001600360008373ffffffffffffffffffffffffffffffffffffffff1673ffffffffffffffffffffffffffffffffffffffff1681526020019081526020016000206000828254611eed9190612f73565b925050819055506002600083815260200190815260200160002060006101000a81549073ffffffffffffffffffffffffffffffffffffffff021916905581600073ffffffffffffffffffffffffffffffffffffffff168273ffffffffffffffffffffffffffffffffffffffff167fddf252ad1be2c89b69c2b068fc378daa952ba7f163c4a11628f55a4df523b3ef60405160405180910390a45050565b505050565b6001816000016000828254019250508190555050565b600073ffffffffffffffffffffffffffffffffffffffff168273ffffffffffffffffffffffffffffffffffffffff161415612015576040517f08c379a000000000000000000000000000000000000000000000000000000000815260040161200c90612ce6565b60405180910390fd5b61201e816114e1565b1561205e576040517f08c379a000000000000000000000000000000000000000000000000000000000815260040161205590612be6565b60405180910390fd5b61206a60008383611f8a565b6001600360008473ffffffffffffffffffffffffffffffffffffffff1673ffffffffffffffffffffffffffffffffffffffff16815260200190815260200160002060008282546120ba9190612eec565b92505081905550816002600083815260200190815260200160002060006101000a81548173ffffffffffffffffffffffffffffffffffffffff021916908373ffffffffffffffffffffffffffffffffffffffff160217905550808273ffffffffffffffffffffffffffffffffffffffff16600073ffffffffffffffffffffffffffffffffffffffff167fddf252ad1be2c89b69c2b068fc378daa952ba7f163c4a11628f55a4df523b3ef60405160405180910390a45050565b60006121948473ffffffffffffffffffffffffffffffffffffffff1661230a565b156122fd578373ffffffffffffffffffffffffffffffffffffffff1663150b7a026121bd61154d565b8786866040518563ffffffff1660e01b81526004016121df9493929190612af4565b602060405180830381600087803b1580156121f957600080fd5b505af192505050801561222a57506040513d601f19601f82011682018060405250810190612227919061266e565b60015b6122ad573d806000811461225a576040519150601f19603f3d011682016040523d82523d6000602084013e61225f565b606091505b506000815114156122a5576040517f08c379a000000000000000000000000000000000000000000000000000000000815260040161229c90612ba6565b60405180910390fd5b805181602001fd5b63150b7a0260e01b7bffffffffffffffffffffffffffffffffffffffffffffffffffffffff1916817bffffffffffffffffffffffffffffffffffffffffffffffffffffffff191614915050612302565b600190505b949350505050565b600080823b905060008111915050919050565b5080546123299061305d565b6000825580601f1061233b575061235a565b601f016020900490600052602060002090810190612359919061235d565b5b50565b5b8082111561237657600081600090555060010161235e565b5090565b600061238d61238884612e78565b612e53565b9050828152602081018484840111156123a557600080fd5b6123b084828561301b565b509392505050565b6000813590506123c78161368b565b92915050565b6000815190506123dc8161368b565b92915050565b6000813590506123f1816136a2565b92915050565b600081359050612406816136b9565b92915050565b60008151905061241b816136b9565b92915050565b600082601f83011261243257600080fd5b813561244284826020860161237a565b91505092915050565b60008135905061245a816136d0565b92915050565b60008135905061246f816136e0565b92915050565b60006020828403121561248757600080fd5b6000612495848285016123b8565b91505092915050565b6000602082840312156124b057600080fd5b60006124be848285016123cd565b91505092915050565b600080604083850312156124da57600080fd5b60006124e8858286016123b8565b92505060206124f9858286016123b8565b9150509250929050565b60008060006060848603121561251857600080fd5b6000612526868287016123b8565b9350506020612537868287016123b8565b925050604061254886828701612460565b9150509250925092565b6000806000806080858703121561256857600080fd5b6000612576878288016123b8565b9450506020612587878288016123b8565b935050604061259887828801612460565b925050606085013567ffffffffffffffff8111156125b557600080fd5b6125c187828801612421565b91505092959194509250565b600080604083850312156125e057600080fd5b60006125ee858286016123b8565b92505060206125ff858286016123e2565b9150509250929050565b6000806040838503121561261c57600080fd5b600061262a858286016123b8565b925050602061263b85828601612460565b9150509250929050565b60006020828403121561265757600080fd5b6000612665848285016123f7565b91505092915050565b60006020828403121561268057600080fd5b600061268e8482850161240c565b91505092915050565b6000602082840312156126a957600080fd5b60006126b784828501612460565b91505092915050565b600080604083850312156126d357600080fd5b60006126e185828601612460565b92505060206126f2858286016123b8565b9150509250929050565b6000806040838503121561270f57600080fd5b600061271d85828601612460565b925050602061272e8582860161244b565b9150509250929050565b61274181612fa7565b82525050565b61275081612fb9565b82525050565b600061276182612ea9565b61276b8185612ebf565b935061277b81856020860161302a565b612784816131f6565b840191505092915050565b600061279a82612eb4565b6127a48185612ed0565b93506127b481856020860161302a565b6127bd816131f6565b840191505092915050565b60006127d382612eb4565b6127dd8185612ee1565b93506127ed81856020860161302a565b80840191505092915050565b6000612806603283612ed0565b915061281182613207565b604082019050919050565b6000612829602683612ed0565b915061283482613256565b604082019050919050565b600061284c601c83612ed0565b9150612857826132a5565b602082019050919050565b600061286f601583612ed0565b915061287a826132ce565b602082019050919050565b6000612892602483612ed0565b915061289d826132f7565b604082019050919050565b60006128b5601983612ed0565b91506128c082613346565b602082019050919050565b60006128d8602c83612ed0565b91506128e38261336f565b604082019050919050565b60006128fb603883612ed0565b9150612906826133be565b604082019050919050565b600061291e602a83612ed0565b91506129298261340d565b604082019050919050565b6000612941602983612ed0565b915061294c8261345c565b604082019050919050565b6000612964602083612ed0565b915061296f826134ab565b602082019050919050565b6000612987602c83612ed0565b9150612992826134d4565b604082019050919050565b60006129aa602083612ed0565b91506129b582613523565b602082019050919050565b60006129cd602983612ed0565b91506129d88261354c565b604082019050919050565b60006129f0602183612ed0565b91506129fb8261359b565b604082019050919050565b6000612a13603183612ed0565b9150612a1e826135ea565b604082019050919050565b6000612a36600f83612ed0565b9150612a4182613639565b602082019050919050565b6000612a59601183612ed0565b9150612a6482613662565b602082019050919050565b612a7881613011565b82525050565b6000612a8a82856127c8565b9150612a9682846127c8565b91508190509392505050565b6000602082019050612ab76000830184612738565b92915050565b6000606082019050612ad26000830186612738565b612adf6020830185612738565b612aec6040830184612a6f565b949350505050565b6000608082019050612b096000830187612738565b612b166020830186612738565b612b236040830185612a6f565b8181036060830152612b358184612756565b905095945050505050565b6000604082019050612b556000830185612738565b612b626020830184612a6f565b9392505050565b6000602082019050612b7e6000830184612747565b92915050565b60006020820190508181036000830152612b9e818461278f565b905092915050565b60006020820190508181036000830152612bbf816127f9565b9050919050565b60006020820190508181036000830152612bdf8161281c565b9050919050565b60006020820190508181036000830152612bff8161283f565b9050919050565b60006020820190508181036000830152612c1f81612862565b9050919050565b60006020820190508181036000830152612c3f81612885565b9050919050565b60006020820190508181036000830152612c5f816128a8565b9050919050565b60006020820190508181036000830152612c7f816128cb565b9050919050565b60006020820190508181036000830152612c9f816128ee565b9050919050565b60006020820190508181036000830152612cbf81612911565b9050919050565b60006020820190508181036000830152612cdf81612934565b9050919050565b60006020820190508181036000830152612cff81612957565b9050919050565b60006020820190508181036000830152612d1f8161297a565b9050919050565b60006020820190508181036000830152612d3f8161299d565b9050919050565b60006020820190508181036000830152612d5f816129c0565b9050919050565b60006020820190508181036000830152612d7f816129e3565b9050919050565b60006020820190508181036000830152612d9f81612a06565b9050919050565b60006020820190508181036000830152612dbf81612a29565b9050919050565b60006020820190508181036000830152612ddf81612a4c565b9050919050565b6000602082019050612dfb6000830184612a6f565b92915050565b6000604082019050612e166000830185612a6f565b612e236020830184612738565b9392505050565b6000604082019050612e3f6000830185612a6f565b612e4c6020830184612747565b9392505050565b6000612e5d612e6e565b9050612e69828261308f565b919050565b6000604051905090565b600067ffffffffffffffff821115612e9357612e926131c7565b5b612e9c826131f6565b9050602081019050919050565b600081519050919050565b600081519050919050565b600082825260208201905092915050565b600082825260208201905092915050565b600081905092915050565b6000612ef782613011565b9150612f0283613011565b9250827fffffffffffffffffffffffffffffffffffffffffffffffffffffffffffffffff03821115612f3757612f3661313a565b5b828201905092915050565b6000612f4d82613011565b9150612f5883613011565b925082612f6857612f67613169565b5b828204905092915050565b6000612f7e82613011565b9150612f8983613011565b925082821015612f9c57612f9b61313a565b5b828203905092915050565b6000612fb282612ff1565b9050919050565b60008115159050919050565b60007fffffffff0000000000000000000000000000000000000000000000000000000082169050919050565b600073ffffffffffffffffffffffffffffffffffffffff82169050919050565b6000819050919050565b82818337600083830152505050565b60005b8381101561304857808201518184015260208101905061302d565b83811115613057576000848401525b50505050565b6000600282049050600182168061307557607f821691505b6020821081141561308957613088613198565b5b50919050565b613098826131f6565b810181811067ffffffffffffffff821117156130b7576130b66131c7565b5b80604052505050565b60006130cb82613011565b91507fffffffffffffffffffffffffffffffffffffffffffffffffffffffffffffffff8214156130fe576130fd61313a565b5b600182019050919050565b600061311482613011565b915061311f83613011565b92508261312f5761312e613169565b5b828206905092915050565b7f4e487b7100000000000000000000000000000000000000000000000000000000600052601160045260246000fd5b7f4e487b7100000000000000000000000000000000000000000000000000000000600052601260045260246000fd5b7f4e487b7100000000000000000000000000000000000000000000000000000000600052602260045260246000fd5b7f4e487b7100000000000000000000000000000000000000000000000000000000600052604160045260246000fd5b6000601f19601f8301169050919050565b7f4552433732313a207472616e7366657220746f206e6f6e20455243373231526560008201527f63656976657220696d706c656d656e7465720000000000000000000000000000602082015250565b7f4f776e61626c653a206e6577206f776e657220697320746865207a65726f206160008201527f6464726573730000000000000000000000000000000000000000000000000000602082015250565b7f4552433732313a20746f6b656e20616c7265616479206d696e74656400000000600082015250565b7f5772617020636865636b206e6f74207061737365640000000000000000000000600082015250565b7f4552433732313a207472616e7366657220746f20746865207a65726f2061646460008201527f7265737300000000000000000000000000000000000000000000000000000000602082015250565b7f4552433732313a20617070726f766520746f2063616c6c657200000000000000600082015250565b7f4552433732313a206f70657261746f7220717565727920666f72206e6f6e657860008201527f697374656e7420746f6b656e0000000000000000000000000000000000000000602082015250565b7f4552433732313a20617070726f76652063616c6c6572206973206e6f74206f7760008201527f6e6572206e6f7220617070726f76656420666f7220616c6c0000000000000000602082015250565b7f4552433732313a2062616c616e636520717565727920666f7220746865207a6560008201527f726f206164647265737300000000000000000000000000000000000000000000602082015250565b7f4552433732313a206f776e657220717565727920666f72206e6f6e657869737460008201527f656e7420746f6b656e0000000000000000000000000000000000000000000000602082015250565b7f4552433732313a206d696e7420746f20746865207a65726f2061646472657373600082015250565b7f4552433732313a20617070726f76656420717565727920666f72206e6f6e657860008201527f697374656e7420746f6b656e0000000000000000000000000000000000000000602082015250565b7f4f776e61626c653a2063616c6c6572206973206e6f7420746865206f776e6572600082015250565b7f4552433732313a207472616e73666572206f6620746f6b656e2074686174206960008201527f73206e6f74206f776e0000000000000000000000000000000000000000000000602082015250565b7f4552433732313a20617070726f76616c20746f2063757272656e74206f776e6560008201527f7200000000000000000000000000000000000000000000000000000000000000602082015250565b7f4552433732313a207472616e736665722063616c6c6572206973206e6f74206f60008201527f776e6572206e6f7220617070726f766564000000000000000000000000000000602082015250565b7f4e6f7420746f6b656e206f776e65720000000000000000000000000000000000600082015250565b7f546f6b656e206e6f742077726170706564000000000000000000000000000000600082015250565b61369481612fa7565b811461369f57600080fd5b50565b6136ab81612fb9565b81146136b657600080fd5b50565b6136c281612fc5565b81146136cd57600080fd5b50565b600281106136dd57600080fd5b50565b6136e981613011565b81146136f457600080fd5b5056fe68747470733a2f2f63727970746f6a696e676c65732e6170702f6170692f777261707065642d6a696e676c65732f68747470733a2f2f63727970746f6a696e676c65732e6170702f6170692f6d657461646174614f47a2646970667358221220323a4ab3809add2bf6f73a9fb43c3d9ca6b23c15958213851818d029e19e988064736f6c63430008040033",
  "linkReferences": {},
  "deployedLinkReferences": {}
}