{
  "_format": "hh-sol-artifact-1",
  "contractName": "WrappedJingle",
  "sourceName": "contracts/WrappedJingle.sol",
  "abi": [
    {
      "inputs": [],
      "stateMutability": "nonpayable",
      "type": "constructor"
    },
    {
      "anonymous": false,
      "inputs": [
        {
          "indexed": true,
          "internalType": "address",
          "name": "owner",
          "type": "address"
        },
        {
          "indexed": true,
          "internalType": "address",
          "name": "approved",
          "type": "address"
        },
        {
          "indexed": true,
          "internalType": "uint256",
          "name": "tokenId",
          "type": "uint256"
        }
      ],
      "name": "Approval",
      "type": "event"
    },
    {
      "anonymous": false,
      "inputs": [
        {
          "indexed": true,
          "internalType": "address",
          "name": "owner",
          "type": "address"
        },
        {
          "indexed": true,
          "internalType": "address",
          "name": "operator",
          "type": "address"
        },
        {
          "indexed": false,
          "internalType": "bool",
          "name": "approved",
          "type": "bool"
        }
      ],
      "name": "ApprovalForAll",
      "type": "event"
    },
    {
      "anonymous": false,
      "inputs": [
        {
          "indexed": true,
          "internalType": "address",
          "name": "previousOwner",
          "type": "address"
        },
        {
          "indexed": true,
          "internalType": "address",
          "name": "newOwner",
          "type": "address"
        }
      ],
      "name": "OwnershipTransferred",
      "type": "event"
    },
    {
      "anonymous": false,
      "inputs": [
        {
          "indexed": true,
          "internalType": "address",
          "name": "from",
          "type": "address"
        },
        {
          "indexed": true,
          "internalType": "address",
          "name": "to",
          "type": "address"
        },
        {
          "indexed": true,
          "internalType": "uint256",
          "name": "tokenId",
          "type": "uint256"
        }
      ],
      "name": "Transfer",
      "type": "event"
    },
    {
      "anonymous": false,
      "inputs": [
        {
          "indexed": true,
          "internalType": "address",
          "name": "",
          "type": "address"
        },
        {
          "indexed": true,
          "internalType": "uint256",
          "name": "",
          "type": "uint256"
        },
        {
          "indexed": false,
          "internalType": "uint256",
          "name": "",
          "type": "uint256"
        },
        {
          "indexed": false,
          "internalType": "address",
          "name": "",
          "type": "address"
        }
      ],
      "name": "Unwrapped",
      "type": "event"
    },
    {
      "anonymous": false,
      "inputs": [
        {
          "indexed": true,
          "internalType": "address",
          "name": "",
          "type": "address"
        },
        {
          "indexed": true,
          "internalType": "uint256",
          "name": "",
          "type": "uint256"
        },
        {
          "indexed": false,
          "internalType": "uint256",
          "name": "",
          "type": "uint256"
        },
        {
          "indexed": false,
          "internalType": "address",
          "name": "",
          "type": "address"
        }
      ],
      "name": "Wrapped",
      "type": "event"
    },
    {
      "inputs": [],
      "name": "NUM_V0_JINGLES",
      "outputs": [
        {
          "internalType": "uint256",
          "name": "",
          "type": "uint256"
        }
      ],
      "stateMutability": "view",
      "type": "function"
    },
    {
      "inputs": [],
      "name": "NUM_V1_JINGLES",
      "outputs": [
        {
          "internalType": "uint256",
          "name": "",
          "type": "uint256"
        }
      ],
      "stateMutability": "view",
      "type": "function"
    },
    {
      "inputs": [
        {
          "internalType": "address",
          "name": "to",
          "type": "address"
        },
        {
          "internalType": "uint256",
          "name": "tokenId",
          "type": "uint256"
        }
      ],
      "name": "approve",
      "outputs": [],
      "stateMutability": "nonpayable",
      "type": "function"
    },
    {
      "inputs": [
        {
          "internalType": "address",
          "name": "owner",
          "type": "address"
        }
      ],
      "name": "balanceOf",
      "outputs": [
        {
          "internalType": "uint256",
          "name": "",
          "type": "uint256"
        }
      ],
      "stateMutability": "view",
      "type": "function"
    },
    {
      "inputs": [],
      "name": "baseTokenURI",
      "outputs": [
        {
          "internalType": "string",
          "name": "",
          "type": "string"
        }
      ],
      "stateMutability": "pure",
      "type": "function"
    },
    {
      "inputs": [],
      "name": "contractURI",
      "outputs": [
        {
          "internalType": "string",
          "name": "",
          "type": "string"
        }
      ],
      "stateMutability": "pure",
      "type": "function"
    },
    {
      "inputs": [
        {
          "internalType": "uint256",
          "name": "tokenId",
          "type": "uint256"
        }
      ],
      "name": "getApproved",
      "outputs": [
        {
          "internalType": "address",
          "name": "",
          "type": "address"
        }
      ],
      "stateMutability": "view",
      "type": "function"
    },
    {
      "inputs": [
        {
          "internalType": "address",
          "name": "owner",
          "type": "address"
        },
        {
          "internalType": "address",
          "name": "operator",
          "type": "address"
        }
      ],
      "name": "isApprovedForAll",
      "outputs": [
        {
          "internalType": "bool",
          "name": "",
          "type": "bool"
        }
      ],
      "stateMutability": "view",
      "type": "function"
    },
    {
      "inputs": [],
      "name": "name",
      "outputs": [
        {
          "internalType": "string",
          "name": "",
          "type": "string"
        }
      ],
      "stateMutability": "view",
      "type": "function"
    },
    {
      "inputs": [],
      "name": "owner",
      "outputs": [
        {
          "internalType": "address",
          "name": "",
          "type": "address"
        }
      ],
      "stateMutability": "view",
      "type": "function"
    },
    {
      "inputs": [
        {
          "internalType": "uint256",
          "name": "tokenId",
          "type": "uint256"
        }
      ],
      "name": "ownerOf",
      "outputs": [
        {
          "internalType": "address",
          "name": "",
          "type": "address"
        }
      ],
      "stateMutability": "view",
      "type": "function"
    },
    {
      "inputs": [],
      "name": "renounceOwnership",
      "outputs": [],
      "stateMutability": "nonpayable",
      "type": "function"
    },
    {
      "inputs": [
        {
          "internalType": "address",
          "name": "from",
          "type": "address"
        },
        {
          "internalType": "address",
          "name": "to",
          "type": "address"
        },
        {
          "internalType": "uint256",
          "name": "tokenId",
          "type": "uint256"
        }
      ],
      "name": "safeTransferFrom",
      "outputs": [],
      "stateMutability": "nonpayable",
      "type": "function"
    },
    {
      "inputs": [
        {
          "internalType": "address",
          "name": "from",
          "type": "address"
        },
        {
          "internalType": "address",
          "name": "to",
          "type": "address"
        },
        {
          "internalType": "uint256",
          "name": "tokenId",
          "type": "uint256"
        },
        {
          "internalType": "bytes",
          "name": "_data",
          "type": "bytes"
        }
      ],
      "name": "safeTransferFrom",
      "outputs": [],
      "stateMutability": "nonpayable",
      "type": "function"
    },
    {
      "inputs": [
        {
          "internalType": "address",
          "name": "operator",
          "type": "address"
        },
        {
          "internalType": "bool",
          "name": "approved",
          "type": "bool"
        }
      ],
      "name": "setApprovalForAll",
      "outputs": [],
      "stateMutability": "nonpayable",
      "type": "function"
    },
    {
      "inputs": [
        {
          "internalType": "bytes4",
          "name": "interfaceId",
          "type": "bytes4"
        }
      ],
      "name": "supportsInterface",
      "outputs": [
        {
          "internalType": "bool",
          "name": "",
          "type": "bool"
        }
      ],
      "stateMutability": "view",
      "type": "function"
    },
    {
      "inputs": [],
      "name": "symbol",
      "outputs": [
        {
          "internalType": "string",
          "name": "",
          "type": "string"
        }
      ],
      "stateMutability": "view",
      "type": "function"
    },
    {
      "inputs": [
        {
          "internalType": "uint256",
          "name": "_tokenId",
          "type": "uint256"
        }
      ],
      "name": "tokenURI",
      "outputs": [
        {
          "internalType": "string",
          "name": "",
          "type": "string"
        }
      ],
      "stateMutability": "pure",
      "type": "function"
    },
    {
      "inputs": [],
      "name": "totalSupply",
      "outputs": [
        {
          "internalType": "uint256",
          "name": "",
          "type": "uint256"
        }
      ],
      "stateMutability": "view",
      "type": "function"
    },
    {
      "inputs": [
        {
          "internalType": "address",
          "name": "from",
          "type": "address"
        },
        {
          "internalType": "address",
          "name": "to",
          "type": "address"
        },
        {
          "internalType": "uint256",
          "name": "tokenId",
          "type": "uint256"
        }
      ],
      "name": "transferFrom",
      "outputs": [],
      "stateMutability": "nonpayable",
      "type": "function"
    },
    {
      "inputs": [
        {
          "internalType": "address",
          "name": "newOwner",
          "type": "address"
        }
      ],
      "name": "transferOwnership",
      "outputs": [],
      "stateMutability": "nonpayable",
      "type": "function"
    },
    {
      "inputs": [
        {
          "internalType": "uint256",
          "name": "_wrappedTokenId",
          "type": "uint256"
        },
        {
          "internalType": "enum WrappedJingle.Version",
          "name": "_version",
          "type": "uint8"
        }
      ],
      "name": "unwrap",
      "outputs": [],
      "stateMutability": "nonpayable",
      "type": "function"
    },
    {
      "inputs": [
        {
          "internalType": "uint256",
          "name": "",
          "type": "uint256"
        },
        {
          "internalType": "address",
          "name": "",
          "type": "address"
        }
      ],
      "name": "unwrappedToWrapped",
      "outputs": [
        {
          "internalType": "uint256",
          "name": "",
          "type": "uint256"
        }
      ],
      "stateMutability": "view",
      "type": "function"
    },
    {
      "inputs": [
        {
          "internalType": "uint256",
          "name": "_tokenId",
          "type": "uint256"
        },
        {
          "internalType": "enum WrappedJingle.Version",
          "name": "_version",
          "type": "uint8"
        }
      ],
      "name": "wrap",
      "outputs": [],
      "stateMutability": "nonpayable",
      "type": "function"
    },
    {
      "inputs": [
        {
          "internalType": "uint256",
          "name": "",
          "type": "uint256"
        }
      ],
      "name": "wrappedToUnwrapped",
      "outputs": [
        {
          "internalType": "uint256",
          "name": "tokenId",
          "type": "uint256"
        },
        {
          "internalType": "address",
          "name": "jingleContract",
          "type": "address"
        },
        {
          "internalType": "bool",
          "name": "isWrapped",
          "type": "bool"
        }
      ],
      "stateMutability": "view",
      "type": "function"
    }
  ],
  "bytecode": "0x60806040523480156200001157600080fd5b506040518060400160405280600d81526020017f43727970746f4a696e676c6573000000000000000000000000000000000000008152506040518060400160405280600281526020017f434a000000000000000000000000000000000000000000000000000000000000815250816000908051906020019062000096929190620001a6565b508060019080519060200190620000af929190620001a6565b505050620000d2620000c6620000d860201b60201c565b620000e060201b60201c565b620002bb565b600033905090565b6000600760009054906101000a900473ffffffffffffffffffffffffffffffffffffffff16905081600760006101000a81548173ffffffffffffffffffffffffffffffffffffffff021916908373ffffffffffffffffffffffffffffffffffffffff1602179055508173ffffffffffffffffffffffffffffffffffffffff168173ffffffffffffffffffffffffffffffffffffffff167f8be0079c531659141344cd1fd0a4f28419497f9722a3daafe3b4186f6b6457e060405160405180910390a35050565b828054620001b49062000256565b90600052602060002090601f016020900481019282620001d8576000855562000224565b82601f10620001f357805160ff191683800117855562000224565b8280016001018555821562000224579182015b828111156200022357825182559160200191906001019062000206565b5b50905062000233919062000237565b5090565b5b808211156200025257600081600090555060010162000238565b5090565b600060028204905060018216806200026f57607f821691505b602082108114156200028657620002856200028c565b5b50919050565b7f4e487b7100000000000000000000000000000000000000000000000000000000600052602260045260246000fd5b61384580620002cb6000396000f3fe608060405234801561001057600080fd5b50600436106101735760003560e01c8063715018a6116100de578063b88d4fde11610097578063e8a3d48511610071578063e8a3d4851461044c578063e985e9c51461046a578063ef73f69d1461049a578063f2fde38b146104b857610173565b8063b88d4fde146103e2578063c87b56dd146103fe578063d547cfb71461042e57610173565b8063715018a6146103465780638da5cb5b1461035057806395d89b411461036e578063a09ecfbc1461038c578063a22cb465146103a8578063b44da9e8146103c457610173565b806323b872dd1161013057806323b872dd1461024c5780634227f8a91461026857806342842e0e1461029a57806342a94b8a146102b65780636352211e146102e657806370a082311461031657610173565b806301ffc9a71461017857806306fdde03146101a8578063081812fc146101c6578063095ea7b3146101f657806318160ddd1461021257806321292e3d14610230575b600080fd5b610192600480360381019061018d919061268d565b6104d4565b60405161019f9190612bd4565b60405180910390f35b6101b06105b6565b6040516101bd9190612bef565b60405180910390f35b6101e060048036038101906101db91906126df565b610648565b6040516101ed9190612b0d565b60405180910390f35b610210600480360381019061020b9190612651565b6106cd565b005b61021a6107e5565b6040516102279190612e71565b60405180910390f35b61024a60048036038101906102459190612744565b6107f6565b005b6102666004803603810190610261919061254b565b610ad0565b005b610282600480360381019061027d91906126df565b610b30565b60405161029193929190612eb5565b60405180910390f35b6102b460048036038101906102af919061254b565b610b87565b005b6102d060048036038101906102cb9190612708565b610ba7565b6040516102dd9190612e71565b60405180910390f35b61030060048036038101906102fb91906126df565b610bcc565b60405161030d9190612b0d565b60405180910390f35b610330600480360381019061032b91906124bd565b610c7e565b60405161033d9190612e71565b60405180910390f35b61034e610d36565b005b610358610dbe565b6040516103659190612b0d565b60405180910390f35b610376610de8565b6040516103839190612bef565b60405180910390f35b6103a660048036038101906103a19190612744565b610e7a565b005b6103c260048036038101906103bd9190612615565b61128d565b005b6103cc61140e565b6040516103d99190612e71565b60405180910390f35b6103fc60048036038101906103f7919061259a565b611413565b005b610418600480360381019061041391906126df565b611475565b6040516104259190612bef565b60405180910390f35b6104366114af565b6040516104439190612bef565b60405180910390f35b6104546114cf565b6040516104619190612bef565b60405180910390f35b610484600480360381019061047f919061250f565b6114ef565b6040516104919190612bd4565b60405180910390f35b6104a2611583565b6040516104af9190612e71565b60405180910390f35b6104d260048036038101906104cd91906124bd565b611588565b005b60007f80ac58cd000000000000000000000000000000000000000000000000000000007bffffffffffffffffffffffffffffffffffffffffffffffffffffffff1916827bffffffffffffffffffffffffffffffffffffffffffffffffffffffff1916148061059f57507f5b5e139f000000000000000000000000000000000000000000000000000000007bffffffffffffffffffffffffffffffffffffffffffffffffffffffff1916827bffffffffffffffffffffffffffffffffffffffffffffffffffffffff1916145b806105af57506105ae82611680565b5b9050919050565b6060600080546105c5906130f6565b80601f01602080910402602001604051908101604052809291908181526020018280546105f1906130f6565b801561063e5780601f106106135761010080835404028352916020019161063e565b820191906000526020600020905b81548152906001019060200180831161062157829003601f168201915b5050505050905090565b6000610653826116ea565b610692576040517f08c379a000000000000000000000000000000000000000000000000000000000815260040161068990612d91565b60405180910390fd5b6004600083815260200190815260200160002060009054906101000a900473ffffffffffffffffffffffffffffffffffffffff169050919050565b60006106d882610bcc565b90508073ffffffffffffffffffffffffffffffffffffffff168373ffffffffffffffffffffffffffffffffffffffff161415610749576040517f08c379a000000000000000000000000000000000000000000000000000000000815260040161074090612df1565b60405180910390fd5b8073ffffffffffffffffffffffffffffffffffffffff16610768611756565b73ffffffffffffffffffffffffffffffffffffffff161480610797575061079681610791611756565b6114ef565b5b6107d6576040517f08c379a00000000000000000000000000000000000000000000000000000000081526004016107cd90612d11565b60405180910390fd5b6107e0838361175e565b505050565b60006107f16008611817565b905090565b600061080182611825565b9050600061080e84610bcc565b90503373ffffffffffffffffffffffffffffffffffffffff168173ffffffffffffffffffffffffffffffffffffffff161461087e576040517f08c379a000000000000000000000000000000000000000000000000000000000815260040161087590612e31565b60405180910390fd5b610889333086610ad0565b600060096000868152602001908152602001600020604051806060016040529081600082015481526020016001820160009054906101000a900473ffffffffffffffffffffffffffffffffffffffff1673ffffffffffffffffffffffffffffffffffffffff1673ffffffffffffffffffffffffffffffffffffffff1681526020016001820160149054906101000a900460ff1615151515815250509050806040015161096a576040517f08c379a000000000000000000000000000000000000000000000000000000000815260040161096190612e51565b60405180910390fd5b600081604001901515908115158152505080600960008781526020019081526020016000206000820151816000015560208201518160010160006101000a81548173ffffffffffffffffffffffffffffffffffffffff021916908373ffffffffffffffffffffffffffffffffffffffff16021790555060408201518160010160146101000a81548160ff0219169083151502179055509050508273ffffffffffffffffffffffffffffffffffffffff1663a9059cbb3383600001516040518363ffffffff1660e01b8152600401610a42929190612bab565b600060405180830381600087803b158015610a5c57600080fd5b505af1158015610a70573d6000803e3d6000fd5b50505050843373ffffffffffffffffffffffffffffffffffffffff167f4ff5ed1c9e7b108d4387ea610e939d38856e040cdd5b1d6836e1fc82ca2b08b0836000015186604051610ac1929190612e8c565b60405180910390a35050505050565b610ae1610adb611756565b826118d8565b610b20576040517f08c379a0000000000000000000000000000000000000000000000000000000008152600401610b1790612e11565b60405180910390fd5b610b2b8383836119b6565b505050565b60096020528060005260406000206000915090508060000154908060010160009054906101000a900473ffffffffffffffffffffffffffffffffffffffff16908060010160149054906101000a900460ff16905083565b610ba283838360405180602001604052806000815250611413565b505050565b600a602052816000526040600020602052806000526040600020600091509150505481565b6000806002600084815260200190815260200160002060009054906101000a900473ffffffffffffffffffffffffffffffffffffffff169050600073ffffffffffffffffffffffffffffffffffffffff168173ffffffffffffffffffffffffffffffffffffffff161415610c75576040517f08c379a0000000000000000000000000000000000000000000000000000000008152600401610c6c90612d51565b60405180910390fd5b80915050919050565b60008073ffffffffffffffffffffffffffffffffffffffff168273ffffffffffffffffffffffffffffffffffffffff161415610cef576040517f08c379a0000000000000000000000000000000000000000000000000000000008152600401610ce690612d31565b60405180910390fd5b600360008373ffffffffffffffffffffffffffffffffffffffff1673ffffffffffffffffffffffffffffffffffffffff168152602001908152602001600020549050919050565b610d3e611756565b73ffffffffffffffffffffffffffffffffffffffff16610d5c610dbe565b73ffffffffffffffffffffffffffffffffffffffff1614610db2576040517f08c379a0000000000000000000000000000000000000000000000000000000008152600401610da990612db1565b60405180910390fd5b610dbc6000611c12565b565b6000600760009054906101000a900473ffffffffffffffffffffffffffffffffffffffff16905090565b606060018054610df7906130f6565b80601f0160208091040260200160405190810160405280929190818152602001828054610e23906130f6565b8015610e705780601f10610e4557610100808354040283529160200191610e70565b820191906000526020600020905b815481529060010190602001808311610e5357829003601f168201915b5050505050905090565b6000610e8582611825565b905060008173ffffffffffffffffffffffffffffffffffffffff16636352211e856040518263ffffffff1660e01b8152600401610ec29190612e71565b60206040518083038186803b158015610eda57600080fd5b505afa158015610eee573d6000803e3d6000fd5b505050506040513d601f19601f82011682018060405250810190610f1291906124e6565b9050610f1e8484611cd8565b610f5d576040517f08c379a0000000000000000000000000000000000000000000000000000000008152600401610f5490612c91565b60405180910390fd5b3373ffffffffffffffffffffffffffffffffffffffff168173ffffffffffffffffffffffffffffffffffffffff1614610fcb576040517f08c379a0000000000000000000000000000000000000000000000000000000008152600401610fc290612e31565b60405180910390fd5b8173ffffffffffffffffffffffffffffffffffffffff166323b872dd3330876040518463ffffffff1660e01b815260040161100893929190612b28565b600060405180830381600087803b15801561102257600080fd5b505af1158015611036573d6000803e3d6000fd5b50505050600080600a600087815260200190815260200160002060008573ffffffffffffffffffffffffffffffffffffffff1673ffffffffffffffffffffffffffffffffffffffff1681526020019081526020016000205414156110f85761109c611dfb565b905080600a600087815260200190815260200160002060008573ffffffffffffffffffffffffffffffffffffffff1673ffffffffffffffffffffffffffffffffffffffff1681526020019081526020016000208190555061117a565b3073ffffffffffffffffffffffffffffffffffffffff1661111882610bcc565b73ffffffffffffffffffffffffffffffffffffffff161461116e576040517f08c379a000000000000000000000000000000000000000000000000000000000815260040161116590612c51565b60405180910390fd5b6111793033836119b6565b5b60405180606001604052808681526020018473ffffffffffffffffffffffffffffffffffffffff16815260200160011515815250600960008381526020019081526020016000206000820151816000015560208201518160010160006101000a81548173ffffffffffffffffffffffffffffffffffffffff021916908373ffffffffffffffffffffffffffffffffffffffff16021790555060408201518160010160146101000a81548160ff021916908315150217905550905050803373ffffffffffffffffffffffffffffffffffffffff167fad16c0cdaa4bd80cb85752cce46858b910e203dff83c39bbe1478f1c99617533878660405161127e929190612e8c565b60405180910390a35050505050565b611295611756565b73ffffffffffffffffffffffffffffffffffffffff168273ffffffffffffffffffffffffffffffffffffffff161415611303576040517f08c379a00000000000000000000000000000000000000000000000000000000081526004016112fa90612cd1565b60405180910390fd5b8060056000611310611756565b73ffffffffffffffffffffffffffffffffffffffff1673ffffffffffffffffffffffffffffffffffffffff16815260200190815260200160002060008473ffffffffffffffffffffffffffffffffffffffff1673ffffffffffffffffffffffffffffffffffffffff16815260200190815260200160002060006101000a81548160ff0219169083151502179055508173ffffffffffffffffffffffffffffffffffffffff166113bd611756565b73ffffffffffffffffffffffffffffffffffffffff167f17307eab39ab6107e8899845ad3d59bd9653f200f220920489ca2b5937696c31836040516114029190612bd4565b60405180910390a35050565b601e81565b61142461141e611756565b836118d8565b611463576040517f08c379a000000000000000000000000000000000000000000000000000000000815260040161145a90612e11565b60405180910390fd5b61146f84848484611e26565b50505050565b606061147f6114af565b61148883611e82565b604051602001611499929190612ae9565b6040516020818303038152906040529050919050565b60606040518060600160405280602e81526020016137ba602e9139905090565b60606040518060600160405280602881526020016137e860289139905090565b6000600560008473ffffffffffffffffffffffffffffffffffffffff1673ffffffffffffffffffffffffffffffffffffffff16815260200190815260200160002060008373ffffffffffffffffffffffffffffffffffffffff1673ffffffffffffffffffffffffffffffffffffffff16815260200190815260200160002060009054906101000a900460ff16905092915050565b602f81565b611590611756565b73ffffffffffffffffffffffffffffffffffffffff166115ae610dbe565b73ffffffffffffffffffffffffffffffffffffffff1614611604576040517f08c379a00000000000000000000000000000000000000000000000000000000081526004016115fb90612db1565b60405180910390fd5b600073ffffffffffffffffffffffffffffffffffffffff168173ffffffffffffffffffffffffffffffffffffffff161415611674576040517f08c379a000000000000000000000000000000000000000000000000000000000815260040161166b90612c31565b60405180910390fd5b61167d81611c12565b50565b60007f01ffc9a7000000000000000000000000000000000000000000000000000000007bffffffffffffffffffffffffffffffffffffffffffffffffffffffff1916827bffffffffffffffffffffffffffffffffffffffffffffffffffffffff1916149050919050565b60008073ffffffffffffffffffffffffffffffffffffffff166002600084815260200190815260200160002060009054906101000a900473ffffffffffffffffffffffffffffffffffffffff1673ffffffffffffffffffffffffffffffffffffffff1614159050919050565b600033905090565b816004600083815260200190815260200160002060006101000a81548173ffffffffffffffffffffffffffffffffffffffff021916908373ffffffffffffffffffffffffffffffffffffffff160217905550808273ffffffffffffffffffffffffffffffffffffffff166117d183610bcc565b73ffffffffffffffffffffffffffffffffffffffff167f8c5be1e5ebec7d5bd14f71427d1e84f3dd0314c0f7b2291e5b200ac8c7c3b92560405160405180910390a45050565b600081600001549050919050565b6000806001811115611860577f4e487b7100000000000000000000000000000000000000000000000000000000600052602160045260246000fd5b826001811115611899577f4e487b7100000000000000000000000000000000000000000000000000000000600052602160045260246000fd5b14156118bb57735af7af54e8bc34b293e356ef11fffe51d6f9ae7890506118d3565b735b6660ca047cc351bfedca4fc864d0a88f55148590505b919050565b60006118e3826116ea565b611922576040517f08c379a000000000000000000000000000000000000000000000000000000000815260040161191990612cf1565b60405180910390fd5b600061192d83610bcc565b90508073ffffffffffffffffffffffffffffffffffffffff168473ffffffffffffffffffffffffffffffffffffffff16148061199c57508373ffffffffffffffffffffffffffffffffffffffff1661198484610648565b73ffffffffffffffffffffffffffffffffffffffff16145b806119ad57506119ac81856114ef565b5b91505092915050565b8273ffffffffffffffffffffffffffffffffffffffff166119d682610bcc565b73ffffffffffffffffffffffffffffffffffffffff1614611a2c576040517f08c379a0000000000000000000000000000000000000000000000000000000008152600401611a2390612dd1565b60405180910390fd5b600073ffffffffffffffffffffffffffffffffffffffff168273ffffffffffffffffffffffffffffffffffffffff161415611a9c576040517f08c379a0000000000000000000000000000000000000000000000000000000008152600401611a9390612cb1565b60405180910390fd5b611aa783838361202f565b611ab260008261175e565b6001600360008573ffffffffffffffffffffffffffffffffffffffff1673ffffffffffffffffffffffffffffffffffffffff1681526020019081526020016000206000828254611b02919061300c565b925050819055506001600360008473ffffffffffffffffffffffffffffffffffffffff1673ffffffffffffffffffffffffffffffffffffffff1681526020019081526020016000206000828254611b599190612f85565b92505081905550816002600083815260200190815260200160002060006101000a81548173ffffffffffffffffffffffffffffffffffffffff021916908373ffffffffffffffffffffffffffffffffffffffff160217905550808273ffffffffffffffffffffffffffffffffffffffff168473ffffffffffffffffffffffffffffffffffffffff167fddf252ad1be2c89b69c2b068fc378daa952ba7f163c4a11628f55a4df523b3ef60405160405180910390a4505050565b6000600760009054906101000a900473ffffffffffffffffffffffffffffffffffffffff16905081600760006101000a81548173ffffffffffffffffffffffffffffffffffffffff021916908373ffffffffffffffffffffffffffffffffffffffff1602179055508173ffffffffffffffffffffffffffffffffffffffff168173ffffffffffffffffffffffffffffffffffffffff167f8be0079c531659141344cd1fd0a4f28419497f9722a3daafe3b4186f6b6457e060405160405180910390a35050565b6000806001811115611d13577f4e487b7100000000000000000000000000000000000000000000000000000000600052602160045260246000fd5b826001811115611d4c577f4e487b7100000000000000000000000000000000000000000000000000000000600052602160045260246000fd5b1415611d6557601e831115611d645760019050611df5565b5b600180811115611d9e577f4e487b7100000000000000000000000000000000000000000000000000000000600052602160045260246000fd5b826001811115611dd7577f4e487b7100000000000000000000000000000000000000000000000000000000600052602160045260246000fd5b1415611df057602f831115611def5760019050611df5565b5b600090505b92915050565b6000611e076008612034565b6000611e136008611817565b9050611e1f338261204a565b8091505090565b611e318484846119b6565b611e3d84848484612218565b611e7c576040517f08c379a0000000000000000000000000000000000000000000000000000000008152600401611e7390612c11565b60405180910390fd5b50505050565b60606000821415611eca576040518060400160405280600181526020017f3000000000000000000000000000000000000000000000000000000000000000815250905061202a565b600082905060005b60008214611efc578080611ee590613159565b915050600a82611ef59190612fdb565b9150611ed2565b60008167ffffffffffffffff811115611f3e577f4e487b7100000000000000000000000000000000000000000000000000000000600052604160045260246000fd5b6040519080825280601f01601f191660200182016040528015611f705781602001600182028036833780820191505090505b5090505b6000851461202357600182611f89919061300c565b9150600a85611f9891906131a2565b6030611fa49190612f85565b60f81b818381518110611fe0577f4e487b7100000000000000000000000000000000000000000000000000000000600052603260045260246000fd5b60200101907effffffffffffffffffffffffffffffffffffffffffffffffffffffffffffff1916908160001a905350600a8561201c9190612fdb565b9450611f74565b8093505050505b919050565b505050565b6001816000016000828254019250508190555050565b600073ffffffffffffffffffffffffffffffffffffffff168273ffffffffffffffffffffffffffffffffffffffff1614156120ba576040517f08c379a00000000000000000000000000000000000000000000000000000000081526004016120b190612d71565b60405180910390fd5b6120c3816116ea565b15612103576040517f08c379a00000000000000000000000000000000000000000000000000000000081526004016120fa90612c71565b60405180910390fd5b61210f6000838361202f565b6001600360008473ffffffffffffffffffffffffffffffffffffffff1673ffffffffffffffffffffffffffffffffffffffff168152602001908152602001600020600082825461215f9190612f85565b92505081905550816002600083815260200190815260200160002060006101000a81548173ffffffffffffffffffffffffffffffffffffffff021916908373ffffffffffffffffffffffffffffffffffffffff160217905550808273ffffffffffffffffffffffffffffffffffffffff16600073ffffffffffffffffffffffffffffffffffffffff167fddf252ad1be2c89b69c2b068fc378daa952ba7f163c4a11628f55a4df523b3ef60405160405180910390a45050565b60006122398473ffffffffffffffffffffffffffffffffffffffff166123af565b156123a2578373ffffffffffffffffffffffffffffffffffffffff1663150b7a02612262611756565b8786866040518563ffffffff1660e01b81526004016122849493929190612b5f565b602060405180830381600087803b15801561229e57600080fd5b505af19250505080156122cf57506040513d601f19601f820116820180604052508101906122cc91906126b6565b60015b612352573d80600081146122ff576040519150601f19603f3d011682016040523d82523d6000602084013e612304565b606091505b5060008151141561234a576040517f08c379a000000000000000000000000000000000000000000000000000000000815260040161234190612c11565b60405180910390fd5b805181602001fd5b63150b7a0260e01b7bffffffffffffffffffffffffffffffffffffffffffffffffffffffff1916817bffffffffffffffffffffffffffffffffffffffffffffffffffffffff1916149150506123a7565b600190505b949350505050565b600080823b905060008111915050919050565b60006123d56123d084612f11565b612eec565b9050828152602081018484840111156123ed57600080fd5b6123f88482856130b4565b509392505050565b60008135905061240f8161374d565b92915050565b6000815190506124248161374d565b92915050565b60008135905061243981613764565b92915050565b60008135905061244e8161377b565b92915050565b6000815190506124638161377b565b92915050565b600082601f83011261247a57600080fd5b813561248a8482602086016123c2565b91505092915050565b6000813590506124a281613792565b92915050565b6000813590506124b7816137a2565b92915050565b6000602082840312156124cf57600080fd5b60006124dd84828501612400565b91505092915050565b6000602082840312156124f857600080fd5b600061250684828501612415565b91505092915050565b6000806040838503121561252257600080fd5b600061253085828601612400565b925050602061254185828601612400565b9150509250929050565b60008060006060848603121561256057600080fd5b600061256e86828701612400565b935050602061257f86828701612400565b9250506040612590868287016124a8565b9150509250925092565b600080600080608085870312156125b057600080fd5b60006125be87828801612400565b94505060206125cf87828801612400565b93505060406125e0878288016124a8565b925050606085013567ffffffffffffffff8111156125fd57600080fd5b61260987828801612469565b91505092959194509250565b6000806040838503121561262857600080fd5b600061263685828601612400565b92505060206126478582860161242a565b9150509250929050565b6000806040838503121561266457600080fd5b600061267285828601612400565b9250506020612683858286016124a8565b9150509250929050565b60006020828403121561269f57600080fd5b60006126ad8482850161243f565b91505092915050565b6000602082840312156126c857600080fd5b60006126d684828501612454565b91505092915050565b6000602082840312156126f157600080fd5b60006126ff848285016124a8565b91505092915050565b6000806040838503121561271b57600080fd5b6000612729858286016124a8565b925050602061273a85828601612400565b9150509250929050565b6000806040838503121561275757600080fd5b6000612765858286016124a8565b925050602061277685828601612493565b9150509250929050565b61278981613040565b82525050565b61279881613052565b82525050565b60006127a982612f42565b6127b38185612f58565b93506127c38185602086016130c3565b6127cc8161328f565b840191505092915050565b60006127e282612f4d565b6127ec8185612f69565b93506127fc8185602086016130c3565b6128058161328f565b840191505092915050565b600061281b82612f4d565b6128258185612f7a565b93506128358185602086016130c3565b80840191505092915050565b600061284e603283612f69565b9150612859826132a0565b604082019050919050565b6000612871602683612f69565b915061287c826132ef565b604082019050919050565b6000612894601583612f69565b915061289f8261333e565b602082019050919050565b60006128b7601c83612f69565b91506128c282613367565b602082019050919050565b60006128da601583612f69565b91506128e582613390565b602082019050919050565b60006128fd602483612f69565b9150612908826133b9565b604082019050919050565b6000612920601983612f69565b915061292b82613408565b602082019050919050565b6000612943602c83612f69565b915061294e82613431565b604082019050919050565b6000612966603883612f69565b915061297182613480565b604082019050919050565b6000612989602a83612f69565b9150612994826134cf565b604082019050919050565b60006129ac602983612f69565b91506129b78261351e565b604082019050919050565b60006129cf602083612f69565b91506129da8261356d565b602082019050919050565b60006129f2602c83612f69565b91506129fd82613596565b604082019050919050565b6000612a15602083612f69565b9150612a20826135e5565b602082019050919050565b6000612a38602983612f69565b9150612a438261360e565b604082019050919050565b6000612a5b602183612f69565b9150612a668261365d565b604082019050919050565b6000612a7e603183612f69565b9150612a89826136ac565b604082019050919050565b6000612aa1600f83612f69565b9150612aac826136fb565b602082019050919050565b6000612ac4601183612f69565b9150612acf82613724565b602082019050919050565b612ae3816130aa565b82525050565b6000612af58285612810565b9150612b018284612810565b91508190509392505050565b6000602082019050612b226000830184612780565b92915050565b6000606082019050612b3d6000830186612780565b612b4a6020830185612780565b612b576040830184612ada565b949350505050565b6000608082019050612b746000830187612780565b612b816020830186612780565b612b8e6040830185612ada565b8181036060830152612ba0818461279e565b905095945050505050565b6000604082019050612bc06000830185612780565b612bcd6020830184612ada565b9392505050565b6000602082019050612be9600083018461278f565b92915050565b60006020820190508181036000830152612c0981846127d7565b905092915050565b60006020820190508181036000830152612c2a81612841565b9050919050565b60006020820190508181036000830152612c4a81612864565b9050919050565b60006020820190508181036000830152612c6a81612887565b9050919050565b60006020820190508181036000830152612c8a816128aa565b9050919050565b60006020820190508181036000830152612caa816128cd565b9050919050565b60006020820190508181036000830152612cca816128f0565b9050919050565b60006020820190508181036000830152612cea81612913565b9050919050565b60006020820190508181036000830152612d0a81612936565b9050919050565b60006020820190508181036000830152612d2a81612959565b9050919050565b60006020820190508181036000830152612d4a8161297c565b9050919050565b60006020820190508181036000830152612d6a8161299f565b9050919050565b60006020820190508181036000830152612d8a816129c2565b9050919050565b60006020820190508181036000830152612daa816129e5565b9050919050565b60006020820190508181036000830152612dca81612a08565b9050919050565b60006020820190508181036000830152612dea81612a2b565b9050919050565b60006020820190508181036000830152612e0a81612a4e565b9050919050565b60006020820190508181036000830152612e2a81612a71565b9050919050565b60006020820190508181036000830152612e4a81612a94565b9050919050565b60006020820190508181036000830152612e6a81612ab7565b9050919050565b6000602082019050612e866000830184612ada565b92915050565b6000604082019050612ea16000830185612ada565b612eae6020830184612780565b9392505050565b6000606082019050612eca6000830186612ada565b612ed76020830185612780565b612ee4604083018461278f565b949350505050565b6000612ef6612f07565b9050612f028282613128565b919050565b6000604051905090565b600067ffffffffffffffff821115612f2c57612f2b613260565b5b612f358261328f565b9050602081019050919050565b600081519050919050565b600081519050919050565b600082825260208201905092915050565b600082825260208201905092915050565b600081905092915050565b6000612f90826130aa565b9150612f9b836130aa565b9250827fffffffffffffffffffffffffffffffffffffffffffffffffffffffffffffffff03821115612fd057612fcf6131d3565b5b828201905092915050565b6000612fe6826130aa565b9150612ff1836130aa565b92508261300157613000613202565b5b828204905092915050565b6000613017826130aa565b9150613022836130aa565b925082821015613035576130346131d3565b5b828203905092915050565b600061304b8261308a565b9050919050565b60008115159050919050565b60007fffffffff0000000000000000000000000000000000000000000000000000000082169050919050565b600073ffffffffffffffffffffffffffffffffffffffff82169050919050565b6000819050919050565b82818337600083830152505050565b60005b838110156130e15780820151818401526020810190506130c6565b838111156130f0576000848401525b50505050565b6000600282049050600182168061310e57607f821691505b6020821081141561312257613121613231565b5b50919050565b6131318261328f565b810181811067ffffffffffffffff821117156131505761314f613260565b5b80604052505050565b6000613164826130aa565b91507fffffffffffffffffffffffffffffffffffffffffffffffffffffffffffffffff821415613197576131966131d3565b5b600182019050919050565b60006131ad826130aa565b91506131b8836130aa565b9250826131c8576131c7613202565b5b828206905092915050565b7f4e487b7100000000000000000000000000000000000000000000000000000000600052601160045260246000fd5b7f4e487b7100000000000000000000000000000000000000000000000000000000600052601260045260246000fd5b7f4e487b7100000000000000000000000000000000000000000000000000000000600052602260045260246000fd5b7f4e487b7100000000000000000000000000000000000000000000000000000000600052604160045260246000fd5b6000601f19601f8301169050919050565b7f4552433732313a207472616e7366657220746f206e6f6e20455243373231526560008201527f63656976657220696d706c656d656e7465720000000000000000000000000000602082015250565b7f4f776e61626c653a206e6577206f776e657220697320746865207a65726f206160008201527f6464726573730000000000000000000000000000000000000000000000000000602082015250565b7f57726170706572206d757374206265206f776e65720000000000000000000000600082015250565b7f4552433732313a20746f6b656e20616c7265616479206d696e74656400000000600082015250565b7f5772617020636865636b206e6f74207061737365640000000000000000000000600082015250565b7f4552433732313a207472616e7366657220746f20746865207a65726f2061646460008201527f7265737300000000000000000000000000000000000000000000000000000000602082015250565b7f4552433732313a20617070726f766520746f2063616c6c657200000000000000600082015250565b7f4552433732313a206f70657261746f7220717565727920666f72206e6f6e657860008201527f697374656e7420746f6b656e0000000000000000000000000000000000000000602082015250565b7f4552433732313a20617070726f76652063616c6c6572206973206e6f74206f7760008201527f6e6572206e6f7220617070726f76656420666f7220616c6c0000000000000000602082015250565b7f4552433732313a2062616c616e636520717565727920666f7220746865207a6560008201527f726f206164647265737300000000000000000000000000000000000000000000602082015250565b7f4552433732313a206f776e657220717565727920666f72206e6f6e657869737460008201527f656e7420746f6b656e0000000000000000000000000000000000000000000000602082015250565b7f4552433732313a206d696e7420746f20746865207a65726f2061646472657373600082015250565b7f4552433732313a20617070726f76656420717565727920666f72206e6f6e657860008201527f697374656e7420746f6b656e0000000000000000000000000000000000000000602082015250565b7f4f776e61626c653a2063616c6c6572206973206e6f7420746865206f776e6572600082015250565b7f4552433732313a207472616e73666572206f6620746f6b656e2074686174206960008201527f73206e6f74206f776e0000000000000000000000000000000000000000000000602082015250565b7f4552433732313a20617070726f76616c20746f2063757272656e74206f776e6560008201527f7200000000000000000000000000000000000000000000000000000000000000602082015250565b7f4552433732313a207472616e736665722063616c6c6572206973206e6f74206f60008201527f776e6572206e6f7220617070726f766564000000000000000000000000000000602082015250565b7f4e6f7420746f6b656e206f776e65720000000000000000000000000000000000600082015250565b7f546f6b656e206e6f742077726170706564000000000000000000000000000000600082015250565b61375681613040565b811461376157600080fd5b50565b61376d81613052565b811461377857600080fd5b50565b6137848161305e565b811461378f57600080fd5b50565b6002811061379f57600080fd5b50565b6137ab816130aa565b81146137b657600080fd5b5056fe68747470733a2f2f63727970746f6a696e676c65732e6170702f6170692f777261707065642d6a696e676c65732f68747470733a2f2f63727970746f6a696e676c65732e6170702f6170692f6d657461646174614f47a2646970667358221220cbe152237a765f011abef840648f54da46489650ed1e87c505062df1d5fc880d64736f6c63430008040033",
  "linkReferences": {},
  "deployedLinkReferences": {}
}