{
  "_format": "hh-sol-artifact-1",
  "contractName": "WrappedJingle",
  "sourceName": "contracts/WrappedJingle.sol",
  "abi": [
    {
      "inputs": [],
      "stateMutability": "nonpayable",
      "type": "constructor"
    },
    {
      "anonymous": false,
      "inputs": [
        {
          "indexed": true,
          "internalType": "address",
          "name": "owner",
          "type": "address"
        },
        {
          "indexed": true,
          "internalType": "address",
          "name": "approved",
          "type": "address"
        },
        {
          "indexed": true,
          "internalType": "uint256",
          "name": "tokenId",
          "type": "uint256"
        }
      ],
      "name": "Approval",
      "type": "event"
    },
    {
      "anonymous": false,
      "inputs": [
        {
          "indexed": true,
          "internalType": "address",
          "name": "owner",
          "type": "address"
        },
        {
          "indexed": true,
          "internalType": "address",
          "name": "operator",
          "type": "address"
        },
        {
          "indexed": false,
          "internalType": "bool",
          "name": "approved",
          "type": "bool"
        }
      ],
      "name": "ApprovalForAll",
      "type": "event"
    },
    {
      "anonymous": false,
      "inputs": [
        {
          "indexed": true,
          "internalType": "address",
          "name": "from",
          "type": "address"
        },
        {
          "indexed": true,
          "internalType": "address",
          "name": "to",
          "type": "address"
        },
        {
          "indexed": true,
          "internalType": "uint256",
          "name": "tokenId",
          "type": "uint256"
        }
      ],
      "name": "Transfer",
      "type": "event"
    },
    {
      "anonymous": false,
      "inputs": [
        {
          "indexed": true,
          "internalType": "uint256",
          "name": "",
          "type": "uint256"
        },
        {
          "indexed": false,
          "internalType": "uint256",
          "name": "",
          "type": "uint256"
        },
        {
          "indexed": false,
          "internalType": "address",
          "name": "",
          "type": "address"
        }
      ],
      "name": "Unwrapped",
      "type": "event"
    },
    {
      "anonymous": false,
      "inputs": [
        {
          "indexed": true,
          "internalType": "uint256",
          "name": "",
          "type": "uint256"
        },
        {
          "indexed": false,
          "internalType": "uint256",
          "name": "",
          "type": "uint256"
        },
        {
          "indexed": false,
          "internalType": "address",
          "name": "",
          "type": "address"
        }
      ],
      "name": "Wrapped",
      "type": "event"
    },
    {
      "inputs": [],
      "name": "NUM_V0_JINGLES",
      "outputs": [
        {
          "internalType": "uint256",
          "name": "",
          "type": "uint256"
        }
      ],
      "stateMutability": "view",
      "type": "function"
    },
    {
      "inputs": [
        {
          "internalType": "address",
          "name": "to",
          "type": "address"
        },
        {
          "internalType": "uint256",
          "name": "tokenId",
          "type": "uint256"
        }
      ],
      "name": "approve",
      "outputs": [],
      "stateMutability": "nonpayable",
      "type": "function"
    },
    {
      "inputs": [
        {
          "internalType": "address",
          "name": "owner",
          "type": "address"
        }
      ],
      "name": "balanceOf",
      "outputs": [
        {
          "internalType": "uint256",
          "name": "",
          "type": "uint256"
        }
      ],
      "stateMutability": "view",
      "type": "function"
    },
    {
      "inputs": [],
      "name": "baseTokenURI",
      "outputs": [
        {
          "internalType": "string",
          "name": "",
          "type": "string"
        }
      ],
      "stateMutability": "pure",
      "type": "function"
    },
    {
      "inputs": [],
      "name": "contractURI",
      "outputs": [
        {
          "internalType": "string",
          "name": "",
          "type": "string"
        }
      ],
      "stateMutability": "pure",
      "type": "function"
    },
    {
      "inputs": [
        {
          "internalType": "uint256",
          "name": "tokenId",
          "type": "uint256"
        }
      ],
      "name": "getApproved",
      "outputs": [
        {
          "internalType": "address",
          "name": "",
          "type": "address"
        }
      ],
      "stateMutability": "view",
      "type": "function"
    },
    {
      "inputs": [
        {
          "internalType": "address",
          "name": "owner",
          "type": "address"
        },
        {
          "internalType": "address",
          "name": "operator",
          "type": "address"
        }
      ],
      "name": "isApprovedForAll",
      "outputs": [
        {
          "internalType": "bool",
          "name": "",
          "type": "bool"
        }
      ],
      "stateMutability": "view",
      "type": "function"
    },
    {
      "inputs": [],
      "name": "name",
      "outputs": [
        {
          "internalType": "string",
          "name": "",
          "type": "string"
        }
      ],
      "stateMutability": "view",
      "type": "function"
    },
    {
      "inputs": [
        {
          "internalType": "uint256",
          "name": "tokenId",
          "type": "uint256"
        }
      ],
      "name": "ownerOf",
      "outputs": [
        {
          "internalType": "address",
          "name": "",
          "type": "address"
        }
      ],
      "stateMutability": "view",
      "type": "function"
    },
    {
      "inputs": [
        {
          "internalType": "address",
          "name": "from",
          "type": "address"
        },
        {
          "internalType": "address",
          "name": "to",
          "type": "address"
        },
        {
          "internalType": "uint256",
          "name": "tokenId",
          "type": "uint256"
        }
      ],
      "name": "safeTransferFrom",
      "outputs": [],
      "stateMutability": "nonpayable",
      "type": "function"
    },
    {
      "inputs": [
        {
          "internalType": "address",
          "name": "from",
          "type": "address"
        },
        {
          "internalType": "address",
          "name": "to",
          "type": "address"
        },
        {
          "internalType": "uint256",
          "name": "tokenId",
          "type": "uint256"
        },
        {
          "internalType": "bytes",
          "name": "_data",
          "type": "bytes"
        }
      ],
      "name": "safeTransferFrom",
      "outputs": [],
      "stateMutability": "nonpayable",
      "type": "function"
    },
    {
      "inputs": [
        {
          "internalType": "address",
          "name": "operator",
          "type": "address"
        },
        {
          "internalType": "bool",
          "name": "approved",
          "type": "bool"
        }
      ],
      "name": "setApprovalForAll",
      "outputs": [],
      "stateMutability": "nonpayable",
      "type": "function"
    },
    {
      "inputs": [
        {
          "internalType": "bytes4",
          "name": "interfaceId",
          "type": "bytes4"
        }
      ],
      "name": "supportsInterface",
      "outputs": [
        {
          "internalType": "bool",
          "name": "",
          "type": "bool"
        }
      ],
      "stateMutability": "view",
      "type": "function"
    },
    {
      "inputs": [],
      "name": "symbol",
      "outputs": [
        {
          "internalType": "string",
          "name": "",
          "type": "string"
        }
      ],
      "stateMutability": "view",
      "type": "function"
    },
    {
      "inputs": [
        {
          "internalType": "uint256",
          "name": "",
          "type": "uint256"
        },
        {
          "internalType": "address",
          "name": "",
          "type": "address"
        }
      ],
      "name": "tokenMap",
      "outputs": [
        {
          "internalType": "uint256",
          "name": "tokenId",
          "type": "uint256"
        },
        {
          "internalType": "bool",
          "name": "isWrapped",
          "type": "bool"
        }
      ],
      "stateMutability": "view",
      "type": "function"
    },
    {
      "inputs": [
        {
          "internalType": "uint256",
          "name": "_tokenId",
          "type": "uint256"
        }
      ],
      "name": "tokenURI",
      "outputs": [
        {
          "internalType": "string",
          "name": "",
          "type": "string"
        }
      ],
      "stateMutability": "pure",
      "type": "function"
    },
    {
      "inputs": [
        {
          "internalType": "address",
          "name": "from",
          "type": "address"
        },
        {
          "internalType": "address",
          "name": "to",
          "type": "address"
        },
        {
          "internalType": "uint256",
          "name": "tokenId",
          "type": "uint256"
        }
      ],
      "name": "transferFrom",
      "outputs": [],
      "stateMutability": "nonpayable",
      "type": "function"
    },
    {
      "inputs": [
        {
          "internalType": "uint256",
          "name": "_wrappedTokenId",
          "type": "uint256"
        },
        {
          "internalType": "enum WrappedJingle.Version",
          "name": "_version",
          "type": "uint8"
        }
      ],
      "name": "unwrap",
      "outputs": [],
      "stateMutability": "nonpayable",
      "type": "function"
    },
    {
      "inputs": [
        {
          "internalType": "uint256",
          "name": "_tokenId",
          "type": "uint256"
        },
        {
          "internalType": "enum WrappedJingle.Version",
          "name": "_version",
          "type": "uint8"
        }
      ],
      "name": "wrap",
      "outputs": [],
      "stateMutability": "nonpayable",
      "type": "function"
    }
  ],
  "bytecode": "0x60806040523480156200001157600080fd5b506040518060400160405280600d81526020017f577261707065644a696e676c65000000000000000000000000000000000000008152506040518060400160405280600381526020017f574a4c0000000000000000000000000000000000000000000000000000000000815250816000908051906020019062000096929190620000b8565b508060019080519060200190620000af929190620000b8565b505050620001cd565b828054620000c69062000168565b90600052602060002090601f016020900481019282620000ea576000855562000136565b82601f106200010557805160ff191683800117855562000136565b8280016001018555821562000136579182015b828111156200013557825182559160200191906001019062000118565b5b50905062000145919062000149565b5090565b5b80821115620001645760008160009055506001016200014a565b5090565b600060028204905060018216806200018157607f821691505b602082108114156200019857620001976200019e565b5b50919050565b7f4e487b7100000000000000000000000000000000000000000000000000000000600052602260045260246000fd5b6133fa80620001dd6000396000f3fe608060405234801561001057600080fd5b50600436106101215760003560e01c806370a08231116100ad578063b88d4fde11610071578063b88d4fde14610319578063c87b56dd14610335578063d547cfb714610365578063e8a3d48514610383578063e985e9c5146103a157610121565b806370a082311461027557806395d89b41146102a5578063a09ecfbc146102c3578063a22cb465146102df578063b44da9e8146102fb57610121565b806313ac7898116100f457806313ac7898146101c057806321292e3d146101f157806323b872dd1461020d57806342842e0e146102295780636352211e1461024557610121565b806301ffc9a71461012657806306fdde0314610156578063081812fc14610174578063095ea7b3146101a4575b600080fd5b610140600480360381019061013b919061235d565b6103d1565b60405161014d9190612835565b60405180910390f35b61015e6104b3565b60405161016b9190612850565b60405180910390f35b61018e600480360381019061018991906123af565b610545565b60405161019b9190612797565b60405180910390f35b6101be60048036038101906101b99190612321565b6105ca565b005b6101da60048036038101906101d591906123d8565b6106e2565b6040516101e8929190612ad6565b60405180910390f35b61020b60048036038101906102069190612414565b610720565b005b6102276004803603810190610222919061221b565b6109c0565b005b610243600480360381019061023e919061221b565b610a20565b005b61025f600480360381019061025a91906123af565b610a40565b60405161026c9190612797565b60405180910390f35b61028f600480360381019061028a919061218d565b610af2565b60405161029c9190612a92565b60405180910390f35b6102ad610baa565b6040516102ba9190612850565b60405180910390f35b6102dd60048036038101906102d89190612414565b610c3c565b005b6102f960048036038101906102f491906122e5565b610ede565b005b61030361105f565b6040516103109190612a92565b60405180910390f35b610333600480360381019061032e919061226a565b611064565b005b61034f600480360381019061034a91906123af565b6110c6565b60405161035c9190612850565b60405180910390f35b61036d611100565b60405161037a9190612850565b60405180910390f35b61038b611120565b6040516103989190612850565b60405180910390f35b6103bb60048036038101906103b691906121df565b611140565b6040516103c89190612835565b60405180910390f35b60007f80ac58cd000000000000000000000000000000000000000000000000000000007bffffffffffffffffffffffffffffffffffffffffffffffffffffffff1916827bffffffffffffffffffffffffffffffffffffffffffffffffffffffff1916148061049c57507f5b5e139f000000000000000000000000000000000000000000000000000000007bffffffffffffffffffffffffffffffffffffffffffffffffffffffff1916827bffffffffffffffffffffffffffffffffffffffffffffffffffffffff1916145b806104ac57506104ab826111d4565b5b9050919050565b6060600080546104c290612d09565b80601f01602080910402602001604051908101604052809291908181526020018280546104ee90612d09565b801561053b5780601f106105105761010080835404028352916020019161053b565b820191906000526020600020905b81548152906001019060200180831161051e57829003601f168201915b5050505050905090565b60006105508261123e565b61058f576040517f08c379a0000000000000000000000000000000000000000000000000000000008152600401610586906129d2565b60405180910390fd5b6004600083815260200190815260200160002060009054906101000a900473ffffffffffffffffffffffffffffffffffffffff169050919050565b60006105d582610a40565b90508073ffffffffffffffffffffffffffffffffffffffff168373ffffffffffffffffffffffffffffffffffffffff161415610646576040517f08c379a000000000000000000000000000000000000000000000000000000000815260040161063d90612a12565b60405180910390fd5b8073ffffffffffffffffffffffffffffffffffffffff166106656112aa565b73ffffffffffffffffffffffffffffffffffffffff16148061069457506106938161068e6112aa565b611140565b5b6106d3576040517f08c379a00000000000000000000000000000000000000000000000000000000081526004016106ca90612932565b60405180910390fd5b6106dd83836112b2565b505050565b6008602052816000526040600020602052806000526040600020600091509150508060000154908060010160009054906101000a900460ff16905082565b600061072b8261136b565b9050600061073884610a40565b90503373ffffffffffffffffffffffffffffffffffffffff168173ffffffffffffffffffffffffffffffffffffffff16146107a8576040517f08c379a000000000000000000000000000000000000000000000000000000000815260040161079f90612a52565b60405180910390fd5b6107b18461141e565b60006008600086815260200190815260200160002060008473ffffffffffffffffffffffffffffffffffffffff1673ffffffffffffffffffffffffffffffffffffffff168152602001908152602001600020604051806040016040529081600082015481526020016001820160009054906101000a900460ff16151515158152505090508060200151610879576040517f08c379a000000000000000000000000000000000000000000000000000000000815260040161087090612a72565b60405180910390fd5b6000816020019015159081151581525050806008600087815260200190815260200160002060008573ffffffffffffffffffffffffffffffffffffffff1673ffffffffffffffffffffffffffffffffffffffff1681526020019081526020016000206000820151816000015560208201518160010160006101000a81548160ff0219169083151502179055509050508273ffffffffffffffffffffffffffffffffffffffff166323b872dd303384600001516040518463ffffffff1660e01b8152600401610949939291906127b2565b600060405180830381600087803b15801561096357600080fd5b505af1158015610977573d6000803e3d6000fd5b50505050847f175e3dad2e6c10f120d3216de54ebe7abeee5b7f33c8941af43e73a0315e4a808260000151856040516109b1929190612aad565b60405180910390a25050505050565b6109d16109cb6112aa565b82611471565b610a10576040517f08c379a0000000000000000000000000000000000000000000000000000000008152600401610a0790612a32565b60405180910390fd5b610a1b83838361154f565b505050565b610a3b83838360405180602001604052806000815250611064565b505050565b6000806002600084815260200190815260200160002060009054906101000a900473ffffffffffffffffffffffffffffffffffffffff169050600073ffffffffffffffffffffffffffffffffffffffff168173ffffffffffffffffffffffffffffffffffffffff161415610ae9576040517f08c379a0000000000000000000000000000000000000000000000000000000008152600401610ae090612972565b60405180910390fd5b80915050919050565b60008073ffffffffffffffffffffffffffffffffffffffff168273ffffffffffffffffffffffffffffffffffffffff161415610b63576040517f08c379a0000000000000000000000000000000000000000000000000000000008152600401610b5a90612952565b60405180910390fd5b600360008373ffffffffffffffffffffffffffffffffffffffff1673ffffffffffffffffffffffffffffffffffffffff168152602001908152602001600020549050919050565b606060018054610bb990612d09565b80601f0160208091040260200160405190810160405280929190818152602001828054610be590612d09565b8015610c325780601f10610c0757610100808354040283529160200191610c32565b820191906000526020600020905b815481529060010190602001808311610c1557829003601f168201915b5050505050905090565b6000610c478261136b565b905060008173ffffffffffffffffffffffffffffffffffffffff16636352211e856040518263ffffffff1660e01b8152600401610c849190612a92565b60206040518083038186803b158015610c9c57600080fd5b505afa158015610cb0573d6000803e3d6000fd5b505050506040513d601f19601f82011682018060405250810190610cd491906121b6565b9050610ce084846117ab565b610d1f576040517f08c379a0000000000000000000000000000000000000000000000000000000008152600401610d16906128b2565b60405180910390fd5b3373ffffffffffffffffffffffffffffffffffffffff168173ffffffffffffffffffffffffffffffffffffffff1614610d8d576040517f08c379a0000000000000000000000000000000000000000000000000000000008152600401610d8490612a52565b60405180910390fd5b8173ffffffffffffffffffffffffffffffffffffffff166323b872dd3330876040518463ffffffff1660e01b8152600401610dca939291906127b2565b600060405180830381600087803b158015610de457600080fd5b505af1158015610df8573d6000803e3d6000fd5b505050506000610e06611843565b90506040518060400160405280868152602001600115158152506008600083815260200190815260200160002060008573ffffffffffffffffffffffffffffffffffffffff1673ffffffffffffffffffffffffffffffffffffffff1681526020019081526020016000206000820151816000015560208201518160010160006101000a81548160ff021916908315150217905550905050807ff90572efd1ab4fb9c6b9dabfd24d103ce15482a9ec0c50e0e32618708783b15b8685604051610ecf929190612aad565b60405180910390a25050505050565b610ee66112aa565b73ffffffffffffffffffffffffffffffffffffffff168273ffffffffffffffffffffffffffffffffffffffff161415610f54576040517f08c379a0000000000000000000000000000000000000000000000000000000008152600401610f4b906128f2565b60405180910390fd5b8060056000610f616112aa565b73ffffffffffffffffffffffffffffffffffffffff1673ffffffffffffffffffffffffffffffffffffffff16815260200190815260200160002060008473ffffffffffffffffffffffffffffffffffffffff1673ffffffffffffffffffffffffffffffffffffffff16815260200190815260200160002060006101000a81548160ff0219169083151502179055508173ffffffffffffffffffffffffffffffffffffffff1661100e6112aa565b73ffffffffffffffffffffffffffffffffffffffff167f17307eab39ab6107e8899845ad3d59bd9653f200f220920489ca2b5937696c31836040516110539190612835565b60405180910390a35050565b603681565b61107561106f6112aa565b83611471565b6110b4576040517f08c379a00000000000000000000000000000000000000000000000000000000081526004016110ab90612a32565b60405180910390fd5b6110c084848484611880565b50505050565b60606110d0611100565b6110d9836118dc565b6040516020016110ea929190612773565b6040516020818303038152906040529050919050565b606060405180606001604052806029815260200161339c60299139905090565b606060405180606001604052806021815260200161337b60219139905090565b6000600560008473ffffffffffffffffffffffffffffffffffffffff1673ffffffffffffffffffffffffffffffffffffffff16815260200190815260200160002060008373ffffffffffffffffffffffffffffffffffffffff1673ffffffffffffffffffffffffffffffffffffffff16815260200190815260200160002060009054906101000a900460ff16905092915050565b60007f01ffc9a7000000000000000000000000000000000000000000000000000000007bffffffffffffffffffffffffffffffffffffffffffffffffffffffff1916827bffffffffffffffffffffffffffffffffffffffffffffffffffffffff1916149050919050565b60008073ffffffffffffffffffffffffffffffffffffffff166002600084815260200190815260200160002060009054906101000a900473ffffffffffffffffffffffffffffffffffffffff1673ffffffffffffffffffffffffffffffffffffffff1614159050919050565b600033905090565b816004600083815260200190815260200160002060006101000a81548173ffffffffffffffffffffffffffffffffffffffff021916908373ffffffffffffffffffffffffffffffffffffffff160217905550808273ffffffffffffffffffffffffffffffffffffffff1661132583610a40565b73ffffffffffffffffffffffffffffffffffffffff167f8c5be1e5ebec7d5bd14f71427d1e84f3dd0314c0f7b2291e5b200ac8c7c3b92560405160405180910390a45050565b60008060018111156113a6577f4e487b7100000000000000000000000000000000000000000000000000000000600052602160045260246000fd5b8260018111156113df577f4e487b7100000000000000000000000000000000000000000000000000000000600052602160045260246000fd5b141561140157735af7af54e8bc34b293e356ef11fffe51d6f9ae789050611419565b735b6660ca047cc351bfedca4fc864d0a88f55148590505b919050565b61142781611a89565b600060066000838152602001908152602001600020805461144790612d09565b90501461146e5760066000828152602001908152602001600020600061146d9190611faf565b5b50565b600061147c8261123e565b6114bb576040517f08c379a00000000000000000000000000000000000000000000000000000000081526004016114b290612912565b60405180910390fd5b60006114c683610a40565b90508073ffffffffffffffffffffffffffffffffffffffff168473ffffffffffffffffffffffffffffffffffffffff16148061153557508373ffffffffffffffffffffffffffffffffffffffff1661151d84610545565b73ffffffffffffffffffffffffffffffffffffffff16145b8061154657506115458185611140565b5b91505092915050565b8273ffffffffffffffffffffffffffffffffffffffff1661156f82610a40565b73ffffffffffffffffffffffffffffffffffffffff16146115c5576040517f08c379a00000000000000000000000000000000000000000000000000000000081526004016115bc906129f2565b60405180910390fd5b600073ffffffffffffffffffffffffffffffffffffffff168273ffffffffffffffffffffffffffffffffffffffff161415611635576040517f08c379a000000000000000000000000000000000000000000000000000000000815260040161162c906128d2565b60405180910390fd5b611640838383611b9a565b61164b6000826112b2565b6001600360008573ffffffffffffffffffffffffffffffffffffffff1673ffffffffffffffffffffffffffffffffffffffff168152602001908152602001600020600082825461169b9190612c1f565b925050819055506001600360008473ffffffffffffffffffffffffffffffffffffffff1673ffffffffffffffffffffffffffffffffffffffff16815260200190815260200160002060008282546116f29190612b98565b92505081905550816002600083815260200190815260200160002060006101000a81548173ffffffffffffffffffffffffffffffffffffffff021916908373ffffffffffffffffffffffffffffffffffffffff160217905550808273ffffffffffffffffffffffffffffffffffffffff168473ffffffffffffffffffffffffffffffffffffffff167fddf252ad1be2c89b69c2b068fc378daa952ba7f163c4a11628f55a4df523b3ef60405160405180910390a4505050565b60008060018111156117e6577f4e487b7100000000000000000000000000000000000000000000000000000000600052602160045260246000fd5b82600181111561181f577f4e487b7100000000000000000000000000000000000000000000000000000000600052602160045260246000fd5b1415611838576036831115611837576000905061183d565b5b600190505b92915050565b600061184f6007611b9f565b600061185b6007611bb5565b90506118673382611bc3565b61187981611874836110c6565b611d91565b8091505090565b61188b84848461154f565b61189784848484611e05565b6118d6576040517f08c379a00000000000000000000000000000000000000000000000000000000081526004016118cd90612872565b60405180910390fd5b50505050565b60606000821415611924576040518060400160405280600181526020017f30000000000000000000000000000000000000000000000000000000000000008152509050611a84565b600082905060005b6000821461195657808061193f90612d6c565b915050600a8261194f9190612bee565b915061192c565b60008167ffffffffffffffff811115611998577f4e487b7100000000000000000000000000000000000000000000000000000000600052604160045260246000fd5b6040519080825280601f01601f1916602001820160405280156119ca5781602001600182028036833780820191505090505b5090505b60008514611a7d576001826119e39190612c1f565b9150600a856119f29190612db5565b60306119fe9190612b98565b60f81b818381518110611a3a577f4e487b7100000000000000000000000000000000000000000000000000000000600052603260045260246000fd5b60200101907effffffffffffffffffffffffffffffffffffffffffffffffffffffffffffff1916908160001a905350600a85611a769190612bee565b94506119ce565b8093505050505b919050565b6000611a9482610a40565b9050611aa281600084611b9a565b611aad6000836112b2565b6001600360008373ffffffffffffffffffffffffffffffffffffffff1673ffffffffffffffffffffffffffffffffffffffff1681526020019081526020016000206000828254611afd9190612c1f565b925050819055506002600083815260200190815260200160002060006101000a81549073ffffffffffffffffffffffffffffffffffffffff021916905581600073ffffffffffffffffffffffffffffffffffffffff168273ffffffffffffffffffffffffffffffffffffffff167fddf252ad1be2c89b69c2b068fc378daa952ba7f163c4a11628f55a4df523b3ef60405160405180910390a45050565b505050565b6001816000016000828254019250508190555050565b600081600001549050919050565b600073ffffffffffffffffffffffffffffffffffffffff168273ffffffffffffffffffffffffffffffffffffffff161415611c33576040517f08c379a0000000000000000000000000000000000000000000000000000000008152600401611c2a906129b2565b60405180910390fd5b611c3c8161123e565b15611c7c576040517f08c379a0000000000000000000000000000000000000000000000000000000008152600401611c7390612892565b60405180910390fd5b611c8860008383611b9a565b6001600360008473ffffffffffffffffffffffffffffffffffffffff1673ffffffffffffffffffffffffffffffffffffffff1681526020019081526020016000206000828254611cd89190612b98565b92505081905550816002600083815260200190815260200160002060006101000a81548173ffffffffffffffffffffffffffffffffffffffff021916908373ffffffffffffffffffffffffffffffffffffffff160217905550808273ffffffffffffffffffffffffffffffffffffffff16600073ffffffffffffffffffffffffffffffffffffffff167fddf252ad1be2c89b69c2b068fc378daa952ba7f163c4a11628f55a4df523b3ef60405160405180910390a45050565b611d9a8261123e565b611dd9576040517f08c379a0000000000000000000000000000000000000000000000000000000008152600401611dd090612992565b60405180910390fd5b80600660008481526020019081526020016000209080519060200190611e00929190611fef565b505050565b6000611e268473ffffffffffffffffffffffffffffffffffffffff16611f9c565b15611f8f578373ffffffffffffffffffffffffffffffffffffffff1663150b7a02611e4f6112aa565b8786866040518563ffffffff1660e01b8152600401611e7194939291906127e9565b602060405180830381600087803b158015611e8b57600080fd5b505af1925050508015611ebc57506040513d601f19601f82011682018060405250810190611eb99190612386565b60015b611f3f573d8060008114611eec576040519150601f19603f3d011682016040523d82523d6000602084013e611ef1565b606091505b50600081511415611f37576040517f08c379a0000000000000000000000000000000000000000000000000000000008152600401611f2e90612872565b60405180910390fd5b805181602001fd5b63150b7a0260e01b7bffffffffffffffffffffffffffffffffffffffffffffffffffffffff1916817bffffffffffffffffffffffffffffffffffffffffffffffffffffffff191614915050611f94565b600190505b949350505050565b600080823b905060008111915050919050565b508054611fbb90612d09565b6000825580601f10611fcd5750611fec565b601f016020900490600052602060002090810190611feb9190612075565b5b50565b828054611ffb90612d09565b90600052602060002090601f01602090048101928261201d5760008555612064565b82601f1061203657805160ff1916838001178555612064565b82800160010185558215612064579182015b82811115612063578251825591602001919060010190612048565b5b5090506120719190612075565b5090565b5b8082111561208e576000816000905550600101612076565b5090565b60006120a56120a084612b24565b612aff565b9050828152602081018484840111156120bd57600080fd5b6120c8848285612cc7565b509392505050565b6000813590506120df8161330e565b92915050565b6000815190506120f48161330e565b92915050565b60008135905061210981613325565b92915050565b60008135905061211e8161333c565b92915050565b6000815190506121338161333c565b92915050565b600082601f83011261214a57600080fd5b813561215a848260208601612092565b91505092915050565b60008135905061217281613353565b92915050565b60008135905061218781613363565b92915050565b60006020828403121561219f57600080fd5b60006121ad848285016120d0565b91505092915050565b6000602082840312156121c857600080fd5b60006121d6848285016120e5565b91505092915050565b600080604083850312156121f257600080fd5b6000612200858286016120d0565b9250506020612211858286016120d0565b9150509250929050565b60008060006060848603121561223057600080fd5b600061223e868287016120d0565b935050602061224f868287016120d0565b925050604061226086828701612178565b9150509250925092565b6000806000806080858703121561228057600080fd5b600061228e878288016120d0565b945050602061229f878288016120d0565b93505060406122b087828801612178565b925050606085013567ffffffffffffffff8111156122cd57600080fd5b6122d987828801612139565b91505092959194509250565b600080604083850312156122f857600080fd5b6000612306858286016120d0565b9250506020612317858286016120fa565b9150509250929050565b6000806040838503121561233457600080fd5b6000612342858286016120d0565b925050602061235385828601612178565b9150509250929050565b60006020828403121561236f57600080fd5b600061237d8482850161210f565b91505092915050565b60006020828403121561239857600080fd5b60006123a684828501612124565b91505092915050565b6000602082840312156123c157600080fd5b60006123cf84828501612178565b91505092915050565b600080604083850312156123eb57600080fd5b60006123f985828601612178565b925050602061240a858286016120d0565b9150509250929050565b6000806040838503121561242757600080fd5b600061243585828601612178565b925050602061244685828601612163565b9150509250929050565b61245981612c53565b82525050565b61246881612c65565b82525050565b600061247982612b55565b6124838185612b6b565b9350612493818560208601612cd6565b61249c81612ea2565b840191505092915050565b60006124b282612b60565b6124bc8185612b7c565b93506124cc818560208601612cd6565b6124d581612ea2565b840191505092915050565b60006124eb82612b60565b6124f58185612b8d565b9350612505818560208601612cd6565b80840191505092915050565b600061251e603283612b7c565b915061252982612eb3565b604082019050919050565b6000612541601c83612b7c565b915061254c82612f02565b602082019050919050565b6000612564601383612b7c565b915061256f82612f2b565b602082019050919050565b6000612587602483612b7c565b915061259282612f54565b604082019050919050565b60006125aa601983612b7c565b91506125b582612fa3565b602082019050919050565b60006125cd602c83612b7c565b91506125d882612fcc565b604082019050919050565b60006125f0603883612b7c565b91506125fb8261301b565b604082019050919050565b6000612613602a83612b7c565b915061261e8261306a565b604082019050919050565b6000612636602983612b7c565b9150612641826130b9565b604082019050919050565b6000612659602e83612b7c565b915061266482613108565b604082019050919050565b600061267c602083612b7c565b915061268782613157565b602082019050919050565b600061269f602c83612b7c565b91506126aa82613180565b604082019050919050565b60006126c2602983612b7c565b91506126cd826131cf565b604082019050919050565b60006126e5602183612b7c565b91506126f08261321e565b604082019050919050565b6000612708603183612b7c565b91506127138261326d565b604082019050919050565b600061272b600f83612b7c565b9150612736826132bc565b602082019050919050565b600061274e601183612b7c565b9150612759826132e5565b602082019050919050565b61276d81612cbd565b82525050565b600061277f82856124e0565b915061278b82846124e0565b91508190509392505050565b60006020820190506127ac6000830184612450565b92915050565b60006060820190506127c76000830186612450565b6127d46020830185612450565b6127e16040830184612764565b949350505050565b60006080820190506127fe6000830187612450565b61280b6020830186612450565b6128186040830185612764565b818103606083015261282a818461246e565b905095945050505050565b600060208201905061284a600083018461245f565b92915050565b6000602082019050818103600083015261286a81846124a7565b905092915050565b6000602082019050818103600083015261288b81612511565b9050919050565b600060208201905081810360008301526128ab81612534565b9050919050565b600060208201905081810360008301526128cb81612557565b9050919050565b600060208201905081810360008301526128eb8161257a565b9050919050565b6000602082019050818103600083015261290b8161259d565b9050919050565b6000602082019050818103600083015261292b816125c0565b9050919050565b6000602082019050818103600083015261294b816125e3565b9050919050565b6000602082019050818103600083015261296b81612606565b9050919050565b6000602082019050818103600083015261298b81612629565b9050919050565b600060208201905081810360008301526129ab8161264c565b9050919050565b600060208201905081810360008301526129cb8161266f565b9050919050565b600060208201905081810360008301526129eb81612692565b9050919050565b60006020820190508181036000830152612a0b816126b5565b9050919050565b60006020820190508181036000830152612a2b816126d8565b9050919050565b60006020820190508181036000830152612a4b816126fb565b9050919050565b60006020820190508181036000830152612a6b8161271e565b9050919050565b60006020820190508181036000830152612a8b81612741565b9050919050565b6000602082019050612aa76000830184612764565b92915050565b6000604082019050612ac26000830185612764565b612acf6020830184612450565b9392505050565b6000604082019050612aeb6000830185612764565b612af8602083018461245f565b9392505050565b6000612b09612b1a565b9050612b158282612d3b565b919050565b6000604051905090565b600067ffffffffffffffff821115612b3f57612b3e612e73565b5b612b4882612ea2565b9050602081019050919050565b600081519050919050565b600081519050919050565b600082825260208201905092915050565b600082825260208201905092915050565b600081905092915050565b6000612ba382612cbd565b9150612bae83612cbd565b9250827fffffffffffffffffffffffffffffffffffffffffffffffffffffffffffffffff03821115612be357612be2612de6565b5b828201905092915050565b6000612bf982612cbd565b9150612c0483612cbd565b925082612c1457612c13612e15565b5b828204905092915050565b6000612c2a82612cbd565b9150612c3583612cbd565b925082821015612c4857612c47612de6565b5b828203905092915050565b6000612c5e82612c9d565b9050919050565b60008115159050919050565b60007fffffffff0000000000000000000000000000000000000000000000000000000082169050919050565b600073ffffffffffffffffffffffffffffffffffffffff82169050919050565b6000819050919050565b82818337600083830152505050565b60005b83811015612cf4578082015181840152602081019050612cd9565b83811115612d03576000848401525b50505050565b60006002820490506001821680612d2157607f821691505b60208210811415612d3557612d34612e44565b5b50919050565b612d4482612ea2565b810181811067ffffffffffffffff82111715612d6357612d62612e73565b5b80604052505050565b6000612d7782612cbd565b91507fffffffffffffffffffffffffffffffffffffffffffffffffffffffffffffffff821415612daa57612da9612de6565b5b600182019050919050565b6000612dc082612cbd565b9150612dcb83612cbd565b925082612ddb57612dda612e15565b5b828206905092915050565b7f4e487b7100000000000000000000000000000000000000000000000000000000600052601160045260246000fd5b7f4e487b7100000000000000000000000000000000000000000000000000000000600052601260045260246000fd5b7f4e487b7100000000000000000000000000000000000000000000000000000000600052602260045260246000fd5b7f4e487b7100000000000000000000000000000000000000000000000000000000600052604160045260246000fd5b6000601f19601f8301169050919050565b7f4552433732313a207472616e7366657220746f206e6f6e20455243373231526560008201527f63656976657220696d706c656d656e7465720000000000000000000000000000602082015250565b7f4552433732313a20746f6b656e20616c7265616479206d696e74656400000000600082015250565b7f4f6e6c79206f6c64205630206a696e676c657300000000000000000000000000600082015250565b7f4552433732313a207472616e7366657220746f20746865207a65726f2061646460008201527f7265737300000000000000000000000000000000000000000000000000000000602082015250565b7f4552433732313a20617070726f766520746f2063616c6c657200000000000000600082015250565b7f4552433732313a206f70657261746f7220717565727920666f72206e6f6e657860008201527f697374656e7420746f6b656e0000000000000000000000000000000000000000602082015250565b7f4552433732313a20617070726f76652063616c6c6572206973206e6f74206f7760008201527f6e6572206e6f7220617070726f76656420666f7220616c6c0000000000000000602082015250565b7f4552433732313a2062616c616e636520717565727920666f7220746865207a6560008201527f726f206164647265737300000000000000000000000000000000000000000000602082015250565b7f4552433732313a206f776e657220717565727920666f72206e6f6e657869737460008201527f656e7420746f6b656e0000000000000000000000000000000000000000000000602082015250565b7f45524337323155524953746f726167653a2055524920736574206f66206e6f6e60008201527f6578697374656e7420746f6b656e000000000000000000000000000000000000602082015250565b7f4552433732313a206d696e7420746f20746865207a65726f2061646472657373600082015250565b7f4552433732313a20617070726f76656420717565727920666f72206e6f6e657860008201527f697374656e7420746f6b656e0000000000000000000000000000000000000000602082015250565b7f4552433732313a207472616e73666572206f6620746f6b656e2074686174206960008201527f73206e6f74206f776e0000000000000000000000000000000000000000000000602082015250565b7f4552433732313a20617070726f76616c20746f2063757272656e74206f776e6560008201527f7200000000000000000000000000000000000000000000000000000000000000602082015250565b7f4552433732313a207472616e736665722063616c6c6572206973206e6f74206f60008201527f776e6572206e6f7220617070726f766564000000000000000000000000000000602082015250565b7f4e6f7420746f6b656e206f776e65720000000000000000000000000000000000600082015250565b7f546f6b656e206e6f742077726170706564000000000000000000000000000000600082015250565b61331781612c53565b811461332257600080fd5b50565b61332e81612c65565b811461333957600080fd5b50565b61334581612c71565b811461335057600080fd5b50565b6002811061336057600080fd5b50565b61336c81612cbd565b811461337757600080fd5b5056fe68747470733a2f2f63727970746f6a696e676c65732e6d652f6d6574616461746168747470733a2f2f63727970746f6a696e676c65732e6d652f777261707065642d6a696e676c65732fa264697066735822122016f7031722f171e8fdd0eaf7b5b454cae6b0ffa244ac9339cf914cbde7d9ea6a64736f6c63430008040033",
  "linkReferences": {},
  "deployedLinkReferences": {}
}