{
  "_format": "hh-sol-artifact-1",
  "contractName": "JingleView",
  "sourceName": "contracts/JingleView.sol",
  "abi": [
    {
      "inputs": [],
      "name": "JINGLE_V1_ADDR",
      "outputs": [
        {
          "internalType": "address",
          "name": "",
          "type": "address"
        }
      ],
      "stateMutability": "view",
      "type": "function"
    },
    {
      "inputs": [],
      "name": "MARKET_PLACE_V1",
      "outputs": [
        {
          "internalType": "address",
          "name": "",
          "type": "address"
        }
      ],
      "stateMutability": "view",
      "type": "function"
    },
    {
      "inputs": [],
      "name": "SAMPLE_V1_ADDR",
      "outputs": [
        {
          "internalType": "address",
          "name": "",
          "type": "address"
        }
      ],
      "stateMutability": "view",
      "type": "function"
    },
    {
      "inputs": [
        {
          "internalType": "uint256",
          "name": "_jingleId",
          "type": "uint256"
        }
      ],
      "name": "getFullJingleData",
      "outputs": [
        {
          "components": [
            {
              "internalType": "string",
              "name": "name",
              "type": "string"
            },
            {
              "internalType": "string",
              "name": "author",
              "type": "string"
            },
            {
              "internalType": "bool",
              "name": "onSale",
              "type": "bool"
            },
            {
              "internalType": "uint256",
              "name": "price",
              "type": "uint256"
            },
            {
              "internalType": "address",
              "name": "owner",
              "type": "address"
            },
            {
              "internalType": "uint256[]",
              "name": "sampleIds",
              "type": "uint256[]"
            },
            {
              "internalType": "uint256[]",
              "name": "sampleTypes",
              "type": "uint256[]"
            },
            {
              "internalType": "uint8[20]",
              "name": "settings",
              "type": "uint8[20]"
            }
          ],
          "internalType": "struct JingleView.JingleData",
          "name": "",
          "type": "tuple"
        }
      ],
      "stateMutability": "view",
      "type": "function"
    },
    {
      "inputs": [
        {
          "internalType": "address",
          "name": "_user",
          "type": "address"
        }
      ],
      "name": "getFullJingleDataForUser",
      "outputs": [
        {
          "components": [
            {
              "internalType": "string",
              "name": "name",
              "type": "string"
            },
            {
              "internalType": "string",
              "name": "author",
              "type": "string"
            },
            {
              "internalType": "bool",
              "name": "onSale",
              "type": "bool"
            },
            {
              "internalType": "uint256",
              "name": "price",
              "type": "uint256"
            },
            {
              "internalType": "address",
              "name": "owner",
              "type": "address"
            },
            {
              "internalType": "uint256[]",
              "name": "sampleIds",
              "type": "uint256[]"
            },
            {
              "internalType": "uint256[]",
              "name": "sampleTypes",
              "type": "uint256[]"
            },
            {
              "internalType": "uint8[20]",
              "name": "settings",
              "type": "uint8[20]"
            }
          ],
          "internalType": "struct JingleView.JingleData[]",
          "name": "jingles",
          "type": "tuple[]"
        }
      ],
      "stateMutability": "view",
      "type": "function"
    },
    {
      "inputs": [],
      "name": "getJinglesOnSale",
      "outputs": [
        {
          "components": [
            {
              "internalType": "string",
              "name": "name",
              "type": "string"
            },
            {
              "internalType": "string",
              "name": "author",
              "type": "string"
            },
            {
              "internalType": "bool",
              "name": "onSale",
              "type": "bool"
            },
            {
              "internalType": "uint256",
              "name": "price",
              "type": "uint256"
            },
            {
              "internalType": "address",
              "name": "owner",
              "type": "address"
            },
            {
              "internalType": "uint256[]",
              "name": "sampleIds",
              "type": "uint256[]"
            },
            {
              "internalType": "uint256[]",
              "name": "sampleTypes",
              "type": "uint256[]"
            },
            {
              "internalType": "uint8[20]",
              "name": "settings",
              "type": "uint8[20]"
            }
          ],
          "internalType": "struct JingleView.JingleData[]",
          "name": "jinglesOnSale",
          "type": "tuple[]"
        }
      ],
      "stateMutability": "view",
      "type": "function"
    },
    {
      "inputs": [
        {
          "internalType": "uint256",
          "name": "_page",
          "type": "uint256"
        },
        {
          "internalType": "uint256",
          "name": "_perPage",
          "type": "uint256"
        }
      ],
      "name": "getPaginatedJingles",
      "outputs": [
        {
          "components": [
            {
              "internalType": "string",
              "name": "name",
              "type": "string"
            },
            {
              "internalType": "string",
              "name": "author",
              "type": "string"
            },
            {
              "internalType": "bool",
              "name": "onSale",
              "type": "bool"
            },
            {
              "internalType": "uint256",
              "name": "price",
              "type": "uint256"
            },
            {
              "internalType": "address",
              "name": "owner",
              "type": "address"
            },
            {
              "internalType": "uint256[]",
              "name": "sampleIds",
              "type": "uint256[]"
            },
            {
              "internalType": "uint256[]",
              "name": "sampleTypes",
              "type": "uint256[]"
            },
            {
              "internalType": "uint8[20]",
              "name": "settings",
              "type": "uint8[20]"
            }
          ],
          "internalType": "struct JingleView.JingleData[]",
          "name": "",
          "type": "tuple[]"
        }
      ],
      "stateMutability": "view",
      "type": "function"
    },
    {
      "inputs": [
        {
          "internalType": "address",
          "name": "_owner",
          "type": "address"
        }
      ],
      "name": "getSamplesForUser",
      "outputs": [
        {
          "components": [
            {
              "internalType": "uint256",
              "name": "sampleId",
              "type": "uint256"
            },
            {
              "internalType": "uint256",
              "name": "sampleType",
              "type": "uint256"
            }
          ],
          "internalType": "struct JingleView.SampleData[]",
          "name": "samples",
          "type": "tuple[]"
        }
      ],
      "stateMutability": "view",
      "type": "function"
    }
  ],
  "bytecode": "0x608060405234801561001057600080fd5b50611cc3806100206000396000f3fe608060405234801561001057600080fd5b50600436106100885760003560e01c8063a970b1c11161005b578063a970b1c11461013b578063aa3b6c1314610159578063ac93153914610177578063c60a1faa1461019557610088565b80630cee7eff1461008d57806324afd274146100bd5780633a39d5ef146100ed5780637e79190e1461010b575b600080fd5b6100a760048036038101906100a291906112ee565b6101c5565b6040516100b49190611834565b60405180910390f35b6100d760048036038101906100d291906111c6565b61074d565b6040516100e49190611812565b60405180910390f35b6100f5610a0b565b60405161010291906117f0565b60405180910390f35b610125600480360381019061012091906111c6565b610bd4565b60405161013291906117f0565b60405180910390f35b610143610db0565b60405161015091906117d5565b60405180910390f35b610161610dc8565b60405161016e91906117d5565b60405180910390f35b61017f610de0565b60405161018c91906117d5565b60405180910390f35b6101af60048036038101906101aa9190611340565b610df8565b6040516101bc91906117f0565b60405180910390f35b6101cd610f36565b6000735b6660ca047cc351bfedca4fc864d0a88f55148590506000808273ffffffffffffffffffffffffffffffffffffffff166378533046866040518263ffffffff1660e01b81526004016102229190611856565b60006040518083038186803b15801561023a57600080fd5b505afa15801561024e573d6000803e3d6000fd5b505050506040513d6000823e3d601f19601f820116820180604052508101906102779190611259565b9150915060008373ffffffffffffffffffffffffffffffffffffffff1663085bcb34876040518263ffffffff1660e01b81526004016102b69190611856565b60006040518083038186803b1580156102ce57600080fd5b505afa1580156102e2573d6000803e3d6000fd5b505050506040513d6000823e3d601f19601f8201168201806040525081019061030b9190611218565b90506000815167ffffffffffffffff811115610350577f4e487b7100000000000000000000000000000000000000000000000000000000600052604160045260246000fd5b60405190808252806020026020018201604052801561037e5781602001602082028036833780820191505090505b50905060005b82518110156104c0577357fd3480581f72b0df1adead72b4181a52a1d7de73ffffffffffffffffffffffffffffffffffffffff166376aed2e18483815181106103f6577f4e487b7100000000000000000000000000000000000000000000000000000000600052603260045260246000fd5b60200260200101516040518263ffffffff1660e01b815260040161041a9190611856565b60206040518083038186803b15801561043257600080fd5b505afa158015610446573d6000803e3d6000fd5b505050506040513d601f19601f8201168201806040525081019061046a9190611317565b8282815181106104a3577f4e487b7100000000000000000000000000000000000000000000000000000000600052603260045260246000fd5b602002602001018181525050806104b990611b79565b9050610384565b50600073c1ef465527343f68bb1841f99b9adeb061cc7ac973ffffffffffffffffffffffffffffffffffffffff16634a8393f3896040518263ffffffff1660e01b81526004016105109190611856565b60806040518083038186803b15801561052857600080fd5b505afa15801561053c573d6000803e3d6000fd5b505050506040513d601f19601f8201168201806040525081019061056091906112c5565b905061056a610f99565b60005b601481101561065c578773ffffffffffffffffffffffffffffffffffffffff166301fe45e18b836040518363ffffffff1660e01b81526004016105b1929190611871565b60206040518083038186803b1580156105c957600080fd5b505afa1580156105dd573d6000803e3d6000fd5b505050506040513d601f19601f82011682018060405250810190610601919061137c565b82826014811061063a577f4e487b7100000000000000000000000000000000000000000000000000000000600052603260045260246000fd5b602002019060ff16908160ff16815250508061065590611b79565b905061056d565b50604051806101000160405280878152602001868152602001836060015115158152602001836000015181526020018873ffffffffffffffffffffffffffffffffffffffff16636352211e8c6040518263ffffffff1660e01b81526004016106c49190611856565b60206040518083038186803b1580156106dc57600080fd5b505afa1580156106f0573d6000803e3d6000fd5b505050506040513d601f19601f8201168201806040525081019061071491906111ef565b73ffffffffffffffffffffffffffffffffffffffff16815260200185815260200184815260200182815250975050505050505050919050565b606060007357fd3480581f72b0df1adead72b4181a52a1d7de73ffffffffffffffffffffffffffffffffffffffff1663bff9e842846040518263ffffffff1660e01b815260040161079e91906117d5565b60006040518083038186803b1580156107b657600080fd5b505afa1580156107ca573d6000803e3d6000fd5b505050506040513d6000823e3d601f19601f820116820180604052508101906107f39190611218565b9050805167ffffffffffffffff811115610836577f4e487b7100000000000000000000000000000000000000000000000000000000600052604160045260246000fd5b60405190808252806020026020018201604052801561086f57816020015b61085c610fbc565b8152602001906001900390816108545790505b50915060005b8251811015610a045760405180604001604052808383815181106108c2577f4e487b7100000000000000000000000000000000000000000000000000000000600052603260045260246000fd5b602002602001015181526020017357fd3480581f72b0df1adead72b4181a52a1d7de73ffffffffffffffffffffffffffffffffffffffff166376aed2e1858581518110610938577f4e487b7100000000000000000000000000000000000000000000000000000000600052603260045260246000fd5b60200260200101516040518263ffffffff1660e01b815260040161095c9190611856565b60206040518083038186803b15801561097457600080fd5b505afa158015610988573d6000803e3d6000fd5b505050506040513d601f19601f820116820180604052508101906109ac9190611317565b8152508382815181106109e8577f4e487b7100000000000000000000000000000000000000000000000000000000600052603260045260246000fd5b6020026020010181905250806109fd90611b79565b9050610875565b5050919050565b6060600073c1ef465527343f68bb1841f99b9adeb061cc7ac973ffffffffffffffffffffffffffffffffffffffff1663c591c8a36040518163ffffffff1660e01b815260040160006040518083038186803b158015610a6957600080fd5b505afa158015610a7d573d6000803e3d6000fd5b505050506040513d6000823e3d601f19601f82011682018060405250810190610aa69190611218565b9050805167ffffffffffffffff811115610ae9577f4e487b7100000000000000000000000000000000000000000000000000000000600052604160045260246000fd5b604051908082528060200260200182016040528015610b2257816020015b610b0f610f36565b815260200190600190039081610b075790505b50915060005b8251811015610bcf57610b7a828281518110610b6d577f4e487b7100000000000000000000000000000000000000000000000000000000600052603260045260246000fd5b60200260200101516101c5565b838281518110610bb3577f4e487b7100000000000000000000000000000000000000000000000000000000600052603260045260246000fd5b602002602001018190525080610bc890611b79565b9050610b28565b505090565b60606000735b6660ca047cc351bfedca4fc864d0a88f551485905060008173ffffffffffffffffffffffffffffffffffffffff166349ee2ae1856040518263ffffffff1660e01b8152600401610c2a91906117d5565b60006040518083038186803b158015610c4257600080fd5b505afa158015610c56573d6000803e3d6000fd5b505050506040513d6000823e3d601f19601f82011682018060405250810190610c7f9190611218565b9050805167ffffffffffffffff811115610cc2577f4e487b7100000000000000000000000000000000000000000000000000000000600052604160045260246000fd5b604051908082528060200260200182016040528015610cfb57816020015b610ce8610f36565b815260200190600190039081610ce05790505b50925060005b8351811015610da857610d53828281518110610d46577f4e487b7100000000000000000000000000000000000000000000000000000000600052603260045260246000fd5b60200260200101516101c5565b848281518110610d8c577f4e487b7100000000000000000000000000000000000000000000000000000000600052603260045260246000fd5b602002602001018190525080610da190611b79565b9050610d01565b505050919050565b7357fd3480581f72b0df1adead72b4181a52a1d7de81565b735b6660ca047cc351bfedca4fc864d0a88f55148581565b73c1ef465527343f68bb1841f99b9adeb061cc7ac981565b606060008267ffffffffffffffff811115610e3c577f4e487b7100000000000000000000000000000000000000000000000000000000600052604160045260246000fd5b604051908082528060200260200182016040528015610e7557816020015b610e62610f36565b815260200190600190039081610e5a5790505b50905060008385610e869190611a66565b905060008482610e969190611a10565b905082518111610ea65780610ea9565b82515b90506000808390505b82811015610f2857610ec3816101c5565b858381518110610efc577f4e487b7100000000000000000000000000000000000000000000000000000000600052603260045260246000fd5b60200260200101819052508180610f1290611b79565b9250508080610f2090611b79565b915050610eb2565b508394505050505092915050565b604051806101000160405280606081526020016060815260200160001515815260200160008152602001600073ffffffffffffffffffffffffffffffffffffffff1681526020016060815260200160608152602001610f93610f99565b81525090565b604051806102800160405280601490602082028036833780820191505090505090565b604051806040016040528060008152602001600081525090565b6000610fe9610fe4846118bf565b61189a565b9050808382526020820190508285602086028201111561100857600080fd5b60005b85811015611038578161101e888261119c565b84526020840193506020830192505060018101905061100b565b5050509392505050565b6000611055611050846118eb565b61189a565b90508281526020810184848401111561106d57600080fd5b611078848285611b15565b509392505050565b60008135905061108f81611c31565b92915050565b6000815190506110a481611c31565b92915050565b600082601f8301126110bb57600080fd5b81516110cb848260208601610fd6565b91505092915050565b6000815190506110e381611c48565b92915050565b600082601f8301126110fa57600080fd5b815161110a848260208601611042565b91505092915050565b60006080828403121561112557600080fd5b61112f608061189a565b9050600061113f8482850161119c565b600083015250602061115384828501611095565b60208301525060406111678482850161119c565b604083015250606061117b848285016110d4565b60608301525092915050565b60008135905061119681611c5f565b92915050565b6000815190506111ab81611c5f565b92915050565b6000815190506111c081611c76565b92915050565b6000602082840312156111d857600080fd5b60006111e684828501611080565b91505092915050565b60006020828403121561120157600080fd5b600061120f84828501611095565b91505092915050565b60006020828403121561122a57600080fd5b600082015167ffffffffffffffff81111561124457600080fd5b611250848285016110aa565b91505092915050565b6000806040838503121561126c57600080fd5b600083015167ffffffffffffffff81111561128657600080fd5b611292858286016110e9565b925050602083015167ffffffffffffffff8111156112af57600080fd5b6112bb858286016110e9565b9150509250929050565b6000608082840312156112d757600080fd5b60006112e584828501611113565b91505092915050565b60006020828403121561130057600080fd5b600061130e84828501611187565b91505092915050565b60006020828403121561132957600080fd5b60006113378482850161119c565b91505092915050565b6000806040838503121561135357600080fd5b600061136185828601611187565b925050602061137285828601611187565b9150509250929050565b60006020828403121561138e57600080fd5b600061139c848285016111b1565b91505092915050565b60006113b183836115ef565b905092915050565b60006113c58383611779565b60408301905092915050565b60006113dd83836117a8565b60208301905092915050565b60006113f583836117c6565b60208301905092915050565b61140a81611ac0565b82525050565b61141981611ac0565b82525050565b600061142a82611956565b61143481856119c1565b9350836020820285016114468561191c565b8060005b85811015611482578484038952815161146385826113a5565b945061146e8361198d565b925060208a0199505060018101905061144a565b50829750879550505050505092915050565b600061149f82611961565b6114a981856119d2565b93506114b48361192c565b8060005b838110156114e55781516114cc88826113b9565b97506114d78361199a565b9250506001810190506114b8565b5085935050505092915050565b60006114fd8261196c565b61150781856119e3565b93506115128361193c565b8060005b8381101561154357815161152a88826113d1565b9750611535836119a7565b925050600181019050611516565b5085935050505092915050565b61155981611977565b61156381846119f4565b925061156e8261194c565b8060005b8381101561159f57815161158687826113e9565b9650611591836119b4565b925050600181019050611572565b505050505050565b6115b081611ad2565b82525050565b60006115c182611982565b6115cb81856119ff565b93506115db818560208601611b15565b6115e481611c20565b840191505092915050565b600061036083016000830151848203600086015261160d82826115b6565b9150506020830151848203602086015261162782826115b6565b915050604083015161163c60408601826115a7565b50606083015161164f60608601826117a8565b5060808301516116626080860182611401565b5060a083015184820360a086015261167a82826114f2565b91505060c083015184820360c086015261169482826114f2565b91505060e08301516116a960e0860182611550565b508091505092915050565b60006103608301600083015184820360008601526116d282826115b6565b915050602083015184820360208601526116ec82826115b6565b915050604083015161170160408601826115a7565b50606083015161171460608601826117a8565b5060808301516117276080860182611401565b5060a083015184820360a086015261173f82826114f2565b91505060c083015184820360c086015261175982826114f2565b91505060e083015161176e60e0860182611550565b508091505092915050565b60408201600082015161178f60008501826117a8565b5060208201516117a260208501826117a8565b50505050565b6117b181611afe565b82525050565b6117c081611afe565b82525050565b6117cf81611b08565b82525050565b60006020820190506117ea6000830184611410565b92915050565b6000602082019050818103600083015261180a818461141f565b905092915050565b6000602082019050818103600083015261182c8184611494565b905092915050565b6000602082019050818103600083015261184e81846116b4565b905092915050565b600060208201905061186b60008301846117b7565b92915050565b600060408201905061188660008301856117b7565b61189360208301846117b7565b9392505050565b60006118a46118b5565b90506118b08282611b48565b919050565b6000604051905090565b600067ffffffffffffffff8211156118da576118d9611bf1565b5b602082029050602081019050919050565b600067ffffffffffffffff82111561190657611905611bf1565b5b61190f82611c20565b9050602081019050919050565b6000819050602082019050919050565b6000819050602082019050919050565b6000819050602082019050919050565b6000819050919050565b600081519050919050565b600081519050919050565b600081519050919050565b600060149050919050565b600081519050919050565b6000602082019050919050565b6000602082019050919050565b6000602082019050919050565b6000602082019050919050565b600082825260208201905092915050565b600082825260208201905092915050565b600082825260208201905092915050565b600081905092915050565b600082825260208201905092915050565b6000611a1b82611afe565b9150611a2683611afe565b9250827fffffffffffffffffffffffffffffffffffffffffffffffffffffffffffffffff03821115611a5b57611a5a611bc2565b5b828201905092915050565b6000611a7182611afe565b9150611a7c83611afe565b9250817fffffffffffffffffffffffffffffffffffffffffffffffffffffffffffffffff0483118215151615611ab557611ab4611bc2565b5b828202905092915050565b6000611acb82611ade565b9050919050565b60008115159050919050565b600073ffffffffffffffffffffffffffffffffffffffff82169050919050565b6000819050919050565b600060ff82169050919050565b60005b83811015611b33578082015181840152602081019050611b18565b83811115611b42576000848401525b50505050565b611b5182611c20565b810181811067ffffffffffffffff82111715611b7057611b6f611bf1565b5b80604052505050565b6000611b8482611afe565b91507fffffffffffffffffffffffffffffffffffffffffffffffffffffffffffffffff821415611bb757611bb6611bc2565b5b600182019050919050565b7f4e487b7100000000000000000000000000000000000000000000000000000000600052601160045260246000fd5b7f4e487b7100000000000000000000000000000000000000000000000000000000600052604160045260246000fd5b6000601f19601f8301169050919050565b611c3a81611ac0565b8114611c4557600080fd5b50565b611c5181611ad2565b8114611c5c57600080fd5b50565b611c6881611afe565b8114611c7357600080fd5b50565b611c7f81611b08565b8114611c8a57600080fd5b5056fea2646970667358221220e34d090fef4096e944ce1e2be23ed4779788f0fa6ce74b75dcd39242fd08018464736f6c63430008040033",
  "linkReferences": {},
  "deployedLinkReferences": {}
}