{
  "_format": "hh-sol-artifact-1",
  "contractName": "JingleView",
  "sourceName": "contracts/JingleView.sol",
  "abi": [
    {
      "inputs": [],
      "name": "JINGLE_V1_ADDR",
      "outputs": [
        {
          "internalType": "address",
          "name": "",
          "type": "address"
        }
      ],
      "stateMutability": "view",
      "type": "function"
    },
    {
      "inputs": [],
      "name": "MARKET_PLACE_V1",
      "outputs": [
        {
          "internalType": "address",
          "name": "",
          "type": "address"
        }
      ],
      "stateMutability": "view",
      "type": "function"
    },
    {
      "inputs": [],
      "name": "SAMPLE_V1_ADDR",
      "outputs": [
        {
          "internalType": "address",
          "name": "",
          "type": "address"
        }
      ],
      "stateMutability": "view",
      "type": "function"
    },
    {
      "inputs": [
        {
          "internalType": "uint256",
          "name": "_jingleId",
          "type": "uint256"
        }
      ],
      "name": "getFullJingleData",
      "outputs": [
        {
          "components": [
            {
              "internalType": "uint256",
              "name": "id",
              "type": "uint256"
            },
            {
              "internalType": "string",
              "name": "name",
              "type": "string"
            },
            {
              "internalType": "string",
              "name": "author",
              "type": "string"
            },
            {
              "internalType": "bool",
              "name": "onSale",
              "type": "bool"
            },
            {
              "internalType": "uint256",
              "name": "price",
              "type": "uint256"
            },
            {
              "internalType": "address",
              "name": "owner",
              "type": "address"
            },
            {
              "internalType": "uint256[]",
              "name": "sampleIds",
              "type": "uint256[]"
            },
            {
              "internalType": "uint256[]",
              "name": "sampleTypes",
              "type": "uint256[]"
            },
            {
              "internalType": "uint8[20]",
              "name": "settings",
              "type": "uint8[20]"
            }
          ],
          "internalType": "struct JingleView.JingleData",
          "name": "",
          "type": "tuple"
        }
      ],
      "stateMutability": "view",
      "type": "function"
    },
    {
      "inputs": [
        {
          "internalType": "address",
          "name": "_user",
          "type": "address"
        }
      ],
      "name": "getFullJingleDataForUser",
      "outputs": [
        {
          "components": [
            {
              "internalType": "uint256",
              "name": "id",
              "type": "uint256"
            },
            {
              "internalType": "string",
              "name": "name",
              "type": "string"
            },
            {
              "internalType": "string",
              "name": "author",
              "type": "string"
            },
            {
              "internalType": "bool",
              "name": "onSale",
              "type": "bool"
            },
            {
              "internalType": "uint256",
              "name": "price",
              "type": "uint256"
            },
            {
              "internalType": "address",
              "name": "owner",
              "type": "address"
            },
            {
              "internalType": "uint256[]",
              "name": "sampleIds",
              "type": "uint256[]"
            },
            {
              "internalType": "uint256[]",
              "name": "sampleTypes",
              "type": "uint256[]"
            },
            {
              "internalType": "uint8[20]",
              "name": "settings",
              "type": "uint8[20]"
            }
          ],
          "internalType": "struct JingleView.JingleData[]",
          "name": "jingles",
          "type": "tuple[]"
        }
      ],
      "stateMutability": "view",
      "type": "function"
    },
    {
      "inputs": [],
      "name": "getJinglesOnSale",
      "outputs": [
        {
          "components": [
            {
              "internalType": "uint256",
              "name": "id",
              "type": "uint256"
            },
            {
              "internalType": "string",
              "name": "name",
              "type": "string"
            },
            {
              "internalType": "string",
              "name": "author",
              "type": "string"
            },
            {
              "internalType": "bool",
              "name": "onSale",
              "type": "bool"
            },
            {
              "internalType": "uint256",
              "name": "price",
              "type": "uint256"
            },
            {
              "internalType": "address",
              "name": "owner",
              "type": "address"
            },
            {
              "internalType": "uint256[]",
              "name": "sampleIds",
              "type": "uint256[]"
            },
            {
              "internalType": "uint256[]",
              "name": "sampleTypes",
              "type": "uint256[]"
            },
            {
              "internalType": "uint8[20]",
              "name": "settings",
              "type": "uint8[20]"
            }
          ],
          "internalType": "struct JingleView.JingleData[]",
          "name": "jinglesOnSale",
          "type": "tuple[]"
        }
      ],
      "stateMutability": "view",
      "type": "function"
    },
    {
      "inputs": [
        {
          "internalType": "uint256",
          "name": "_page",
          "type": "uint256"
        },
        {
          "internalType": "uint256",
          "name": "_perPage",
          "type": "uint256"
        }
      ],
      "name": "getPaginatedJingles",
      "outputs": [
        {
          "components": [
            {
              "internalType": "uint256",
              "name": "id",
              "type": "uint256"
            },
            {
              "internalType": "string",
              "name": "name",
              "type": "string"
            },
            {
              "internalType": "string",
              "name": "author",
              "type": "string"
            },
            {
              "internalType": "bool",
              "name": "onSale",
              "type": "bool"
            },
            {
              "internalType": "uint256",
              "name": "price",
              "type": "uint256"
            },
            {
              "internalType": "address",
              "name": "owner",
              "type": "address"
            },
            {
              "internalType": "uint256[]",
              "name": "sampleIds",
              "type": "uint256[]"
            },
            {
              "internalType": "uint256[]",
              "name": "sampleTypes",
              "type": "uint256[]"
            },
            {
              "internalType": "uint8[20]",
              "name": "settings",
              "type": "uint8[20]"
            }
          ],
          "internalType": "struct JingleView.JingleData[]",
          "name": "",
          "type": "tuple[]"
        }
      ],
      "stateMutability": "view",
      "type": "function"
    },
    {
      "inputs": [
        {
          "internalType": "address",
          "name": "_owner",
          "type": "address"
        }
      ],
      "name": "getSamplesForUser",
      "outputs": [
        {
          "components": [
            {
              "internalType": "uint256",
              "name": "sampleId",
              "type": "uint256"
            },
            {
              "internalType": "uint256",
              "name": "sampleType",
              "type": "uint256"
            }
          ],
          "internalType": "struct JingleView.SampleData[]",
          "name": "samples",
          "type": "tuple[]"
        }
      ],
      "stateMutability": "view",
      "type": "function"
    }
  ],
  "bytecode": "0x608060405234801561001057600080fd5b50611cfa806100206000396000f3fe608060405234801561001057600080fd5b50600436106100885760003560e01c8063a970b1c11161005b578063a970b1c11461013b578063aa3b6c1314610159578063ac93153914610177578063c60a1faa1461019557610088565b80630cee7eff1461008d57806324afd274146100bd5780633a39d5ef146100ed5780637e79190e1461010b575b600080fd5b6100a760048036038101906100a291906112fb565b6101c5565b6040516100b4919061186b565b60405180910390f35b6100d760048036038101906100d291906111d3565b610753565b6040516100e49190611849565b60405180910390f35b6100f5610a11565b6040516101029190611827565b60405180910390f35b610125600480360381019061012091906111d3565b610bda565b6040516101329190611827565b60405180910390f35b610143610db6565b604051610150919061180c565b60405180910390f35b610161610dce565b60405161016e919061180c565b60405180910390f35b61017f610de6565b60405161018c919061180c565b60405180910390f35b6101af60048036038101906101aa919061134d565b610dfe565b6040516101bc9190611827565b60405180910390f35b6101cd610f3c565b6000735b6660ca047cc351bfedca4fc864d0a88f55148590506000808273ffffffffffffffffffffffffffffffffffffffff166378533046866040518263ffffffff1660e01b8152600401610222919061188d565b60006040518083038186803b15801561023a57600080fd5b505afa15801561024e573d6000803e3d6000fd5b505050506040513d6000823e3d601f19601f820116820180604052508101906102779190611266565b9150915060008373ffffffffffffffffffffffffffffffffffffffff1663085bcb34876040518263ffffffff1660e01b81526004016102b6919061188d565b60006040518083038186803b1580156102ce57600080fd5b505afa1580156102e2573d6000803e3d6000fd5b505050506040513d6000823e3d601f19601f8201168201806040525081019061030b9190611225565b90506000815167ffffffffffffffff811115610350577f4e487b7100000000000000000000000000000000000000000000000000000000600052604160045260246000fd5b60405190808252806020026020018201604052801561037e5781602001602082028036833780820191505090505b50905060005b82518110156104c0577357fd3480581f72b0df1adead72b4181a52a1d7de73ffffffffffffffffffffffffffffffffffffffff166376aed2e18483815181106103f6577f4e487b7100000000000000000000000000000000000000000000000000000000600052603260045260246000fd5b60200260200101516040518263ffffffff1660e01b815260040161041a919061188d565b60206040518083038186803b15801561043257600080fd5b505afa158015610446573d6000803e3d6000fd5b505050506040513d601f19601f8201168201806040525081019061046a9190611324565b8282815181106104a3577f4e487b7100000000000000000000000000000000000000000000000000000000600052603260045260246000fd5b602002602001018181525050806104b990611bb0565b9050610384565b50600073c1ef465527343f68bb1841f99b9adeb061cc7ac973ffffffffffffffffffffffffffffffffffffffff16634a8393f3896040518263ffffffff1660e01b8152600401610510919061188d565b60806040518083038186803b15801561052857600080fd5b505afa15801561053c573d6000803e3d6000fd5b505050506040513d601f19601f8201168201806040525081019061056091906112d2565b905061056a610fa6565b60005b601481101561065c578773ffffffffffffffffffffffffffffffffffffffff166301fe45e18b836040518363ffffffff1660e01b81526004016105b19291906118a8565b60206040518083038186803b1580156105c957600080fd5b505afa1580156105dd573d6000803e3d6000fd5b505050506040513d601f19601f820116820180604052508101906106019190611389565b82826014811061063a577f4e487b7100000000000000000000000000000000000000000000000000000000600052603260045260246000fd5b602002019060ff16908160ff16815250508061065590611bb0565b905061056d565b506040518061012001604052808a8152602001878152602001868152602001836060015115158152602001836000015181526020018873ffffffffffffffffffffffffffffffffffffffff16636352211e8c6040518263ffffffff1660e01b81526004016106ca919061188d565b60206040518083038186803b1580156106e257600080fd5b505afa1580156106f6573d6000803e3d6000fd5b505050506040513d601f19601f8201168201806040525081019061071a91906111fc565b73ffffffffffffffffffffffffffffffffffffffff16815260200185815260200184815260200182815250975050505050505050919050565b606060007357fd3480581f72b0df1adead72b4181a52a1d7de73ffffffffffffffffffffffffffffffffffffffff1663bff9e842846040518263ffffffff1660e01b81526004016107a4919061180c565b60006040518083038186803b1580156107bc57600080fd5b505afa1580156107d0573d6000803e3d6000fd5b505050506040513d6000823e3d601f19601f820116820180604052508101906107f99190611225565b9050805167ffffffffffffffff81111561083c577f4e487b7100000000000000000000000000000000000000000000000000000000600052604160045260246000fd5b60405190808252806020026020018201604052801561087557816020015b610862610fc9565b81526020019060019003908161085a5790505b50915060005b8251811015610a0a5760405180604001604052808383815181106108c8577f4e487b7100000000000000000000000000000000000000000000000000000000600052603260045260246000fd5b602002602001015181526020017357fd3480581f72b0df1adead72b4181a52a1d7de73ffffffffffffffffffffffffffffffffffffffff166376aed2e185858151811061093e577f4e487b7100000000000000000000000000000000000000000000000000000000600052603260045260246000fd5b60200260200101516040518263ffffffff1660e01b8152600401610962919061188d565b60206040518083038186803b15801561097a57600080fd5b505afa15801561098e573d6000803e3d6000fd5b505050506040513d601f19601f820116820180604052508101906109b29190611324565b8152508382815181106109ee577f4e487b7100000000000000000000000000000000000000000000000000000000600052603260045260246000fd5b602002602001018190525080610a0390611bb0565b905061087b565b5050919050565b6060600073c1ef465527343f68bb1841f99b9adeb061cc7ac973ffffffffffffffffffffffffffffffffffffffff1663c591c8a36040518163ffffffff1660e01b815260040160006040518083038186803b158015610a6f57600080fd5b505afa158015610a83573d6000803e3d6000fd5b505050506040513d6000823e3d601f19601f82011682018060405250810190610aac9190611225565b9050805167ffffffffffffffff811115610aef577f4e487b7100000000000000000000000000000000000000000000000000000000600052604160045260246000fd5b604051908082528060200260200182016040528015610b2857816020015b610b15610f3c565b815260200190600190039081610b0d5790505b50915060005b8251811015610bd557610b80828281518110610b73577f4e487b7100000000000000000000000000000000000000000000000000000000600052603260045260246000fd5b60200260200101516101c5565b838281518110610bb9577f4e487b7100000000000000000000000000000000000000000000000000000000600052603260045260246000fd5b602002602001018190525080610bce90611bb0565b9050610b2e565b505090565b60606000735b6660ca047cc351bfedca4fc864d0a88f551485905060008173ffffffffffffffffffffffffffffffffffffffff166349ee2ae1856040518263ffffffff1660e01b8152600401610c30919061180c565b60006040518083038186803b158015610c4857600080fd5b505afa158015610c5c573d6000803e3d6000fd5b505050506040513d6000823e3d601f19601f82011682018060405250810190610c859190611225565b9050805167ffffffffffffffff811115610cc8577f4e487b7100000000000000000000000000000000000000000000000000000000600052604160045260246000fd5b604051908082528060200260200182016040528015610d0157816020015b610cee610f3c565b815260200190600190039081610ce65790505b50925060005b8351811015610dae57610d59828281518110610d4c577f4e487b7100000000000000000000000000000000000000000000000000000000600052603260045260246000fd5b60200260200101516101c5565b848281518110610d92577f4e487b7100000000000000000000000000000000000000000000000000000000600052603260045260246000fd5b602002602001018190525080610da790611bb0565b9050610d07565b505050919050565b7357fd3480581f72b0df1adead72b4181a52a1d7de81565b735b6660ca047cc351bfedca4fc864d0a88f55148581565b73c1ef465527343f68bb1841f99b9adeb061cc7ac981565b606060008267ffffffffffffffff811115610e42577f4e487b7100000000000000000000000000000000000000000000000000000000600052604160045260246000fd5b604051908082528060200260200182016040528015610e7b57816020015b610e68610f3c565b815260200190600190039081610e605790505b50905060008385610e8c9190611a9d565b905060008482610e9c9190611a47565b905082518111610eac5780610eaf565b82515b90506000808390505b82811015610f2e57610ec9816101c5565b858381518110610f02577f4e487b7100000000000000000000000000000000000000000000000000000000600052603260045260246000fd5b60200260200101819052508180610f1890611bb0565b9250508080610f2690611bb0565b915050610eb8565b508394505050505092915050565b60405180610120016040528060008152602001606081526020016060815260200160001515815260200160008152602001600073ffffffffffffffffffffffffffffffffffffffff1681526020016060815260200160608152602001610fa0610fa6565b81525090565b604051806102800160405280601490602082028036833780820191505090505090565b604051806040016040528060008152602001600081525090565b6000610ff6610ff1846118f6565b6118d1565b9050808382526020820190508285602086028201111561101557600080fd5b60005b85811015611045578161102b88826111a9565b845260208401935060208301925050600181019050611018565b5050509392505050565b600061106261105d84611922565b6118d1565b90508281526020810184848401111561107a57600080fd5b611085848285611b4c565b509392505050565b60008135905061109c81611c68565b92915050565b6000815190506110b181611c68565b92915050565b600082601f8301126110c857600080fd5b81516110d8848260208601610fe3565b91505092915050565b6000815190506110f081611c7f565b92915050565b600082601f83011261110757600080fd5b815161111784826020860161104f565b91505092915050565b60006080828403121561113257600080fd5b61113c60806118d1565b9050600061114c848285016111a9565b6000830152506020611160848285016110a2565b6020830152506040611174848285016111a9565b6040830152506060611188848285016110e1565b60608301525092915050565b6000813590506111a381611c96565b92915050565b6000815190506111b881611c96565b92915050565b6000815190506111cd81611cad565b92915050565b6000602082840312156111e557600080fd5b60006111f38482850161108d565b91505092915050565b60006020828403121561120e57600080fd5b600061121c848285016110a2565b91505092915050565b60006020828403121561123757600080fd5b600082015167ffffffffffffffff81111561125157600080fd5b61125d848285016110b7565b91505092915050565b6000806040838503121561127957600080fd5b600083015167ffffffffffffffff81111561129357600080fd5b61129f858286016110f6565b925050602083015167ffffffffffffffff8111156112bc57600080fd5b6112c8858286016110f6565b9150509250929050565b6000608082840312156112e457600080fd5b60006112f284828501611120565b91505092915050565b60006020828403121561130d57600080fd5b600061131b84828501611194565b91505092915050565b60006020828403121561133657600080fd5b6000611344848285016111a9565b91505092915050565b6000806040838503121561136057600080fd5b600061136e85828601611194565b925050602061137f85828601611194565b9150509250929050565b60006020828403121561139b57600080fd5b60006113a9848285016111be565b91505092915050565b60006113be83836115fc565b905092915050565b60006113d283836117b0565b60408301905092915050565b60006113ea83836117df565b60208301905092915050565b600061140283836117fd565b60208301905092915050565b61141781611af7565b82525050565b61142681611af7565b82525050565b60006114378261198d565b61144181856119f8565b93508360208202850161145385611953565b8060005b8581101561148f578484038952815161147085826113b2565b945061147b836119c4565b925060208a01995050600181019050611457565b50829750879550505050505092915050565b60006114ac82611998565b6114b68185611a09565b93506114c183611963565b8060005b838110156114f25781516114d988826113c6565b97506114e4836119d1565b9250506001810190506114c5565b5085935050505092915050565b600061150a826119a3565b6115148185611a1a565b935061151f83611973565b8060005b8381101561155057815161153788826113de565b9750611542836119de565b925050600181019050611523565b5085935050505092915050565b611566816119ae565b6115708184611a2b565b925061157b82611983565b8060005b838110156115ac57815161159387826113f6565b965061159e836119eb565b92505060018101905061157f565b505050505050565b6115bd81611b09565b82525050565b60006115ce826119b9565b6115d88185611a36565b93506115e8818560208601611b4c565b6115f181611c57565b840191505092915050565b60006103808301600083015161161560008601826117df565b506020830151848203602086015261162d82826115c3565b9150506040830151848203604086015261164782826115c3565b915050606083015161165c60608601826115b4565b50608083015161166f60808601826117df565b5060a083015161168260a086018261140e565b5060c083015184820360c086015261169a82826114ff565b91505060e083015184820360e08601526116b482826114ff565b9150506101008301516116cb61010086018261155d565b508091505092915050565b6000610380830160008301516116ef60008601826117df565b506020830151848203602086015261170782826115c3565b9150506040830151848203604086015261172182826115c3565b915050606083015161173660608601826115b4565b50608083015161174960808601826117df565b5060a083015161175c60a086018261140e565b5060c083015184820360c086015261177482826114ff565b91505060e083015184820360e086015261178e82826114ff565b9150506101008301516117a561010086018261155d565b508091505092915050565b6040820160008201516117c660008501826117df565b5060208201516117d960208501826117df565b50505050565b6117e881611b35565b82525050565b6117f781611b35565b82525050565b61180681611b3f565b82525050565b6000602082019050611821600083018461141d565b92915050565b60006020820190508181036000830152611841818461142c565b905092915050565b6000602082019050818103600083015261186381846114a1565b905092915050565b6000602082019050818103600083015261188581846116d6565b905092915050565b60006020820190506118a260008301846117ee565b92915050565b60006040820190506118bd60008301856117ee565b6118ca60208301846117ee565b9392505050565b60006118db6118ec565b90506118e78282611b7f565b919050565b6000604051905090565b600067ffffffffffffffff82111561191157611910611c28565b5b602082029050602081019050919050565b600067ffffffffffffffff82111561193d5761193c611c28565b5b61194682611c57565b9050602081019050919050565b6000819050602082019050919050565b6000819050602082019050919050565b6000819050602082019050919050565b6000819050919050565b600081519050919050565b600081519050919050565b600081519050919050565b600060149050919050565b600081519050919050565b6000602082019050919050565b6000602082019050919050565b6000602082019050919050565b6000602082019050919050565b600082825260208201905092915050565b600082825260208201905092915050565b600082825260208201905092915050565b600081905092915050565b600082825260208201905092915050565b6000611a5282611b35565b9150611a5d83611b35565b9250827fffffffffffffffffffffffffffffffffffffffffffffffffffffffffffffffff03821115611a9257611a91611bf9565b5b828201905092915050565b6000611aa882611b35565b9150611ab383611b35565b9250817fffffffffffffffffffffffffffffffffffffffffffffffffffffffffffffffff0483118215151615611aec57611aeb611bf9565b5b828202905092915050565b6000611b0282611b15565b9050919050565b60008115159050919050565b600073ffffffffffffffffffffffffffffffffffffffff82169050919050565b6000819050919050565b600060ff82169050919050565b60005b83811015611b6a578082015181840152602081019050611b4f565b83811115611b79576000848401525b50505050565b611b8882611c57565b810181811067ffffffffffffffff82111715611ba757611ba6611c28565b5b80604052505050565b6000611bbb82611b35565b91507fffffffffffffffffffffffffffffffffffffffffffffffffffffffffffffffff821415611bee57611bed611bf9565b5b600182019050919050565b7f4e487b7100000000000000000000000000000000000000000000000000000000600052601160045260246000fd5b7f4e487b7100000000000000000000000000000000000000000000000000000000600052604160045260246000fd5b6000601f19601f8301169050919050565b611c7181611af7565b8114611c7c57600080fd5b50565b611c8881611b09565b8114611c9357600080fd5b50565b611c9f81611b35565b8114611caa57600080fd5b50565b611cb681611b3f565b8114611cc157600080fd5b5056fea2646970667358221220ce7e9923cca6839d628288b95adb9514b006a00f306e802fce3f114b5fd5c2cb64736f6c63430008040033",
  "linkReferences": {},
  "deployedLinkReferences": {}
}