{
  "_format": "hh-sol-artifact-1",
  "contractName": "OGWrappedJingle",
  "sourceName": "contracts/OGWrappedJingle.sol",
  "abi": [
    {
      "inputs": [],
      "stateMutability": "nonpayable",
      "type": "constructor"
    },
    {
      "anonymous": false,
      "inputs": [
        {
          "indexed": true,
          "internalType": "address",
          "name": "owner",
          "type": "address"
        },
        {
          "indexed": true,
          "internalType": "address",
          "name": "approved",
          "type": "address"
        },
        {
          "indexed": true,
          "internalType": "uint256",
          "name": "tokenId",
          "type": "uint256"
        }
      ],
      "name": "Approval",
      "type": "event"
    },
    {
      "anonymous": false,
      "inputs": [
        {
          "indexed": true,
          "internalType": "address",
          "name": "owner",
          "type": "address"
        },
        {
          "indexed": true,
          "internalType": "address",
          "name": "operator",
          "type": "address"
        },
        {
          "indexed": false,
          "internalType": "bool",
          "name": "approved",
          "type": "bool"
        }
      ],
      "name": "ApprovalForAll",
      "type": "event"
    },
    {
      "anonymous": false,
      "inputs": [
        {
          "indexed": true,
          "internalType": "address",
          "name": "from",
          "type": "address"
        },
        {
          "indexed": true,
          "internalType": "address",
          "name": "to",
          "type": "address"
        },
        {
          "indexed": true,
          "internalType": "uint256",
          "name": "tokenId",
          "type": "uint256"
        }
      ],
      "name": "Transfer",
      "type": "event"
    },
    {
      "anonymous": false,
      "inputs": [
        {
          "indexed": true,
          "internalType": "uint256",
          "name": "",
          "type": "uint256"
        },
        {
          "indexed": false,
          "internalType": "uint256",
          "name": "",
          "type": "uint256"
        },
        {
          "indexed": false,
          "internalType": "address",
          "name": "",
          "type": "address"
        }
      ],
      "name": "Unwrapped",
      "type": "event"
    },
    {
      "anonymous": false,
      "inputs": [
        {
          "indexed": true,
          "internalType": "uint256",
          "name": "",
          "type": "uint256"
        },
        {
          "indexed": false,
          "internalType": "uint256",
          "name": "",
          "type": "uint256"
        },
        {
          "indexed": false,
          "internalType": "address",
          "name": "",
          "type": "address"
        }
      ],
      "name": "Wrapped",
      "type": "event"
    },
    {
      "inputs": [],
      "name": "NUM_V0_JINGLES",
      "outputs": [
        {
          "internalType": "uint256",
          "name": "",
          "type": "uint256"
        }
      ],
      "stateMutability": "view",
      "type": "function"
    },
    {
      "inputs": [],
      "name": "NUM_V1_JINGLES",
      "outputs": [
        {
          "internalType": "uint256",
          "name": "",
          "type": "uint256"
        }
      ],
      "stateMutability": "view",
      "type": "function"
    },
    {
      "inputs": [
        {
          "internalType": "address",
          "name": "to",
          "type": "address"
        },
        {
          "internalType": "uint256",
          "name": "tokenId",
          "type": "uint256"
        }
      ],
      "name": "approve",
      "outputs": [],
      "stateMutability": "nonpayable",
      "type": "function"
    },
    {
      "inputs": [
        {
          "internalType": "address",
          "name": "owner",
          "type": "address"
        }
      ],
      "name": "balanceOf",
      "outputs": [
        {
          "internalType": "uint256",
          "name": "",
          "type": "uint256"
        }
      ],
      "stateMutability": "view",
      "type": "function"
    },
    {
      "inputs": [],
      "name": "baseTokenURI",
      "outputs": [
        {
          "internalType": "string",
          "name": "",
          "type": "string"
        }
      ],
      "stateMutability": "pure",
      "type": "function"
    },
    {
      "inputs": [],
      "name": "contractURI",
      "outputs": [
        {
          "internalType": "string",
          "name": "",
          "type": "string"
        }
      ],
      "stateMutability": "pure",
      "type": "function"
    },
    {
      "inputs": [
        {
          "internalType": "uint256",
          "name": "tokenId",
          "type": "uint256"
        }
      ],
      "name": "getApproved",
      "outputs": [
        {
          "internalType": "address",
          "name": "",
          "type": "address"
        }
      ],
      "stateMutability": "view",
      "type": "function"
    },
    {
      "inputs": [
        {
          "internalType": "address",
          "name": "owner",
          "type": "address"
        },
        {
          "internalType": "address",
          "name": "operator",
          "type": "address"
        }
      ],
      "name": "isApprovedForAll",
      "outputs": [
        {
          "internalType": "bool",
          "name": "",
          "type": "bool"
        }
      ],
      "stateMutability": "view",
      "type": "function"
    },
    {
      "inputs": [],
      "name": "name",
      "outputs": [
        {
          "internalType": "string",
          "name": "",
          "type": "string"
        }
      ],
      "stateMutability": "view",
      "type": "function"
    },
    {
      "inputs": [
        {
          "internalType": "uint256",
          "name": "tokenId",
          "type": "uint256"
        }
      ],
      "name": "ownerOf",
      "outputs": [
        {
          "internalType": "address",
          "name": "",
          "type": "address"
        }
      ],
      "stateMutability": "view",
      "type": "function"
    },
    {
      "inputs": [
        {
          "internalType": "address",
          "name": "from",
          "type": "address"
        },
        {
          "internalType": "address",
          "name": "to",
          "type": "address"
        },
        {
          "internalType": "uint256",
          "name": "tokenId",
          "type": "uint256"
        }
      ],
      "name": "safeTransferFrom",
      "outputs": [],
      "stateMutability": "nonpayable",
      "type": "function"
    },
    {
      "inputs": [
        {
          "internalType": "address",
          "name": "from",
          "type": "address"
        },
        {
          "internalType": "address",
          "name": "to",
          "type": "address"
        },
        {
          "internalType": "uint256",
          "name": "tokenId",
          "type": "uint256"
        },
        {
          "internalType": "bytes",
          "name": "_data",
          "type": "bytes"
        }
      ],
      "name": "safeTransferFrom",
      "outputs": [],
      "stateMutability": "nonpayable",
      "type": "function"
    },
    {
      "inputs": [
        {
          "internalType": "address",
          "name": "operator",
          "type": "address"
        },
        {
          "internalType": "bool",
          "name": "approved",
          "type": "bool"
        }
      ],
      "name": "setApprovalForAll",
      "outputs": [],
      "stateMutability": "nonpayable",
      "type": "function"
    },
    {
      "inputs": [
        {
          "internalType": "bytes4",
          "name": "interfaceId",
          "type": "bytes4"
        }
      ],
      "name": "supportsInterface",
      "outputs": [
        {
          "internalType": "bool",
          "name": "",
          "type": "bool"
        }
      ],
      "stateMutability": "view",
      "type": "function"
    },
    {
      "inputs": [],
      "name": "symbol",
      "outputs": [
        {
          "internalType": "string",
          "name": "",
          "type": "string"
        }
      ],
      "stateMutability": "view",
      "type": "function"
    },
    {
      "inputs": [
        {
          "internalType": "uint256",
          "name": "",
          "type": "uint256"
        },
        {
          "internalType": "address",
          "name": "",
          "type": "address"
        }
      ],
      "name": "tokenMap",
      "outputs": [
        {
          "internalType": "uint256",
          "name": "tokenId",
          "type": "uint256"
        },
        {
          "internalType": "bool",
          "name": "isWrapped",
          "type": "bool"
        }
      ],
      "stateMutability": "view",
      "type": "function"
    },
    {
      "inputs": [
        {
          "internalType": "uint256",
          "name": "_tokenId",
          "type": "uint256"
        }
      ],
      "name": "tokenURI",
      "outputs": [
        {
          "internalType": "string",
          "name": "",
          "type": "string"
        }
      ],
      "stateMutability": "pure",
      "type": "function"
    },
    {
      "inputs": [],
      "name": "totalSupply",
      "outputs": [
        {
          "internalType": "uint256",
          "name": "",
          "type": "uint256"
        }
      ],
      "stateMutability": "view",
      "type": "function"
    },
    {
      "inputs": [
        {
          "internalType": "address",
          "name": "from",
          "type": "address"
        },
        {
          "internalType": "address",
          "name": "to",
          "type": "address"
        },
        {
          "internalType": "uint256",
          "name": "tokenId",
          "type": "uint256"
        }
      ],
      "name": "transferFrom",
      "outputs": [],
      "stateMutability": "nonpayable",
      "type": "function"
    },
    {
      "inputs": [
        {
          "internalType": "uint256",
          "name": "_wrappedTokenId",
          "type": "uint256"
        },
        {
          "internalType": "enum OGWrappedJingle.Version",
          "name": "_version",
          "type": "uint8"
        }
      ],
      "name": "unwrap",
      "outputs": [],
      "stateMutability": "nonpayable",
      "type": "function"
    },
    {
      "inputs": [
        {
          "internalType": "uint256",
          "name": "_tokenId",
          "type": "uint256"
        },
        {
          "internalType": "enum OGWrappedJingle.Version",
          "name": "_version",
          "type": "uint8"
        }
      ],
      "name": "wrap",
      "outputs": [],
      "stateMutability": "nonpayable",
      "type": "function"
    }
  ],
  "bytecode": "0x60806040523480156200001157600080fd5b506040518060400160405280601181526020017f4e657720577261707065644a696e676c650000000000000000000000000000008152506040518060400160405280600381526020017f574a4c0000000000000000000000000000000000000000000000000000000000815250816000908051906020019062000096929190620000b8565b508060019080519060200190620000af929190620000b8565b505050620001cd565b828054620000c69062000168565b90600052602060002090601f016020900481019282620000ea576000855562000136565b82601f106200010557805160ff191683800117855562000136565b8280016001018555821562000136579182015b828111156200013557825182559160200191906001019062000118565b5b50905062000145919062000149565b5090565b5b80821115620001645760008160009055506001016200014a565b5090565b600060028204905060018216806200018157607f821691505b602082108114156200019857620001976200019e565b5b50919050565b7f4e487b7100000000000000000000000000000000000000000000000000000000600052602260045260246000fd5b61337a80620001dd6000396000f3fe608060405234801561001057600080fd5b50600436106101375760003560e01c806370a08231116100b8578063b88d4fde1161007c578063b88d4fde1461034d578063c87b56dd14610369578063d547cfb714610399578063e8a3d485146103b7578063e985e9c5146103d5578063ef73f69d1461040557610137565b806370a08231146102a957806395d89b41146102d9578063a09ecfbc146102f7578063a22cb46514610313578063b44da9e81461032f57610137565b806318160ddd116100ff57806318160ddd1461020757806321292e3d1461022557806323b872dd1461024157806342842e0e1461025d5780636352211e1461027957610137565b806301ffc9a71461013c57806306fdde031461016c578063081812fc1461018a578063095ea7b3146101ba57806313ac7898146101d6575b600080fd5b61015660048036038101906101519190612342565b610423565b6040516101639190612820565b60405180910390f35b610174610505565b604051610181919061283b565b60405180910390f35b6101a4600480360381019061019f9190612394565b610597565b6040516101b19190612759565b60405180910390f35b6101d460048036038101906101cf9190612306565b61061c565b005b6101f060048036038101906101eb91906123bd565b610734565b6040516101fe929190612aa1565b60405180910390f35b61020f610772565b60405161021c9190612a5d565b60405180910390f35b61023f600480360381019061023a91906123f9565b610783565b005b61025b60048036038101906102569190612200565b610a21565b005b61027760048036038101906102729190612200565b610a81565b005b610293600480360381019061028e9190612394565b610aa1565b6040516102a09190612759565b60405180910390f35b6102c360048036038101906102be9190612172565b610b53565b6040516102d09190612a5d565b60405180910390f35b6102e1610c0b565b6040516102ee919061283b565b60405180910390f35b610311600480360381019061030c91906123f9565b610c9d565b005b61032d600480360381019061032891906122ca565b610f3f565b005b6103376110c0565b6040516103449190612a5d565b60405180910390f35b6103676004803603810190610362919061224f565b6110c5565b005b610383600480360381019061037e9190612394565b611127565b604051610390919061283b565b60405180910390f35b6103a1611161565b6040516103ae919061283b565b60405180910390f35b6103bf611181565b6040516103cc919061283b565b60405180910390f35b6103ef60048036038101906103ea91906121c4565b6111a1565b6040516103fc9190612820565b60405180910390f35b61040d611235565b60405161041a9190612a5d565b60405180910390f35b60007f80ac58cd000000000000000000000000000000000000000000000000000000007bffffffffffffffffffffffffffffffffffffffffffffffffffffffff1916827bffffffffffffffffffffffffffffffffffffffffffffffffffffffff191614806104ee57507f5b5e139f000000000000000000000000000000000000000000000000000000007bffffffffffffffffffffffffffffffffffffffffffffffffffffffff1916827bffffffffffffffffffffffffffffffffffffffffffffffffffffffff1916145b806104fe57506104fd8261123a565b5b9050919050565b60606000805461051490612cd4565b80601f016020809104026020016040519081016040528092919081815260200182805461054090612cd4565b801561058d5780601f106105625761010080835404028352916020019161058d565b820191906000526020600020905b81548152906001019060200180831161057057829003601f168201915b5050505050905090565b60006105a2826112a4565b6105e1576040517f08c379a00000000000000000000000000000000000000000000000000000000081526004016105d89061299d565b60405180910390fd5b6004600083815260200190815260200160002060009054906101000a900473ffffffffffffffffffffffffffffffffffffffff169050919050565b600061062782610aa1565b90508073ffffffffffffffffffffffffffffffffffffffff168373ffffffffffffffffffffffffffffffffffffffff161415610698576040517f08c379a000000000000000000000000000000000000000000000000000000000815260040161068f906129dd565b60405180910390fd5b8073ffffffffffffffffffffffffffffffffffffffff166106b7611310565b73ffffffffffffffffffffffffffffffffffffffff1614806106e657506106e5816106e0611310565b6111a1565b5b610725576040517f08c379a000000000000000000000000000000000000000000000000000000000815260040161071c9061291d565b60405180910390fd5b61072f8383611318565b505050565b6008602052816000526040600020602052806000526040600020600091509150508060000154908060010160009054906101000a900460ff16905082565b600061077e60076113d1565b905090565b600061078e826113df565b9050600061079b84610aa1565b90503373ffffffffffffffffffffffffffffffffffffffff168173ffffffffffffffffffffffffffffffffffffffff161461080b576040517f08c379a000000000000000000000000000000000000000000000000000000000815260040161080290612a1d565b60405180910390fd5b61081484611492565b60006008600086815260200190815260200160002060008473ffffffffffffffffffffffffffffffffffffffff1673ffffffffffffffffffffffffffffffffffffffff168152602001908152602001600020604051806040016040529081600082015481526020016001820160009054906101000a900460ff161515151581525050905080602001516108dc576040517f08c379a00000000000000000000000000000000000000000000000000000000081526004016108d390612a3d565b60405180910390fd5b6000816020019015159081151581525050806008600087815260200190815260200160002060008573ffffffffffffffffffffffffffffffffffffffff1673ffffffffffffffffffffffffffffffffffffffff1681526020019081526020016000206000820151816000015560208201518160010160006101000a81548160ff0219169083151502179055509050508273ffffffffffffffffffffffffffffffffffffffff1663a9059cbb3383600001516040518363ffffffff1660e01b81526004016109aa9291906127f7565b600060405180830381600087803b1580156109c457600080fd5b505af11580156109d8573d6000803e3d6000fd5b50505050847f175e3dad2e6c10f120d3216de54ebe7abeee5b7f33c8941af43e73a0315e4a80826000015185604051610a12929190612a78565b60405180910390a25050505050565b610a32610a2c611310565b826114e5565b610a71576040517f08c379a0000000000000000000000000000000000000000000000000000000008152600401610a68906129fd565b60405180910390fd5b610a7c8383836115c3565b505050565b610a9c838383604051806020016040528060008152506110c5565b505050565b6000806002600084815260200190815260200160002060009054906101000a900473ffffffffffffffffffffffffffffffffffffffff169050600073ffffffffffffffffffffffffffffffffffffffff168173ffffffffffffffffffffffffffffffffffffffff161415610b4a576040517f08c379a0000000000000000000000000000000000000000000000000000000008152600401610b419061295d565b60405180910390fd5b80915050919050565b60008073ffffffffffffffffffffffffffffffffffffffff168273ffffffffffffffffffffffffffffffffffffffff161415610bc4576040517f08c379a0000000000000000000000000000000000000000000000000000000008152600401610bbb9061293d565b60405180910390fd5b600360008373ffffffffffffffffffffffffffffffffffffffff1673ffffffffffffffffffffffffffffffffffffffff168152602001908152602001600020549050919050565b606060018054610c1a90612cd4565b80601f0160208091040260200160405190810160405280929190818152602001828054610c4690612cd4565b8015610c935780601f10610c6857610100808354040283529160200191610c93565b820191906000526020600020905b815481529060010190602001808311610c7657829003601f168201915b5050505050905090565b6000610ca8826113df565b905060008173ffffffffffffffffffffffffffffffffffffffff16636352211e856040518263ffffffff1660e01b8152600401610ce59190612a5d565b60206040518083038186803b158015610cfd57600080fd5b505afa158015610d11573d6000803e3d6000fd5b505050506040513d601f19601f82011682018060405250810190610d35919061219b565b9050610d41848461181f565b610d80576040517f08c379a0000000000000000000000000000000000000000000000000000000008152600401610d779061289d565b60405180910390fd5b3373ffffffffffffffffffffffffffffffffffffffff168173ffffffffffffffffffffffffffffffffffffffff1614610dee576040517f08c379a0000000000000000000000000000000000000000000000000000000008152600401610de590612a1d565b60405180910390fd5b8173ffffffffffffffffffffffffffffffffffffffff166323b872dd3330876040518463ffffffff1660e01b8152600401610e2b93929190612774565b600060405180830381600087803b158015610e4557600080fd5b505af1158015610e59573d6000803e3d6000fd5b505050506000610e67611942565b90506040518060400160405280868152602001600115158152506008600083815260200190815260200160002060008573ffffffffffffffffffffffffffffffffffffffff1673ffffffffffffffffffffffffffffffffffffffff1681526020019081526020016000206000820151816000015560208201518160010160006101000a81548160ff021916908315150217905550905050807ff90572efd1ab4fb9c6b9dabfd24d103ce15482a9ec0c50e0e32618708783b15b8685604051610f30929190612a78565b60405180910390a25050505050565b610f47611310565b73ffffffffffffffffffffffffffffffffffffffff168273ffffffffffffffffffffffffffffffffffffffff161415610fb5576040517f08c379a0000000000000000000000000000000000000000000000000000000008152600401610fac906128dd565b60405180910390fd5b8060056000610fc2611310565b73ffffffffffffffffffffffffffffffffffffffff1673ffffffffffffffffffffffffffffffffffffffff16815260200190815260200160002060008473ffffffffffffffffffffffffffffffffffffffff1673ffffffffffffffffffffffffffffffffffffffff16815260200190815260200160002060006101000a81548160ff0219169083151502179055508173ffffffffffffffffffffffffffffffffffffffff1661106f611310565b73ffffffffffffffffffffffffffffffffffffffff167f17307eab39ab6107e8899845ad3d59bd9653f200f220920489ca2b5937696c31836040516110b49190612820565b60405180910390a35050565b601e81565b6110d66110d0611310565b836114e5565b611115576040517f08c379a000000000000000000000000000000000000000000000000000000000815260040161110c906129fd565b60405180910390fd5b6111218484848461196d565b50505050565b6060611131611161565b61113a836119c9565b60405160200161114b929190612735565b6040516020818303038152906040529050919050565b60606040518060600160405280602d8152602001613318602d9139905090565b60606040518060600160405280602181526020016132f760219139905090565b6000600560008473ffffffffffffffffffffffffffffffffffffffff1673ffffffffffffffffffffffffffffffffffffffff16815260200190815260200160002060008373ffffffffffffffffffffffffffffffffffffffff1673ffffffffffffffffffffffffffffffffffffffff16815260200190815260200160002060009054906101000a900460ff16905092915050565b602f81565b60007f01ffc9a7000000000000000000000000000000000000000000000000000000007bffffffffffffffffffffffffffffffffffffffffffffffffffffffff1916827bffffffffffffffffffffffffffffffffffffffffffffffffffffffff1916149050919050565b60008073ffffffffffffffffffffffffffffffffffffffff166002600084815260200190815260200160002060009054906101000a900473ffffffffffffffffffffffffffffffffffffffff1673ffffffffffffffffffffffffffffffffffffffff1614159050919050565b600033905090565b816004600083815260200190815260200160002060006101000a81548173ffffffffffffffffffffffffffffffffffffffff021916908373ffffffffffffffffffffffffffffffffffffffff160217905550808273ffffffffffffffffffffffffffffffffffffffff1661138b83610aa1565b73ffffffffffffffffffffffffffffffffffffffff167f8c5be1e5ebec7d5bd14f71427d1e84f3dd0314c0f7b2291e5b200ac8c7c3b92560405160405180910390a45050565b600081600001549050919050565b600080600181111561141a577f4e487b7100000000000000000000000000000000000000000000000000000000600052602160045260246000fd5b826001811115611453577f4e487b7100000000000000000000000000000000000000000000000000000000600052602160045260246000fd5b141561147557735af7af54e8bc34b293e356ef11fffe51d6f9ae78905061148d565b735b6660ca047cc351bfedca4fc864d0a88f55148590505b919050565b61149b81611b76565b60006006600083815260200190815260200160002080546114bb90612cd4565b9050146114e2576006600082815260200190815260200160002060006114e1919061201a565b5b50565b60006114f0826112a4565b61152f576040517f08c379a0000000000000000000000000000000000000000000000000000000008152600401611526906128fd565b60405180910390fd5b600061153a83610aa1565b90508073ffffffffffffffffffffffffffffffffffffffff168473ffffffffffffffffffffffffffffffffffffffff1614806115a957508373ffffffffffffffffffffffffffffffffffffffff1661159184610597565b73ffffffffffffffffffffffffffffffffffffffff16145b806115ba57506115b981856111a1565b5b91505092915050565b8273ffffffffffffffffffffffffffffffffffffffff166115e382610aa1565b73ffffffffffffffffffffffffffffffffffffffff1614611639576040517f08c379a0000000000000000000000000000000000000000000000000000000008152600401611630906129bd565b60405180910390fd5b600073ffffffffffffffffffffffffffffffffffffffff168273ffffffffffffffffffffffffffffffffffffffff1614156116a9576040517f08c379a00000000000000000000000000000000000000000000000000000000081526004016116a0906128bd565b60405180910390fd5b6116b4838383611c87565b6116bf600082611318565b6001600360008573ffffffffffffffffffffffffffffffffffffffff1673ffffffffffffffffffffffffffffffffffffffff168152602001908152602001600020600082825461170f9190612bea565b925050819055506001600360008473ffffffffffffffffffffffffffffffffffffffff1673ffffffffffffffffffffffffffffffffffffffff16815260200190815260200160002060008282546117669190612b63565b92505081905550816002600083815260200190815260200160002060006101000a81548173ffffffffffffffffffffffffffffffffffffffff021916908373ffffffffffffffffffffffffffffffffffffffff160217905550808273ffffffffffffffffffffffffffffffffffffffff168473ffffffffffffffffffffffffffffffffffffffff167fddf252ad1be2c89b69c2b068fc378daa952ba7f163c4a11628f55a4df523b3ef60405160405180910390a4505050565b600080600181111561185a577f4e487b7100000000000000000000000000000000000000000000000000000000600052602160045260246000fd5b826001811115611893577f4e487b7100000000000000000000000000000000000000000000000000000000600052602160045260246000fd5b14156118ac57601e8311156118ab576001905061193c565b5b6001808111156118e5577f4e487b7100000000000000000000000000000000000000000000000000000000600052602160045260246000fd5b82600181111561191e577f4e487b7100000000000000000000000000000000000000000000000000000000600052602160045260246000fd5b141561193757601e831115611936576001905061193c565b5b600190505b92915050565b600061194e6007611c8c565b600061195a60076113d1565b90506119663382611ca2565b8091505090565b6119788484846115c3565b61198484848484611e70565b6119c3576040517f08c379a00000000000000000000000000000000000000000000000000000000081526004016119ba9061285d565b60405180910390fd5b50505050565b60606000821415611a11576040518060400160405280600181526020017f30000000000000000000000000000000000000000000000000000000000000008152509050611b71565b600082905060005b60008214611a43578080611a2c90612d37565b915050600a82611a3c9190612bb9565b9150611a19565b60008167ffffffffffffffff811115611a85577f4e487b7100000000000000000000000000000000000000000000000000000000600052604160045260246000fd5b6040519080825280601f01601f191660200182016040528015611ab75781602001600182028036833780820191505090505b5090505b60008514611b6a57600182611ad09190612bea565b9150600a85611adf9190612d80565b6030611aeb9190612b63565b60f81b818381518110611b27577f4e487b7100000000000000000000000000000000000000000000000000000000600052603260045260246000fd5b60200101907effffffffffffffffffffffffffffffffffffffffffffffffffffffffffffff1916908160001a905350600a85611b639190612bb9565b9450611abb565b8093505050505b919050565b6000611b8182610aa1565b9050611b8f81600084611c87565b611b9a600083611318565b6001600360008373ffffffffffffffffffffffffffffffffffffffff1673ffffffffffffffffffffffffffffffffffffffff1681526020019081526020016000206000828254611bea9190612bea565b925050819055506002600083815260200190815260200160002060006101000a81549073ffffffffffffffffffffffffffffffffffffffff021916905581600073ffffffffffffffffffffffffffffffffffffffff168273ffffffffffffffffffffffffffffffffffffffff167fddf252ad1be2c89b69c2b068fc378daa952ba7f163c4a11628f55a4df523b3ef60405160405180910390a45050565b505050565b6001816000016000828254019250508190555050565b600073ffffffffffffffffffffffffffffffffffffffff168273ffffffffffffffffffffffffffffffffffffffff161415611d12576040517f08c379a0000000000000000000000000000000000000000000000000000000008152600401611d099061297d565b60405180910390fd5b611d1b816112a4565b15611d5b576040517f08c379a0000000000000000000000000000000000000000000000000000000008152600401611d529061287d565b60405180910390fd5b611d6760008383611c87565b6001600360008473ffffffffffffffffffffffffffffffffffffffff1673ffffffffffffffffffffffffffffffffffffffff1681526020019081526020016000206000828254611db79190612b63565b92505081905550816002600083815260200190815260200160002060006101000a81548173ffffffffffffffffffffffffffffffffffffffff021916908373ffffffffffffffffffffffffffffffffffffffff160217905550808273ffffffffffffffffffffffffffffffffffffffff16600073ffffffffffffffffffffffffffffffffffffffff167fddf252ad1be2c89b69c2b068fc378daa952ba7f163c4a11628f55a4df523b3ef60405160405180910390a45050565b6000611e918473ffffffffffffffffffffffffffffffffffffffff16612007565b15611ffa578373ffffffffffffffffffffffffffffffffffffffff1663150b7a02611eba611310565b8786866040518563ffffffff1660e01b8152600401611edc94939291906127ab565b602060405180830381600087803b158015611ef657600080fd5b505af1925050508015611f2757506040513d601f19601f82011682018060405250810190611f24919061236b565b60015b611faa573d8060008114611f57576040519150601f19603f3d011682016040523d82523d6000602084013e611f5c565b606091505b50600081511415611fa2576040517f08c379a0000000000000000000000000000000000000000000000000000000008152600401611f999061285d565b60405180910390fd5b805181602001fd5b63150b7a0260e01b7bffffffffffffffffffffffffffffffffffffffffffffffffffffffff1916817bffffffffffffffffffffffffffffffffffffffffffffffffffffffff191614915050611fff565b600190505b949350505050565b600080823b905060008111915050919050565b50805461202690612cd4565b6000825580601f106120385750612057565b601f016020900490600052602060002090810190612056919061205a565b5b50565b5b8082111561207357600081600090555060010161205b565b5090565b600061208a61208584612aef565b612aca565b9050828152602081018484840111156120a257600080fd5b6120ad848285612c92565b509392505050565b6000813590506120c48161328a565b92915050565b6000815190506120d98161328a565b92915050565b6000813590506120ee816132a1565b92915050565b600081359050612103816132b8565b92915050565b600081519050612118816132b8565b92915050565b600082601f83011261212f57600080fd5b813561213f848260208601612077565b91505092915050565b600081359050612157816132cf565b92915050565b60008135905061216c816132df565b92915050565b60006020828403121561218457600080fd5b6000612192848285016120b5565b91505092915050565b6000602082840312156121ad57600080fd5b60006121bb848285016120ca565b91505092915050565b600080604083850312156121d757600080fd5b60006121e5858286016120b5565b92505060206121f6858286016120b5565b9150509250929050565b60008060006060848603121561221557600080fd5b6000612223868287016120b5565b9350506020612234868287016120b5565b92505060406122458682870161215d565b9150509250925092565b6000806000806080858703121561226557600080fd5b6000612273878288016120b5565b9450506020612284878288016120b5565b93505060406122958782880161215d565b925050606085013567ffffffffffffffff8111156122b257600080fd5b6122be8782880161211e565b91505092959194509250565b600080604083850312156122dd57600080fd5b60006122eb858286016120b5565b92505060206122fc858286016120df565b9150509250929050565b6000806040838503121561231957600080fd5b6000612327858286016120b5565b92505060206123388582860161215d565b9150509250929050565b60006020828403121561235457600080fd5b6000612362848285016120f4565b91505092915050565b60006020828403121561237d57600080fd5b600061238b84828501612109565b91505092915050565b6000602082840312156123a657600080fd5b60006123b48482850161215d565b91505092915050565b600080604083850312156123d057600080fd5b60006123de8582860161215d565b92505060206123ef858286016120b5565b9150509250929050565b6000806040838503121561240c57600080fd5b600061241a8582860161215d565b925050602061242b85828601612148565b9150509250929050565b61243e81612c1e565b82525050565b61244d81612c30565b82525050565b600061245e82612b20565b6124688185612b36565b9350612478818560208601612ca1565b61248181612e6d565b840191505092915050565b600061249782612b2b565b6124a18185612b47565b93506124b1818560208601612ca1565b6124ba81612e6d565b840191505092915050565b60006124d082612b2b565b6124da8185612b58565b93506124ea818560208601612ca1565b80840191505092915050565b6000612503603283612b47565b915061250e82612e7e565b604082019050919050565b6000612526601c83612b47565b915061253182612ecd565b602082019050919050565b6000612549601383612b47565b915061255482612ef6565b602082019050919050565b600061256c602483612b47565b915061257782612f1f565b604082019050919050565b600061258f601983612b47565b915061259a82612f6e565b602082019050919050565b60006125b2602c83612b47565b91506125bd82612f97565b604082019050919050565b60006125d5603883612b47565b91506125e082612fe6565b604082019050919050565b60006125f8602a83612b47565b915061260382613035565b604082019050919050565b600061261b602983612b47565b915061262682613084565b604082019050919050565b600061263e602083612b47565b9150612649826130d3565b602082019050919050565b6000612661602c83612b47565b915061266c826130fc565b604082019050919050565b6000612684602983612b47565b915061268f8261314b565b604082019050919050565b60006126a7602183612b47565b91506126b28261319a565b604082019050919050565b60006126ca603183612b47565b91506126d5826131e9565b604082019050919050565b60006126ed600f83612b47565b91506126f882613238565b602082019050919050565b6000612710601183612b47565b915061271b82613261565b602082019050919050565b61272f81612c88565b82525050565b600061274182856124c5565b915061274d82846124c5565b91508190509392505050565b600060208201905061276e6000830184612435565b92915050565b60006060820190506127896000830186612435565b6127966020830185612435565b6127a36040830184612726565b949350505050565b60006080820190506127c06000830187612435565b6127cd6020830186612435565b6127da6040830185612726565b81810360608301526127ec8184612453565b905095945050505050565b600060408201905061280c6000830185612435565b6128196020830184612726565b9392505050565b60006020820190506128356000830184612444565b92915050565b60006020820190508181036000830152612855818461248c565b905092915050565b60006020820190508181036000830152612876816124f6565b9050919050565b6000602082019050818103600083015261289681612519565b9050919050565b600060208201905081810360008301526128b68161253c565b9050919050565b600060208201905081810360008301526128d68161255f565b9050919050565b600060208201905081810360008301526128f681612582565b9050919050565b60006020820190508181036000830152612916816125a5565b9050919050565b60006020820190508181036000830152612936816125c8565b9050919050565b60006020820190508181036000830152612956816125eb565b9050919050565b600060208201905081810360008301526129768161260e565b9050919050565b6000602082019050818103600083015261299681612631565b9050919050565b600060208201905081810360008301526129b681612654565b9050919050565b600060208201905081810360008301526129d681612677565b9050919050565b600060208201905081810360008301526129f68161269a565b9050919050565b60006020820190508181036000830152612a16816126bd565b9050919050565b60006020820190508181036000830152612a36816126e0565b9050919050565b60006020820190508181036000830152612a5681612703565b9050919050565b6000602082019050612a726000830184612726565b92915050565b6000604082019050612a8d6000830185612726565b612a9a6020830184612435565b9392505050565b6000604082019050612ab66000830185612726565b612ac36020830184612444565b9392505050565b6000612ad4612ae5565b9050612ae08282612d06565b919050565b6000604051905090565b600067ffffffffffffffff821115612b0a57612b09612e3e565b5b612b1382612e6d565b9050602081019050919050565b600081519050919050565b600081519050919050565b600082825260208201905092915050565b600082825260208201905092915050565b600081905092915050565b6000612b6e82612c88565b9150612b7983612c88565b9250827fffffffffffffffffffffffffffffffffffffffffffffffffffffffffffffffff03821115612bae57612bad612db1565b5b828201905092915050565b6000612bc482612c88565b9150612bcf83612c88565b925082612bdf57612bde612de0565b5b828204905092915050565b6000612bf582612c88565b9150612c0083612c88565b925082821015612c1357612c12612db1565b5b828203905092915050565b6000612c2982612c68565b9050919050565b60008115159050919050565b60007fffffffff0000000000000000000000000000000000000000000000000000000082169050919050565b600073ffffffffffffffffffffffffffffffffffffffff82169050919050565b6000819050919050565b82818337600083830152505050565b60005b83811015612cbf578082015181840152602081019050612ca4565b83811115612cce576000848401525b50505050565b60006002820490506001821680612cec57607f821691505b60208210811415612d0057612cff612e0f565b5b50919050565b612d0f82612e6d565b810181811067ffffffffffffffff82111715612d2e57612d2d612e3e565b5b80604052505050565b6000612d4282612c88565b91507fffffffffffffffffffffffffffffffffffffffffffffffffffffffffffffffff821415612d7557612d74612db1565b5b600182019050919050565b6000612d8b82612c88565b9150612d9683612c88565b925082612da657612da5612de0565b5b828206905092915050565b7f4e487b7100000000000000000000000000000000000000000000000000000000600052601160045260246000fd5b7f4e487b7100000000000000000000000000000000000000000000000000000000600052601260045260246000fd5b7f4e487b7100000000000000000000000000000000000000000000000000000000600052602260045260246000fd5b7f4e487b7100000000000000000000000000000000000000000000000000000000600052604160045260246000fd5b6000601f19601f8301169050919050565b7f4552433732313a207472616e7366657220746f206e6f6e20455243373231526560008201527f63656976657220696d706c656d656e7465720000000000000000000000000000602082015250565b7f4552433732313a20746f6b656e20616c7265616479206d696e74656400000000600082015250565b7f4f6e6c79206f6c64205630206a696e676c657300000000000000000000000000600082015250565b7f4552433732313a207472616e7366657220746f20746865207a65726f2061646460008201527f7265737300000000000000000000000000000000000000000000000000000000602082015250565b7f4552433732313a20617070726f766520746f2063616c6c657200000000000000600082015250565b7f4552433732313a206f70657261746f7220717565727920666f72206e6f6e657860008201527f697374656e7420746f6b656e0000000000000000000000000000000000000000602082015250565b7f4552433732313a20617070726f76652063616c6c6572206973206e6f74206f7760008201527f6e6572206e6f7220617070726f76656420666f7220616c6c0000000000000000602082015250565b7f4552433732313a2062616c616e636520717565727920666f7220746865207a6560008201527f726f206164647265737300000000000000000000000000000000000000000000602082015250565b7f4552433732313a206f776e657220717565727920666f72206e6f6e657869737460008201527f656e7420746f6b656e0000000000000000000000000000000000000000000000602082015250565b7f4552433732313a206d696e7420746f20746865207a65726f2061646472657373600082015250565b7f4552433732313a20617070726f76656420717565727920666f72206e6f6e657860008201527f697374656e7420746f6b656e0000000000000000000000000000000000000000602082015250565b7f4552433732313a207472616e73666572206f6620746f6b656e2074686174206960008201527f73206e6f74206f776e0000000000000000000000000000000000000000000000602082015250565b7f4552433732313a20617070726f76616c20746f2063757272656e74206f776e6560008201527f7200000000000000000000000000000000000000000000000000000000000000602082015250565b7f4552433732313a207472616e736665722063616c6c6572206973206e6f74206f60008201527f776e6572206e6f7220617070726f766564000000000000000000000000000000602082015250565b7f4e6f7420746f6b656e206f776e65720000000000000000000000000000000000600082015250565b7f546f6b656e206e6f742077726170706564000000000000000000000000000000600082015250565b61329381612c1e565b811461329e57600080fd5b50565b6132aa81612c30565b81146132b557600080fd5b50565b6132c181612c3c565b81146132cc57600080fd5b50565b600281106132dc57600080fd5b50565b6132e881612c88565b81146132f357600080fd5b5056fe68747470733a2f2f63727970746f6a696e676c65732e6d652f6d6574616461746168747470733a2f2f63727970746f6a696e676c65732e6d652f6170692f777261707065642d6a696e676c65732fa2646970667358221220a15885e2f0fba43fb5fa0cd1d1de959a0c68935a525e2813c28fcc665c3fdc3064736f6c63430008040033",
  "linkReferences": {},
  "deployedLinkReferences": {}
}