{
  "_format": "hh-sol-artifact-1",
  "contractName": "OGWrappedJingle",
  "sourceName": "contracts/OGWrappedJingle.sol",
  "abi": [
    {
      "inputs": [],
      "stateMutability": "nonpayable",
      "type": "constructor"
    },
    {
      "anonymous": false,
      "inputs": [
        {
          "indexed": true,
          "internalType": "address",
          "name": "owner",
          "type": "address"
        },
        {
          "indexed": true,
          "internalType": "address",
          "name": "approved",
          "type": "address"
        },
        {
          "indexed": true,
          "internalType": "uint256",
          "name": "tokenId",
          "type": "uint256"
        }
      ],
      "name": "Approval",
      "type": "event"
    },
    {
      "anonymous": false,
      "inputs": [
        {
          "indexed": true,
          "internalType": "address",
          "name": "owner",
          "type": "address"
        },
        {
          "indexed": true,
          "internalType": "address",
          "name": "operator",
          "type": "address"
        },
        {
          "indexed": false,
          "internalType": "bool",
          "name": "approved",
          "type": "bool"
        }
      ],
      "name": "ApprovalForAll",
      "type": "event"
    },
    {
      "anonymous": false,
      "inputs": [
        {
          "indexed": true,
          "internalType": "address",
          "name": "previousOwner",
          "type": "address"
        },
        {
          "indexed": true,
          "internalType": "address",
          "name": "newOwner",
          "type": "address"
        }
      ],
      "name": "OwnershipTransferred",
      "type": "event"
    },
    {
      "anonymous": false,
      "inputs": [
        {
          "indexed": true,
          "internalType": "address",
          "name": "from",
          "type": "address"
        },
        {
          "indexed": true,
          "internalType": "address",
          "name": "to",
          "type": "address"
        },
        {
          "indexed": true,
          "internalType": "uint256",
          "name": "tokenId",
          "type": "uint256"
        }
      ],
      "name": "Transfer",
      "type": "event"
    },
    {
      "anonymous": false,
      "inputs": [
        {
          "indexed": true,
          "internalType": "uint256",
          "name": "",
          "type": "uint256"
        },
        {
          "indexed": false,
          "internalType": "uint256",
          "name": "",
          "type": "uint256"
        },
        {
          "indexed": false,
          "internalType": "address",
          "name": "",
          "type": "address"
        }
      ],
      "name": "Unwrapped",
      "type": "event"
    },
    {
      "anonymous": false,
      "inputs": [
        {
          "indexed": true,
          "internalType": "uint256",
          "name": "",
          "type": "uint256"
        },
        {
          "indexed": false,
          "internalType": "uint256",
          "name": "",
          "type": "uint256"
        },
        {
          "indexed": false,
          "internalType": "address",
          "name": "",
          "type": "address"
        }
      ],
      "name": "Wrapped",
      "type": "event"
    },
    {
      "inputs": [],
      "name": "NUM_V0_JINGLES",
      "outputs": [
        {
          "internalType": "uint256",
          "name": "",
          "type": "uint256"
        }
      ],
      "stateMutability": "view",
      "type": "function"
    },
    {
      "inputs": [],
      "name": "NUM_V1_JINGLES",
      "outputs": [
        {
          "internalType": "uint256",
          "name": "",
          "type": "uint256"
        }
      ],
      "stateMutability": "view",
      "type": "function"
    },
    {
      "inputs": [
        {
          "internalType": "address",
          "name": "to",
          "type": "address"
        },
        {
          "internalType": "uint256",
          "name": "tokenId",
          "type": "uint256"
        }
      ],
      "name": "approve",
      "outputs": [],
      "stateMutability": "nonpayable",
      "type": "function"
    },
    {
      "inputs": [
        {
          "internalType": "address",
          "name": "owner",
          "type": "address"
        }
      ],
      "name": "balanceOf",
      "outputs": [
        {
          "internalType": "uint256",
          "name": "",
          "type": "uint256"
        }
      ],
      "stateMutability": "view",
      "type": "function"
    },
    {
      "inputs": [],
      "name": "baseTokenURI",
      "outputs": [
        {
          "internalType": "string",
          "name": "",
          "type": "string"
        }
      ],
      "stateMutability": "pure",
      "type": "function"
    },
    {
      "inputs": [],
      "name": "contractURI",
      "outputs": [
        {
          "internalType": "string",
          "name": "",
          "type": "string"
        }
      ],
      "stateMutability": "pure",
      "type": "function"
    },
    {
      "inputs": [
        {
          "internalType": "uint256",
          "name": "tokenId",
          "type": "uint256"
        }
      ],
      "name": "getApproved",
      "outputs": [
        {
          "internalType": "address",
          "name": "",
          "type": "address"
        }
      ],
      "stateMutability": "view",
      "type": "function"
    },
    {
      "inputs": [
        {
          "internalType": "address",
          "name": "owner",
          "type": "address"
        },
        {
          "internalType": "address",
          "name": "operator",
          "type": "address"
        }
      ],
      "name": "isApprovedForAll",
      "outputs": [
        {
          "internalType": "bool",
          "name": "",
          "type": "bool"
        }
      ],
      "stateMutability": "view",
      "type": "function"
    },
    {
      "inputs": [],
      "name": "name",
      "outputs": [
        {
          "internalType": "string",
          "name": "",
          "type": "string"
        }
      ],
      "stateMutability": "view",
      "type": "function"
    },
    {
      "inputs": [],
      "name": "owner",
      "outputs": [
        {
          "internalType": "address",
          "name": "",
          "type": "address"
        }
      ],
      "stateMutability": "view",
      "type": "function"
    },
    {
      "inputs": [
        {
          "internalType": "uint256",
          "name": "tokenId",
          "type": "uint256"
        }
      ],
      "name": "ownerOf",
      "outputs": [
        {
          "internalType": "address",
          "name": "",
          "type": "address"
        }
      ],
      "stateMutability": "view",
      "type": "function"
    },
    {
      "inputs": [],
      "name": "renounceOwnership",
      "outputs": [],
      "stateMutability": "nonpayable",
      "type": "function"
    },
    {
      "inputs": [
        {
          "internalType": "address",
          "name": "from",
          "type": "address"
        },
        {
          "internalType": "address",
          "name": "to",
          "type": "address"
        },
        {
          "internalType": "uint256",
          "name": "tokenId",
          "type": "uint256"
        }
      ],
      "name": "safeTransferFrom",
      "outputs": [],
      "stateMutability": "nonpayable",
      "type": "function"
    },
    {
      "inputs": [
        {
          "internalType": "address",
          "name": "from",
          "type": "address"
        },
        {
          "internalType": "address",
          "name": "to",
          "type": "address"
        },
        {
          "internalType": "uint256",
          "name": "tokenId",
          "type": "uint256"
        },
        {
          "internalType": "bytes",
          "name": "_data",
          "type": "bytes"
        }
      ],
      "name": "safeTransferFrom",
      "outputs": [],
      "stateMutability": "nonpayable",
      "type": "function"
    },
    {
      "inputs": [
        {
          "internalType": "address",
          "name": "operator",
          "type": "address"
        },
        {
          "internalType": "bool",
          "name": "approved",
          "type": "bool"
        }
      ],
      "name": "setApprovalForAll",
      "outputs": [],
      "stateMutability": "nonpayable",
      "type": "function"
    },
    {
      "inputs": [
        {
          "internalType": "bytes4",
          "name": "interfaceId",
          "type": "bytes4"
        }
      ],
      "name": "supportsInterface",
      "outputs": [
        {
          "internalType": "bool",
          "name": "",
          "type": "bool"
        }
      ],
      "stateMutability": "view",
      "type": "function"
    },
    {
      "inputs": [],
      "name": "symbol",
      "outputs": [
        {
          "internalType": "string",
          "name": "",
          "type": "string"
        }
      ],
      "stateMutability": "view",
      "type": "function"
    },
    {
      "inputs": [
        {
          "internalType": "uint256",
          "name": "",
          "type": "uint256"
        },
        {
          "internalType": "address",
          "name": "",
          "type": "address"
        }
      ],
      "name": "tokenMap",
      "outputs": [
        {
          "internalType": "uint256",
          "name": "tokenId",
          "type": "uint256"
        },
        {
          "internalType": "bool",
          "name": "isWrapped",
          "type": "bool"
        }
      ],
      "stateMutability": "view",
      "type": "function"
    },
    {
      "inputs": [
        {
          "internalType": "uint256",
          "name": "_tokenId",
          "type": "uint256"
        }
      ],
      "name": "tokenURI",
      "outputs": [
        {
          "internalType": "string",
          "name": "",
          "type": "string"
        }
      ],
      "stateMutability": "pure",
      "type": "function"
    },
    {
      "inputs": [],
      "name": "totalSupply",
      "outputs": [
        {
          "internalType": "uint256",
          "name": "",
          "type": "uint256"
        }
      ],
      "stateMutability": "view",
      "type": "function"
    },
    {
      "inputs": [
        {
          "internalType": "address",
          "name": "from",
          "type": "address"
        },
        {
          "internalType": "address",
          "name": "to",
          "type": "address"
        },
        {
          "internalType": "uint256",
          "name": "tokenId",
          "type": "uint256"
        }
      ],
      "name": "transferFrom",
      "outputs": [],
      "stateMutability": "nonpayable",
      "type": "function"
    },
    {
      "inputs": [
        {
          "internalType": "address",
          "name": "newOwner",
          "type": "address"
        }
      ],
      "name": "transferOwnership",
      "outputs": [],
      "stateMutability": "nonpayable",
      "type": "function"
    },
    {
      "inputs": [
        {
          "internalType": "uint256",
          "name": "_wrappedTokenId",
          "type": "uint256"
        },
        {
          "internalType": "enum OGWrappedJingle.Version",
          "name": "_version",
          "type": "uint8"
        }
      ],
      "name": "unwrap",
      "outputs": [],
      "stateMutability": "nonpayable",
      "type": "function"
    },
    {
      "inputs": [
        {
          "internalType": "uint256",
          "name": "_tokenId",
          "type": "uint256"
        },
        {
          "internalType": "enum OGWrappedJingle.Version",
          "name": "_version",
          "type": "uint8"
        }
      ],
      "name": "wrap",
      "outputs": [],
      "stateMutability": "nonpayable",
      "type": "function"
    }
  ],
  "bytecode": "0x60806040523480156200001157600080fd5b506040518060400160405280600a81526020017f4f47204a696e676c6573000000000000000000000000000000000000000000008152506040518060400160405280600281526020017f474a000000000000000000000000000000000000000000000000000000000000815250816000908051906020019062000096929190620001a6565b508060019080519060200190620000af929190620001a6565b505050620000d2620000c6620000d860201b60201c565b620000e060201b60201c565b620002bb565b600033905090565b6000600760009054906101000a900473ffffffffffffffffffffffffffffffffffffffff16905081600760006101000a81548173ffffffffffffffffffffffffffffffffffffffff021916908373ffffffffffffffffffffffffffffffffffffffff1602179055508173ffffffffffffffffffffffffffffffffffffffff168173ffffffffffffffffffffffffffffffffffffffff167f8be0079c531659141344cd1fd0a4f28419497f9722a3daafe3b4186f6b6457e060405160405180910390a35050565b828054620001b49062000256565b90600052602060002090601f016020900481019282620001d8576000855562000224565b82601f10620001f357805160ff191683800117855562000224565b8280016001018555821562000224579182015b828111156200022357825182559160200191906001019062000206565b5b50905062000233919062000237565b5090565b5b808211156200025257600081600090555060010162000238565b5090565b600060028204905060018216806200026f57607f821691505b602082108114156200028657620002856200028c565b5b50919050565b7f4e487b7100000000000000000000000000000000000000000000000000000000600052602260045260246000fd5b61375380620002cb6000396000f3fe608060405234801561001057600080fd5b50600436106101585760003560e01c80638da5cb5b116100c3578063c87b56dd1161007c578063c87b56dd146103b2578063d547cfb7146103e2578063e8a3d48514610400578063e985e9c51461041e578063ef73f69d1461044e578063f2fde38b1461046c57610158565b80638da5cb5b1461030457806395d89b4114610322578063a09ecfbc14610340578063a22cb4651461035c578063b44da9e814610378578063b88d4fde1461039657610158565b806321292e3d1161011557806321292e3d1461024657806323b872dd1461026257806342842e0e1461027e5780636352211e1461029a57806370a08231146102ca578063715018a6146102fa57610158565b806301ffc9a71461015d57806306fdde031461018d578063081812fc146101ab578063095ea7b3146101db57806313ac7898146101f757806318160ddd14610228575b600080fd5b61017760048036038101906101729190612615565b610488565b6040516101849190612b39565b60405180910390f35b61019561056a565b6040516101a29190612b54565b60405180910390f35b6101c560048036038101906101c09190612667565b6105fc565b6040516101d29190612a72565b60405180910390f35b6101f560048036038101906101f091906125d9565b610681565b005b610211600480360381019061020c9190612690565b610799565b60405161021f929190612dfa565b60405180910390f35b6102306107d7565b60405161023d9190612db6565b60405180910390f35b610260600480360381019061025b91906126cc565b6107e8565b005b61027c600480360381019061027791906124d3565b610a86565b005b610298600480360381019061029391906124d3565b610ae6565b005b6102b460048036038101906102af9190612667565b610b06565b6040516102c19190612a72565b60405180910390f35b6102e460048036038101906102df9190612445565b610bb8565b6040516102f19190612db6565b60405180910390f35b610302610c70565b005b61030c610cf8565b6040516103199190612a72565b60405180910390f35b61032a610d22565b6040516103379190612b54565b60405180910390f35b61035a600480360381019061035591906126cc565b610db4565b005b6103766004803603810190610371919061259d565b611056565b005b6103806111d7565b60405161038d9190612db6565b60405180910390f35b6103b060048036038101906103ab9190612522565b6111dc565b005b6103cc60048036038101906103c79190612667565b61123e565b6040516103d99190612b54565b60405180910390f35b6103ea611278565b6040516103f79190612b54565b60405180910390f35b610408611298565b6040516104159190612b54565b60405180910390f35b61043860048036038101906104339190612497565b6112b8565b6040516104459190612b39565b60405180910390f35b61045661134c565b6040516104639190612db6565b60405180910390f35b61048660048036038101906104819190612445565b611351565b005b60007f80ac58cd000000000000000000000000000000000000000000000000000000007bffffffffffffffffffffffffffffffffffffffffffffffffffffffff1916827bffffffffffffffffffffffffffffffffffffffffffffffffffffffff1916148061055357507f5b5e139f000000000000000000000000000000000000000000000000000000007bffffffffffffffffffffffffffffffffffffffffffffffffffffffff1916827bffffffffffffffffffffffffffffffffffffffffffffffffffffffff1916145b80610563575061056282611449565b5b9050919050565b6060600080546105799061302d565b80601f01602080910402602001604051908101604052809291908181526020018280546105a59061302d565b80156105f25780601f106105c7576101008083540402835291602001916105f2565b820191906000526020600020905b8154815290600101906020018083116105d557829003601f168201915b5050505050905090565b6000610607826114b3565b610646576040517f08c379a000000000000000000000000000000000000000000000000000000000815260040161063d90612cd6565b60405180910390fd5b6004600083815260200190815260200160002060009054906101000a900473ffffffffffffffffffffffffffffffffffffffff169050919050565b600061068c82610b06565b90508073ffffffffffffffffffffffffffffffffffffffff168373ffffffffffffffffffffffffffffffffffffffff1614156106fd576040517f08c379a00000000000000000000000000000000000000000000000000000000081526004016106f490612d36565b60405180910390fd5b8073ffffffffffffffffffffffffffffffffffffffff1661071c61151f565b73ffffffffffffffffffffffffffffffffffffffff16148061074b575061074a8161074561151f565b6112b8565b5b61078a576040517f08c379a000000000000000000000000000000000000000000000000000000000815260040161078190612c56565b60405180910390fd5b6107948383611527565b505050565b6009602052816000526040600020602052806000526040600020600091509150508060000154908060010160009054906101000a900460ff16905082565b60006107e360086115e0565b905090565b60006107f3826115ee565b9050600061080084610b06565b90503373ffffffffffffffffffffffffffffffffffffffff168173ffffffffffffffffffffffffffffffffffffffff1614610870576040517f08c379a000000000000000000000000000000000000000000000000000000000815260040161086790612d76565b60405180910390fd5b610879846116a1565b60006009600086815260200190815260200160002060008473ffffffffffffffffffffffffffffffffffffffff1673ffffffffffffffffffffffffffffffffffffffff168152602001908152602001600020604051806040016040529081600082015481526020016001820160009054906101000a900460ff16151515158152505090508060200151610941576040517f08c379a000000000000000000000000000000000000000000000000000000000815260040161093890612d96565b60405180910390fd5b6000816020019015159081151581525050806009600087815260200190815260200160002060008573ffffffffffffffffffffffffffffffffffffffff1673ffffffffffffffffffffffffffffffffffffffff1681526020019081526020016000206000820151816000015560208201518160010160006101000a81548160ff0219169083151502179055509050508273ffffffffffffffffffffffffffffffffffffffff1663a9059cbb3383600001516040518363ffffffff1660e01b8152600401610a0f929190612b10565b600060405180830381600087803b158015610a2957600080fd5b505af1158015610a3d573d6000803e3d6000fd5b50505050847f175e3dad2e6c10f120d3216de54ebe7abeee5b7f33c8941af43e73a0315e4a80826000015185604051610a77929190612dd1565b60405180910390a25050505050565b610a97610a9161151f565b826116f4565b610ad6576040517f08c379a0000000000000000000000000000000000000000000000000000000008152600401610acd90612d56565b60405180910390fd5b610ae18383836117d2565b505050565b610b01838383604051806020016040528060008152506111dc565b505050565b6000806002600084815260200190815260200160002060009054906101000a900473ffffffffffffffffffffffffffffffffffffffff169050600073ffffffffffffffffffffffffffffffffffffffff168173ffffffffffffffffffffffffffffffffffffffff161415610baf576040517f08c379a0000000000000000000000000000000000000000000000000000000008152600401610ba690612c96565b60405180910390fd5b80915050919050565b60008073ffffffffffffffffffffffffffffffffffffffff168273ffffffffffffffffffffffffffffffffffffffff161415610c29576040517f08c379a0000000000000000000000000000000000000000000000000000000008152600401610c2090612c76565b60405180910390fd5b600360008373ffffffffffffffffffffffffffffffffffffffff1673ffffffffffffffffffffffffffffffffffffffff168152602001908152602001600020549050919050565b610c7861151f565b73ffffffffffffffffffffffffffffffffffffffff16610c96610cf8565b73ffffffffffffffffffffffffffffffffffffffff1614610cec576040517f08c379a0000000000000000000000000000000000000000000000000000000008152600401610ce390612cf6565b60405180910390fd5b610cf66000611a2e565b565b6000600760009054906101000a900473ffffffffffffffffffffffffffffffffffffffff16905090565b606060018054610d319061302d565b80601f0160208091040260200160405190810160405280929190818152602001828054610d5d9061302d565b8015610daa5780601f10610d7f57610100808354040283529160200191610daa565b820191906000526020600020905b815481529060010190602001808311610d8d57829003601f168201915b5050505050905090565b6000610dbf826115ee565b905060008173ffffffffffffffffffffffffffffffffffffffff16636352211e856040518263ffffffff1660e01b8152600401610dfc9190612db6565b60206040518083038186803b158015610e1457600080fd5b505afa158015610e28573d6000803e3d6000fd5b505050506040513d601f19601f82011682018060405250810190610e4c919061246e565b9050610e588484611af4565b610e97576040517f08c379a0000000000000000000000000000000000000000000000000000000008152600401610e8e90612bd6565b60405180910390fd5b3373ffffffffffffffffffffffffffffffffffffffff168173ffffffffffffffffffffffffffffffffffffffff1614610f05576040517f08c379a0000000000000000000000000000000000000000000000000000000008152600401610efc90612d76565b60405180910390fd5b8173ffffffffffffffffffffffffffffffffffffffff166323b872dd3330876040518463ffffffff1660e01b8152600401610f4293929190612a8d565b600060405180830381600087803b158015610f5c57600080fd5b505af1158015610f70573d6000803e3d6000fd5b505050506000610f7e611c15565b90506040518060400160405280868152602001600115158152506009600083815260200190815260200160002060008573ffffffffffffffffffffffffffffffffffffffff1673ffffffffffffffffffffffffffffffffffffffff1681526020019081526020016000206000820151816000015560208201518160010160006101000a81548160ff021916908315150217905550905050807ff90572efd1ab4fb9c6b9dabfd24d103ce15482a9ec0c50e0e32618708783b15b8685604051611047929190612dd1565b60405180910390a25050505050565b61105e61151f565b73ffffffffffffffffffffffffffffffffffffffff168273ffffffffffffffffffffffffffffffffffffffff1614156110cc576040517f08c379a00000000000000000000000000000000000000000000000000000000081526004016110c390612c16565b60405180910390fd5b80600560006110d961151f565b73ffffffffffffffffffffffffffffffffffffffff1673ffffffffffffffffffffffffffffffffffffffff16815260200190815260200160002060008473ffffffffffffffffffffffffffffffffffffffff1673ffffffffffffffffffffffffffffffffffffffff16815260200190815260200160002060006101000a81548160ff0219169083151502179055508173ffffffffffffffffffffffffffffffffffffffff1661118661151f565b73ffffffffffffffffffffffffffffffffffffffff167f17307eab39ab6107e8899845ad3d59bd9653f200f220920489ca2b5937696c31836040516111cb9190612b39565b60405180910390a35050565b601e81565b6111ed6111e761151f565b836116f4565b61122c576040517f08c379a000000000000000000000000000000000000000000000000000000000815260040161122390612d56565b60405180910390fd5b61123884848484611c40565b50505050565b6060611248611278565b61125183611c9c565b604051602001611262929190612a4e565b6040516020818303038152906040529050919050565b60606040518060600160405280602e81526020016136c8602e9139905090565b60606040518060600160405280602881526020016136f660289139905090565b6000600560008473ffffffffffffffffffffffffffffffffffffffff1673ffffffffffffffffffffffffffffffffffffffff16815260200190815260200160002060008373ffffffffffffffffffffffffffffffffffffffff1673ffffffffffffffffffffffffffffffffffffffff16815260200190815260200160002060009054906101000a900460ff16905092915050565b602f81565b61135961151f565b73ffffffffffffffffffffffffffffffffffffffff16611377610cf8565b73ffffffffffffffffffffffffffffffffffffffff16146113cd576040517f08c379a00000000000000000000000000000000000000000000000000000000081526004016113c490612cf6565b60405180910390fd5b600073ffffffffffffffffffffffffffffffffffffffff168173ffffffffffffffffffffffffffffffffffffffff16141561143d576040517f08c379a000000000000000000000000000000000000000000000000000000000815260040161143490612b96565b60405180910390fd5b61144681611a2e565b50565b60007f01ffc9a7000000000000000000000000000000000000000000000000000000007bffffffffffffffffffffffffffffffffffffffffffffffffffffffff1916827bffffffffffffffffffffffffffffffffffffffffffffffffffffffff1916149050919050565b60008073ffffffffffffffffffffffffffffffffffffffff166002600084815260200190815260200160002060009054906101000a900473ffffffffffffffffffffffffffffffffffffffff1673ffffffffffffffffffffffffffffffffffffffff1614159050919050565b600033905090565b816004600083815260200190815260200160002060006101000a81548173ffffffffffffffffffffffffffffffffffffffff021916908373ffffffffffffffffffffffffffffffffffffffff160217905550808273ffffffffffffffffffffffffffffffffffffffff1661159a83610b06565b73ffffffffffffffffffffffffffffffffffffffff167f8c5be1e5ebec7d5bd14f71427d1e84f3dd0314c0f7b2291e5b200ac8c7c3b92560405160405180910390a45050565b600081600001549050919050565b6000806001811115611629577f4e487b7100000000000000000000000000000000000000000000000000000000600052602160045260246000fd5b826001811115611662577f4e487b7100000000000000000000000000000000000000000000000000000000600052602160045260246000fd5b141561168457735af7af54e8bc34b293e356ef11fffe51d6f9ae78905061169c565b735b6660ca047cc351bfedca4fc864d0a88f55148590505b919050565b6116aa81611e49565b60006006600083815260200190815260200160002080546116ca9061302d565b9050146116f1576006600082815260200190815260200160002060006116f091906122ed565b5b50565b60006116ff826114b3565b61173e576040517f08c379a000000000000000000000000000000000000000000000000000000000815260040161173590612c36565b60405180910390fd5b600061174983610b06565b90508073ffffffffffffffffffffffffffffffffffffffff168473ffffffffffffffffffffffffffffffffffffffff1614806117b857508373ffffffffffffffffffffffffffffffffffffffff166117a0846105fc565b73ffffffffffffffffffffffffffffffffffffffff16145b806117c957506117c881856112b8565b5b91505092915050565b8273ffffffffffffffffffffffffffffffffffffffff166117f282610b06565b73ffffffffffffffffffffffffffffffffffffffff1614611848576040517f08c379a000000000000000000000000000000000000000000000000000000000815260040161183f90612d16565b60405180910390fd5b600073ffffffffffffffffffffffffffffffffffffffff168273ffffffffffffffffffffffffffffffffffffffff1614156118b8576040517f08c379a00000000000000000000000000000000000000000000000000000000081526004016118af90612bf6565b60405180910390fd5b6118c3838383611f5a565b6118ce600082611527565b6001600360008573ffffffffffffffffffffffffffffffffffffffff1673ffffffffffffffffffffffffffffffffffffffff168152602001908152602001600020600082825461191e9190612f43565b925050819055506001600360008473ffffffffffffffffffffffffffffffffffffffff1673ffffffffffffffffffffffffffffffffffffffff16815260200190815260200160002060008282546119759190612ebc565b92505081905550816002600083815260200190815260200160002060006101000a81548173ffffffffffffffffffffffffffffffffffffffff021916908373ffffffffffffffffffffffffffffffffffffffff160217905550808273ffffffffffffffffffffffffffffffffffffffff168473ffffffffffffffffffffffffffffffffffffffff167fddf252ad1be2c89b69c2b068fc378daa952ba7f163c4a11628f55a4df523b3ef60405160405180910390a4505050565b6000600760009054906101000a900473ffffffffffffffffffffffffffffffffffffffff16905081600760006101000a81548173ffffffffffffffffffffffffffffffffffffffff021916908373ffffffffffffffffffffffffffffffffffffffff1602179055508173ffffffffffffffffffffffffffffffffffffffff168173ffffffffffffffffffffffffffffffffffffffff167f8be0079c531659141344cd1fd0a4f28419497f9722a3daafe3b4186f6b6457e060405160405180910390a35050565b6000806001811115611b2f577f4e487b7100000000000000000000000000000000000000000000000000000000600052602160045260246000fd5b826001811115611b68577f4e487b7100000000000000000000000000000000000000000000000000000000600052602160045260246000fd5b1415611b8057601e8311611b7f5760019050611c0f565b5b600180811115611bb9577f4e487b7100000000000000000000000000000000000000000000000000000000600052602160045260246000fd5b826001811115611bf2577f4e487b7100000000000000000000000000000000000000000000000000000000600052602160045260246000fd5b1415611c0a57602f8311611c095760019050611c0f565b5b600190505b92915050565b6000611c216008611f5f565b6000611c2d60086115e0565b9050611c393382611f75565b8091505090565b611c4b8484846117d2565b611c5784848484612143565b611c96576040517f08c379a0000000000000000000000000000000000000000000000000000000008152600401611c8d90612b76565b60405180910390fd5b50505050565b60606000821415611ce4576040518060400160405280600181526020017f30000000000000000000000000000000000000000000000000000000000000008152509050611e44565b600082905060005b60008214611d16578080611cff90613090565b915050600a82611d0f9190612f12565b9150611cec565b60008167ffffffffffffffff811115611d58577f4e487b7100000000000000000000000000000000000000000000000000000000600052604160045260246000fd5b6040519080825280601f01601f191660200182016040528015611d8a5781602001600182028036833780820191505090505b5090505b60008514611e3d57600182611da39190612f43565b9150600a85611db291906130d9565b6030611dbe9190612ebc565b60f81b818381518110611dfa577f4e487b7100000000000000000000000000000000000000000000000000000000600052603260045260246000fd5b60200101907effffffffffffffffffffffffffffffffffffffffffffffffffffffffffffff1916908160001a905350600a85611e369190612f12565b9450611d8e565b8093505050505b919050565b6000611e5482610b06565b9050611e6281600084611f5a565b611e6d600083611527565b6001600360008373ffffffffffffffffffffffffffffffffffffffff1673ffffffffffffffffffffffffffffffffffffffff1681526020019081526020016000206000828254611ebd9190612f43565b925050819055506002600083815260200190815260200160002060006101000a81549073ffffffffffffffffffffffffffffffffffffffff021916905581600073ffffffffffffffffffffffffffffffffffffffff168273ffffffffffffffffffffffffffffffffffffffff167fddf252ad1be2c89b69c2b068fc378daa952ba7f163c4a11628f55a4df523b3ef60405160405180910390a45050565b505050565b6001816000016000828254019250508190555050565b600073ffffffffffffffffffffffffffffffffffffffff168273ffffffffffffffffffffffffffffffffffffffff161415611fe5576040517f08c379a0000000000000000000000000000000000000000000000000000000008152600401611fdc90612cb6565b60405180910390fd5b611fee816114b3565b1561202e576040517f08c379a000000000000000000000000000000000000000000000000000000000815260040161202590612bb6565b60405180910390fd5b61203a60008383611f5a565b6001600360008473ffffffffffffffffffffffffffffffffffffffff1673ffffffffffffffffffffffffffffffffffffffff168152602001908152602001600020600082825461208a9190612ebc565b92505081905550816002600083815260200190815260200160002060006101000a81548173ffffffffffffffffffffffffffffffffffffffff021916908373ffffffffffffffffffffffffffffffffffffffff160217905550808273ffffffffffffffffffffffffffffffffffffffff16600073ffffffffffffffffffffffffffffffffffffffff167fddf252ad1be2c89b69c2b068fc378daa952ba7f163c4a11628f55a4df523b3ef60405160405180910390a45050565b60006121648473ffffffffffffffffffffffffffffffffffffffff166122da565b156122cd578373ffffffffffffffffffffffffffffffffffffffff1663150b7a0261218d61151f565b8786866040518563ffffffff1660e01b81526004016121af9493929190612ac4565b602060405180830381600087803b1580156121c957600080fd5b505af19250505080156121fa57506040513d601f19601f820116820180604052508101906121f7919061263e565b60015b61227d573d806000811461222a576040519150601f19603f3d011682016040523d82523d6000602084013e61222f565b606091505b50600081511415612275576040517f08c379a000000000000000000000000000000000000000000000000000000000815260040161226c90612b76565b60405180910390fd5b805181602001fd5b63150b7a0260e01b7bffffffffffffffffffffffffffffffffffffffffffffffffffffffff1916817bffffffffffffffffffffffffffffffffffffffffffffffffffffffff1916149150506122d2565b600190505b949350505050565b600080823b905060008111915050919050565b5080546122f99061302d565b6000825580601f1061230b575061232a565b601f016020900490600052602060002090810190612329919061232d565b5b50565b5b8082111561234657600081600090555060010161232e565b5090565b600061235d61235884612e48565b612e23565b90508281526020810184848401111561237557600080fd5b612380848285612feb565b509392505050565b6000813590506123978161365b565b92915050565b6000815190506123ac8161365b565b92915050565b6000813590506123c181613672565b92915050565b6000813590506123d681613689565b92915050565b6000815190506123eb81613689565b92915050565b600082601f83011261240257600080fd5b813561241284826020860161234a565b91505092915050565b60008135905061242a816136a0565b92915050565b60008135905061243f816136b0565b92915050565b60006020828403121561245757600080fd5b600061246584828501612388565b91505092915050565b60006020828403121561248057600080fd5b600061248e8482850161239d565b91505092915050565b600080604083850312156124aa57600080fd5b60006124b885828601612388565b92505060206124c985828601612388565b9150509250929050565b6000806000606084860312156124e857600080fd5b60006124f686828701612388565b935050602061250786828701612388565b925050604061251886828701612430565b9150509250925092565b6000806000806080858703121561253857600080fd5b600061254687828801612388565b945050602061255787828801612388565b935050604061256887828801612430565b925050606085013567ffffffffffffffff81111561258557600080fd5b612591878288016123f1565b91505092959194509250565b600080604083850312156125b057600080fd5b60006125be85828601612388565b92505060206125cf858286016123b2565b9150509250929050565b600080604083850312156125ec57600080fd5b60006125fa85828601612388565b925050602061260b85828601612430565b9150509250929050565b60006020828403121561262757600080fd5b6000612635848285016123c7565b91505092915050565b60006020828403121561265057600080fd5b600061265e848285016123dc565b91505092915050565b60006020828403121561267957600080fd5b600061268784828501612430565b91505092915050565b600080604083850312156126a357600080fd5b60006126b185828601612430565b92505060206126c285828601612388565b9150509250929050565b600080604083850312156126df57600080fd5b60006126ed85828601612430565b92505060206126fe8582860161241b565b9150509250929050565b61271181612f77565b82525050565b61272081612f89565b82525050565b600061273182612e79565b61273b8185612e8f565b935061274b818560208601612ffa565b612754816131c6565b840191505092915050565b600061276a82612e84565b6127748185612ea0565b9350612784818560208601612ffa565b61278d816131c6565b840191505092915050565b60006127a382612e84565b6127ad8185612eb1565b93506127bd818560208601612ffa565b80840191505092915050565b60006127d6603283612ea0565b91506127e1826131d7565b604082019050919050565b60006127f9602683612ea0565b915061280482613226565b604082019050919050565b600061281c601c83612ea0565b915061282782613275565b602082019050919050565b600061283f601583612ea0565b915061284a8261329e565b602082019050919050565b6000612862602483612ea0565b915061286d826132c7565b604082019050919050565b6000612885601983612ea0565b915061289082613316565b602082019050919050565b60006128a8602c83612ea0565b91506128b38261333f565b604082019050919050565b60006128cb603883612ea0565b91506128d68261338e565b604082019050919050565b60006128ee602a83612ea0565b91506128f9826133dd565b604082019050919050565b6000612911602983612ea0565b915061291c8261342c565b604082019050919050565b6000612934602083612ea0565b915061293f8261347b565b602082019050919050565b6000612957602c83612ea0565b9150612962826134a4565b604082019050919050565b600061297a602083612ea0565b9150612985826134f3565b602082019050919050565b600061299d602983612ea0565b91506129a88261351c565b604082019050919050565b60006129c0602183612ea0565b91506129cb8261356b565b604082019050919050565b60006129e3603183612ea0565b91506129ee826135ba565b604082019050919050565b6000612a06600f83612ea0565b9150612a1182613609565b602082019050919050565b6000612a29601183612ea0565b9150612a3482613632565b602082019050919050565b612a4881612fe1565b82525050565b6000612a5a8285612798565b9150612a668284612798565b91508190509392505050565b6000602082019050612a876000830184612708565b92915050565b6000606082019050612aa26000830186612708565b612aaf6020830185612708565b612abc6040830184612a3f565b949350505050565b6000608082019050612ad96000830187612708565b612ae66020830186612708565b612af36040830185612a3f565b8181036060830152612b058184612726565b905095945050505050565b6000604082019050612b256000830185612708565b612b326020830184612a3f565b9392505050565b6000602082019050612b4e6000830184612717565b92915050565b60006020820190508181036000830152612b6e818461275f565b905092915050565b60006020820190508181036000830152612b8f816127c9565b9050919050565b60006020820190508181036000830152612baf816127ec565b9050919050565b60006020820190508181036000830152612bcf8161280f565b9050919050565b60006020820190508181036000830152612bef81612832565b9050919050565b60006020820190508181036000830152612c0f81612855565b9050919050565b60006020820190508181036000830152612c2f81612878565b9050919050565b60006020820190508181036000830152612c4f8161289b565b9050919050565b60006020820190508181036000830152612c6f816128be565b9050919050565b60006020820190508181036000830152612c8f816128e1565b9050919050565b60006020820190508181036000830152612caf81612904565b9050919050565b60006020820190508181036000830152612ccf81612927565b9050919050565b60006020820190508181036000830152612cef8161294a565b9050919050565b60006020820190508181036000830152612d0f8161296d565b9050919050565b60006020820190508181036000830152612d2f81612990565b9050919050565b60006020820190508181036000830152612d4f816129b3565b9050919050565b60006020820190508181036000830152612d6f816129d6565b9050919050565b60006020820190508181036000830152612d8f816129f9565b9050919050565b60006020820190508181036000830152612daf81612a1c565b9050919050565b6000602082019050612dcb6000830184612a3f565b92915050565b6000604082019050612de66000830185612a3f565b612df36020830184612708565b9392505050565b6000604082019050612e0f6000830185612a3f565b612e1c6020830184612717565b9392505050565b6000612e2d612e3e565b9050612e39828261305f565b919050565b6000604051905090565b600067ffffffffffffffff821115612e6357612e62613197565b5b612e6c826131c6565b9050602081019050919050565b600081519050919050565b600081519050919050565b600082825260208201905092915050565b600082825260208201905092915050565b600081905092915050565b6000612ec782612fe1565b9150612ed283612fe1565b9250827fffffffffffffffffffffffffffffffffffffffffffffffffffffffffffffffff03821115612f0757612f0661310a565b5b828201905092915050565b6000612f1d82612fe1565b9150612f2883612fe1565b925082612f3857612f37613139565b5b828204905092915050565b6000612f4e82612fe1565b9150612f5983612fe1565b925082821015612f6c57612f6b61310a565b5b828203905092915050565b6000612f8282612fc1565b9050919050565b60008115159050919050565b60007fffffffff0000000000000000000000000000000000000000000000000000000082169050919050565b600073ffffffffffffffffffffffffffffffffffffffff82169050919050565b6000819050919050565b82818337600083830152505050565b60005b83811015613018578082015181840152602081019050612ffd565b83811115613027576000848401525b50505050565b6000600282049050600182168061304557607f821691505b6020821081141561305957613058613168565b5b50919050565b613068826131c6565b810181811067ffffffffffffffff8211171561308757613086613197565b5b80604052505050565b600061309b82612fe1565b91507fffffffffffffffffffffffffffffffffffffffffffffffffffffffffffffffff8214156130ce576130cd61310a565b5b600182019050919050565b60006130e482612fe1565b91506130ef83612fe1565b9250826130ff576130fe613139565b5b828206905092915050565b7f4e487b7100000000000000000000000000000000000000000000000000000000600052601160045260246000fd5b7f4e487b7100000000000000000000000000000000000000000000000000000000600052601260045260246000fd5b7f4e487b7100000000000000000000000000000000000000000000000000000000600052602260045260246000fd5b7f4e487b7100000000000000000000000000000000000000000000000000000000600052604160045260246000fd5b6000601f19601f8301169050919050565b7f4552433732313a207472616e7366657220746f206e6f6e20455243373231526560008201527f63656976657220696d706c656d656e7465720000000000000000000000000000602082015250565b7f4f776e61626c653a206e6577206f776e657220697320746865207a65726f206160008201527f6464726573730000000000000000000000000000000000000000000000000000602082015250565b7f4552433732313a20746f6b656e20616c7265616479206d696e74656400000000600082015250565b7f5772617020636865636b206e6f74207061737365640000000000000000000000600082015250565b7f4552433732313a207472616e7366657220746f20746865207a65726f2061646460008201527f7265737300000000000000000000000000000000000000000000000000000000602082015250565b7f4552433732313a20617070726f766520746f2063616c6c657200000000000000600082015250565b7f4552433732313a206f70657261746f7220717565727920666f72206e6f6e657860008201527f697374656e7420746f6b656e0000000000000000000000000000000000000000602082015250565b7f4552433732313a20617070726f76652063616c6c6572206973206e6f74206f7760008201527f6e6572206e6f7220617070726f76656420666f7220616c6c0000000000000000602082015250565b7f4552433732313a2062616c616e636520717565727920666f7220746865207a6560008201527f726f206164647265737300000000000000000000000000000000000000000000602082015250565b7f4552433732313a206f776e657220717565727920666f72206e6f6e657869737460008201527f656e7420746f6b656e0000000000000000000000000000000000000000000000602082015250565b7f4552433732313a206d696e7420746f20746865207a65726f2061646472657373600082015250565b7f4552433732313a20617070726f76656420717565727920666f72206e6f6e657860008201527f697374656e7420746f6b656e0000000000000000000000000000000000000000602082015250565b7f4f776e61626c653a2063616c6c6572206973206e6f7420746865206f776e6572600082015250565b7f4552433732313a207472616e73666572206f6620746f6b656e2074686174206960008201527f73206e6f74206f776e0000000000000000000000000000000000000000000000602082015250565b7f4552433732313a20617070726f76616c20746f2063757272656e74206f776e6560008201527f7200000000000000000000000000000000000000000000000000000000000000602082015250565b7f4552433732313a207472616e736665722063616c6c6572206973206e6f74206f60008201527f776e6572206e6f7220617070726f766564000000000000000000000000000000602082015250565b7f4e6f7420746f6b656e206f776e65720000000000000000000000000000000000600082015250565b7f546f6b656e206e6f742077726170706564000000000000000000000000000000600082015250565b61366481612f77565b811461366f57600080fd5b50565b61367b81612f89565b811461368657600080fd5b50565b61369281612f95565b811461369d57600080fd5b50565b600281106136ad57600080fd5b50565b6136b981612fe1565b81146136c457600080fd5b5056fe68747470733a2f2f63727970746f6a696e676c65732e6170702f6170692f777261707065642d6a696e676c65732f68747470733a2f2f63727970746f6a696e676c65732e6170702f6170692f6d657461646174614f47a264697066735822122017e8575f0333c2e21d5ac3ffdc91dc407aa711587c026c092f8e6364454cc1d764736f6c63430008040033",
  "linkReferences": {},
  "deployedLinkReferences": {}
}