{
  "_format": "hh-sol-artifact-1",
  "contractName": "OGWrappedJingle",
  "sourceName": "contracts/OGWrappedJingle.sol",
  "abi": [
    {
      "inputs": [],
      "stateMutability": "nonpayable",
      "type": "constructor"
    },
    {
      "anonymous": false,
      "inputs": [
        {
          "indexed": true,
          "internalType": "address",
          "name": "owner",
          "type": "address"
        },
        {
          "indexed": true,
          "internalType": "address",
          "name": "approved",
          "type": "address"
        },
        {
          "indexed": true,
          "internalType": "uint256",
          "name": "tokenId",
          "type": "uint256"
        }
      ],
      "name": "Approval",
      "type": "event"
    },
    {
      "anonymous": false,
      "inputs": [
        {
          "indexed": true,
          "internalType": "address",
          "name": "owner",
          "type": "address"
        },
        {
          "indexed": true,
          "internalType": "address",
          "name": "operator",
          "type": "address"
        },
        {
          "indexed": false,
          "internalType": "bool",
          "name": "approved",
          "type": "bool"
        }
      ],
      "name": "ApprovalForAll",
      "type": "event"
    },
    {
      "anonymous": false,
      "inputs": [
        {
          "indexed": true,
          "internalType": "address",
          "name": "previousOwner",
          "type": "address"
        },
        {
          "indexed": true,
          "internalType": "address",
          "name": "newOwner",
          "type": "address"
        }
      ],
      "name": "OwnershipTransferred",
      "type": "event"
    },
    {
      "anonymous": false,
      "inputs": [
        {
          "indexed": true,
          "internalType": "address",
          "name": "from",
          "type": "address"
        },
        {
          "indexed": true,
          "internalType": "address",
          "name": "to",
          "type": "address"
        },
        {
          "indexed": true,
          "internalType": "uint256",
          "name": "tokenId",
          "type": "uint256"
        }
      ],
      "name": "Transfer",
      "type": "event"
    },
    {
      "anonymous": false,
      "inputs": [
        {
          "indexed": true,
          "internalType": "address",
          "name": "",
          "type": "address"
        },
        {
          "indexed": true,
          "internalType": "uint256",
          "name": "",
          "type": "uint256"
        },
        {
          "indexed": false,
          "internalType": "uint256",
          "name": "",
          "type": "uint256"
        },
        {
          "indexed": false,
          "internalType": "address",
          "name": "",
          "type": "address"
        }
      ],
      "name": "Unwrapped",
      "type": "event"
    },
    {
      "anonymous": false,
      "inputs": [
        {
          "indexed": true,
          "internalType": "address",
          "name": "",
          "type": "address"
        },
        {
          "indexed": true,
          "internalType": "uint256",
          "name": "",
          "type": "uint256"
        },
        {
          "indexed": false,
          "internalType": "uint256",
          "name": "",
          "type": "uint256"
        },
        {
          "indexed": false,
          "internalType": "address",
          "name": "",
          "type": "address"
        }
      ],
      "name": "Wrapped",
      "type": "event"
    },
    {
      "inputs": [],
      "name": "NUM_V0_JINGLES",
      "outputs": [
        {
          "internalType": "uint256",
          "name": "",
          "type": "uint256"
        }
      ],
      "stateMutability": "view",
      "type": "function"
    },
    {
      "inputs": [],
      "name": "NUM_V1_JINGLES",
      "outputs": [
        {
          "internalType": "uint256",
          "name": "",
          "type": "uint256"
        }
      ],
      "stateMutability": "view",
      "type": "function"
    },
    {
      "inputs": [
        {
          "internalType": "address",
          "name": "to",
          "type": "address"
        },
        {
          "internalType": "uint256",
          "name": "tokenId",
          "type": "uint256"
        }
      ],
      "name": "approve",
      "outputs": [],
      "stateMutability": "nonpayable",
      "type": "function"
    },
    {
      "inputs": [
        {
          "internalType": "address",
          "name": "owner",
          "type": "address"
        }
      ],
      "name": "balanceOf",
      "outputs": [
        {
          "internalType": "uint256",
          "name": "",
          "type": "uint256"
        }
      ],
      "stateMutability": "view",
      "type": "function"
    },
    {
      "inputs": [],
      "name": "baseTokenURI",
      "outputs": [
        {
          "internalType": "string",
          "name": "",
          "type": "string"
        }
      ],
      "stateMutability": "pure",
      "type": "function"
    },
    {
      "inputs": [],
      "name": "contractURI",
      "outputs": [
        {
          "internalType": "string",
          "name": "",
          "type": "string"
        }
      ],
      "stateMutability": "pure",
      "type": "function"
    },
    {
      "inputs": [
        {
          "internalType": "uint256",
          "name": "tokenId",
          "type": "uint256"
        }
      ],
      "name": "getApproved",
      "outputs": [
        {
          "internalType": "address",
          "name": "",
          "type": "address"
        }
      ],
      "stateMutability": "view",
      "type": "function"
    },
    {
      "inputs": [
        {
          "internalType": "address",
          "name": "owner",
          "type": "address"
        },
        {
          "internalType": "address",
          "name": "operator",
          "type": "address"
        }
      ],
      "name": "isApprovedForAll",
      "outputs": [
        {
          "internalType": "bool",
          "name": "",
          "type": "bool"
        }
      ],
      "stateMutability": "view",
      "type": "function"
    },
    {
      "inputs": [],
      "name": "name",
      "outputs": [
        {
          "internalType": "string",
          "name": "",
          "type": "string"
        }
      ],
      "stateMutability": "view",
      "type": "function"
    },
    {
      "inputs": [],
      "name": "owner",
      "outputs": [
        {
          "internalType": "address",
          "name": "",
          "type": "address"
        }
      ],
      "stateMutability": "view",
      "type": "function"
    },
    {
      "inputs": [
        {
          "internalType": "uint256",
          "name": "tokenId",
          "type": "uint256"
        }
      ],
      "name": "ownerOf",
      "outputs": [
        {
          "internalType": "address",
          "name": "",
          "type": "address"
        }
      ],
      "stateMutability": "view",
      "type": "function"
    },
    {
      "inputs": [],
      "name": "renounceOwnership",
      "outputs": [],
      "stateMutability": "nonpayable",
      "type": "function"
    },
    {
      "inputs": [
        {
          "internalType": "address",
          "name": "from",
          "type": "address"
        },
        {
          "internalType": "address",
          "name": "to",
          "type": "address"
        },
        {
          "internalType": "uint256",
          "name": "tokenId",
          "type": "uint256"
        }
      ],
      "name": "safeTransferFrom",
      "outputs": [],
      "stateMutability": "nonpayable",
      "type": "function"
    },
    {
      "inputs": [
        {
          "internalType": "address",
          "name": "from",
          "type": "address"
        },
        {
          "internalType": "address",
          "name": "to",
          "type": "address"
        },
        {
          "internalType": "uint256",
          "name": "tokenId",
          "type": "uint256"
        },
        {
          "internalType": "bytes",
          "name": "_data",
          "type": "bytes"
        }
      ],
      "name": "safeTransferFrom",
      "outputs": [],
      "stateMutability": "nonpayable",
      "type": "function"
    },
    {
      "inputs": [
        {
          "internalType": "address",
          "name": "operator",
          "type": "address"
        },
        {
          "internalType": "bool",
          "name": "approved",
          "type": "bool"
        }
      ],
      "name": "setApprovalForAll",
      "outputs": [],
      "stateMutability": "nonpayable",
      "type": "function"
    },
    {
      "inputs": [
        {
          "internalType": "bytes4",
          "name": "interfaceId",
          "type": "bytes4"
        }
      ],
      "name": "supportsInterface",
      "outputs": [
        {
          "internalType": "bool",
          "name": "",
          "type": "bool"
        }
      ],
      "stateMutability": "view",
      "type": "function"
    },
    {
      "inputs": [],
      "name": "symbol",
      "outputs": [
        {
          "internalType": "string",
          "name": "",
          "type": "string"
        }
      ],
      "stateMutability": "view",
      "type": "function"
    },
    {
      "inputs": [
        {
          "internalType": "uint256",
          "name": "_tokenId",
          "type": "uint256"
        }
      ],
      "name": "tokenURI",
      "outputs": [
        {
          "internalType": "string",
          "name": "",
          "type": "string"
        }
      ],
      "stateMutability": "pure",
      "type": "function"
    },
    {
      "inputs": [],
      "name": "totalSupply",
      "outputs": [
        {
          "internalType": "uint256",
          "name": "",
          "type": "uint256"
        }
      ],
      "stateMutability": "view",
      "type": "function"
    },
    {
      "inputs": [
        {
          "internalType": "address",
          "name": "from",
          "type": "address"
        },
        {
          "internalType": "address",
          "name": "to",
          "type": "address"
        },
        {
          "internalType": "uint256",
          "name": "tokenId",
          "type": "uint256"
        }
      ],
      "name": "transferFrom",
      "outputs": [],
      "stateMutability": "nonpayable",
      "type": "function"
    },
    {
      "inputs": [
        {
          "internalType": "address",
          "name": "newOwner",
          "type": "address"
        }
      ],
      "name": "transferOwnership",
      "outputs": [],
      "stateMutability": "nonpayable",
      "type": "function"
    },
    {
      "inputs": [
        {
          "internalType": "uint256",
          "name": "_wrappedTokenId",
          "type": "uint256"
        },
        {
          "internalType": "enum OGWrappedJingle.Version",
          "name": "_version",
          "type": "uint8"
        }
      ],
      "name": "unwrap",
      "outputs": [],
      "stateMutability": "nonpayable",
      "type": "function"
    },
    {
      "inputs": [
        {
          "internalType": "uint256",
          "name": "",
          "type": "uint256"
        },
        {
          "internalType": "address",
          "name": "",
          "type": "address"
        }
      ],
      "name": "unwrappedToWrapped",
      "outputs": [
        {
          "internalType": "uint256",
          "name": "",
          "type": "uint256"
        }
      ],
      "stateMutability": "view",
      "type": "function"
    },
    {
      "inputs": [
        {
          "internalType": "uint256",
          "name": "_tokenId",
          "type": "uint256"
        },
        {
          "internalType": "enum OGWrappedJingle.Version",
          "name": "_version",
          "type": "uint8"
        }
      ],
      "name": "wrap",
      "outputs": [],
      "stateMutability": "nonpayable",
      "type": "function"
    },
    {
      "inputs": [
        {
          "internalType": "uint256",
          "name": "",
          "type": "uint256"
        }
      ],
      "name": "wrappedToUnwrapped",
      "outputs": [
        {
          "internalType": "uint256",
          "name": "tokenId",
          "type": "uint256"
        },
        {
          "internalType": "address",
          "name": "jingleContract",
          "type": "address"
        },
        {
          "internalType": "bool",
          "name": "isWrapped",
          "type": "bool"
        }
      ],
      "stateMutability": "view",
      "type": "function"
    }
  ],
  "bytecode": "0x60806040523480156200001157600080fd5b506040518060400160405280600f81526020017f47656e65736973204a696e676c657300000000000000000000000000000000008152506040518060400160405280600281526020017f474a000000000000000000000000000000000000000000000000000000000000815250816000908051906020019062000096929190620001a6565b508060019080519060200190620000af929190620001a6565b505050620000d2620000c6620000d860201b60201c565b620000e060201b60201c565b620002bb565b600033905090565b6000600760009054906101000a900473ffffffffffffffffffffffffffffffffffffffff16905081600760006101000a81548173ffffffffffffffffffffffffffffffffffffffff021916908373ffffffffffffffffffffffffffffffffffffffff1602179055508173ffffffffffffffffffffffffffffffffffffffff168173ffffffffffffffffffffffffffffffffffffffff167f8be0079c531659141344cd1fd0a4f28419497f9722a3daafe3b4186f6b6457e060405160405180910390a35050565b828054620001b49062000256565b90600052602060002090601f016020900481019282620001d8576000855562000224565b82601f10620001f357805160ff191683800117855562000224565b8280016001018555821562000224579182015b828111156200022357825182559160200191906001019062000206565b5b50905062000233919062000237565b5090565b5b808211156200025257600081600090555060010162000238565b5090565b600060028204905060018216806200026f57607f821691505b602082108114156200028657620002856200028c565b5b50919050565b7f4e487b7100000000000000000000000000000000000000000000000000000000600052602260045260246000fd5b61389680620002cb6000396000f3fe608060405234801561001057600080fd5b50600436106101735760003560e01c8063715018a6116100de578063b88d4fde11610097578063e8a3d48511610071578063e8a3d4851461044c578063e985e9c51461046a578063ef73f69d1461049a578063f2fde38b146104b857610173565b8063b88d4fde146103e2578063c87b56dd146103fe578063d547cfb71461042e57610173565b8063715018a6146103465780638da5cb5b1461035057806395d89b411461036e578063a09ecfbc1461038c578063a22cb465146103a8578063b44da9e8146103c457610173565b806323b872dd1161013057806323b872dd1461024c5780634227f8a91461026857806342842e0e1461029a57806342a94b8a146102b65780636352211e146102e657806370a082311461031657610173565b806301ffc9a71461017857806306fdde03146101a8578063081812fc146101c6578063095ea7b3146101f657806318160ddd1461021257806321292e3d14610230575b600080fd5b610192600480360381019061018d91906126de565b6104d4565b60405161019f9190612c25565b60405180910390f35b6101b06105b6565b6040516101bd9190612c40565b60405180910390f35b6101e060048036038101906101db9190612730565b610648565b6040516101ed9190612b5e565b60405180910390f35b610210600480360381019061020b91906126a2565b6106cd565b005b61021a6107e5565b6040516102279190612ec2565b60405180910390f35b61024a60048036038101906102459190612795565b6107f6565b005b6102666004803603810190610261919061259c565b610ad0565b005b610282600480360381019061027d9190612730565b610b30565b60405161029193929190612f06565b60405180910390f35b6102b460048036038101906102af919061259c565b610b87565b005b6102d060048036038101906102cb9190612759565b610ba7565b6040516102dd9190612ec2565b60405180910390f35b61030060048036038101906102fb9190612730565b610bcc565b60405161030d9190612b5e565b60405180910390f35b610330600480360381019061032b919061250e565b610c7e565b60405161033d9190612ec2565b60405180910390f35b61034e610d36565b005b610358610dbe565b6040516103659190612b5e565b60405180910390f35b610376610de8565b6040516103839190612c40565b60405180910390f35b6103a660048036038101906103a19190612795565b610e7a565b005b6103c260048036038101906103bd9190612666565b6112e0565b005b6103cc611461565b6040516103d99190612ec2565b60405180910390f35b6103fc60048036038101906103f791906125eb565b611466565b005b61041860048036038101906104139190612730565b6114c8565b6040516104259190612c40565b60405180910390f35b610436611502565b6040516104439190612c40565b60405180910390f35b610454611522565b6040516104619190612c40565b60405180910390f35b610484600480360381019061047f9190612560565b611542565b6040516104919190612c25565b60405180910390f35b6104a26115d6565b6040516104af9190612ec2565b60405180910390f35b6104d260048036038101906104cd919061250e565b6115db565b005b60007f80ac58cd000000000000000000000000000000000000000000000000000000007bffffffffffffffffffffffffffffffffffffffffffffffffffffffff1916827bffffffffffffffffffffffffffffffffffffffffffffffffffffffff1916148061059f57507f5b5e139f000000000000000000000000000000000000000000000000000000007bffffffffffffffffffffffffffffffffffffffffffffffffffffffff1916827bffffffffffffffffffffffffffffffffffffffffffffffffffffffff1916145b806105af57506105ae826116d3565b5b9050919050565b6060600080546105c590613147565b80601f01602080910402602001604051908101604052809291908181526020018280546105f190613147565b801561063e5780601f106106135761010080835404028352916020019161063e565b820191906000526020600020905b81548152906001019060200180831161062157829003601f168201915b5050505050905090565b60006106538261173d565b610692576040517f08c379a000000000000000000000000000000000000000000000000000000000815260040161068990612de2565b60405180910390fd5b6004600083815260200190815260200160002060009054906101000a900473ffffffffffffffffffffffffffffffffffffffff169050919050565b60006106d882610bcc565b90508073ffffffffffffffffffffffffffffffffffffffff168373ffffffffffffffffffffffffffffffffffffffff161415610749576040517f08c379a000000000000000000000000000000000000000000000000000000000815260040161074090612e42565b60405180910390fd5b8073ffffffffffffffffffffffffffffffffffffffff166107686117a9565b73ffffffffffffffffffffffffffffffffffffffff1614806107975750610796816107916117a9565b611542565b5b6107d6576040517f08c379a00000000000000000000000000000000000000000000000000000000081526004016107cd90612d62565b60405180910390fd5b6107e083836117b1565b505050565b60006107f1600861186a565b905090565b600061080182611878565b9050600061080e84610bcc565b90503373ffffffffffffffffffffffffffffffffffffffff168173ffffffffffffffffffffffffffffffffffffffff161461087e576040517f08c379a000000000000000000000000000000000000000000000000000000000815260040161087590612e82565b60405180910390fd5b610889333086610ad0565b600060096000868152602001908152602001600020604051806060016040529081600082015481526020016001820160009054906101000a900473ffffffffffffffffffffffffffffffffffffffff1673ffffffffffffffffffffffffffffffffffffffff1673ffffffffffffffffffffffffffffffffffffffff1681526020016001820160149054906101000a900460ff1615151515815250509050806040015161096a576040517f08c379a000000000000000000000000000000000000000000000000000000000815260040161096190612ea2565b60405180910390fd5b600081604001901515908115158152505080600960008781526020019081526020016000206000820151816000015560208201518160010160006101000a81548173ffffffffffffffffffffffffffffffffffffffff021916908373ffffffffffffffffffffffffffffffffffffffff16021790555060408201518160010160146101000a81548160ff0219169083151502179055509050508273ffffffffffffffffffffffffffffffffffffffff1663a9059cbb3383600001516040518363ffffffff1660e01b8152600401610a42929190612bfc565b600060405180830381600087803b158015610a5c57600080fd5b505af1158015610a70573d6000803e3d6000fd5b50505050843373ffffffffffffffffffffffffffffffffffffffff167f4ff5ed1c9e7b108d4387ea610e939d38856e040cdd5b1d6836e1fc82ca2b08b0836000015186604051610ac1929190612edd565b60405180910390a35050505050565b610ae1610adb6117a9565b8261192b565b610b20576040517f08c379a0000000000000000000000000000000000000000000000000000000008152600401610b1790612e62565b60405180910390fd5b610b2b838383611a09565b505050565b60096020528060005260406000206000915090508060000154908060010160009054906101000a900473ffffffffffffffffffffffffffffffffffffffff16908060010160149054906101000a900460ff16905083565b610ba283838360405180602001604052806000815250611466565b505050565b600a602052816000526040600020602052806000526040600020600091509150505481565b6000806002600084815260200190815260200160002060009054906101000a900473ffffffffffffffffffffffffffffffffffffffff169050600073ffffffffffffffffffffffffffffffffffffffff168173ffffffffffffffffffffffffffffffffffffffff161415610c75576040517f08c379a0000000000000000000000000000000000000000000000000000000008152600401610c6c90612da2565b60405180910390fd5b80915050919050565b60008073ffffffffffffffffffffffffffffffffffffffff168273ffffffffffffffffffffffffffffffffffffffff161415610cef576040517f08c379a0000000000000000000000000000000000000000000000000000000008152600401610ce690612d82565b60405180910390fd5b600360008373ffffffffffffffffffffffffffffffffffffffff1673ffffffffffffffffffffffffffffffffffffffff168152602001908152602001600020549050919050565b610d3e6117a9565b73ffffffffffffffffffffffffffffffffffffffff16610d5c610dbe565b73ffffffffffffffffffffffffffffffffffffffff1614610db2576040517f08c379a0000000000000000000000000000000000000000000000000000000008152600401610da990612e02565b60405180910390fd5b610dbc6000611c65565b565b6000600760009054906101000a900473ffffffffffffffffffffffffffffffffffffffff16905090565b606060018054610df790613147565b80601f0160208091040260200160405190810160405280929190818152602001828054610e2390613147565b8015610e705780601f10610e4557610100808354040283529160200191610e70565b820191906000526020600020905b815481529060010190602001808311610e5357829003601f168201915b5050505050905090565b6000610e8582611878565b905060008173ffffffffffffffffffffffffffffffffffffffff16636352211e856040518263ffffffff1660e01b8152600401610ec29190612ec2565b60206040518083038186803b158015610eda57600080fd5b505afa158015610eee573d6000803e3d6000fd5b505050506040513d601f19601f82011682018060405250810190610f129190612537565b9050610f1e8484611d2b565b610f5d576040517f08c379a0000000000000000000000000000000000000000000000000000000008152600401610f5490612ce2565b60405180910390fd5b3373ffffffffffffffffffffffffffffffffffffffff168173ffffffffffffffffffffffffffffffffffffffff1614610fcb576040517f08c379a0000000000000000000000000000000000000000000000000000000008152600401610fc290612e82565b60405180910390fd5b8173ffffffffffffffffffffffffffffffffffffffff166323b872dd3330876040518463ffffffff1660e01b815260040161100893929190612b79565b600060405180830381600087803b15801561102257600080fd5b505af1158015611036573d6000803e3d6000fd5b50505050600080600a600087815260200190815260200160002060008573ffffffffffffffffffffffffffffffffffffffff1673ffffffffffffffffffffffffffffffffffffffff1681526020019081526020016000205414156110f85761109c611e4c565b905080600a600087815260200190815260200160002060008573ffffffffffffffffffffffffffffffffffffffff1673ffffffffffffffffffffffffffffffffffffffff168152602001908152602001600020819055506111cd565b600a600086815260200190815260200160002060008473ffffffffffffffffffffffffffffffffffffffff1673ffffffffffffffffffffffffffffffffffffffff1681526020019081526020016000205490503073ffffffffffffffffffffffffffffffffffffffff1661116b82610bcc565b73ffffffffffffffffffffffffffffffffffffffff16146111c1576040517f08c379a00000000000000000000000000000000000000000000000000000000081526004016111b890612ca2565b60405180910390fd5b6111cc303383611a09565b5b60405180606001604052808681526020018473ffffffffffffffffffffffffffffffffffffffff16815260200160011515815250600960008381526020019081526020016000206000820151816000015560208201518160010160006101000a81548173ffffffffffffffffffffffffffffffffffffffff021916908373ffffffffffffffffffffffffffffffffffffffff16021790555060408201518160010160146101000a81548160ff021916908315150217905550905050803373ffffffffffffffffffffffffffffffffffffffff167fad16c0cdaa4bd80cb85752cce46858b910e203dff83c39bbe1478f1c9961753387866040516112d1929190612edd565b60405180910390a35050505050565b6112e86117a9565b73ffffffffffffffffffffffffffffffffffffffff168273ffffffffffffffffffffffffffffffffffffffff161415611356576040517f08c379a000000000000000000000000000000000000000000000000000000000815260040161134d90612d22565b60405180910390fd5b80600560006113636117a9565b73ffffffffffffffffffffffffffffffffffffffff1673ffffffffffffffffffffffffffffffffffffffff16815260200190815260200160002060008473ffffffffffffffffffffffffffffffffffffffff1673ffffffffffffffffffffffffffffffffffffffff16815260200190815260200160002060006101000a81548160ff0219169083151502179055508173ffffffffffffffffffffffffffffffffffffffff166114106117a9565b73ffffffffffffffffffffffffffffffffffffffff167f17307eab39ab6107e8899845ad3d59bd9653f200f220920489ca2b5937696c31836040516114559190612c25565b60405180910390a35050565b601e81565b6114776114716117a9565b8361192b565b6114b6576040517f08c379a00000000000000000000000000000000000000000000000000000000081526004016114ad90612e62565b60405180910390fd5b6114c284848484611e77565b50505050565b60606114d2611502565b6114db83611ed3565b6040516020016114ec929190612b3a565b6040516020818303038152906040529050919050565b60606040518060600160405280602e815260200161380b602e9139905090565b606060405180606001604052806028815260200161383960289139905090565b6000600560008473ffffffffffffffffffffffffffffffffffffffff1673ffffffffffffffffffffffffffffffffffffffff16815260200190815260200160002060008373ffffffffffffffffffffffffffffffffffffffff1673ffffffffffffffffffffffffffffffffffffffff16815260200190815260200160002060009054906101000a900460ff16905092915050565b602f81565b6115e36117a9565b73ffffffffffffffffffffffffffffffffffffffff16611601610dbe565b73ffffffffffffffffffffffffffffffffffffffff1614611657576040517f08c379a000000000000000000000000000000000000000000000000000000000815260040161164e90612e02565b60405180910390fd5b600073ffffffffffffffffffffffffffffffffffffffff168173ffffffffffffffffffffffffffffffffffffffff1614156116c7576040517f08c379a00000000000000000000000000000000000000000000000000000000081526004016116be90612c82565b60405180910390fd5b6116d081611c65565b50565b60007f01ffc9a7000000000000000000000000000000000000000000000000000000007bffffffffffffffffffffffffffffffffffffffffffffffffffffffff1916827bffffffffffffffffffffffffffffffffffffffffffffffffffffffff1916149050919050565b60008073ffffffffffffffffffffffffffffffffffffffff166002600084815260200190815260200160002060009054906101000a900473ffffffffffffffffffffffffffffffffffffffff1673ffffffffffffffffffffffffffffffffffffffff1614159050919050565b600033905090565b816004600083815260200190815260200160002060006101000a81548173ffffffffffffffffffffffffffffffffffffffff021916908373ffffffffffffffffffffffffffffffffffffffff160217905550808273ffffffffffffffffffffffffffffffffffffffff1661182483610bcc565b73ffffffffffffffffffffffffffffffffffffffff167f8c5be1e5ebec7d5bd14f71427d1e84f3dd0314c0f7b2291e5b200ac8c7c3b92560405160405180910390a45050565b600081600001549050919050565b60008060018111156118b3577f4e487b7100000000000000000000000000000000000000000000000000000000600052602160045260246000fd5b8260018111156118ec577f4e487b7100000000000000000000000000000000000000000000000000000000600052602160045260246000fd5b141561190e57735af7af54e8bc34b293e356ef11fffe51d6f9ae789050611926565b735b6660ca047cc351bfedca4fc864d0a88f55148590505b919050565b60006119368261173d565b611975576040517f08c379a000000000000000000000000000000000000000000000000000000000815260040161196c90612d42565b60405180910390fd5b600061198083610bcc565b90508073ffffffffffffffffffffffffffffffffffffffff168473ffffffffffffffffffffffffffffffffffffffff1614806119ef57508373ffffffffffffffffffffffffffffffffffffffff166119d784610648565b73ffffffffffffffffffffffffffffffffffffffff16145b80611a0057506119ff8185611542565b5b91505092915050565b8273ffffffffffffffffffffffffffffffffffffffff16611a2982610bcc565b73ffffffffffffffffffffffffffffffffffffffff1614611a7f576040517f08c379a0000000000000000000000000000000000000000000000000000000008152600401611a7690612e22565b60405180910390fd5b600073ffffffffffffffffffffffffffffffffffffffff168273ffffffffffffffffffffffffffffffffffffffff161415611aef576040517f08c379a0000000000000000000000000000000000000000000000000000000008152600401611ae690612d02565b60405180910390fd5b611afa838383612080565b611b056000826117b1565b6001600360008573ffffffffffffffffffffffffffffffffffffffff1673ffffffffffffffffffffffffffffffffffffffff1681526020019081526020016000206000828254611b55919061305d565b925050819055506001600360008473ffffffffffffffffffffffffffffffffffffffff1673ffffffffffffffffffffffffffffffffffffffff1681526020019081526020016000206000828254611bac9190612fd6565b92505081905550816002600083815260200190815260200160002060006101000a81548173ffffffffffffffffffffffffffffffffffffffff021916908373ffffffffffffffffffffffffffffffffffffffff160217905550808273ffffffffffffffffffffffffffffffffffffffff168473ffffffffffffffffffffffffffffffffffffffff167fddf252ad1be2c89b69c2b068fc378daa952ba7f163c4a11628f55a4df523b3ef60405160405180910390a4505050565b6000600760009054906101000a900473ffffffffffffffffffffffffffffffffffffffff16905081600760006101000a81548173ffffffffffffffffffffffffffffffffffffffff021916908373ffffffffffffffffffffffffffffffffffffffff1602179055508173ffffffffffffffffffffffffffffffffffffffff168173ffffffffffffffffffffffffffffffffffffffff167f8be0079c531659141344cd1fd0a4f28419497f9722a3daafe3b4186f6b6457e060405160405180910390a35050565b6000806001811115611d66577f4e487b7100000000000000000000000000000000000000000000000000000000600052602160045260246000fd5b826001811115611d9f577f4e487b7100000000000000000000000000000000000000000000000000000000600052602160045260246000fd5b1415611db757601e8311611db65760019050611e46565b5b600180811115611df0577f4e487b7100000000000000000000000000000000000000000000000000000000600052602160045260246000fd5b826001811115611e29577f4e487b7100000000000000000000000000000000000000000000000000000000600052602160045260246000fd5b1415611e4157602f8311611e405760019050611e46565b5b600090505b92915050565b6000611e586008612085565b6000611e64600861186a565b9050611e70338261209b565b8091505090565b611e82848484611a09565b611e8e84848484612269565b611ecd576040517f08c379a0000000000000000000000000000000000000000000000000000000008152600401611ec490612c62565b60405180910390fd5b50505050565b60606000821415611f1b576040518060400160405280600181526020017f3000000000000000000000000000000000000000000000000000000000000000815250905061207b565b600082905060005b60008214611f4d578080611f36906131aa565b915050600a82611f46919061302c565b9150611f23565b60008167ffffffffffffffff811115611f8f577f4e487b7100000000000000000000000000000000000000000000000000000000600052604160045260246000fd5b6040519080825280601f01601f191660200182016040528015611fc15781602001600182028036833780820191505090505b5090505b6000851461207457600182611fda919061305d565b9150600a85611fe991906131f3565b6030611ff59190612fd6565b60f81b818381518110612031577f4e487b7100000000000000000000000000000000000000000000000000000000600052603260045260246000fd5b60200101907effffffffffffffffffffffffffffffffffffffffffffffffffffffffffffff1916908160001a905350600a8561206d919061302c565b9450611fc5565b8093505050505b919050565b505050565b6001816000016000828254019250508190555050565b600073ffffffffffffffffffffffffffffffffffffffff168273ffffffffffffffffffffffffffffffffffffffff16141561210b576040517f08c379a000000000000000000000000000000000000000000000000000000000815260040161210290612dc2565b60405180910390fd5b6121148161173d565b15612154576040517f08c379a000000000000000000000000000000000000000000000000000000000815260040161214b90612cc2565b60405180910390fd5b61216060008383612080565b6001600360008473ffffffffffffffffffffffffffffffffffffffff1673ffffffffffffffffffffffffffffffffffffffff16815260200190815260200160002060008282546121b09190612fd6565b92505081905550816002600083815260200190815260200160002060006101000a81548173ffffffffffffffffffffffffffffffffffffffff021916908373ffffffffffffffffffffffffffffffffffffffff160217905550808273ffffffffffffffffffffffffffffffffffffffff16600073ffffffffffffffffffffffffffffffffffffffff167fddf252ad1be2c89b69c2b068fc378daa952ba7f163c4a11628f55a4df523b3ef60405160405180910390a45050565b600061228a8473ffffffffffffffffffffffffffffffffffffffff16612400565b156123f3578373ffffffffffffffffffffffffffffffffffffffff1663150b7a026122b36117a9565b8786866040518563ffffffff1660e01b81526004016122d59493929190612bb0565b602060405180830381600087803b1580156122ef57600080fd5b505af192505050801561232057506040513d601f19601f8201168201806040525081019061231d9190612707565b60015b6123a3573d8060008114612350576040519150601f19603f3d011682016040523d82523d6000602084013e612355565b606091505b5060008151141561239b576040517f08c379a000000000000000000000000000000000000000000000000000000000815260040161239290612c62565b60405180910390fd5b805181602001fd5b63150b7a0260e01b7bffffffffffffffffffffffffffffffffffffffffffffffffffffffff1916817bffffffffffffffffffffffffffffffffffffffffffffffffffffffff1916149150506123f8565b600190505b949350505050565b600080823b905060008111915050919050565b600061242661242184612f62565b612f3d565b90508281526020810184848401111561243e57600080fd5b612449848285613105565b509392505050565b6000813590506124608161379e565b92915050565b6000815190506124758161379e565b92915050565b60008135905061248a816137b5565b92915050565b60008135905061249f816137cc565b92915050565b6000815190506124b4816137cc565b92915050565b600082601f8301126124cb57600080fd5b81356124db848260208601612413565b91505092915050565b6000813590506124f3816137e3565b92915050565b600081359050612508816137f3565b92915050565b60006020828403121561252057600080fd5b600061252e84828501612451565b91505092915050565b60006020828403121561254957600080fd5b600061255784828501612466565b91505092915050565b6000806040838503121561257357600080fd5b600061258185828601612451565b925050602061259285828601612451565b9150509250929050565b6000806000606084860312156125b157600080fd5b60006125bf86828701612451565b93505060206125d086828701612451565b92505060406125e1868287016124f9565b9150509250925092565b6000806000806080858703121561260157600080fd5b600061260f87828801612451565b945050602061262087828801612451565b9350506040612631878288016124f9565b925050606085013567ffffffffffffffff81111561264e57600080fd5b61265a878288016124ba565b91505092959194509250565b6000806040838503121561267957600080fd5b600061268785828601612451565b92505060206126988582860161247b565b9150509250929050565b600080604083850312156126b557600080fd5b60006126c385828601612451565b92505060206126d4858286016124f9565b9150509250929050565b6000602082840312156126f057600080fd5b60006126fe84828501612490565b91505092915050565b60006020828403121561271957600080fd5b6000612727848285016124a5565b91505092915050565b60006020828403121561274257600080fd5b6000612750848285016124f9565b91505092915050565b6000806040838503121561276c57600080fd5b600061277a858286016124f9565b925050602061278b85828601612451565b9150509250929050565b600080604083850312156127a857600080fd5b60006127b6858286016124f9565b92505060206127c7858286016124e4565b9150509250929050565b6127da81613091565b82525050565b6127e9816130a3565b82525050565b60006127fa82612f93565b6128048185612fa9565b9350612814818560208601613114565b61281d816132e0565b840191505092915050565b600061283382612f9e565b61283d8185612fba565b935061284d818560208601613114565b612856816132e0565b840191505092915050565b600061286c82612f9e565b6128768185612fcb565b9350612886818560208601613114565b80840191505092915050565b600061289f603283612fba565b91506128aa826132f1565b604082019050919050565b60006128c2602683612fba565b91506128cd82613340565b604082019050919050565b60006128e5601583612fba565b91506128f08261338f565b602082019050919050565b6000612908601c83612fba565b9150612913826133b8565b602082019050919050565b600061292b601583612fba565b9150612936826133e1565b602082019050919050565b600061294e602483612fba565b91506129598261340a565b604082019050919050565b6000612971601983612fba565b915061297c82613459565b602082019050919050565b6000612994602c83612fba565b915061299f82613482565b604082019050919050565b60006129b7603883612fba565b91506129c2826134d1565b604082019050919050565b60006129da602a83612fba565b91506129e582613520565b604082019050919050565b60006129fd602983612fba565b9150612a088261356f565b604082019050919050565b6000612a20602083612fba565b9150612a2b826135be565b602082019050919050565b6000612a43602c83612fba565b9150612a4e826135e7565b604082019050919050565b6000612a66602083612fba565b9150612a7182613636565b602082019050919050565b6000612a89602983612fba565b9150612a948261365f565b604082019050919050565b6000612aac602183612fba565b9150612ab7826136ae565b604082019050919050565b6000612acf603183612fba565b9150612ada826136fd565b604082019050919050565b6000612af2600f83612fba565b9150612afd8261374c565b602082019050919050565b6000612b15601183612fba565b9150612b2082613775565b602082019050919050565b612b34816130fb565b82525050565b6000612b468285612861565b9150612b528284612861565b91508190509392505050565b6000602082019050612b7360008301846127d1565b92915050565b6000606082019050612b8e60008301866127d1565b612b9b60208301856127d1565b612ba86040830184612b2b565b949350505050565b6000608082019050612bc560008301876127d1565b612bd260208301866127d1565b612bdf6040830185612b2b565b8181036060830152612bf181846127ef565b905095945050505050565b6000604082019050612c1160008301856127d1565b612c1e6020830184612b2b565b9392505050565b6000602082019050612c3a60008301846127e0565b92915050565b60006020820190508181036000830152612c5a8184612828565b905092915050565b60006020820190508181036000830152612c7b81612892565b9050919050565b60006020820190508181036000830152612c9b816128b5565b9050919050565b60006020820190508181036000830152612cbb816128d8565b9050919050565b60006020820190508181036000830152612cdb816128fb565b9050919050565b60006020820190508181036000830152612cfb8161291e565b9050919050565b60006020820190508181036000830152612d1b81612941565b9050919050565b60006020820190508181036000830152612d3b81612964565b9050919050565b60006020820190508181036000830152612d5b81612987565b9050919050565b60006020820190508181036000830152612d7b816129aa565b9050919050565b60006020820190508181036000830152612d9b816129cd565b9050919050565b60006020820190508181036000830152612dbb816129f0565b9050919050565b60006020820190508181036000830152612ddb81612a13565b9050919050565b60006020820190508181036000830152612dfb81612a36565b9050919050565b60006020820190508181036000830152612e1b81612a59565b9050919050565b60006020820190508181036000830152612e3b81612a7c565b9050919050565b60006020820190508181036000830152612e5b81612a9f565b9050919050565b60006020820190508181036000830152612e7b81612ac2565b9050919050565b60006020820190508181036000830152612e9b81612ae5565b9050919050565b60006020820190508181036000830152612ebb81612b08565b9050919050565b6000602082019050612ed76000830184612b2b565b92915050565b6000604082019050612ef26000830185612b2b565b612eff60208301846127d1565b9392505050565b6000606082019050612f1b6000830186612b2b565b612f2860208301856127d1565b612f3560408301846127e0565b949350505050565b6000612f47612f58565b9050612f538282613179565b919050565b6000604051905090565b600067ffffffffffffffff821115612f7d57612f7c6132b1565b5b612f86826132e0565b9050602081019050919050565b600081519050919050565b600081519050919050565b600082825260208201905092915050565b600082825260208201905092915050565b600081905092915050565b6000612fe1826130fb565b9150612fec836130fb565b9250827fffffffffffffffffffffffffffffffffffffffffffffffffffffffffffffffff0382111561302157613020613224565b5b828201905092915050565b6000613037826130fb565b9150613042836130fb565b92508261305257613051613253565b5b828204905092915050565b6000613068826130fb565b9150613073836130fb565b92508282101561308657613085613224565b5b828203905092915050565b600061309c826130db565b9050919050565b60008115159050919050565b60007fffffffff0000000000000000000000000000000000000000000000000000000082169050919050565b600073ffffffffffffffffffffffffffffffffffffffff82169050919050565b6000819050919050565b82818337600083830152505050565b60005b83811015613132578082015181840152602081019050613117565b83811115613141576000848401525b50505050565b6000600282049050600182168061315f57607f821691505b6020821081141561317357613172613282565b5b50919050565b613182826132e0565b810181811067ffffffffffffffff821117156131a1576131a06132b1565b5b80604052505050565b60006131b5826130fb565b91507fffffffffffffffffffffffffffffffffffffffffffffffffffffffffffffffff8214156131e8576131e7613224565b5b600182019050919050565b60006131fe826130fb565b9150613209836130fb565b92508261321957613218613253565b5b828206905092915050565b7f4e487b7100000000000000000000000000000000000000000000000000000000600052601160045260246000fd5b7f4e487b7100000000000000000000000000000000000000000000000000000000600052601260045260246000fd5b7f4e487b7100000000000000000000000000000000000000000000000000000000600052602260045260246000fd5b7f4e487b7100000000000000000000000000000000000000000000000000000000600052604160045260246000fd5b6000601f19601f8301169050919050565b7f4552433732313a207472616e7366657220746f206e6f6e20455243373231526560008201527f63656976657220696d706c656d656e7465720000000000000000000000000000602082015250565b7f4f776e61626c653a206e6577206f776e657220697320746865207a65726f206160008201527f6464726573730000000000000000000000000000000000000000000000000000602082015250565b7f57726170706572206d757374206265206f776e65720000000000000000000000600082015250565b7f4552433732313a20746f6b656e20616c7265616479206d696e74656400000000600082015250565b7f5772617020636865636b206e6f74207061737365640000000000000000000000600082015250565b7f4552433732313a207472616e7366657220746f20746865207a65726f2061646460008201527f7265737300000000000000000000000000000000000000000000000000000000602082015250565b7f4552433732313a20617070726f766520746f2063616c6c657200000000000000600082015250565b7f4552433732313a206f70657261746f7220717565727920666f72206e6f6e657860008201527f697374656e7420746f6b656e0000000000000000000000000000000000000000602082015250565b7f4552433732313a20617070726f76652063616c6c6572206973206e6f74206f7760008201527f6e6572206e6f7220617070726f76656420666f7220616c6c0000000000000000602082015250565b7f4552433732313a2062616c616e636520717565727920666f7220746865207a6560008201527f726f206164647265737300000000000000000000000000000000000000000000602082015250565b7f4552433732313a206f776e657220717565727920666f72206e6f6e657869737460008201527f656e7420746f6b656e0000000000000000000000000000000000000000000000602082015250565b7f4552433732313a206d696e7420746f20746865207a65726f2061646472657373600082015250565b7f4552433732313a20617070726f76656420717565727920666f72206e6f6e657860008201527f697374656e7420746f6b656e0000000000000000000000000000000000000000602082015250565b7f4f776e61626c653a2063616c6c6572206973206e6f7420746865206f776e6572600082015250565b7f4552433732313a207472616e73666572206f6620746f6b656e2074686174206960008201527f73206e6f74206f776e0000000000000000000000000000000000000000000000602082015250565b7f4552433732313a20617070726f76616c20746f2063757272656e74206f776e6560008201527f7200000000000000000000000000000000000000000000000000000000000000602082015250565b7f4552433732313a207472616e736665722063616c6c6572206973206e6f74206f60008201527f776e6572206e6f7220617070726f766564000000000000000000000000000000602082015250565b7f4e6f7420746f6b656e206f776e65720000000000000000000000000000000000600082015250565b7f546f6b656e206e6f742077726170706564000000000000000000000000000000600082015250565b6137a781613091565b81146137b257600080fd5b50565b6137be816130a3565b81146137c957600080fd5b50565b6137d5816130af565b81146137e057600080fd5b50565b600281106137f057600080fd5b50565b6137fc816130fb565b811461380757600080fd5b5056fe68747470733a2f2f63727970746f6a696e676c65732e6170702f6170692f777261707065642d6a696e676c65732f68747470733a2f2f63727970746f6a696e676c65732e6170702f6170692f6d657461646174614f47a2646970667358221220121da9d7c2a995177b3832705fcd2c1e4a9cbcda35d5fe1431a7150f572be86164736f6c63430008040033",
  "linkReferences": {},
  "deployedLinkReferences": {}
}