{
    "contractName": "JingleV0View",
    "abi": [
        {
            "inputs": [],
            "name": "JINGLE_V0_ADDR",
            "outputs": [
                {
                    "internalType": "address",
                    "name": "",
                    "type": "address"
                }
            ],
            "stateMutability": "view",
            "type": "function"
        },
        {
            "inputs": [],
            "name": "MARKET_PLACE_V0",
            "outputs": [
                {
                    "internalType": "address",
                    "name": "",
                    "type": "address"
                }
            ],
            "stateMutability": "view",
            "type": "function"
        },
        {
            "inputs": [],
            "name": "SAMPLE_V0_ADDR",
            "outputs": [
                {
                    "internalType": "address",
                    "name": "",
                    "type": "address"
                }
            ],
            "stateMutability": "view",
            "type": "function"
        },
        {
            "inputs": [
                {
                    "internalType": "uint256",
                    "name": "_jingleId",
                    "type": "uint256"
                }
            ],
            "name": "getFullJingleData",
            "outputs": [
                {
                    "components": [
                        {
                            "internalType": "uint256",
                            "name": "id",
                            "type": "uint256"
                        },
                        {
                            "internalType": "string",
                            "name": "name",
                            "type": "string"
                        },
                        {
                            "internalType": "string",
                            "name": "author",
                            "type": "string"
                        },
                        {
                            "internalType": "bool",
                            "name": "onSale",
                            "type": "bool"
                        },
                        {
                            "internalType": "uint256",
                            "name": "price",
                            "type": "uint256"
                        },
                        {
                            "internalType": "address",
                            "name": "owner",
                            "type": "address"
                        },
                        {
                            "internalType": "uint256[]",
                            "name": "sampleIds",
                            "type": "uint256[]"
                        },
                        {
                            "internalType": "uint256[]",
                            "name": "sampleTypes",
                            "type": "uint256[]"
                        }
                    ],
                    "internalType": "struct JingleV0View.JingleData",
                    "name": "",
                    "type": "tuple"
                }
            ],
            "stateMutability": "view",
            "type": "function"
        },
        {
            "inputs": [
                {
                    "internalType": "address",
                    "name": "_user",
                    "type": "address"
                }
            ],
            "name": "getFullJingleDataForUser",
            "outputs": [
                {
                    "components": [
                        {
                            "internalType": "uint256",
                            "name": "id",
                            "type": "uint256"
                        },
                        {
                            "internalType": "string",
                            "name": "name",
                            "type": "string"
                        },
                        {
                            "internalType": "string",
                            "name": "author",
                            "type": "string"
                        },
                        {
                            "internalType": "bool",
                            "name": "onSale",
                            "type": "bool"
                        },
                        {
                            "internalType": "uint256",
                            "name": "price",
                            "type": "uint256"
                        },
                        {
                            "internalType": "address",
                            "name": "owner",
                            "type": "address"
                        },
                        {
                            "internalType": "uint256[]",
                            "name": "sampleIds",
                            "type": "uint256[]"
                        },
                        {
                            "internalType": "uint256[]",
                            "name": "sampleTypes",
                            "type": "uint256[]"
                        }
                    ],
                    "internalType": "struct JingleV0View.JingleData[]",
                    "name": "jingles",
                    "type": "tuple[]"
                }
            ],
            "stateMutability": "view",
            "type": "function"
        },
        {
            "inputs": [],
            "name": "getJinglesOnSale",
            "outputs": [
                {
                    "components": [
                        {
                            "internalType": "uint256",
                            "name": "id",
                            "type": "uint256"
                        },
                        {
                            "internalType": "string",
                            "name": "name",
                            "type": "string"
                        },
                        {
                            "internalType": "string",
                            "name": "author",
                            "type": "string"
                        },
                        {
                            "internalType": "bool",
                            "name": "onSale",
                            "type": "bool"
                        },
                        {
                            "internalType": "uint256",
                            "name": "price",
                            "type": "uint256"
                        },
                        {
                            "internalType": "address",
                            "name": "owner",
                            "type": "address"
                        },
                        {
                            "internalType": "uint256[]",
                            "name": "sampleIds",
                            "type": "uint256[]"
                        },
                        {
                            "internalType": "uint256[]",
                            "name": "sampleTypes",
                            "type": "uint256[]"
                        }
                    ],
                    "internalType": "struct JingleV0View.JingleData[]",
                    "name": "jinglesOnSale",
                    "type": "tuple[]"
                }
            ],
            "stateMutability": "view",
            "type": "function"
        },
        {
            "inputs": [
                {
                    "internalType": "uint256",
                    "name": "_page",
                    "type": "uint256"
                },
                {
                    "internalType": "uint256",
                    "name": "_perPage",
                    "type": "uint256"
                }
            ],
            "name": "getPaginatedJingles",
            "outputs": [
                {
                    "components": [
                        {
                            "internalType": "uint256",
                            "name": "id",
                            "type": "uint256"
                        },
                        {
                            "internalType": "string",
                            "name": "name",
                            "type": "string"
                        },
                        {
                            "internalType": "string",
                            "name": "author",
                            "type": "string"
                        },
                        {
                            "internalType": "bool",
                            "name": "onSale",
                            "type": "bool"
                        },
                        {
                            "internalType": "uint256",
                            "name": "price",
                            "type": "uint256"
                        },
                        {
                            "internalType": "address",
                            "name": "owner",
                            "type": "address"
                        },
                        {
                            "internalType": "uint256[]",
                            "name": "sampleIds",
                            "type": "uint256[]"
                        },
                        {
                            "internalType": "uint256[]",
                            "name": "sampleTypes",
                            "type": "uint256[]"
                        }
                    ],
                    "internalType": "struct JingleV0View.JingleData[]",
                    "name": "",
                    "type": "tuple[]"
                }
            ],
            "stateMutability": "view",
            "type": "function"
        },
        {
            "inputs": [
                {
                    "internalType": "address",
                    "name": "_owner",
                    "type": "address"
                }
            ],
            "name": "getSamplesForUser",
            "outputs": [
                {
                    "components": [
                        {
                            "internalType": "uint256",
                            "name": "sampleId",
                            "type": "uint256"
                        },
                        {
                            "internalType": "uint256",
                            "name": "sampleType",
                            "type": "uint256"
                        }
                    ],
                    "internalType": "struct JingleV0View.SampleData[]",
                    "name": "samples",
                    "type": "tuple[]"
                }
            ],
            "stateMutability": "view",
            "type": "function"
        }
    ],
    "bytecode": "608060405234801561001057600080fd5b50611265806100206000396000f3fe608060405234801561001057600080fd5b50600436106100885760003560e01c80637e79190e1161005b5780637e79190e1461011e5780637f42c6dc14610131578063c063feff1461014c578063c60a1faa1461016757600080fd5b80630cee7eff1461008d57806324afd274146100b65780633a39d5ef146100d65780634fb955bd146100eb575b600080fd5b6100a061009b366004610f0e565b61017a565b6040516100ad9190611125565b60405180910390f35b6100c96100c4366004610d50565b61054c565b6040516100ad91906110d6565b6100de610796565b6040516100ad9190611075565b610106736ac9e08b3aa6b501e5fb29b3d65e4c12305ba72181565b6040516001600160a01b0390911681526020016100ad565b6100de61012c366004610d50565b610a23565b61010673b8e392da7abb836cff06d827531a7e5f1b00bed281565b610106735af7af54e8bc34b293e356ef11fffe51d6f9ae7881565b6100de610175366004610f3e565b610b93565b610182610c96565b604051633c29982360e11b815260048101839052735af7af54e8bc34b293e356ef11fffe51d6f9ae78906000908190839063785330469060240160006040518083038186803b1580156101d457600080fd5b505afa1580156101e8573d6000803e3d6000fd5b505050506040513d6000823e601f3d908101601f191682016040526102109190810190610e37565b604051630216f2cd60e21b81526004810188905291935091506000906001600160a01b0385169063085bcb349060240160006040518083038186803b15801561025857600080fd5b505afa15801561026c573d6000803e3d6000fd5b505050506040513d6000823e601f3d908101601f191682016040526102949190810190610d8f565b90506000815167ffffffffffffffff8111156102c057634e487b7160e01b600052604160045260246000fd5b6040519080825280602002602001820160405280156102e9578160200160208202803683370190505b50905060005b82518110156103ec57736ac9e08b3aa6b501e5fb29b3d65e4c12305ba7216001600160a01b03166376aed2e184838151811061033b57634e487b7160e01b600052603260045260246000fd5b60200260200101516040518263ffffffff1660e01b815260040161036191815260200190565b60206040518083038186803b15801561037957600080fd5b505afa15801561038d573d6000803e3d6000fd5b505050506040513d601f19601f820116820180604052508101906103b19190610f26565b8282815181106103d157634e487b7160e01b600052603260045260246000fd5b60209081029190910101526103e5816111d0565b90506102ef565b50604051634a8393f360e01b81526004810188905260009073b8e392da7abb836cff06d827531a7e5f1b00bed290634a8393f39060240160806040518083038186803b15801561043b57600080fd5b505afa15801561044f573d6000803e3d6000fd5b505050506040513d601f19601f820116820180604052508101906104739190610e98565b905060405180610100016040528089815260200186815260200185815260200182606001511515815260200182600001518152602001876001600160a01b0316636352211e8b6040518263ffffffff1660e01b81526004016104d791815260200190565b60206040518083038186803b1580156104ef57600080fd5b505afa158015610503573d6000803e3d6000fd5b505050506040513d601f19601f820116820180604052508101906105279190610d73565b6001600160a01b03168152602001848152602001838152509650505050505050919050565b604051635ffcf42160e11b81526001600160a01b0382166004820152606090600090736ac9e08b3aa6b501e5fb29b3d65e4c12305ba7219063bff9e8429060240160006040518083038186803b1580156105a557600080fd5b505afa1580156105b9573d6000803e3d6000fd5b505050506040513d6000823e601f3d908101601f191682016040526105e19190810190610d8f565b9050805167ffffffffffffffff81111561060b57634e487b7160e01b600052604160045260246000fd5b60405190808252806020026020018201604052801561065057816020015b60408051808201909152600080825260208201528152602001906001900390816106295790505b50915060005b825181101561078f57604051806040016040528083838151811061068a57634e487b7160e01b600052603260045260246000fd5b60200260200101518152602001736ac9e08b3aa6b501e5fb29b3d65e4c12305ba7216001600160a01b03166376aed2e18585815181106106da57634e487b7160e01b600052603260045260246000fd5b60200260200101516040518263ffffffff1660e01b815260040161070091815260200190565b60206040518083038186803b15801561071857600080fd5b505afa15801561072c573d6000803e3d6000fd5b505050506040513d601f19601f820116820180604052508101906107509190610f26565b81525083828151811061077357634e487b7160e01b600052603260045260246000fd5b602002602001018190525080610788906111d0565b9050610656565b5050919050565b6060600073b8e392da7abb836cff06d827531a7e5f1b00bed26001600160a01b03166345d537886040518163ffffffff1660e01b815260040160206040518083038186803b1580156107e757600080fd5b505afa1580156107fb573d6000803e3d6000fd5b505050506040513d601f19601f8201168201806040525081019061081f9190610f26565b905060008167ffffffffffffffff81111561084a57634e487b7160e01b600052604160045260246000fd5b604051908082528060200260200182016040528015610873578160200160208202803683370190505b50905060005b815181101561094057604051633f1d9a1f60e21b81526004810182905273b8e392da7abb836cff06d827531a7e5f1b00bed29063fc76687c9060240160206040518083038186803b1580156108cd57600080fd5b505afa1580156108e1573d6000803e3d6000fd5b505050506040513d601f19601f820116820180604052508101906109059190610f26565b82828151811061092557634e487b7160e01b600052603260045260246000fd5b6020908102919091010152610939816111d0565b9050610879565b50805167ffffffffffffffff81111561096957634e487b7160e01b600052604160045260246000fd5b6040519080825280602002602001820160405280156109a257816020015b61098f610c96565b8152602001906001900390816109875790505b50925060005b8351811015610a1d576109e18282815181106109d457634e487b7160e01b600052603260045260246000fd5b602002602001015161017a565b848281518110610a0157634e487b7160e01b600052603260045260246000fd5b602002602001018190525080610a16906111d0565b90506109a8565b50505090565b6040516349ee2ae160e01b81526001600160a01b0382166004820152606090735af7af54e8bc34b293e356ef11fffe51d6f9ae789060009082906349ee2ae19060240160006040518083038186803b158015610a7e57600080fd5b505afa158015610a92573d6000803e3d6000fd5b505050506040513d6000823e601f3d908101601f19168201604052610aba9190810190610d8f565b9050805167ffffffffffffffff811115610ae457634e487b7160e01b600052604160045260246000fd5b604051908082528060200260200182016040528015610b1d57816020015b610b0a610c96565b815260200190600190039081610b025790505b50925060005b8351811015610b8b57610b4f8282815181106109d457634e487b7160e01b600052603260045260246000fd5b848281518110610b6f57634e487b7160e01b600052603260045260246000fd5b602002602001018190525080610b84906111d0565b9050610b23565b505050919050565b606060008267ffffffffffffffff811115610bbe57634e487b7160e01b600052604160045260246000fd5b604051908082528060200260200182016040528015610bf757816020015b610be4610c96565b815260200190600190039081610bdc5790505b5090506000610c068486611181565b90506000610c148583611169565b905082518111610c245780610c27565b82515b90506000825b82811015610c8a57610c3e8161017a565b858381518110610c5e57634e487b7160e01b600052603260045260246000fd5b60200260200101819052508180610c74906111d0565b9250508080610c82906111d0565b915050610c2d565b50929695505050505050565b6040518061010001604052806000815260200160608152602001606081526020016000151581526020016000815260200160006001600160a01b0316815260200160608152602001606081525090565b600082601f830112610cf6578081fd5b815167ffffffffffffffff811115610d1057610d10611201565b610d23601f8201601f1916602001611138565b818152846020838601011115610d37578283fd5b610d488260208301602087016111a0565b949350505050565b600060208284031215610d61578081fd5b8135610d6c81611217565b9392505050565b600060208284031215610d84578081fd5b8151610d6c81611217565b60006020808385031215610da1578182fd5b825167ffffffffffffffff80821115610db8578384fd5b818501915085601f830112610dcb578384fd5b815181811115610ddd57610ddd611201565b8060051b9150610dee848301611138565b8181528481019084860184860187018a1015610e08578788fd5b8795505b83861015610e2a578051835260019590950194918601918601610e0c565b5098975050505050505050565b60008060408385031215610e49578081fd5b825167ffffffffffffffff80821115610e60578283fd5b610e6c86838701610ce6565b93506020850151915080821115610e81578283fd5b50610e8e85828601610ce6565b9150509250929050565b600060808284031215610ea9578081fd5b6040516080810181811067ffffffffffffffff82111715610ecc57610ecc611201565b604052825181526020830151610ee181611217565b60208201526040838101519082015260608301518015158114610f02578283fd5b60608201529392505050565b600060208284031215610f1f578081fd5b5035919050565b600060208284031215610f37578081fd5b5051919050565b60008060408385031215610f50578182fd5b50508035926020909101359150565b6000815180845260208085019450808401835b83811015610f8e57815187529582019590820190600101610f72565b509495945050505050565b60008151808452610fb18160208601602086016111a0565b601f01601f19169290920160200192915050565b6000610100825184526020830151816020860152610fe582860182610f99565b91505060408301518482036040860152610fff8282610f99565b9150506060830151611015606086018215159052565b506080830151608085015260a083015161103a60a08601826001600160a01b03169052565b5060c083015184820360c08601526110528282610f5f565b91505060e083015184820360e086015261106c8282610f5f565b95945050505050565b6000602080830181845280855180835260408601915060408160051b8701019250838701855b828110156110c957603f198886030184526110b7858351610fc5565b9450928501929085019060010161109b565b5092979650505050505050565b602080825282518282018190526000919060409081850190868401855b82811015611118578151805185528601518685015292840192908501906001016110f3565b5091979650505050505050565b602081526000610d6c6020830184610fc5565b604051601f8201601f1916810167ffffffffffffffff8111828210171561116157611161611201565b604052919050565b6000821982111561117c5761117c6111eb565b500190565b600081600019048311821515161561119b5761119b6111eb565b500290565b60005b838110156111bb5781810151838201526020016111a3565b838111156111ca576000848401525b50505050565b60006000198214156111e4576111e46111eb565b5060010190565b634e487b7160e01b600052601160045260246000fd5b634e487b7160e01b600052604160045260246000fd5b6001600160a01b038116811461122c57600080fd5b5056fea26469706673582212206a85fa4804a1448564dc9fd03fadfeaddc9337a35b6b62e8fd731d3a97f4f41964736f6c63430008040033",
    "sourcePath": "/Users/nenadpalinkasevic/Documents/code/CryptoJingles/wrapper/contracts/JingleV0View.sol",
    "compiler": {
        "name": "solc",
        "version": "0.8.4+commit.c7e474f2"
    },
    "functionHashes": {
        "JINGLE_V0_ADDR()": "c063feff",
        "MARKET_PLACE_V0()": "7f42c6dc",
        "SAMPLE_V0_ADDR()": "4fb955bd",
        "getFullJingleData(uint256)": "0cee7eff",
        "getFullJingleDataForUser(address)": "7e79190e",
        "getJinglesOnSale()": "3a39d5ef",
        "getPaginatedJingles(uint256,uint256)": "c60a1faa",
        "getSamplesForUser(address)": "24afd274"
    },
    "gasEstimates": {
        "creation": {
            "codeDepositCost": "941800",
            "executionCost": "981",
            "totalCost": "942781"
        },
        "external": {
            "JINGLE_V0_ADDR()": "260",
            "MARKET_PLACE_V0()": "238",
            "SAMPLE_V0_ADDR()": "283",
            "getFullJingleData(uint256)": "infinite",
            "getFullJingleDataForUser(address)": "infinite",
            "getJinglesOnSale()": "infinite",
            "getPaginatedJingles(uint256,uint256)": "infinite",
            "getSamplesForUser(address)": "infinite"
        }
    }
}