{
    "contractName": "JingleView",
    "abi": [
        {
            "inputs": [],
            "name": "MARKET_PLACE_V1",
            "outputs": [
                {
                    "internalType": "address",
                    "name": "",
                    "type": "address"
                }
            ],
            "stateMutability": "view",
            "type": "function"
        },
        {
            "inputs": [],
            "name": "SAMPLE_V1_ADDR",
            "outputs": [
                {
                    "internalType": "address",
                    "name": "",
                    "type": "address"
                }
            ],
            "stateMutability": "view",
            "type": "function"
        },
        {
            "inputs": [
                {
                    "internalType": "uint256",
                    "name": "_jingleId",
                    "type": "uint256"
                },
                {
                    "internalType": "enum JingleView.Version",
                    "name": "_version",
                    "type": "uint8"
                }
            ],
            "name": "getFullJingleData",
            "outputs": [
                {
                    "components": [
                        {
                            "internalType": "string",
                            "name": "name",
                            "type": "string"
                        },
                        {
                            "internalType": "string",
                            "name": "author",
                            "type": "string"
                        },
                        {
                            "internalType": "bool",
                            "name": "onSale",
                            "type": "bool"
                        },
                        {
                            "internalType": "uint256",
                            "name": "price",
                            "type": "uint256"
                        },
                        {
                            "internalType": "address",
                            "name": "owner",
                            "type": "address"
                        },
                        {
                            "internalType": "uint256[]",
                            "name": "sampleIds",
                            "type": "uint256[]"
                        },
                        {
                            "internalType": "uint256[]",
                            "name": "sampleTypes",
                            "type": "uint256[]"
                        },
                        {
                            "internalType": "uint8[20]",
                            "name": "settings",
                            "type": "uint8[20]"
                        }
                    ],
                    "internalType": "struct JingleView.JingleData",
                    "name": "",
                    "type": "tuple"
                }
            ],
            "stateMutability": "view",
            "type": "function"
        }
    ],
    "bytecode": "608060405234801561001057600080fd5b50610a99806100206000396000f3fe608060405234801561001057600080fd5b50600436106100415760003560e01c8063a970b1c114610046578063ac9315391461007e578063c0d78b9a14610099575b600080fd5b6100617357fd3480581f72b0df1adead72b4181a52a1d7de81565b6040516001600160a01b0390911681526020015b60405180910390f35b61006173c1ef465527343f68bb1841f99b9adeb061cc7ac981565b6100ac6100a7366004610814565b6100b9565b60405161007591906108f9565b6100c1610569565b60006100cc83610505565b9050600080826001600160a01b03166378533046876040518263ffffffff1660e01b81526004016100ff91815260200190565b60006040518083038186803b15801561011757600080fd5b505afa15801561012b573d6000803e3d6000fd5b505050506040513d6000823e601f3d908101601f191682016040526101539190810190610727565b604051630216f2cd60e21b81526004810189905291935091506000906001600160a01b0385169063085bcb349060240160006040518083038186803b15801561019b57600080fd5b505afa1580156101af573d6000803e3d6000fd5b505050506040513d6000823e601f3d908101601f191682016040526101d7919081019061067f565b9050606060005b82518110156102db577357fd3480581f72b0df1adead72b4181a52a1d7de6001600160a01b03166376aed2e184838151811061022a57634e487b7160e01b600052603260045260246000fd5b60200260200101516040518263ffffffff1660e01b815260040161025091815260200190565b60206040518083038186803b15801561026857600080fd5b505afa15801561027c573d6000803e3d6000fd5b505050506040513d601f19601f820116820180604052508101906102a091906107fc565b8282815181106102c057634e487b7160e01b600052603260045260246000fd5b60209081029190910101526102d481610a26565b90506101de565b50604051634a8393f360e01b81526004810189905260009073c1ef465527343f68bb1841f99b9adeb061cc7ac990634a8393f39060240160806040518083038186803b15801561032a57600080fd5b505afa15801561033e573d6000803e3d6000fd5b505050506040513d601f19601f820116820180604052508101906103629190610788565b905061036c6105be565b60005b6014811015610434576040516301fe45e160e01b8152600481018c9052602481018290526001600160a01b038916906301fe45e19060440160206040518083038186803b1580156103bf57600080fd5b505afa1580156103d3573d6000803e3d6000fd5b505050506040513d601f19601f820116820180604052508101906103f79190610846565b82826014811061041757634e487b7160e01b600052603260045260246000fd5b60ff909216602092909202015261042d81610a26565b905061036f565b5060408051610100810182528781526020810187905260608085015115158284015284519082015290516331a9108f60e11b8152600481018c905260808201906001600160a01b038a1690636352211e9060240160206040518083038186803b1580156104a057600080fd5b505afa1580156104b4573d6000803e3d6000fd5b505050506040513d601f19601f820116820180604052508101906104d8919061065e565b6001600160a01b031681526020018581526020018481526020018281525097505050505050505092915050565b60008082600181111561052857634e487b7160e01b600052602160045260246000fd5b14156105495750735af7af54e8bc34b293e356ef11fffe51d6f9ae78919050565b50735b6660ca047cc351bfedca4fc864d0a88f551485919050565b919050565b60405180610100016040528060608152602001606081526020016000151581526020016000815260200160006001600160a01b0316815260200160608152602001606081526020016105b96105be565b905290565b6040518061028001604052806014906020820280368337509192915050565b80516001600160a01b038116811461056457600080fd5b600082601f830112610604578081fd5b815167ffffffffffffffff81111561061e5761061e610a4d565b610631601f8201601f19166020016109c9565b818152846020838601011115610645578283fd5b6106568260208301602087016109fa565b949350505050565b60006020828403121561066f578081fd5b610678826105dd565b9392505050565b60006020808385031215610691578182fd5b825167ffffffffffffffff808211156106a8578384fd5b818501915085601f8301126106bb578384fd5b8151818111156106cd576106cd610a4d565b8060051b91506106de8483016109c9565b8181528481019084860184860187018a10156106f8578788fd5b8795505b8386101561071a5780518352600195909501949186019186016106fc565b5098975050505050505050565b60008060408385031215610739578081fd5b825167ffffffffffffffff80821115610750578283fd5b61075c868387016105f4565b93506020850151915080821115610771578283fd5b5061077e858286016105f4565b9150509250929050565b600060808284031215610799578081fd5b6040516080810181811067ffffffffffffffff821117156107bc576107bc610a4d565b604052825181526107cf602084016105dd565b602082015260408301516040820152606083015180151581146107f0578283fd5b60608201529392505050565b60006020828403121561080d578081fd5b5051919050565b60008060408385031215610826578182fd5b8235915060208301356002811061083b578182fd5b809150509250929050565b600060208284031215610857578081fd5b815160ff81168114610678578182fd5b6000815180845260208085019450808401835b838110156108965781518752958201959082019060010161087a565b509495945050505050565b8060005b60148110156108c757815160ff168452602093840193909101906001016108a5565b50505050565b600081518084526108e58160208601602086016109fa565b601f01601f19169290920160200192915050565b602081526000825161036060208401526109176103808401826108cd565b90506020840151601f198085840301604086015261093583836108cd565b92506040860151915061094c606086018315159052565b606086015160808601526080860151915061097260a08601836001600160a01b03169052565b60a08601519150808584030160c086015261098d8383610867565b925060c08601519150808584030160e0860152506109ab8282610867565b91505060e08401516109c16101008501826108a1565b509392505050565b604051601f8201601f1916810167ffffffffffffffff811182821017156109f2576109f2610a4d565b604052919050565b60005b83811015610a155781810151838201526020016109fd565b838111156108c75750506000910152565b6000600019821415610a4657634e487b7160e01b81526011600452602481fd5b5060010190565b634e487b7160e01b600052604160045260246000fdfea2646970667358221220997c5c665a42e3387adde1731341d59bf4ae0511d8b198064ec4442b361c1b6164736f6c63430008040033",
    "sourcePath": "/Users/nenadpalinkasevic/Documents/code/CryptoJingles/wrapper/contracts/JingleView.sol",
    "compiler": {
        "name": "solc",
        "version": "0.8.4+commit.c7e474f2"
    },
    "functionHashes": {
        "MARKET_PLACE_V1()": "ac931539",
        "SAMPLE_V1_ADDR()": "a970b1c1",
        "getFullJingleData(uint256,uint8)": "c0d78b9a"
    },
    "gasEstimates": {
        "creation": {
            "codeDepositCost": "542600",
            "executionCost": "575",
            "totalCost": "543175"
        },
        "external": {
            "MARKET_PLACE_V1()": "205",
            "SAMPLE_V1_ADDR()": "183",
            "getFullJingleData(uint256,uint8)": "infinite"
        },
        "internal": {
            "getJingleAddr(enum JingleView.Version)": "77"
        }
    }
}