{
    "contractName": "WrappedJingle",
    "abi": [
        {
            "inputs": [],
            "stateMutability": "nonpayable",
            "type": "constructor"
        },
        {
            "anonymous": false,
            "inputs": [
                {
                    "indexed": true,
                    "internalType": "address",
                    "name": "owner",
                    "type": "address"
                },
                {
                    "indexed": true,
                    "internalType": "address",
                    "name": "approved",
                    "type": "address"
                },
                {
                    "indexed": true,
                    "internalType": "uint256",
                    "name": "tokenId",
                    "type": "uint256"
                }
            ],
            "name": "Approval",
            "type": "event"
        },
        {
            "anonymous": false,
            "inputs": [
                {
                    "indexed": true,
                    "internalType": "address",
                    "name": "owner",
                    "type": "address"
                },
                {
                    "indexed": true,
                    "internalType": "address",
                    "name": "operator",
                    "type": "address"
                },
                {
                    "indexed": false,
                    "internalType": "bool",
                    "name": "approved",
                    "type": "bool"
                }
            ],
            "name": "ApprovalForAll",
            "type": "event"
        },
        {
            "anonymous": false,
            "inputs": [
                {
                    "indexed": true,
                    "internalType": "address",
                    "name": "from",
                    "type": "address"
                },
                {
                    "indexed": true,
                    "internalType": "address",
                    "name": "to",
                    "type": "address"
                },
                {
                    "indexed": true,
                    "internalType": "uint256",
                    "name": "tokenId",
                    "type": "uint256"
                }
            ],
            "name": "Transfer",
            "type": "event"
        },
        {
            "anonymous": false,
            "inputs": [
                {
                    "indexed": true,
                    "internalType": "uint256",
                    "name": "",
                    "type": "uint256"
                },
                {
                    "indexed": false,
                    "internalType": "uint256",
                    "name": "",
                    "type": "uint256"
                },
                {
                    "indexed": false,
                    "internalType": "address",
                    "name": "",
                    "type": "address"
                }
            ],
            "name": "Unwrapped",
            "type": "event"
        },
        {
            "anonymous": false,
            "inputs": [
                {
                    "indexed": true,
                    "internalType": "uint256",
                    "name": "",
                    "type": "uint256"
                },
                {
                    "indexed": false,
                    "internalType": "uint256",
                    "name": "",
                    "type": "uint256"
                },
                {
                    "indexed": false,
                    "internalType": "address",
                    "name": "",
                    "type": "address"
                }
            ],
            "name": "Wrapped",
            "type": "event"
        },
        {
            "inputs": [],
            "name": "NUM_V0_JINGLES",
            "outputs": [
                {
                    "internalType": "uint256",
                    "name": "",
                    "type": "uint256"
                }
            ],
            "stateMutability": "view",
            "type": "function"
        },
        {
            "inputs": [
                {
                    "internalType": "address",
                    "name": "to",
                    "type": "address"
                },
                {
                    "internalType": "uint256",
                    "name": "tokenId",
                    "type": "uint256"
                }
            ],
            "name": "approve",
            "outputs": [],
            "stateMutability": "nonpayable",
            "type": "function"
        },
        {
            "inputs": [
                {
                    "internalType": "address",
                    "name": "owner",
                    "type": "address"
                }
            ],
            "name": "balanceOf",
            "outputs": [
                {
                    "internalType": "uint256",
                    "name": "",
                    "type": "uint256"
                }
            ],
            "stateMutability": "view",
            "type": "function"
        },
        {
            "inputs": [],
            "name": "baseTokenURI",
            "outputs": [
                {
                    "internalType": "string",
                    "name": "",
                    "type": "string"
                }
            ],
            "stateMutability": "pure",
            "type": "function"
        },
        {
            "inputs": [],
            "name": "contractURI",
            "outputs": [
                {
                    "internalType": "string",
                    "name": "",
                    "type": "string"
                }
            ],
            "stateMutability": "pure",
            "type": "function"
        },
        {
            "inputs": [
                {
                    "internalType": "uint256",
                    "name": "tokenId",
                    "type": "uint256"
                }
            ],
            "name": "getApproved",
            "outputs": [
                {
                    "internalType": "address",
                    "name": "",
                    "type": "address"
                }
            ],
            "stateMutability": "view",
            "type": "function"
        },
        {
            "inputs": [
                {
                    "internalType": "address",
                    "name": "owner",
                    "type": "address"
                },
                {
                    "internalType": "address",
                    "name": "operator",
                    "type": "address"
                }
            ],
            "name": "isApprovedForAll",
            "outputs": [
                {
                    "internalType": "bool",
                    "name": "",
                    "type": "bool"
                }
            ],
            "stateMutability": "view",
            "type": "function"
        },
        {
            "inputs": [
                {
                    "internalType": "uint256",
                    "name": "",
                    "type": "uint256"
                }
            ],
            "name": "isWrapped",
            "outputs": [
                {
                    "internalType": "uint256",
                    "name": "",
                    "type": "uint256"
                }
            ],
            "stateMutability": "view",
            "type": "function"
        },
        {
            "inputs": [],
            "name": "name",
            "outputs": [
                {
                    "internalType": "string",
                    "name": "",
                    "type": "string"
                }
            ],
            "stateMutability": "view",
            "type": "function"
        },
        {
            "inputs": [
                {
                    "internalType": "uint256",
                    "name": "tokenId",
                    "type": "uint256"
                }
            ],
            "name": "ownerOf",
            "outputs": [
                {
                    "internalType": "address",
                    "name": "",
                    "type": "address"
                }
            ],
            "stateMutability": "view",
            "type": "function"
        },
        {
            "inputs": [
                {
                    "internalType": "address",
                    "name": "from",
                    "type": "address"
                },
                {
                    "internalType": "address",
                    "name": "to",
                    "type": "address"
                },
                {
                    "internalType": "uint256",
                    "name": "tokenId",
                    "type": "uint256"
                }
            ],
            "name": "safeTransferFrom",
            "outputs": [],
            "stateMutability": "nonpayable",
            "type": "function"
        },
        {
            "inputs": [
                {
                    "internalType": "address",
                    "name": "from",
                    "type": "address"
                },
                {
                    "internalType": "address",
                    "name": "to",
                    "type": "address"
                },
                {
                    "internalType": "uint256",
                    "name": "tokenId",
                    "type": "uint256"
                },
                {
                    "internalType": "bytes",
                    "name": "_data",
                    "type": "bytes"
                }
            ],
            "name": "safeTransferFrom",
            "outputs": [],
            "stateMutability": "nonpayable",
            "type": "function"
        },
        {
            "inputs": [
                {
                    "internalType": "address",
                    "name": "operator",
                    "type": "address"
                },
                {
                    "internalType": "bool",
                    "name": "approved",
                    "type": "bool"
                }
            ],
            "name": "setApprovalForAll",
            "outputs": [],
            "stateMutability": "nonpayable",
            "type": "function"
        },
        {
            "inputs": [
                {
                    "internalType": "bytes4",
                    "name": "interfaceId",
                    "type": "bytes4"
                }
            ],
            "name": "supportsInterface",
            "outputs": [
                {
                    "internalType": "bool",
                    "name": "",
                    "type": "bool"
                }
            ],
            "stateMutability": "view",
            "type": "function"
        },
        {
            "inputs": [],
            "name": "symbol",
            "outputs": [
                {
                    "internalType": "string",
                    "name": "",
                    "type": "string"
                }
            ],
            "stateMutability": "view",
            "type": "function"
        },
        {
            "inputs": [
                {
                    "internalType": "uint256",
                    "name": "",
                    "type": "uint256"
                },
                {
                    "internalType": "address",
                    "name": "",
                    "type": "address"
                }
            ],
            "name": "tokenMap",
            "outputs": [
                {
                    "internalType": "uint256",
                    "name": "tokenId",
                    "type": "uint256"
                },
                {
                    "internalType": "bool",
                    "name": "isWrapped",
                    "type": "bool"
                }
            ],
            "stateMutability": "view",
            "type": "function"
        },
        {
            "inputs": [
                {
                    "internalType": "uint256",
                    "name": "_tokenId",
                    "type": "uint256"
                }
            ],
            "name": "tokenURI",
            "outputs": [
                {
                    "internalType": "string",
                    "name": "",
                    "type": "string"
                }
            ],
            "stateMutability": "pure",
            "type": "function"
        },
        {
            "inputs": [
                {
                    "internalType": "address",
                    "name": "from",
                    "type": "address"
                },
                {
                    "internalType": "address",
                    "name": "to",
                    "type": "address"
                },
                {
                    "internalType": "uint256",
                    "name": "tokenId",
                    "type": "uint256"
                }
            ],
            "name": "transferFrom",
            "outputs": [],
            "stateMutability": "nonpayable",
            "type": "function"
        },
        {
            "inputs": [
                {
                    "internalType": "uint256",
                    "name": "_wrappedTokenId",
                    "type": "uint256"
                },
                {
                    "internalType": "enum WrappedJingle.Version",
                    "name": "_version",
                    "type": "uint8"
                }
            ],
            "name": "unwrap",
            "outputs": [],
            "stateMutability": "nonpayable",
            "type": "function"
        },
        {
            "inputs": [
                {
                    "internalType": "uint256",
                    "name": "_tokenId",
                    "type": "uint256"
                },
                {
                    "internalType": "enum WrappedJingle.Version",
                    "name": "_version",
                    "type": "uint8"
                }
            ],
            "name": "wrap",
            "outputs": [],
            "stateMutability": "nonpayable",
            "type": "function"
        }
    ],
    "bytecode": "60806040523480156200001157600080fd5b50604080518082018252600d81526c577261707065644a696e676c6560981b60208083019182528351808501909452600384526215d29360ea1b908401528151919291620000629160009162000081565b5080516200007890600190602084019062000081565b50505062000164565b8280546200008f9062000127565b90600052602060002090601f016020900481019282620000b35760008555620000fe565b82601f10620000ce57805160ff1916838001178555620000fe565b82800160010185558215620000fe579182015b82811115620000fe578251825591602001919060010190620000e1565b506200010c92915062000110565b5090565b5b808211156200010c576000815560010162000111565b600181811c908216806200013c57607f821691505b602082108114156200015e57634e487b7160e01b600052602260045260246000fd5b50919050565b611bd480620001746000396000f3fe608060405234801561001057600080fd5b506004361061012c5760003560e01c8063902f5e3a116100ad578063b88d4fde11610071578063b88d4fde146102bb578063c87b56dd146102ce578063d547cfb7146102e1578063e8a3d485146102e9578063e985e9c5146102f157600080fd5b8063902f5e3a1461026557806395d89b4114610285578063a09ecfbc1461028d578063a22cb465146102a0578063b44da9e8146102b357600080fd5b806321292e3d116100f457806321292e3d146101f857806323b872dd1461020b57806342842e0e1461021e5780636352211e1461023157806370a082311461024457600080fd5b806301ffc9a71461013157806306fdde0314610159578063081812fc1461016e578063095ea7b31461019957806313ac7898146101ae575b600080fd5b61014461013f3660046117f3565b610304565b60405190151581526020015b60405180910390f35b610161610356565b604051610150919061192c565b61018161017c36600461182d565b6103e8565b6040516001600160a01b039091168152602001610150565b6101ac6101a73660046117c7565b610482565b005b6101e36101bc366004611846565b60086020908152600092835260408084209091529082529020805460019091015460ff1682565b60408051928352901515602083015201610150565b6101ac61020636600461186b565b610598565b6101ac610219366004611673565b610770565b6101ac61022c366004611673565b6107a1565b61018161023f36600461182d565b6107bc565b6102576102523660046115f9565b610833565b604051908152602001610150565b61025761027336600461182d565b60096020526000908152604090205481565b6101616108ba565b6101ac61029b36600461186b565b6108c9565b6101ac6102ae366004611794565b610ae0565b610257603781565b6101ac6102c93660046116b4565b610ba5565b6101616102dc36600461182d565b610bdd565b610161610c17565b610161610c37565b6101446102ff36600461163a565b610c57565b60006001600160e01b031982166380ac58cd60e01b148061033557506001600160e01b03198216635b5e139f60e01b145b8061035057506301ffc9a760e01b6001600160e01b03198316145b92915050565b60606000805461036590611a51565b80601f016020809104026020016040519081016040528092919081815260200182805461039190611a51565b80156103de5780601f106103b3576101008083540402835291602001916103de565b820191906000526020600020905b8154815290600101906020018083116103c157829003601f168201915b5050505050905090565b6000818152600260205260408120546001600160a01b03166104665760405162461bcd60e51b815260206004820152602c60248201527f4552433732313a20617070726f76656420717565727920666f72206e6f6e657860448201526b34b9ba32b73a103a37b5b2b760a11b60648201526084015b60405180910390fd5b506000908152600460205260409020546001600160a01b031690565b600061048d826107bc565b9050806001600160a01b0316836001600160a01b031614156104fb5760405162461bcd60e51b815260206004820152602160248201527f4552433732313a20617070726f76616c20746f2063757272656e74206f776e656044820152603960f91b606482015260840161045d565b336001600160a01b038216148061051757506105178133610c57565b6105895760405162461bcd60e51b815260206004820152603860248201527f4552433732313a20617070726f76652063616c6c6572206973206e6f74206f7760448201527f6e6572206e6f7220617070726f76656420666f7220616c6c0000000000000000606482015260840161045d565b6105938383610c85565b505050565b60006105a382610cf3565b905060006105b0846107bc565b90506001600160a01b03811633146105fc5760405162461bcd60e51b815260206004820152600f60248201526e2737ba103a37b5b2b71037bbb732b960891b604482015260640161045d565b61060584610d44565b60008481526008602090815260408083206001600160a01b03861684528252918290208251808401909352805483526001015460ff1615159082018190526106835760405162461bcd60e51b8152602060048201526011602482015270151bdad95b881b9bdd081ddc985c1c1959607a1b604482015260640161045d565b600060208281018281528783526008825260408084206001600160a01b038816808652935292839020845180825591516001909101805460ff191691151591909117905591516323b872dd60e01b81523060048201523360248201526044810192909252906323b872dd90606401600060405180830381600087803b15801561070b57600080fd5b505af115801561071f573d6000803e3d6000fd5b50508251604080519182526001600160a01b03871660208301528893507f175e3dad2e6c10f120d3216de54ebe7abeee5b7f33c8941af43e73a0315e4a809250015b60405180910390a25050505050565b61077a3382610d87565b6107965760405162461bcd60e51b815260040161045d90611991565b610593838383610e5e565b61059383838360405180602001604052806000815250610ba5565b6000818152600260205260408120546001600160a01b0316806103505760405162461bcd60e51b815260206004820152602960248201527f4552433732313a206f776e657220717565727920666f72206e6f6e657869737460448201526832b73a103a37b5b2b760b91b606482015260840161045d565b60006001600160a01b03821661089e5760405162461bcd60e51b815260206004820152602a60248201527f4552433732313a2062616c616e636520717565727920666f7220746865207a65604482015269726f206164647265737360b01b606482015260840161045d565b506001600160a01b031660009081526003602052604090205490565b60606001805461036590611a51565b60006108d482610cf3565b6040516331a9108f60e11b8152600481018590529091506000906001600160a01b03831690636352211e9060240160206040518083038186803b15801561091a57600080fd5b505afa15801561092e573d6000803e3d6000fd5b505050506040513d601f19601f82011682018060405250810190610952919061161d565b905061095e8484610ffe565b6109a05760405162461bcd60e51b81526020600482015260136024820152724f6e6c79206f6c64205630206a696e676c657360681b604482015260640161045d565b6001600160a01b03811633146109ea5760405162461bcd60e51b815260206004820152600f60248201526e2737ba103a37b5b2b71037bbb732b960891b604482015260640161045d565b6040516323b872dd60e01b8152336004820152306024820152604481018590526001600160a01b038316906323b872dd90606401600060405180830381600087803b158015610a3857600080fd5b505af1158015610a4c573d6000803e3d6000fd5b505050506000610a5a611033565b604080518082018252878152600160208083018281526000868152600883528581206001600160a01b038b168083529084529086902094518555905193909201805460ff19169315159390931790925582518981529182015291925082917ff90572efd1ab4fb9c6b9dabfd24d103ce15482a9ec0c50e0e32618708783b15b9101610761565b6001600160a01b038216331415610b395760405162461bcd60e51b815260206004820152601960248201527f4552433732313a20617070726f766520746f2063616c6c657200000000000000604482015260640161045d565b3360008181526005602090815260408083206001600160a01b03871680855290835292819020805460ff191686151590811790915590519081529192917f17307eab39ab6107e8899845ad3d59bd9653f200f220920489ca2b5937696c31910160405180910390a35050565b610baf3383610d87565b610bcb5760405162461bcd60e51b815260040161045d90611991565b610bd784848484611071565b50505050565b6060610be7610c17565b610bf0836110a4565b604051602001610c019291906118c0565b6040516020818303038152906040529050919050565b6060604051806060016040528060298152602001611b7660299139905090565b6060604051806060016040528060218152602001611b5560219139905090565b6001600160a01b03918216600090815260056020908152604080832093909416825291909152205460ff1690565b600081815260046020526040902080546001600160a01b0319166001600160a01b0384169081179091558190610cba826107bc565b6001600160a01b03167f8c5be1e5ebec7d5bd14f71427d1e84f3dd0314c0f7b2291e5b200ac8c7c3b92560405160405180910390a45050565b600080826001811115610d0857610d08611ae7565b1415610d295750735af7af54e8bc34b293e356ef11fffe51d6f9ae78919050565b50735b6660ca047cc351bfedca4fc864d0a88f551485919050565b610d4d816111a2565b60008181526006602052604090208054610d6690611a51565b159050610d84576000818152600660205260408120610d8491611526565b50565b6000818152600260205260408120546001600160a01b0316610e005760405162461bcd60e51b815260206004820152602c60248201527f4552433732313a206f70657261746f7220717565727920666f72206e6f6e657860448201526b34b9ba32b73a103a37b5b2b760a11b606482015260840161045d565b6000610e0b836107bc565b9050806001600160a01b0316846001600160a01b03161480610e465750836001600160a01b0316610e3b846103e8565b6001600160a01b0316145b80610e565750610e568185610c57565b949350505050565b826001600160a01b0316610e71826107bc565b6001600160a01b031614610ed95760405162461bcd60e51b815260206004820152602960248201527f4552433732313a207472616e73666572206f6620746f6b656e2074686174206960448201526839903737ba1037bbb760b91b606482015260840161045d565b6001600160a01b038216610f3b5760405162461bcd60e51b8152602060048201526024808201527f4552433732313a207472616e7366657220746f20746865207a65726f206164646044820152637265737360e01b606482015260840161045d565b610f46600082610c85565b6001600160a01b0383166000908152600360205260408120805460019290610f6f908490611a0e565b90915550506001600160a01b0382166000908152600360205260408120805460019290610f9d9084906119e2565b909155505060008181526002602052604080822080546001600160a01b0319166001600160a01b0386811691821790925591518493918716917fddf252ad1be2c89b69c2b068fc378daa952ba7f163c4a11628f55a4df523b3ef91a4505050565b60008082600181111561101357611013611ae7565b141561102a57603783111561102a57506000610350565b50600192915050565b6000611043600780546001019055565b600061104e60075490565b905061105a338261123d565b61106c8161106783610bdd565b61137f565b919050565b61107c848484610e5e565b61108884848484611419565b610bd75760405162461bcd60e51b815260040161045d9061193f565b6060816110c85750506040805180820190915260018152600360fc1b602082015290565b8160005b81156110f257806110dc81611a8c565b91506110eb9050600a836119fa565b91506110cc565b60008167ffffffffffffffff81111561110d5761110d611b13565b6040519080825280601f01601f191660200182016040528015611137576020820181803683370190505b5090505b8415610e565761114c600183611a0e565b9150611159600a86611aa7565b6111649060306119e2565b60f81b81838151811061117957611179611afd565b60200101906001600160f81b031916908160001a90535061119b600a866119fa565b945061113b565b60006111ad826107bc565b90506111ba600083610c85565b6001600160a01b03811660009081526003602052604081208054600192906111e3908490611a0e565b909155505060008281526002602052604080822080546001600160a01b0319169055518391906001600160a01b038416907fddf252ad1be2c89b69c2b068fc378daa952ba7f163c4a11628f55a4df523b3ef908390a45050565b6001600160a01b0382166112935760405162461bcd60e51b815260206004820181905260248201527f4552433732313a206d696e7420746f20746865207a65726f2061646472657373604482015260640161045d565b6000818152600260205260409020546001600160a01b0316156112f85760405162461bcd60e51b815260206004820152601c60248201527f4552433732313a20746f6b656e20616c7265616479206d696e74656400000000604482015260640161045d565b6001600160a01b03821660009081526003602052604081208054600192906113219084906119e2565b909155505060008181526002602052604080822080546001600160a01b0319166001600160a01b03861690811790915590518392907fddf252ad1be2c89b69c2b068fc378daa952ba7f163c4a11628f55a4df523b3ef908290a45050565b6000828152600260205260409020546001600160a01b03166113fa5760405162461bcd60e51b815260206004820152602e60248201527f45524337323155524953746f726167653a2055524920736574206f66206e6f6e60448201526d32bc34b9ba32b73a103a37b5b2b760911b606482015260840161045d565b6000828152600660209081526040909120825161059392840190611560565b60006001600160a01b0384163b1561151b57604051630a85bd0160e11b81526001600160a01b0385169063150b7a029061145d9033908990889088906004016118ef565b602060405180830381600087803b15801561147757600080fd5b505af19250505080156114a7575060408051601f3d908101601f191682019092526114a491810190611810565b60015b611501573d8080156114d5576040519150601f19603f3d011682016040523d82523d6000602084013e6114da565b606091505b5080516114f95760405162461bcd60e51b815260040161045d9061193f565b805181602001fd5b6001600160e01b031916630a85bd0160e11b149050610e56565b506001949350505050565b50805461153290611a51565b6000825580601f10611542575050565b601f016020900490600052602060002090810190610d8491906115e4565b82805461156c90611a51565b90600052602060002090601f01602090048101928261158e57600085556115d4565b82601f106115a757805160ff19168380011785556115d4565b828001600101855582156115d4579182015b828111156115d45782518255916020019190600101906115b9565b506115e09291506115e4565b5090565b5b808211156115e057600081556001016115e5565b60006020828403121561160b57600080fd5b813561161681611b29565b9392505050565b60006020828403121561162f57600080fd5b815161161681611b29565b6000806040838503121561164d57600080fd5b823561165881611b29565b9150602083013561166881611b29565b809150509250929050565b60008060006060848603121561168857600080fd5b833561169381611b29565b925060208401356116a381611b29565b929592945050506040919091013590565b600080600080608085870312156116ca57600080fd5b84356116d581611b29565b935060208501356116e581611b29565b925060408501359150606085013567ffffffffffffffff8082111561170957600080fd5b818701915087601f83011261171d57600080fd5b81358181111561172f5761172f611b13565b604051601f8201601f19908116603f0116810190838211818310171561175757611757611b13565b816040528281528a602084870101111561177057600080fd5b82602086016020830137600060208483010152809550505050505092959194509250565b600080604083850312156117a757600080fd5b82356117b281611b29565b91506020830135801515811461166857600080fd5b600080604083850312156117da57600080fd5b82356117e581611b29565b946020939093013593505050565b60006020828403121561180557600080fd5b813561161681611b3e565b60006020828403121561182257600080fd5b815161161681611b3e565b60006020828403121561183f57600080fd5b5035919050565b6000806040838503121561185957600080fd5b82359150602083013561166881611b29565b6000806040838503121561187e57600080fd5b8235915060208301356002811061166857600080fd5b600081518084526118ac816020860160208601611a25565b601f01601f19169290920160200192915050565b600083516118d2818460208801611a25565b8351908301906118e6818360208801611a25565b01949350505050565b6001600160a01b038581168252841660208201526040810183905260806060820181905260009061192290830184611894565b9695505050505050565b6020815260006116166020830184611894565b60208082526032908201527f4552433732313a207472616e7366657220746f206e6f6e20455243373231526560408201527131b2b4bb32b91034b6b83632b6b2b73a32b960711b606082015260800190565b60208082526031908201527f4552433732313a207472616e736665722063616c6c6572206973206e6f74206f6040820152701ddb995c881b9bdc88185c1c1c9bdd9959607a1b606082015260800190565b600082198211156119f5576119f5611abb565b500190565b600082611a0957611a09611ad1565b500490565b600082821015611a2057611a20611abb565b500390565b60005b83811015611a40578181015183820152602001611a28565b83811115610bd75750506000910152565b600181811c90821680611a6557607f821691505b60208210811415611a8657634e487b7160e01b600052602260045260246000fd5b50919050565b6000600019821415611aa057611aa0611abb565b5060010190565b600082611ab657611ab6611ad1565b500690565b634e487b7160e01b600052601160045260246000fd5b634e487b7160e01b600052601260045260246000fd5b634e487b7160e01b600052602160045260246000fd5b634e487b7160e01b600052603260045260246000fd5b634e487b7160e01b600052604160045260246000fd5b6001600160a01b0381168114610d8457600080fd5b6001600160e01b031981168114610d8457600080fdfe68747470733a2f2f63727970746f6a696e676c65732e6d652f6d6574616461746168747470733a2f2f63727970746f6a696e676c65732e6d652f777261707065642d6a696e676c65732fa264697066735822122028d88d0d0475e0b06912b05840d550b7daf2bc6365fc809a86d5df5ef618c10e64736f6c63430008060033",
    "sourcePath": "/Users/nenadpalinkasevic/Documents/code/CryptoJingles/wrapper/contracts/WrappedJingle.sol",
    "compiler": {
        "name": "solc",
        "version": "0.8.6+commit.11564f7e"
    },
    "functionHashes": {
        "NUM_V0_JINGLES()": "b44da9e8",
        "approve(address,uint256)": "095ea7b3",
        "balanceOf(address)": "70a08231",
        "baseTokenURI()": "d547cfb7",
        "contractURI()": "e8a3d485",
        "getApproved(uint256)": "081812fc",
        "isApprovedForAll(address,address)": "e985e9c5",
        "isWrapped(uint256)": "902f5e3a",
        "name()": "06fdde03",
        "ownerOf(uint256)": "6352211e",
        "safeTransferFrom(address,address,uint256)": "42842e0e",
        "safeTransferFrom(address,address,uint256,bytes)": "b88d4fde",
        "setApprovalForAll(address,bool)": "a22cb465",
        "supportsInterface(bytes4)": "01ffc9a7",
        "symbol()": "95d89b41",
        "tokenMap(uint256,address)": "13ac7898",
        "tokenURI(uint256)": "c87b56dd",
        "transferFrom(address,address,uint256)": "23b872dd",
        "unwrap(uint256,uint8)": "21292e3d",
        "wrap(uint256,uint8)": "a09ecfbc"
    },
    "gasEstimates": {
        "creation": {
            "codeDepositCost": "1424800",
            "executionCost": "infinite",
            "totalCost": "infinite"
        },
        "external": {
            "NUM_V0_JINGLES()": "306",
            "approve(address,uint256)": "infinite",
            "balanceOf(address)": "2694",
            "baseTokenURI()": "infinite",
            "contractURI()": "infinite",
            "getApproved(uint256)": "4760",
            "isApprovedForAll(address,address)": "infinite",
            "isWrapped(uint256)": "2461",
            "name()": "infinite",
            "ownerOf(uint256)": "2645",
            "safeTransferFrom(address,address,uint256)": "infinite",
            "safeTransferFrom(address,address,uint256,bytes)": "infinite",
            "setApprovalForAll(address,bool)": "26711",
            "supportsInterface(bytes4)": "534",
            "symbol()": "infinite",
            "tokenMap(uint256,address)": "4873",
            "tokenURI(uint256)": "infinite",
            "transferFrom(address,address,uint256)": "infinite",
            "unwrap(uint256,uint8)": "infinite",
            "wrap(uint256,uint8)": "infinite"
        },
        "internal": {
            "getJingleAddr(enum WrappedJingle.Version)": "86",
            "mintNewToken()": "infinite",
            "wrapCheck(uint256,enum WrappedJingle.Version)": "115"
        }
    }
}