{
    "contractName": "WrappedJingle",
    "abi": [
        {
            "inputs": [],
            "stateMutability": "nonpayable",
            "type": "constructor"
        },
        {
            "anonymous": false,
            "inputs": [
                {
                    "indexed": true,
                    "internalType": "address",
                    "name": "owner",
                    "type": "address"
                },
                {
                    "indexed": true,
                    "internalType": "address",
                    "name": "approved",
                    "type": "address"
                },
                {
                    "indexed": true,
                    "internalType": "uint256",
                    "name": "tokenId",
                    "type": "uint256"
                }
            ],
            "name": "Approval",
            "type": "event"
        },
        {
            "anonymous": false,
            "inputs": [
                {
                    "indexed": true,
                    "internalType": "address",
                    "name": "owner",
                    "type": "address"
                },
                {
                    "indexed": true,
                    "internalType": "address",
                    "name": "operator",
                    "type": "address"
                },
                {
                    "indexed": false,
                    "internalType": "bool",
                    "name": "approved",
                    "type": "bool"
                }
            ],
            "name": "ApprovalForAll",
            "type": "event"
        },
        {
            "anonymous": false,
            "inputs": [
                {
                    "indexed": true,
                    "internalType": "address",
                    "name": "from",
                    "type": "address"
                },
                {
                    "indexed": true,
                    "internalType": "address",
                    "name": "to",
                    "type": "address"
                },
                {
                    "indexed": true,
                    "internalType": "uint256",
                    "name": "tokenId",
                    "type": "uint256"
                }
            ],
            "name": "Transfer",
            "type": "event"
        },
        {
            "anonymous": false,
            "inputs": [
                {
                    "indexed": true,
                    "internalType": "uint256",
                    "name": "",
                    "type": "uint256"
                },
                {
                    "indexed": false,
                    "internalType": "uint256",
                    "name": "",
                    "type": "uint256"
                },
                {
                    "indexed": false,
                    "internalType": "address",
                    "name": "",
                    "type": "address"
                }
            ],
            "name": "Unwrapped",
            "type": "event"
        },
        {
            "anonymous": false,
            "inputs": [
                {
                    "indexed": true,
                    "internalType": "uint256",
                    "name": "",
                    "type": "uint256"
                },
                {
                    "indexed": false,
                    "internalType": "uint256",
                    "name": "",
                    "type": "uint256"
                },
                {
                    "indexed": false,
                    "internalType": "address",
                    "name": "",
                    "type": "address"
                }
            ],
            "name": "Wrapped",
            "type": "event"
        },
        {
            "inputs": [],
            "name": "NUM_V0_JINGLES",
            "outputs": [
                {
                    "internalType": "uint256",
                    "name": "",
                    "type": "uint256"
                }
            ],
            "stateMutability": "view",
            "type": "function"
        },
        {
            "inputs": [
                {
                    "internalType": "address",
                    "name": "to",
                    "type": "address"
                },
                {
                    "internalType": "uint256",
                    "name": "tokenId",
                    "type": "uint256"
                }
            ],
            "name": "approve",
            "outputs": [],
            "stateMutability": "nonpayable",
            "type": "function"
        },
        {
            "inputs": [
                {
                    "internalType": "address",
                    "name": "owner",
                    "type": "address"
                }
            ],
            "name": "balanceOf",
            "outputs": [
                {
                    "internalType": "uint256",
                    "name": "",
                    "type": "uint256"
                }
            ],
            "stateMutability": "view",
            "type": "function"
        },
        {
            "inputs": [],
            "name": "baseTokenURI",
            "outputs": [
                {
                    "internalType": "string",
                    "name": "",
                    "type": "string"
                }
            ],
            "stateMutability": "pure",
            "type": "function"
        },
        {
            "inputs": [],
            "name": "contractURI",
            "outputs": [
                {
                    "internalType": "string",
                    "name": "",
                    "type": "string"
                }
            ],
            "stateMutability": "pure",
            "type": "function"
        },
        {
            "inputs": [
                {
                    "internalType": "uint256",
                    "name": "tokenId",
                    "type": "uint256"
                }
            ],
            "name": "getApproved",
            "outputs": [
                {
                    "internalType": "address",
                    "name": "",
                    "type": "address"
                }
            ],
            "stateMutability": "view",
            "type": "function"
        },
        {
            "inputs": [
                {
                    "internalType": "address",
                    "name": "owner",
                    "type": "address"
                },
                {
                    "internalType": "address",
                    "name": "operator",
                    "type": "address"
                }
            ],
            "name": "isApprovedForAll",
            "outputs": [
                {
                    "internalType": "bool",
                    "name": "",
                    "type": "bool"
                }
            ],
            "stateMutability": "view",
            "type": "function"
        },
        {
            "inputs": [],
            "name": "name",
            "outputs": [
                {
                    "internalType": "string",
                    "name": "",
                    "type": "string"
                }
            ],
            "stateMutability": "view",
            "type": "function"
        },
        {
            "inputs": [
                {
                    "internalType": "uint256",
                    "name": "tokenId",
                    "type": "uint256"
                }
            ],
            "name": "ownerOf",
            "outputs": [
                {
                    "internalType": "address",
                    "name": "",
                    "type": "address"
                }
            ],
            "stateMutability": "view",
            "type": "function"
        },
        {
            "inputs": [
                {
                    "internalType": "address",
                    "name": "from",
                    "type": "address"
                },
                {
                    "internalType": "address",
                    "name": "to",
                    "type": "address"
                },
                {
                    "internalType": "uint256",
                    "name": "tokenId",
                    "type": "uint256"
                }
            ],
            "name": "safeTransferFrom",
            "outputs": [],
            "stateMutability": "nonpayable",
            "type": "function"
        },
        {
            "inputs": [
                {
                    "internalType": "address",
                    "name": "from",
                    "type": "address"
                },
                {
                    "internalType": "address",
                    "name": "to",
                    "type": "address"
                },
                {
                    "internalType": "uint256",
                    "name": "tokenId",
                    "type": "uint256"
                },
                {
                    "internalType": "bytes",
                    "name": "_data",
                    "type": "bytes"
                }
            ],
            "name": "safeTransferFrom",
            "outputs": [],
            "stateMutability": "nonpayable",
            "type": "function"
        },
        {
            "inputs": [
                {
                    "internalType": "address",
                    "name": "operator",
                    "type": "address"
                },
                {
                    "internalType": "bool",
                    "name": "approved",
                    "type": "bool"
                }
            ],
            "name": "setApprovalForAll",
            "outputs": [],
            "stateMutability": "nonpayable",
            "type": "function"
        },
        {
            "inputs": [
                {
                    "internalType": "bytes4",
                    "name": "interfaceId",
                    "type": "bytes4"
                }
            ],
            "name": "supportsInterface",
            "outputs": [
                {
                    "internalType": "bool",
                    "name": "",
                    "type": "bool"
                }
            ],
            "stateMutability": "view",
            "type": "function"
        },
        {
            "inputs": [],
            "name": "symbol",
            "outputs": [
                {
                    "internalType": "string",
                    "name": "",
                    "type": "string"
                }
            ],
            "stateMutability": "view",
            "type": "function"
        },
        {
            "inputs": [
                {
                    "internalType": "uint256",
                    "name": "",
                    "type": "uint256"
                },
                {
                    "internalType": "address",
                    "name": "",
                    "type": "address"
                }
            ],
            "name": "tokenMap",
            "outputs": [
                {
                    "internalType": "uint256",
                    "name": "tokenId",
                    "type": "uint256"
                },
                {
                    "internalType": "bool",
                    "name": "isWrapped",
                    "type": "bool"
                }
            ],
            "stateMutability": "view",
            "type": "function"
        },
        {
            "inputs": [
                {
                    "internalType": "uint256",
                    "name": "_tokenId",
                    "type": "uint256"
                }
            ],
            "name": "tokenURI",
            "outputs": [
                {
                    "internalType": "string",
                    "name": "",
                    "type": "string"
                }
            ],
            "stateMutability": "pure",
            "type": "function"
        },
        {
            "inputs": [
                {
                    "internalType": "address",
                    "name": "from",
                    "type": "address"
                },
                {
                    "internalType": "address",
                    "name": "to",
                    "type": "address"
                },
                {
                    "internalType": "uint256",
                    "name": "tokenId",
                    "type": "uint256"
                }
            ],
            "name": "transferFrom",
            "outputs": [],
            "stateMutability": "nonpayable",
            "type": "function"
        },
        {
            "inputs": [
                {
                    "internalType": "uint256",
                    "name": "_wrappedTokenId",
                    "type": "uint256"
                },
                {
                    "internalType": "enum WrappedJingle.Version",
                    "name": "_version",
                    "type": "uint8"
                }
            ],
            "name": "unwrap",
            "outputs": [],
            "stateMutability": "nonpayable",
            "type": "function"
        },
        {
            "inputs": [
                {
                    "internalType": "uint256",
                    "name": "_tokenId",
                    "type": "uint256"
                },
                {
                    "internalType": "enum WrappedJingle.Version",
                    "name": "_version",
                    "type": "uint8"
                }
            ],
            "name": "wrap",
            "outputs": [],
            "stateMutability": "nonpayable",
            "type": "function"
        }
    ],
    "bytecode": "60806040523480156200001157600080fd5b50604080518082018252600d81526c577261707065644a696e676c6560981b60208083019182528351808501909452600384526215d29360ea1b908401528151919291620000629160009162000081565b5080516200007890600190602084019062000081565b50505062000164565b8280546200008f9062000127565b90600052602060002090601f016020900481019282620000b35760008555620000fe565b82601f10620000ce57805160ff1916838001178555620000fe565b82800160010185558215620000fe579182015b82811115620000fe578251825591602001919060010190620000e1565b506200010c92915062000110565b5090565b5b808211156200010c576000815560010162000111565b600181811c908216806200013c57607f821691505b602082108114156200015e57634e487b7160e01b600052602260045260246000fd5b50919050565b611ba980620001746000396000f3fe608060405234801561001057600080fd5b50600436106101215760003560e01c806370a08231116100ad578063b88d4fde11610071578063b88d4fde14610290578063c87b56dd146102a3578063d547cfb7146102b6578063e8a3d485146102be578063e985e9c5146102c657600080fd5b806370a082311461023957806395d89b411461025a578063a09ecfbc14610262578063a22cb46514610275578063b44da9e81461028857600080fd5b806313ac7898116100f457806313ac7898146101a357806321292e3d146101ed57806323b872dd1461020057806342842e0e146102135780636352211e1461022657600080fd5b806301ffc9a71461012657806306fdde031461014e578063081812fc14610163578063095ea7b31461018e575b600080fd5b6101396101343660046117c8565b6102d9565b60405190151581526020015b60405180910390f35b61015661032b565b6040516101459190611901565b610176610171366004611802565b6103bd565b6040516001600160a01b039091168152602001610145565b6101a161019c36600461179c565b610457565b005b6101d86101b136600461181b565b60086020908152600092835260408084209091529082529020805460019091015460ff1682565b60408051928352901515602083015201610145565b6101a16101fb366004611840565b61056d565b6101a161020e366004611648565b610745565b6101a1610221366004611648565b610776565b610176610234366004611802565b610791565b61024c6102473660046115ce565b610808565b604051908152602001610145565b61015661088f565b6101a1610270366004611840565b61089e565b6101a1610283366004611769565b610ab5565b61024c603681565b6101a161029e366004611689565b610b7a565b6101566102b1366004611802565b610bb2565b610156610bec565b610156610c0c565b6101396102d436600461160f565b610c2c565b60006001600160e01b031982166380ac58cd60e01b148061030a57506001600160e01b03198216635b5e139f60e01b145b8061032557506301ffc9a760e01b6001600160e01b03198316145b92915050565b60606000805461033a90611a26565b80601f016020809104026020016040519081016040528092919081815260200182805461036690611a26565b80156103b35780601f10610388576101008083540402835291602001916103b3565b820191906000526020600020905b81548152906001019060200180831161039657829003601f168201915b5050505050905090565b6000818152600260205260408120546001600160a01b031661043b5760405162461bcd60e51b815260206004820152602c60248201527f4552433732313a20617070726f76656420717565727920666f72206e6f6e657860448201526b34b9ba32b73a103a37b5b2b760a11b60648201526084015b60405180910390fd5b506000908152600460205260409020546001600160a01b031690565b600061046282610791565b9050806001600160a01b0316836001600160a01b031614156104d05760405162461bcd60e51b815260206004820152602160248201527f4552433732313a20617070726f76616c20746f2063757272656e74206f776e656044820152603960f91b6064820152608401610432565b336001600160a01b03821614806104ec57506104ec8133610c2c565b61055e5760405162461bcd60e51b815260206004820152603860248201527f4552433732313a20617070726f76652063616c6c6572206973206e6f74206f7760448201527f6e6572206e6f7220617070726f76656420666f7220616c6c00000000000000006064820152608401610432565b6105688383610c5a565b505050565b600061057882610cc8565b9050600061058584610791565b90506001600160a01b03811633146105d15760405162461bcd60e51b815260206004820152600f60248201526e2737ba103a37b5b2b71037bbb732b960891b6044820152606401610432565b6105da84610d19565b60008481526008602090815260408083206001600160a01b03861684528252918290208251808401909352805483526001015460ff1615159082018190526106585760405162461bcd60e51b8152602060048201526011602482015270151bdad95b881b9bdd081ddc985c1c1959607a1b6044820152606401610432565b600060208281018281528783526008825260408084206001600160a01b038816808652935292839020845180825591516001909101805460ff191691151591909117905591516323b872dd60e01b81523060048201523360248201526044810192909252906323b872dd90606401600060405180830381600087803b1580156106e057600080fd5b505af11580156106f4573d6000803e3d6000fd5b50508251604080519182526001600160a01b03871660208301528893507f175e3dad2e6c10f120d3216de54ebe7abeee5b7f33c8941af43e73a0315e4a809250015b60405180910390a25050505050565b61074f3382610d5c565b61076b5760405162461bcd60e51b815260040161043290611966565b610568838383610e33565b61056883838360405180602001604052806000815250610b7a565b6000818152600260205260408120546001600160a01b0316806103255760405162461bcd60e51b815260206004820152602960248201527f4552433732313a206f776e657220717565727920666f72206e6f6e657869737460448201526832b73a103a37b5b2b760b91b6064820152608401610432565b60006001600160a01b0382166108735760405162461bcd60e51b815260206004820152602a60248201527f4552433732313a2062616c616e636520717565727920666f7220746865207a65604482015269726f206164647265737360b01b6064820152608401610432565b506001600160a01b031660009081526003602052604090205490565b60606001805461033a90611a26565b60006108a982610cc8565b6040516331a9108f60e11b8152600481018590529091506000906001600160a01b03831690636352211e9060240160206040518083038186803b1580156108ef57600080fd5b505afa158015610903573d6000803e3d6000fd5b505050506040513d601f19601f8201168201806040525081019061092791906115f2565b90506109338484610fd3565b6109755760405162461bcd60e51b81526020600482015260136024820152724f6e6c79206f6c64205630206a696e676c657360681b6044820152606401610432565b6001600160a01b03811633146109bf5760405162461bcd60e51b815260206004820152600f60248201526e2737ba103a37b5b2b71037bbb732b960891b6044820152606401610432565b6040516323b872dd60e01b8152336004820152306024820152604481018590526001600160a01b038316906323b872dd90606401600060405180830381600087803b158015610a0d57600080fd5b505af1158015610a21573d6000803e3d6000fd5b505050506000610a2f611008565b604080518082018252878152600160208083018281526000868152600883528581206001600160a01b038b168083529084529086902094518555905193909201805460ff19169315159390931790925582518981529182015291925082917ff90572efd1ab4fb9c6b9dabfd24d103ce15482a9ec0c50e0e32618708783b15b9101610736565b6001600160a01b038216331415610b0e5760405162461bcd60e51b815260206004820152601960248201527f4552433732313a20617070726f766520746f2063616c6c6572000000000000006044820152606401610432565b3360008181526005602090815260408083206001600160a01b03871680855290835292819020805460ff191686151590811790915590519081529192917f17307eab39ab6107e8899845ad3d59bd9653f200f220920489ca2b5937696c31910160405180910390a35050565b610b843383610d5c565b610ba05760405162461bcd60e51b815260040161043290611966565b610bac84848484611046565b50505050565b6060610bbc610bec565b610bc583611079565b604051602001610bd6929190611895565b6040516020818303038152906040529050919050565b6060604051806060016040528060298152602001611b4b60299139905090565b6060604051806060016040528060218152602001611b2a60219139905090565b6001600160a01b03918216600090815260056020908152604080832093909416825291909152205460ff1690565b600081815260046020526040902080546001600160a01b0319166001600160a01b0384169081179091558190610c8f82610791565b6001600160a01b03167f8c5be1e5ebec7d5bd14f71427d1e84f3dd0314c0f7b2291e5b200ac8c7c3b92560405160405180910390a45050565b600080826001811115610cdd57610cdd611abc565b1415610cfe5750735af7af54e8bc34b293e356ef11fffe51d6f9ae78919050565b50735b6660ca047cc351bfedca4fc864d0a88f551485919050565b610d2281611177565b60008181526006602052604090208054610d3b90611a26565b159050610d59576000818152600660205260408120610d59916114fb565b50565b6000818152600260205260408120546001600160a01b0316610dd55760405162461bcd60e51b815260206004820152602c60248201527f4552433732313a206f70657261746f7220717565727920666f72206e6f6e657860448201526b34b9ba32b73a103a37b5b2b760a11b6064820152608401610432565b6000610de083610791565b9050806001600160a01b0316846001600160a01b03161480610e1b5750836001600160a01b0316610e10846103bd565b6001600160a01b0316145b80610e2b5750610e2b8185610c2c565b949350505050565b826001600160a01b0316610e4682610791565b6001600160a01b031614610eae5760405162461bcd60e51b815260206004820152602960248201527f4552433732313a207472616e73666572206f6620746f6b656e2074686174206960448201526839903737ba1037bbb760b91b6064820152608401610432565b6001600160a01b038216610f105760405162461bcd60e51b8152602060048201526024808201527f4552433732313a207472616e7366657220746f20746865207a65726f206164646044820152637265737360e01b6064820152608401610432565b610f1b600082610c5a565b6001600160a01b0383166000908152600360205260408120805460019290610f449084906119e3565b90915550506001600160a01b0382166000908152600360205260408120805460019290610f729084906119b7565b909155505060008181526002602052604080822080546001600160a01b0319166001600160a01b0386811691821790925591518493918716917fddf252ad1be2c89b69c2b068fc378daa952ba7f163c4a11628f55a4df523b3ef91a4505050565b600080826001811115610fe857610fe8611abc565b1415610fff576036831115610fff57506000610325565b50600192915050565b6000611018600780546001019055565b600061102360075490565b905061102f3382611212565b6110418161103c83610bb2565b611354565b919050565b611051848484610e33565b61105d848484846113ee565b610bac5760405162461bcd60e51b815260040161043290611914565b60608161109d5750506040805180820190915260018152600360fc1b602082015290565b8160005b81156110c757806110b181611a61565b91506110c09050600a836119cf565b91506110a1565b60008167ffffffffffffffff8111156110e2576110e2611ae8565b6040519080825280601f01601f19166020018201604052801561110c576020820181803683370190505b5090505b8415610e2b576111216001836119e3565b915061112e600a86611a7c565b6111399060306119b7565b60f81b81838151811061114e5761114e611ad2565b60200101906001600160f81b031916908160001a905350611170600a866119cf565b9450611110565b600061118282610791565b905061118f600083610c5a565b6001600160a01b03811660009081526003602052604081208054600192906111b89084906119e3565b909155505060008281526002602052604080822080546001600160a01b0319169055518391906001600160a01b038416907fddf252ad1be2c89b69c2b068fc378daa952ba7f163c4a11628f55a4df523b3ef908390a45050565b6001600160a01b0382166112685760405162461bcd60e51b815260206004820181905260248201527f4552433732313a206d696e7420746f20746865207a65726f20616464726573736044820152606401610432565b6000818152600260205260409020546001600160a01b0316156112cd5760405162461bcd60e51b815260206004820152601c60248201527f4552433732313a20746f6b656e20616c7265616479206d696e746564000000006044820152606401610432565b6001600160a01b03821660009081526003602052604081208054600192906112f69084906119b7565b909155505060008181526002602052604080822080546001600160a01b0319166001600160a01b03861690811790915590518392907fddf252ad1be2c89b69c2b068fc378daa952ba7f163c4a11628f55a4df523b3ef908290a45050565b6000828152600260205260409020546001600160a01b03166113cf5760405162461bcd60e51b815260206004820152602e60248201527f45524337323155524953746f726167653a2055524920736574206f66206e6f6e60448201526d32bc34b9ba32b73a103a37b5b2b760911b6064820152608401610432565b6000828152600660209081526040909120825161056892840190611535565b60006001600160a01b0384163b156114f057604051630a85bd0160e11b81526001600160a01b0385169063150b7a02906114329033908990889088906004016118c4565b602060405180830381600087803b15801561144c57600080fd5b505af192505050801561147c575060408051601f3d908101601f19168201909252611479918101906117e5565b60015b6114d6573d8080156114aa576040519150601f19603f3d011682016040523d82523d6000602084013e6114af565b606091505b5080516114ce5760405162461bcd60e51b815260040161043290611914565b805181602001fd5b6001600160e01b031916630a85bd0160e11b149050610e2b565b506001949350505050565b50805461150790611a26565b6000825580601f10611517575050565b601f016020900490600052602060002090810190610d5991906115b9565b82805461154190611a26565b90600052602060002090601f01602090048101928261156357600085556115a9565b82601f1061157c57805160ff19168380011785556115a9565b828001600101855582156115a9579182015b828111156115a957825182559160200191906001019061158e565b506115b59291506115b9565b5090565b5b808211156115b557600081556001016115ba565b6000602082840312156115e057600080fd5b81356115eb81611afe565b9392505050565b60006020828403121561160457600080fd5b81516115eb81611afe565b6000806040838503121561162257600080fd5b823561162d81611afe565b9150602083013561163d81611afe565b809150509250929050565b60008060006060848603121561165d57600080fd5b833561166881611afe565b9250602084013561167881611afe565b929592945050506040919091013590565b6000806000806080858703121561169f57600080fd5b84356116aa81611afe565b935060208501356116ba81611afe565b925060408501359150606085013567ffffffffffffffff808211156116de57600080fd5b818701915087601f8301126116f257600080fd5b81358181111561170457611704611ae8565b604051601f8201601f19908116603f0116810190838211818310171561172c5761172c611ae8565b816040528281528a602084870101111561174557600080fd5b82602086016020830137600060208483010152809550505050505092959194509250565b6000806040838503121561177c57600080fd5b823561178781611afe565b91506020830135801515811461163d57600080fd5b600080604083850312156117af57600080fd5b82356117ba81611afe565b946020939093013593505050565b6000602082840312156117da57600080fd5b81356115eb81611b13565b6000602082840312156117f757600080fd5b81516115eb81611b13565b60006020828403121561181457600080fd5b5035919050565b6000806040838503121561182e57600080fd5b82359150602083013561163d81611afe565b6000806040838503121561185357600080fd5b8235915060208301356002811061163d57600080fd5b600081518084526118818160208601602086016119fa565b601f01601f19169290920160200192915050565b600083516118a78184602088016119fa565b8351908301906118bb8183602088016119fa565b01949350505050565b6001600160a01b03858116825284166020820152604081018390526080606082018190526000906118f790830184611869565b9695505050505050565b6020815260006115eb6020830184611869565b60208082526032908201527f4552433732313a207472616e7366657220746f206e6f6e20455243373231526560408201527131b2b4bb32b91034b6b83632b6b2b73a32b960711b606082015260800190565b60208082526031908201527f4552433732313a207472616e736665722063616c6c6572206973206e6f74206f6040820152701ddb995c881b9bdc88185c1c1c9bdd9959607a1b606082015260800190565b600082198211156119ca576119ca611a90565b500190565b6000826119de576119de611aa6565b500490565b6000828210156119f5576119f5611a90565b500390565b60005b83811015611a155781810151838201526020016119fd565b83811115610bac5750506000910152565b600181811c90821680611a3a57607f821691505b60208210811415611a5b57634e487b7160e01b600052602260045260246000fd5b50919050565b6000600019821415611a7557611a75611a90565b5060010190565b600082611a8b57611a8b611aa6565b500690565b634e487b7160e01b600052601160045260246000fd5b634e487b7160e01b600052601260045260246000fd5b634e487b7160e01b600052602160045260246000fd5b634e487b7160e01b600052603260045260246000fd5b634e487b7160e01b600052604160045260246000fd5b6001600160a01b0381168114610d5957600080fd5b6001600160e01b031981168114610d5957600080fdfe68747470733a2f2f63727970746f6a696e676c65732e6d652f6d6574616461746168747470733a2f2f63727970746f6a696e676c65732e6d652f777261707065642d6a696e676c65732fa2646970667358221220f9094888a7660d76cc9bbdb2de36c7e44691a9c1834739c833d863f1e4ce1d6e64736f6c63430008060033",
    "sourcePath": "/Users/nenadpalinkasevic/Documents/code/CryptoJingles/wrapper/contracts/WrappedJingle.sol",
    "compiler": {
        "name": "solc",
        "version": "0.8.6+commit.11564f7e"
    },
    "functionHashes": {
        "NUM_V0_JINGLES()": "b44da9e8",
        "approve(address,uint256)": "095ea7b3",
        "balanceOf(address)": "70a08231",
        "baseTokenURI()": "d547cfb7",
        "contractURI()": "e8a3d485",
        "getApproved(uint256)": "081812fc",
        "isApprovedForAll(address,address)": "e985e9c5",
        "name()": "06fdde03",
        "ownerOf(uint256)": "6352211e",
        "safeTransferFrom(address,address,uint256)": "42842e0e",
        "safeTransferFrom(address,address,uint256,bytes)": "b88d4fde",
        "setApprovalForAll(address,bool)": "a22cb465",
        "supportsInterface(bytes4)": "01ffc9a7",
        "symbol()": "95d89b41",
        "tokenMap(uint256,address)": "13ac7898",
        "tokenURI(uint256)": "c87b56dd",
        "transferFrom(address,address,uint256)": "23b872dd",
        "unwrap(uint256,uint8)": "21292e3d",
        "wrap(uint256,uint8)": "a09ecfbc"
    },
    "gasEstimates": {
        "creation": {
            "codeDepositCost": "1416200",
            "executionCost": "infinite",
            "totalCost": "infinite"
        },
        "external": {
            "NUM_V0_JINGLES()": "306",
            "approve(address,uint256)": "infinite",
            "balanceOf(address)": "2606",
            "baseTokenURI()": "infinite",
            "contractURI()": "infinite",
            "getApproved(uint256)": "4760",
            "isApprovedForAll(address,address)": "infinite",
            "name()": "infinite",
            "ownerOf(uint256)": "2667",
            "safeTransferFrom(address,address,uint256)": "infinite",
            "safeTransferFrom(address,address,uint256,bytes)": "infinite",
            "setApprovalForAll(address,bool)": "26711",
            "supportsInterface(bytes4)": "534",
            "symbol()": "infinite",
            "tokenMap(uint256,address)": "4784",
            "tokenURI(uint256)": "infinite",
            "transferFrom(address,address,uint256)": "infinite",
            "unwrap(uint256,uint8)": "infinite",
            "wrap(uint256,uint8)": "infinite"
        },
        "internal": {
            "getJingleAddr(enum WrappedJingle.Version)": "86",
            "mintNewToken()": "infinite",
            "wrapCheck(uint256,enum WrappedJingle.Version)": "115"
        }
    }
}