{
  "_format": "hh-sol-artifact-1",
  "contractName": "JingleViewV0",
  "sourceName": "contracts/JingleViewV0.sol",
  "abi": [
    {
      "inputs": [],
      "name": "JINGLE_V0_ADDR",
      "outputs": [
        {
          "internalType": "address",
          "name": "",
          "type": "address"
        }
      ],
      "stateMutability": "view",
      "type": "function"
    },
    {
      "inputs": [],
      "name": "MARKET_PLACE_V0",
      "outputs": [
        {
          "internalType": "address",
          "name": "",
          "type": "address"
        }
      ],
      "stateMutability": "view",
      "type": "function"
    },
    {
      "inputs": [],
      "name": "SAMPLE_V0_ADDR",
      "outputs": [
        {
          "internalType": "address",
          "name": "",
          "type": "address"
        }
      ],
      "stateMutability": "view",
      "type": "function"
    },
    {
      "inputs": [
        {
          "internalType": "uint256",
          "name": "_jingleId",
          "type": "uint256"
        }
      ],
      "name": "getFullJingleData",
      "outputs": [
        {
          "components": [
            {
              "internalType": "uint256",
              "name": "id",
              "type": "uint256"
            },
            {
              "internalType": "string",
              "name": "name",
              "type": "string"
            },
            {
              "internalType": "string",
              "name": "author",
              "type": "string"
            },
            {
              "internalType": "bool",
              "name": "onSale",
              "type": "bool"
            },
            {
              "internalType": "uint256",
              "name": "price",
              "type": "uint256"
            },
            {
              "internalType": "address",
              "name": "owner",
              "type": "address"
            },
            {
              "internalType": "uint256[]",
              "name": "sampleIds",
              "type": "uint256[]"
            },
            {
              "internalType": "uint256[]",
              "name": "sampleTypes",
              "type": "uint256[]"
            }
          ],
          "internalType": "struct JingleViewV0.JingleData",
          "name": "",
          "type": "tuple"
        }
      ],
      "stateMutability": "view",
      "type": "function"
    },
    {
      "inputs": [
        {
          "internalType": "address",
          "name": "_user",
          "type": "address"
        }
      ],
      "name": "getFullJingleDataForUser",
      "outputs": [
        {
          "components": [
            {
              "internalType": "uint256",
              "name": "id",
              "type": "uint256"
            },
            {
              "internalType": "string",
              "name": "name",
              "type": "string"
            },
            {
              "internalType": "string",
              "name": "author",
              "type": "string"
            },
            {
              "internalType": "bool",
              "name": "onSale",
              "type": "bool"
            },
            {
              "internalType": "uint256",
              "name": "price",
              "type": "uint256"
            },
            {
              "internalType": "address",
              "name": "owner",
              "type": "address"
            },
            {
              "internalType": "uint256[]",
              "name": "sampleIds",
              "type": "uint256[]"
            },
            {
              "internalType": "uint256[]",
              "name": "sampleTypes",
              "type": "uint256[]"
            }
          ],
          "internalType": "struct JingleViewV0.JingleData[]",
          "name": "jingles",
          "type": "tuple[]"
        }
      ],
      "stateMutability": "view",
      "type": "function"
    },
    {
      "inputs": [],
      "name": "getJinglesOnSale",
      "outputs": [
        {
          "components": [
            {
              "internalType": "uint256",
              "name": "id",
              "type": "uint256"
            },
            {
              "internalType": "string",
              "name": "name",
              "type": "string"
            },
            {
              "internalType": "string",
              "name": "author",
              "type": "string"
            },
            {
              "internalType": "bool",
              "name": "onSale",
              "type": "bool"
            },
            {
              "internalType": "uint256",
              "name": "price",
              "type": "uint256"
            },
            {
              "internalType": "address",
              "name": "owner",
              "type": "address"
            },
            {
              "internalType": "uint256[]",
              "name": "sampleIds",
              "type": "uint256[]"
            },
            {
              "internalType": "uint256[]",
              "name": "sampleTypes",
              "type": "uint256[]"
            }
          ],
          "internalType": "struct JingleViewV0.JingleData[]",
          "name": "jinglesOnSale",
          "type": "tuple[]"
        }
      ],
      "stateMutability": "view",
      "type": "function"
    },
    {
      "inputs": [
        {
          "internalType": "uint256",
          "name": "_page",
          "type": "uint256"
        },
        {
          "internalType": "uint256",
          "name": "_perPage",
          "type": "uint256"
        }
      ],
      "name": "getPaginatedJingles",
      "outputs": [
        {
          "components": [
            {
              "internalType": "uint256",
              "name": "id",
              "type": "uint256"
            },
            {
              "internalType": "string",
              "name": "name",
              "type": "string"
            },
            {
              "internalType": "string",
              "name": "author",
              "type": "string"
            },
            {
              "internalType": "bool",
              "name": "onSale",
              "type": "bool"
            },
            {
              "internalType": "uint256",
              "name": "price",
              "type": "uint256"
            },
            {
              "internalType": "address",
              "name": "owner",
              "type": "address"
            },
            {
              "internalType": "uint256[]",
              "name": "sampleIds",
              "type": "uint256[]"
            },
            {
              "internalType": "uint256[]",
              "name": "sampleTypes",
              "type": "uint256[]"
            }
          ],
          "internalType": "struct JingleViewV0.JingleData[]",
          "name": "",
          "type": "tuple[]"
        }
      ],
      "stateMutability": "view",
      "type": "function"
    },
    {
      "inputs": [
        {
          "internalType": "address",
          "name": "_owner",
          "type": "address"
        }
      ],
      "name": "getSamplesForUser",
      "outputs": [
        {
          "components": [
            {
              "internalType": "uint256",
              "name": "sampleId",
              "type": "uint256"
            },
            {
              "internalType": "uint256",
              "name": "sampleType",
              "type": "uint256"
            }
          ],
          "internalType": "struct JingleViewV0.SampleData[]",
          "name": "samples",
          "type": "tuple[]"
        }
      ],
      "stateMutability": "view",
      "type": "function"
    }
  ],
  "bytecode": "0x608060405234801561001057600080fd5b50611bd7806100206000396000f3fe608060405234801561001057600080fd5b50600436106100885760003560e01c80637e79190e1161005b5780637e79190e146101295780637f42c6dc14610159578063c063feff14610177578063c60a1faa1461019557610088565b80630cee7eff1461008d57806324afd274146100bd5780633a39d5ef146100ed5780634fb955bd1461010b575b600080fd5b6100a760048036038101906100a29190611323565b6101c5565b6040516100b491906117c2565b60405180910390f35b6100d760048036038101906100d291906111fb565b610651565b6040516100e491906117a0565b60405180910390f35b6100f561090f565b604051610102919061177e565b60405180910390f35b610113610c47565b6040516101209190611763565b60405180910390f35b610143600480360381019061013e91906111fb565b610c5f565b604051610150919061177e565b60405180910390f35b610161610e3b565b60405161016e9190611763565b60405180910390f35b61017f610e53565b60405161018c9190611763565b60405180910390f35b6101af60048036038101906101aa9190611375565b610e6b565b6040516101bc919061177e565b60405180910390f35b6101cd610fa9565b6000735af7af54e8bc34b293e356ef11fffe51d6f9ae7890506000808273ffffffffffffffffffffffffffffffffffffffff166378533046866040518263ffffffff1660e01b815260040161022291906117e4565b60006040518083038186803b15801561023a57600080fd5b505afa15801561024e573d6000803e3d6000fd5b505050506040513d6000823e3d601f19601f82011682018060405250810190610277919061128e565b9150915060008373ffffffffffffffffffffffffffffffffffffffff1663085bcb34876040518263ffffffff1660e01b81526004016102b691906117e4565b60006040518083038186803b1580156102ce57600080fd5b505afa1580156102e2573d6000803e3d6000fd5b505050506040513d6000823e3d601f19601f8201168201806040525081019061030b919061124d565b90506000815167ffffffffffffffff811115610350577f4e487b7100000000000000000000000000000000000000000000000000000000600052604160045260246000fd5b60405190808252806020026020018201604052801561037e5781602001602082028036833780820191505090505b50905060005b82518110156104c057736ac9e08b3aa6b501e5fb29b3d65e4c12305ba72173ffffffffffffffffffffffffffffffffffffffff166376aed2e18483815181106103f6577f4e487b7100000000000000000000000000000000000000000000000000000000600052603260045260246000fd5b60200260200101516040518263ffffffff1660e01b815260040161041a91906117e4565b60206040518083038186803b15801561043257600080fd5b505afa158015610446573d6000803e3d6000fd5b505050506040513d601f19601f8201168201806040525081019061046a919061134c565b8282815181106104a3577f4e487b7100000000000000000000000000000000000000000000000000000000600052603260045260246000fd5b602002602001018181525050806104b990611aa4565b9050610384565b50600073b8e392da7abb836cff06d827531a7e5f1b00bed273ffffffffffffffffffffffffffffffffffffffff16634a8393f3896040518263ffffffff1660e01b815260040161051091906117e4565b60806040518083038186803b15801561052857600080fd5b505afa15801561053c573d6000803e3d6000fd5b505050506040513d601f19601f8201168201806040525081019061056091906112fa565b9050604051806101000160405280898152602001868152602001858152602001826060015115158152602001826000015181526020018773ffffffffffffffffffffffffffffffffffffffff16636352211e8b6040518263ffffffff1660e01b81526004016105cf91906117e4565b60206040518083038186803b1580156105e757600080fd5b505afa1580156105fb573d6000803e3d6000fd5b505050506040513d601f19601f8201168201806040525081019061061f9190611224565b73ffffffffffffffffffffffffffffffffffffffff168152602001848152602001838152509650505050505050919050565b60606000736ac9e08b3aa6b501e5fb29b3d65e4c12305ba72173ffffffffffffffffffffffffffffffffffffffff1663bff9e842846040518263ffffffff1660e01b81526004016106a29190611763565b60006040518083038186803b1580156106ba57600080fd5b505afa1580156106ce573d6000803e3d6000fd5b505050506040513d6000823e3d601f19601f820116820180604052508101906106f7919061124d565b9050805167ffffffffffffffff81111561073a577f4e487b7100000000000000000000000000000000000000000000000000000000600052604160045260246000fd5b60405190808252806020026020018201604052801561077357816020015b610760611006565b8152602001906001900390816107585790505b50915060005b82518110156109085760405180604001604052808383815181106107c6577f4e487b7100000000000000000000000000000000000000000000000000000000600052603260045260246000fd5b60200260200101518152602001736ac9e08b3aa6b501e5fb29b3d65e4c12305ba72173ffffffffffffffffffffffffffffffffffffffff166376aed2e185858151811061083c577f4e487b7100000000000000000000000000000000000000000000000000000000600052603260045260246000fd5b60200260200101516040518263ffffffff1660e01b815260040161086091906117e4565b60206040518083038186803b15801561087857600080fd5b505afa15801561088c573d6000803e3d6000fd5b505050506040513d601f19601f820116820180604052508101906108b0919061134c565b8152508382815181106108ec577f4e487b7100000000000000000000000000000000000000000000000000000000600052603260045260246000fd5b60200260200101819052508061090190611aa4565b9050610779565b5050919050565b6060600073b8e392da7abb836cff06d827531a7e5f1b00bed273ffffffffffffffffffffffffffffffffffffffff166345d537886040518163ffffffff1660e01b815260040160206040518083038186803b15801561096d57600080fd5b505afa158015610981573d6000803e3d6000fd5b505050506040513d601f19601f820116820180604052508101906109a5919061134c565b905060008167ffffffffffffffff8111156109e9577f4e487b7100000000000000000000000000000000000000000000000000000000600052604160045260246000fd5b604051908082528060200260200182016040528015610a175781602001602082028036833780820191505090505b50905060005b8151811015610b195773b8e392da7abb836cff06d827531a7e5f1b00bed273ffffffffffffffffffffffffffffffffffffffff1663fc76687c826040518263ffffffff1660e01b8152600401610a7391906117e4565b60206040518083038186803b158015610a8b57600080fd5b505afa158015610a9f573d6000803e3d6000fd5b505050506040513d601f19601f82011682018060405250810190610ac3919061134c565b828281518110610afc577f4e487b7100000000000000000000000000000000000000000000000000000000600052603260045260246000fd5b60200260200101818152505080610b1290611aa4565b9050610a1d565b50805167ffffffffffffffff811115610b5b577f4e487b7100000000000000000000000000000000000000000000000000000000600052604160045260246000fd5b604051908082528060200260200182016040528015610b9457816020015b610b81610fa9565b815260200190600190039081610b795790505b50925060005b8351811015610c4157610bec828281518110610bdf577f4e487b7100000000000000000000000000000000000000000000000000000000600052603260045260246000fd5b60200260200101516101c5565b848281518110610c25577f4e487b7100000000000000000000000000000000000000000000000000000000600052603260045260246000fd5b602002602001018190525080610c3a90611aa4565b9050610b9a565b50505090565b736ac9e08b3aa6b501e5fb29b3d65e4c12305ba72181565b60606000735af7af54e8bc34b293e356ef11fffe51d6f9ae78905060008173ffffffffffffffffffffffffffffffffffffffff166349ee2ae1856040518263ffffffff1660e01b8152600401610cb59190611763565b60006040518083038186803b158015610ccd57600080fd5b505afa158015610ce1573d6000803e3d6000fd5b505050506040513d6000823e3d601f19601f82011682018060405250810190610d0a919061124d565b9050805167ffffffffffffffff811115610d4d577f4e487b7100000000000000000000000000000000000000000000000000000000600052604160045260246000fd5b604051908082528060200260200182016040528015610d8657816020015b610d73610fa9565b815260200190600190039081610d6b5790505b50925060005b8351811015610e3357610dde828281518110610dd1577f4e487b7100000000000000000000000000000000000000000000000000000000600052603260045260246000fd5b60200260200101516101c5565b848281518110610e17577f4e487b7100000000000000000000000000000000000000000000000000000000600052603260045260246000fd5b602002602001018190525080610e2c90611aa4565b9050610d8c565b505050919050565b73b8e392da7abb836cff06d827531a7e5f1b00bed281565b735af7af54e8bc34b293e356ef11fffe51d6f9ae7881565b606060008267ffffffffffffffff811115610eaf577f4e487b7100000000000000000000000000000000000000000000000000000000600052604160045260246000fd5b604051908082528060200260200182016040528015610ee857816020015b610ed5610fa9565b815260200190600190039081610ecd5790505b50905060008385610ef9919061199e565b905060008482610f099190611948565b905082518111610f195780610f1c565b82515b90506000808390505b82811015610f9b57610f36816101c5565b858381518110610f6f577f4e487b7100000000000000000000000000000000000000000000000000000000600052603260045260246000fd5b60200260200101819052508180610f8590611aa4565b9250508080610f9390611aa4565b915050610f25565b508394505050505092915050565b60405180610100016040528060008152602001606081526020016060815260200160001515815260200160008152602001600073ffffffffffffffffffffffffffffffffffffffff16815260200160608152602001606081525090565b604051806040016040528060008152602001600081525090565b600061103361102e84611824565b6117ff565b9050808382526020820190508285602086028201111561105257600080fd5b60005b85811015611082578161106888826111e6565b845260208401935060208301925050600181019050611055565b5050509392505050565b600061109f61109a84611850565b6117ff565b9050828152602081018484840111156110b757600080fd5b6110c2848285611a40565b509392505050565b6000813590506110d981611b5c565b92915050565b6000815190506110ee81611b5c565b92915050565b600082601f83011261110557600080fd5b8151611115848260208601611020565b91505092915050565b60008151905061112d81611b73565b92915050565b600082601f83011261114457600080fd5b815161115484826020860161108c565b91505092915050565b60006080828403121561116f57600080fd5b61117960806117ff565b90506000611189848285016111e6565b600083015250602061119d848285016110df565b60208301525060406111b1848285016111e6565b60408301525060606111c58482850161111e565b60608301525092915050565b6000813590506111e081611b8a565b92915050565b6000815190506111f581611b8a565b92915050565b60006020828403121561120d57600080fd5b600061121b848285016110ca565b91505092915050565b60006020828403121561123657600080fd5b6000611244848285016110df565b91505092915050565b60006020828403121561125f57600080fd5b600082015167ffffffffffffffff81111561127957600080fd5b611285848285016110f4565b91505092915050565b600080604083850312156112a157600080fd5b600083015167ffffffffffffffff8111156112bb57600080fd5b6112c785828601611133565b925050602083015167ffffffffffffffff8111156112e457600080fd5b6112f085828601611133565b9150509250929050565b60006080828403121561130c57600080fd5b600061131a8482850161115d565b91505092915050565b60006020828403121561133557600080fd5b6000611343848285016111d1565b91505092915050565b60006020828403121561135e57600080fd5b600061136c848285016111e6565b91505092915050565b6000806040838503121561138857600080fd5b6000611396858286016111d1565b92505060206113a7858286016111d1565b9150509250929050565b60006113bd838361158c565b905092915050565b60006113d18383611716565b60408301905092915050565b60006113e98383611745565b60208301905092915050565b6113fe816119f8565b82525050565b61140d816119f8565b82525050565b600061141e826118b1565b6114288185611904565b93508360208202850161143a85611881565b8060005b85811015611476578484038952815161145785826113b1565b9450611462836118dd565b925060208a0199505060018101905061143e565b50829750879550505050505092915050565b6000611493826118bc565b61149d8185611915565b93506114a883611891565b8060005b838110156114d95781516114c088826113c5565b97506114cb836118ea565b9250506001810190506114ac565b5085935050505092915050565b60006114f1826118c7565b6114fb8185611926565b9350611506836118a1565b8060005b8381101561153757815161151e88826113dd565b9750611529836118f7565b92505060018101905061150a565b5085935050505092915050565b61154d81611a0a565b82525050565b600061155e826118d2565b6115688185611937565b9350611578818560208601611a40565b61158181611b4b565b840191505092915050565b6000610100830160008301516115a56000860182611745565b50602083015184820360208601526115bd8282611553565b915050604083015184820360408601526115d78282611553565b91505060608301516115ec6060860182611544565b5060808301516115ff6080860182611745565b5060a083015161161260a08601826113f5565b5060c083015184820360c086015261162a82826114e6565b91505060e083015184820360e086015261164482826114e6565b9150508091505092915050565b60006101008301600083015161166a6000860182611745565b50602083015184820360208601526116828282611553565b9150506040830151848203604086015261169c8282611553565b91505060608301516116b16060860182611544565b5060808301516116c46080860182611745565b5060a08301516116d760a08601826113f5565b5060c083015184820360c08601526116ef82826114e6565b91505060e083015184820360e086015261170982826114e6565b9150508091505092915050565b60408201600082015161172c6000850182611745565b50602082015161173f6020850182611745565b50505050565b61174e81611a36565b82525050565b61175d81611a36565b82525050565b60006020820190506117786000830184611404565b92915050565b600060208201905081810360008301526117988184611413565b905092915050565b600060208201905081810360008301526117ba8184611488565b905092915050565b600060208201905081810360008301526117dc8184611651565b905092915050565b60006020820190506117f96000830184611754565b92915050565b600061180961181a565b90506118158282611a73565b919050565b6000604051905090565b600067ffffffffffffffff82111561183f5761183e611b1c565b5b602082029050602081019050919050565b600067ffffffffffffffff82111561186b5761186a611b1c565b5b61187482611b4b565b9050602081019050919050565b6000819050602082019050919050565b6000819050602082019050919050565b6000819050602082019050919050565b600081519050919050565b600081519050919050565b600081519050919050565b600081519050919050565b6000602082019050919050565b6000602082019050919050565b6000602082019050919050565b600082825260208201905092915050565b600082825260208201905092915050565b600082825260208201905092915050565b600082825260208201905092915050565b600061195382611a36565b915061195e83611a36565b9250827fffffffffffffffffffffffffffffffffffffffffffffffffffffffffffffffff0382111561199357611992611aed565b5b828201905092915050565b60006119a982611a36565b91506119b483611a36565b9250817fffffffffffffffffffffffffffffffffffffffffffffffffffffffffffffffff04831182151516156119ed576119ec611aed565b5b828202905092915050565b6000611a0382611a16565b9050919050565b60008115159050919050565b600073ffffffffffffffffffffffffffffffffffffffff82169050919050565b6000819050919050565b60005b83811015611a5e578082015181840152602081019050611a43565b83811115611a6d576000848401525b50505050565b611a7c82611b4b565b810181811067ffffffffffffffff82111715611a9b57611a9a611b1c565b5b80604052505050565b6000611aaf82611a36565b91507fffffffffffffffffffffffffffffffffffffffffffffffffffffffffffffffff821415611ae257611ae1611aed565b5b600182019050919050565b7f4e487b7100000000000000000000000000000000000000000000000000000000600052601160045260246000fd5b7f4e487b7100000000000000000000000000000000000000000000000000000000600052604160045260246000fd5b6000601f19601f8301169050919050565b611b65816119f8565b8114611b7057600080fd5b50565b611b7c81611a0a565b8114611b8757600080fd5b50565b611b9381611a36565b8114611b9e57600080fd5b5056fea2646970667358221220705347900aa47c16ff6e2d49acb85cb62ac04613ba3133a9be3c9c493d0105e364736f6c63430008040033",
  "linkReferences": {},
  "deployedLinkReferences": {}
}